:100000000C9434000C9451000C9451000C94510049
:100010000C9451000C9451000C9451000C9451001C
:100020000C9451000C9451000C9451000C9451000C
:100030000C9451000C9451000C9451000C945100FC
:100040000C94CB070C9451000C9451000C9451006B
:100050000C9451000C9451000C9451000C945100DC
:100060000C9451000C94510011241FBECFEFD8E026
:10007000DEBFCDBF12E0A0E0B1E0ECEAFDE202C0DD
:1000800005900D92AE3CB107D9F723E0AEECB2E09B
:1000900001C01D92A731B207E1F70E94E5080C9458
:1000A000D4160C94000097B121E030E001C0220F7B
:1000B0008A95EAF72095292327B90895843251F0CB
:1000C000982F977F953131F0833421F0893211F0E8
:1000D0008A3509F480E09B012C5031092330310529
:1000E00028F490910101913009F4C5C5863109F4D5
:1000F000C2C5863209F4BFC5853209F4BCC58E324B
:1001000009F4B9C5882309F4B6C5FB013197EE306F
:10011000F10508F097C3E157FF4F0C94CE169D00F0
:10012000F20042018801D70123026902AC02EF020A
:100130003E038703D003D003D0038E3109F484C378
:100140008C3209F483C38D3209F482C3843309F4F9
:1001500081C38B3209F480C3833209F47FC38B31AE
:1001600009F47EC38C3109F47DC3853309F47CC363
:100170008C3309F47BC3843409F47AC38D3409F4D5
:1001800079C38A3209F478C3813209F477C38232A1
:1001900009F476C38A3109F475C3833309F474C34F
:1001A0008B3309F473C3823409F472C38B3409F4BA
:1001B00071C3823309F470C3813309F46FC38A3386
:1001C00009F46EC3863309F456C58D3309F453C55B
:1001D0008E3309F450C5863409F44DC5853409F0D1
:1001E00061C308958E3109F45FC38C3209F45EC394
:1001F0008D3209F45DC3843309F45CC38B3209F496
:100200005BC3833209F45AC38B3109F459C38C316F
:1002100009F458C3863309F457C38D3309F456C320
:100220008E3309F455C3853409F454C3853309F476
:1002300053C38C3309F452C3843409F451C38D344D
:1002400009F450C38A3209F44FC3813209F44EC312
:100250008A3109F44DC3833309F44CC38B3309F459
:100260004BC3823409F44AC38B3409F449C3823343
:1002700009F448C3813309F447C38A3309F446C3F8
:1002800080E008958E3109F443C38C3209F442C3EF
:100290008D3209F441C38B3109F440C3853309F42D
:1002A0003FC38C3309F43EC3843409F43DC38D3419
:1002B00009F43CC38A3209F43BC3813209F43AC3DE
:1002C0008A3109F439C3833309F438C38B3309F411
:1002D00037C3823409F436C38B3409F435C382330F
:1002E00009F434C3813309F433C38A3309F432C3C4
:1002F000863309F4C0C48D3309F4BDC48E3309F4C8
:10030000BAC4863409F4B7C4853409F025C3089506
:100310008E3109F423C38C3209F422C38D3209F4DF
:1003200021C38D3109F420C3853109F41FC3833201
:1003300009F41EC38B3109F41DC3853309F41CC3B2
:100340008C3309F41BC3843409F41AC38D3409F4C3
:1003500019C38A3209F418C3813209F417C38A31E8
:1003600009F416C3833309F415C38B3309F414C39A
:10037000823409F413C38B3409F412C3823309F4B1
:1003800011C3813309F410C38A3309F40FC38633D0
:1003900009F471C48D3309F46EC48E3309F46BC44F
:1003A000863409F468C4853409F002C308958E3197
:1003B00009F400C38C3209F4FFC28D3209F4FEC285
:1003C0008D3109F4FDC2853109F4FCC28B3109F489
:1003D000FBC28C3109F4FAC2843409F4F9C28D34B9
:1003E00009F4F8C28A3209F4F7C2813209F4F6C27C
:1003F000823209F4F5C28A3109F4F4C2833309F474
:10040000F3C28B3309F4F2C2823409F4F1C28B34A3
:1004100009F4F0C2823309F4EFC2813309F4EEC269
:100420008A3309F4EDC2863309F425C48D3309F407
:1004300022C48E3309F41FC4863409F41CC48534E5
:1004400009F0E0C208958E3109F4DEC28C3209F45D
:10045000DDC28D3209F4DCC2833209F4DBC285339C
:1004600009F4DAC28C3309F4D9C2843409F4D8C24D
:100470008D3409F4D7C28A3209F4D6C2813209F424
:10048000D5C2823209F4D4C28A3109F4D3C28B3383
:1004900009F4D2C2823409F4D1C28B3409F4D0C237
:1004A000823309F4CFC2813309F4CEC28A3309F40E
:1004B000CDC2863309F4DFC38D3309F4DCC38E3338
:1004C00009F4D9C3863409F4D6C3853409F0C0C20F
:1004D00008958C3209F4BEC28D3209F4BDC2863350
:1004E00009F4BCC28D3309F4BBC28E3309F4BAC21D
:1004F000863409F4B9C2853409F4B8C2853309F4E5
:10050000B7C28C3309F4B6C2843409F4B5C28D3451
:1005100009F4B4C28A3209F4B3C2813209F4B2C216
:100520008A3109F4B1C2833309F4B0C28B3309F4C0
:10053000AFC2823409F4AEC28B3409F4ADC2823347
:1005400009F4ACC2813309F4ABC28A3309F4AAC2FC
:100550008E3109F0A9C208958E3109F4A7C28C32F8
:1005600009F4A6C28D3209F4A5C28B3109F4A4C2E4
:10057000853309F4A3C28C3309F4A2C2843409F48C
:10058000A1C28D3409F4A0C28A3209F49FC281321B
:1005900009F49EC28A3109F49DC28B3309F49CC2CE
:1005A000823409F49BC28B3409F49AC2823309F471
:1005B00099C2813309F498C28A3309F497C2863309
:1005C00009F459C38D3309F456C38E3309F453C368
:1005D000863409F450C3853409F08AC208958C32F8
:1005E00009F488C28D3209F487C2843309F486C2C3
:1005F0008B3209F485C2833209F484C28B3109F449
:1006000083C2863309F482C28D3309F481C28E33EA
:1006100009F480C2863409F47FC2853309F47EC2AE
:100620008C3309F47DC2843409F47CC28D3409F41E
:100630007BC28A3209F47AC2813209F479C28232E9
:1006400009F478C28A3109F477C2833309F476C297
:100650008B3309F475C2823409F474C28B3409F403
:1006600073C2823309F472C2813309F471C28A33CE
:1006700009F470C2853409F06FC208958E3109F40F
:100680006DC28C3209F46CC28D3209F46BC28433B2
:1006900009F46AC28B3209F469C28C3109F468C268
:1006A0008D3309F467C2853409F466C2843409F4D1
:1006B00065C28D3409F464C28A3209F463C281329E
:1006C00009F462C2823209F461C28A3109F460C25B
:1006D000833309F45FC28B3309F45EC2823409F4B8
:1006E0005DC28B3409F45CC2823309F45BC281338E
:1006F00009F45AC28A3309F459C2863309F4BBC2D9
:100700008E3309F4B8C2863409F052C208958E318E
:1007100009F450C28C3209F44FC28D3209F44EC232
:100720008B3209F44DC2833209F44CC28D3309F483
:100730004BC2853409F44AC2853309F449C2843472
:1007400009F448C28D3409F447C28A3209F446C21A
:10075000813209F445C2823209F444C28A3109F473
:1007600043C2833309F442C28B3309F441C2823459
:1007700009F440C28B3409F43FC2823309F43EC20B
:10078000813309F43DC28A3309F43CC2863309F44B
:1007900072C28E3309F46FC2863409F035C20895EF
:1007A000853409F433C2863409F432C28E3309F435
:1007B00031C28D3309F430C2863309F42FC28C3232
:1007C00009F42EC28D3209F42DC2843309F42CC2EF
:1007D0008B3209F42BC2833209F42AC28B3109F41B
:1007E00029C28C3109F428C2853309F427C28C331D
:1007F00009F426C2843409F425C28D3409F424C2D4
:100800008A3209F423C2813209F422C28A3109F4FE
:1008100021C2833309F420C28B3309F41FC282340E
:1008200009F41EC28B3409F41DC2823309F41CC2C0
:10083000813309F41BC28A3309F41AC28E3109F0DC
:1008400019C2089580E0089584ED089589E408951B
:1008500081E408958DE508958BE5089581EE08956E
:1008600084E5089581E608958BED08958DED089552
:1008700082ED08958EE108958AEC08958AE4089542
:1008800085E508958CEC089585ED08958EEC089526
:1008900082E508958EE408958CE4089581EC08952E
:1008A00089EC089580E0089582E5089589E408952B
:1008B00081E4089584E508958EE808958DED089506
:1008C0008DE508958BE5089582ED08958CE40895F3
:1008D00085E4089585ED08958EE1089584ED0895E9
:1008E0008CEC08958EE308958AEC08958AE40895C7
:1008F00085E508958DE308958EEC08958EE00895C2
:1009000086E3089586E4089581EC089589EC0895BE
:1009100084ED089581E4089581E608958EE40895B4
:100920008CE4089582E5089582ED08958EE108959E
:100930008AEC08958AE408958CEC08958DED08956D
:100940008EEC089589E8089585ED08958BED08955E
:1009500081EE089581EC089580E008958EE3089576
:1009600085ED08958EEC089587E8089588EF089541
:1009700082E508958BE5089581E4089589E408955A
:100980008CEC08958EE108958AEC08958AE4089528
:100990008CE408958DE5089584ED089582ED089521
:1009A0008BED08958DED089581EC089589EC0895FF
:1009B00080E008958EE8089589E4089581E408951B
:1009C00087E8089587E0089581E608958EEC0895FC
:1009D0008CEC08958EE108958AEC08958AE40895D8
:1009E0008DE5089582ED089585ED08958DED0895C6
:1009F0008CE408958EE4089582E5089581EC0895CD
:100A000089EC089580E0089585E4089589E40895C7
:100A100081E408958DED089584E508958BED0895A2
:100A20008CEC08958EE108958AEC08958AE4089587
:100A300084E5089582ED08958EEC08958CE4089580
:100A40008EE4089582E5089581EC089589EC089577
:100A500080E0089589E4089581E408958DE3089580
:100A600082ED089586E4089585E408958EE408955E
:100A700084ED08958BED08958CEC089582E508953A
:100A80008AEC08958AE408958CE4089586E3089535
:100A90008EEC089585E5089585ED08958EE308951B
:100AA00081EC089589EC089580E0089584ED08951F
:100AB00081E4089581E6089585E508958CE408951C
:100AC00082E5089582ED08958EE108958AEC0895F7
:100AD0008AE408958CEC089585ED08958EEC0895D0
:100AE0008DED08958BED089581EE089581EC0895C4
:100AF00080E0089589E4089581E408958BE50895E0
:100B000084E508958DED08958DE508958DE30895AC
:100B100082ED089586E4089585E4089584ED0895AE
:100B20008BED08958CEC089582E508958AEC089584
:100B30008AE408958EE408958CE4089586E3089588
:100B40008EEC089585E5089585ED08958EE308956A
:100B500081EC089589EC089580E008958DE508956D
:100B600081E6089581EE08958DED089582ED089552
:100B70008CEC08958EEC08958AE4089581E408953C
:100B80008EE108958DE308958EE4089584ED08952F
:100B900089E4089584E508958AEC08958BED08951D
:100BA00085E408958BE5089581EC089589EC089516
:100BB00080E008958DED089581E6089581EE089511
:100BC00082E508958EE808958EEC08958AE40895EC
:100BD00084E5089581E408958EE108958DE30895F4
:100BE0008EE4089582ED089589E4089584ED0895D2
:100BF0008AEC08958BED089585E408958BE50895BA
:100C000081EC089589EC089580E008958EE40895BC
:100C100085E4089586E4089582ED08958DE30895AE
:100C200089E4089581E408958BE5089584E50895A5
:100C300081EE08958DE508958EE0089584ED089580
:100C40008BED08958CEC089582E508958AEC089563
:100C50008AE408958CE4089586E308958EEC08955F
:100C600085E5089585ED08958EE3089581EC089556
:100C700089EC089580E00895359B06C086B1829581
:100C8000817091E08927089581E00895282F6330CD
:100C900081F0643081F0623081F493B1892F90E06B
:100CA00002C0959587952A95E2F780959095817079
:100CB000089596B1F3CF99B1F1CF80E008956330F4
:100CC000B1F0643031F1623099F521E030E0B901E2
:100CD00002C0660F771F8A95E2F7CB0194B14423D7
:100CE00021F08095892384B90895892BFCCF21E0D8
:100CF00030E0B90102C0660F771F8A95E2F7CB0199
:100D000097B1442321F08095892387B90895892BD1
:100D1000FCCF21E030E0B90102C0660F771F8A9551
:100D2000E2F7CB019AB1442321F0809589238AB957
:100D30000895892BFCCF882331F095E19A95F1F73E
:100D400000008450F8CF0895EF92FF920F931F9305
:100D5000CF93DF93E82E0E943C068111FCCF3C9A92
:100D600080910001880F880F0E949B063D9A809118
:100D70000001880F880F880F0E949B0685E00E9463
:100D8000530080910001880F880F0E949B06D0E0DD
:100D9000C0E011E0F12C01E0C7010C2E02C09595D6
:100DA00087950A94E2F780FF63C084E00E945300B5
:100DB000102780910001880F880F0E949B063D9AA2
:100DC00080910001880F880F880F0E949B0685E0A4
:100DD0000E94530080910001880F880F0E949B069B
:100DE0002196C830D105C1F6112309F443C084E02F
:100DF0000E94530080910001880F880F0E949B067B
:100E00003D9A80910001880F880F880F0E949B06F1
:100E100085E00E94530080910001880F880F0E9496
:100E20009B0684E00E94530080910001880F880F88
:100E30000E949B063D9A80910001880F880F880FC1
:100E40000E949B0685E00E94530080910001880F5C
:100E5000880F0E949B0687EC90E00197F1F700C095
:100E60000000DF91CF911F910F91FF90EF900895B7
:100E70003C9A9FCF3C9ABECF0F931F93CF93DF93A3
:100E8000EC018091DF029091E002892B81F480EFE8
:100E90000E94A40682E10E94A4061092070380EF3C
:100EA0000E94A40684E10E94A406109212032FEF70
:100EB00081EE94E0215080409040E1F700C00000B6
:100EC00089E20E94A406EFEFF1EE24E0E150F04049
:100ED0002040E1F700C0000080EF0E94A40689E2F4
:100EE0000E94A4068FEF91EEE4E081509040E04034
:100EF000E1F700C0000089E40E94A406FFEF21EEA4
:100F000084E0F15020408040E1F700C0000080EF15
:100F10000E94A40689E40E94A4068E010F5F1F4F61
:100F2000888190E098012C1B3D0B821793074CF1B0
:100F30009FEFE1EEF4E09150E040F040E1F700C0B7
:100F40000000F80181918F010E94A406FFEF21EEBD
:100F500084E0F15020408040E1F700C0000080EFC5
:100F60000E94A406F801319780810E94A4069FEF99
:100F7000E1EEF4E09150E040F040E1F700C0000005
:100F8000CFCFC80FD91F898180930001DF91CF9106
:100F90001F910F9108951F920F920FB60F92112477
:100FA0002F933F938F939F93AF93BF938091E602CC
:100FB0009091E702A091E802B091E9023091E50238
:100FC00023E0230F2D3758F50196A11DB11D209365
:100FD000E5028093E6029093E702A093E802B093C3
:100FE000E9028091E1029091E202A091E302B091C6
:100FF000E4020196A11DB11D8093E1029093E202EB
:10100000A093E302B093E402BF91AF919F918F91BF
:101010003F912F910F900FBE0F901F90189526E8CB
:10102000230F0296A11DB11DD2CFCF92EF92FF9256
:101030000F931F93CF93DF93C82FD62F142FF22E29
:1010400080911603882331F02AE12A95F1F700C038
:1010500010921603002369F080910101823009F09B
:101060009FC082E10E94A406809116038F5F809347
:101070001603EE2081F080910101823009F092C0C8
:1010800080EE0E94A40684E10E94A40680911603CB
:101090008F5F80931603CC2069F08091010182302C
:1010A00009F085C081E10E94A406809116038F5F3C
:1010B0008093160380911603882331F08AE18A9584
:1010C000F1F700C010921603FF2019F080EE0E9485
:1010D000A406812F0E94A4069FEFE0E7F2E0915062
:1010E000E040F040E1F700C00000FF2019F080EE82
:1010F0000E94A40680910101823019F480EF0E94C1
:10110000A40680910101823009F053C0812F0E9412
:10111000A40625E0C29FB001112462517D4F6D0FDE
:10112000711DFB011082002359F080910101823072
:1011300009F042C080EF0E94A40682E10E94A4064A
:10114000EE2069F0809101018230C1F580EE0E94AD
:10115000A40680EF0E94A40684E10E94A406CC208D
:1011600051F080910101823071F580EF0E94A40658
:1011700081E10E94A406FAE1FA95F1F700C081E04E
:101180008093ED028093EC021092EB028093EA02CE
:10119000DF91CF911F910F91FF90EF90CF90089525
:1011A0008AE260CF80EE0E94A4068DE16DCF88E3D5
:1011B0007ACF80E8810FABCF8AEAC0CF80EE0E9461
:1011C000A4068DE9CACF88EBD4CFCF93DF93CDB7F8
:1011D000DEB762970FB6F894DEBF0FBECDBF78942E
:1011E00084B5826084BD84B5816084BD85B582602C
:1011F00085BD85B5816085BD80916E0081608093DD
:101200006E00109281008091810082608093810045
:101210008091810081608093810080918000816055
:10122000809380008091B10084608093B1008091B0
:10123000B00081608093B00080917A0084608093D8
:101240007A0080917A00826080937A0080917A009F
:10125000816080937A0080917A00806880937A0020
:101260001092C10080E88093610010926100449860
:10127000459884E00E94530085E00E945300259A1F
:101280002D987DEBC72E72E0D72EE3EBEE2EE2E039
:10129000FE2E88EB92E09E878D87AA24A394B12C22
:1012A000AD85BE850D91BE87AD87F70111917F0198
:1012B00041E0602F812F0E945F06033009F478C15E
:1012C000043009F47EC1023041F485B1950101C0BA
:1012D000220F1A95EAF7822B85B98D859E85C8164F
:1012E000D906F1F66DECE62E62E0F62E0DEB12E07B
:1012F000A5ECB2E0B88BAF87EF85F8896191F88BE8
:10130000EF8741E0D8018D918D010E945F06EF8546
:10131000F889EE16FF0681F785E0E2E0F1E0DE01F4
:10132000169601900D928A95E1F745E050E070E045
:1013300060E0CE0101960E949E16FE013196DE010C
:101340001696AD0121E0CD0161913D91631320E03E
:101350004E175F07C9F7222309F496C185E090E094
:101360000E94AE16082F10E01092DE021092D002FA
:1013700081E00115110529F00130110509F02AC19C
:1013800084E0809300010530110509F029C184E053
:10139000809300010A30110509F028C184E0809390
:1013A00000011093E0020093DF0286E090E00E94CB
:1013B000AE16833008F080E08093CF02222423947D
:1013C000312C11E0552453940E943C062091DF02F9
:1013D0003091E0028823B1F02C30310599F48091EE
:1013E000DE0281110C9486168091DA029091DB0264
:1013F000A091DC02B091DD02892B8A2B8B2B11F09E
:101400000C9486168091DA029091DB02A091DC02A6
:10141000B091DD020097A105B10509F073C12C3030
:10142000310589F58091D702882369F18091D50231
:101430009091D6029C012F5F3F4F3093D6022093AC
:10144000D502893E934020F4809101018230D9F485
:101450008091D3029091D4029C012F5F3F4F309333
:10146000D4022093D3028739910568F08091D2028B
:1014700081110E94A4068091D7020E94A4061092B6
:10148000D4021092D3021092ED028091ED028111EC
:1014900072C02EEEA22E22E0B22E3DEB632E32E081
:1014A000732E45ECC42E42E0D42EF601F1906F016C
:1014B000D3010D913D0140E06F2D802F0E945F060A
:1014C000B3E0FB1609F42AC1E4E0FE1609F430C1CA
:1014D000F2E0FF1209C025B1C10101C0880F0A95D1
:1014E000EAF78095822385B92AE12A95F1F700C0B1
:1014F000750183EB92E09C878B8798EB892E92E0B5
:10150000992ED4014D904D01EB85FC850191FC870E
:10151000EB87642D802F0E944606882309F41CC1A6
:10152000F5E3FA95F1F70000642D802F0E9446063E
:10153000D701882309F40AC18C9180FF03C182601E
:101540008C93FFEFEF1AFF0A8D859E85881599050C
:10155000C1F641E0F60131976081F3013197808156
:101560000E945F0695E0A90EB11CAF85B889CA1626
:10157000DB0609F09ACF8091EA02882309F4F3C0D0
:101580004EEE52E028E030E090E080E0FA01E80F13
:10159000F91F608160FD31E0019685309105B1F75A
:1015A00021504B5F5F4F2111EFCF3093EA026DCF97
:1015B00088B1950101C0220F1A95EAF7822B88B9EC
:1015C0008CCE8BB1950101C0220F1A95EAF7822BC0
:1015D0008BB983CE0230110569F484E08093000159
:1015E0000630110569F484E0809300010B30110589
:1015F00069F4D4CE03301105F1F484E08093000146
:1016000007301105B9F584E0809300010C30110515
:10161000B9F584E08093000181E08093DE021092AE
:10162000DA021092DB021092DC021092DD0282E0FC
:1016300080930101B6CE0430110509F0A4CE84E0F8
:10164000809300010930110509F0A4CE84E0809355
:1016500000010D30110509F0A4CE84E08093000153
:101660001092DE0281E0809301018EE091E00E9401
:101670003C0797CE0830110529F784E080930001DC
:101680000E30110531F7C5CF45E050E070E060E065
:101690000E94B61660E085E090E00E94C01661E00E
:1016A00086E090E00E94C01689CE8AEF0E94A406D0
:1016B0000C947516823F09F18F3F11F00C94861639
:1016C0008AEA0E94A4061092DE020C94861680918B
:1016D000D802803F11F00C948616809101010E947F
:1016E000A4060C9486169091D802903F11F00C94A9
:1016F0008616809301010C9486168BEA0E94A4063C
:1017000083E8EDCF0197A109B1098093DA029093A4
:10171000DB02A093DC02B093DD0281CE28B1C101CF
:1017200001C0880F0A95EAF78095822388B9DCCE3C
:101730002BB1C10101C0880F0A95EAF78095822379
:101740008BB9D2CE8160F7018083FBCE8C9180FF74
:10175000F8CE8C7F8460F4CEF701808180FFF1CEDB
:101760008C7F8460F1CF8091D102882309F4C5C0B9
:101770008091070382FF0EC0109207038091DF0261
:101780009091E002892B31F480EF0E94A40682E15F
:101790000E94A4068091120382FF0EC010921203D1
:1017A0008091DF029091E002892B31F480EF0E945A
:1017B000A40684E10E94A4060EEEA02E02E0B02E44
:1017C0008BE8882E82E0982E02E0D12CC12CF50106
:1017D000EC0DFD1D808180FF7AC0F401EC0DFD1D34
:1017E0007080E72CF12C4090DF026090E0021092B4
:1017F000DE021092D0028AE591E0E114F10431F0AA
:10180000B1E0EB16F104D9F485E591E00E943C07C4
:1018100085E0E816F104D9F48FE391E00E943C07DB
:1018200081E291E0FAE0EF16F104C9F40E943C076E
:10183000BEE0B71508F041C0E42CF62C3EC0E2E053
:10184000EE16F10499F480E591E00E943C0796E0E1
:10185000E916F104A1F488E391E00E943C072BE033
:10186000E216F104A9F488E191E0E0CFF3E0EF168D
:10187000F10409F0CBC38BE491E00E943C07A7E0A0
:10188000EA16F10409F0E8C381E391E00E943C0705
:101890008CE0E816F10409F0E7C35092DE021092E2
:1018A000DA021092DB021092DC021092DD02009349
:1018B000010184E191E00E943C075092ED025092B8
:1018C000EC021092D102F092E002E092DF02EFEF20
:1018D000CE1ADE0AF5E0CF16D10409F078CF25E064
:1018E000A20EB11C85E0880E911C96E1A91693E02A
:1018F000B90609F06ACF1093ED028091ED028111D3
:101900007DC38091070380FFE1C28091120380FFB5
:10191000DDC28091EC0281117BC68091DF02909143
:10192000E0020C970397C8F480910A0380FF07C078
:1019300081E09091D002911180E08093D00280915B
:101940000D0380FD1093EB02AFEFB3ECE9E0A15083
:10195000B040E040E1F700C000008091050380FF47
:1019600012C08091CF02813031F08091DF029091DE
:10197000E002892B41F01092DE021093D102109305
:10198000ED021093EA0280910101823009F079C5DD
:1019900080910F0380FF68C08091DF029091E00288
:1019A000892B09F061C08091CF028F5F833008F0EE
:1019B00080E08093CF0280EF0E94A40682E10E9423
:1019C000A4061092070380EF0E94A40684E10E94FF
:1019D000A4061092120380910101823009F040C0E8
:1019E000FFEF20E782E0F15020408040E1F700C0A7
:1019F000000089E20E94A4069FEFA0E7B2E09150A8
:101A0000A040B040E1F700C0000080EF0E94A406B3
:101A100089E20E94A406EFEFF0E722E0E150F040F7
:101A20002040E1F700C0000089E40E94A4068FEF87
:101A300090E7A2E081509040A040E1F700C0000094
:101A400080EF0E94A40689E40E94A4068091CF0240
:101A5000813009F44DC308F412C3823009F481C304
:101A60001093ED021093EC028091EE0280FF0DC006
:101A70008091CF02823049F0C12CE12C00E020E0BF
:101A800045E060E080E00E9415088091EF0280FF51
:101A90000DC08091CF02823049F0C12CE12C00E0D2
:101AA00020E046E061E080E00E9415088091F002AD
:101AB00080FF0DC08091CF02823049F0C12CE12C13
:101AC00000E020E044E062E080E00E9415088091A0
:101AD000F10280FF0DC08091CF02823049F0C12C0D
:101AE000E12C00E020E04CE063E080E00E9415087B
:101AF0008091F20280FF0DC08091CF02823049F0C8
:101B0000C12CE12C00E020E043E064E080E00E9492
:101B100015088091010380FF0DC08091CF028230B3
:101B200049F0C12CE12C00E020E04BE064E083E0D0
:101B30000E9415088091000380FF0DC08091CF02A4
:101B4000823049F0C12CE12C00E020E043E863E062
:101B500083E00E9415088091FF0280FF0DC08091F4
:101B6000CF02823049F0C12CE12C00E020E04AE0B5
:101B700062E083E00E9415088091FE0280FF0DC0A4
:101B80008091CF02823049F0C12CE12C00E020E0AE
:101B900041E061E083E00E9415088091FD0280FF32
:101BA0000DC08091CF02823049F0C12CE12C00E0C1
:101BB00020E049E060E083E00E9415088091F30294
:101BC00080FF0DC08091CF02823049F0C12CE12C02
:101BD00000E020E048E760E081E00E941508809185
:101BE000F40280FF0DC08091CF02823049F0C12CF9
:101BF000E12C00E020E047E061E081E00E94150870
:101C00008091F90280FF53C08091DF029091E00241
:101C1000009709F44CC00497D1F58AE00E94A4060D
:101C2000AFEFB0E7E2E0A150B040E040E1F700C024
:101C3000000089E00E94A406FFEF20E782E0F15057
:101C400020408040E1F700C0000080EF0E94A40621
:101C500089E00E94A4069FEFA3EDB0E39150A0405D
:101C6000B040E1F700C0000080EF0E94A4068AE0C7
:101C70000E94A406EFEFF0E722E0E150F0402040A0
:101C8000E1F700C000001093ED021093EC02809188
:101C9000DF029091E002039751F4C12CEE24E3940B
:101CA00000E020E047E061E082E00E9415088091BA
:101CB000F80280FF13C08091CF02813031F0809113
:101CC000DF029091E002892B49F0C12CE12C00E069
:101CD00020E049E060E082E00E9415088091060360
:101CE00080FF15C08091CF02823031F48091DF02F5
:101CF0009091E002892B59F0CC24C394EE24E39414
:101D000000E020E043E064E084E00E941508809158
:101D1000150380FF15C08091CF02823031F480918D
:101D2000DF029091E002892B59F0CC24C394EE2479
:101D3000E39400E020E046E664E087E00E941508B6
:101D40008091140380FF15C08091CF02823031F45E
:101D50008091DF029091E002892B59F0CC24C3944A
:101D6000EE24E39400E020E041E763E087E00E9496
:101D700015088091FC0280FF13C08091CF02823051
:101D800031F48091DF029091E002892B49F0C12C5F
:101D9000E12C00E020E04EE764E082E00E941508BC
:101DA00080910B0380FF0CC08091DF029091E002D4
:101DB0002091CF02213009F40DC2892B09F01CC2F9
:101DC0008091090380FF0CC08091DF029091E002B6
:101DD0002091CF02213009F4CAC2892B09F0D9C25F
:101DE0008091F50280FF0FC08091DF029091E002A8
:101DF000892B49F0C12CE12C00E021E04DE762E0A5
:101E000081E00E9415088091F60280FF0FC080914A
:101E1000DF029091E002892B49F0C12CE12C00E017
:101E200021E04AE763E081E00E9415088091FA0210
:101E300080FF0FC08091DF029091E002892B49F072
:101E4000C12CE12C01E021E04DE762E082E00E943C
:101E500015088091FB0280FF0FC08091DF029091F6
:101E6000E002892B49F0C12CE12C01E021E04AE796
:101E700063E082E00E9415088091100380FF0FC08C
:101E80008091DF029091E002892B49F0C12CE12C76
:101E900000E020E04BE764E086E00E9415088091B6
:101EA000130380FF0FC08091DF029091E002892B25
:101EB00049F0C12CE12C00E020E04CE762E087E033
:101EC0000E9415088091ED02811198C0909107033E
:101ED000892F81702091DF023091E002232B09F0DD
:101EE0009AC3882379F091FD0DC082E10E94A40677
:101EF00080910703826080930703809116038F5FB0
:101F0000809316038091120380FF0FC081FD0DC0E6
:101F100084E10E94A40680911203826080931203E0
:101F2000809116038F5F809316038091070382FFD1
:101F30000DC080EF0E94A40682E10E94A4061092C8
:101F40000703809116038F5F80931603809112031D
:101F500082FF0DC080EF0E94A40684E10E94A406C7
:101F600010921203809116038F5F80931603809165
:101F70001603882331F0AAE1AA95F1F700C0109268
:101F8000160393E6E92E92E0F92E2EEEA22E22E021
:101F9000B22E3501D12CC12C4301F301808180FF89
:101FA00008C081FD06C0F701EC0DFD1D80810E9477
:101FB000A406FFEF6F1A7F0AD4018C9182FF0CC038
:101FC00080EF0E94A406F701EC0DFD1D80810E94A8
:101FD000A406F30131971082BFEFCB1ADB0AE5E0CC
:101FE000CE16D104C9F6F5E0EF0EF11C25E0A20EE5
:101FF000B11C8BE892E08E159F0559F680E090E0C9
:10200000892B09F4E1C90E940000DEC924E0E21630
:10201000F10409F0FDCB84E491E00E943C07E9E083
:10202000EE16F10409F0FCCB86E291E00E943C0739
:10203000AEE0EA16F10409F0FBCB5092DE021092FA
:10204000DA021092DB021092DC021092DD020093A1
:10205000010187E091E02FCCB8E0EB16F104F9F62E
:102060008CE291E00E943C079DE0E916F10401F743
:102070001092DE02509201018EE091E01CCCA0E7AC
:10208000EA2EA1E0FA2EBFE7CB2EB1E0DB2EBFEFA8
:10209000E0E7F2E0B150E040F040E1F700C00000BE
:1020A000D7010D917D01802F0E94A406BFEFE0E7CC
:1020B000F2E0B150E040F040E1F700C0000080EFF6
:1020C0000E94A406802F0E94A4062FEF80E792E0D2
:1020D000215080409040E1F700C000006091CF02A5
:1020E00086E090E00E94C016CE14DF0481F6B8CCE2
:1020F000E4E6EE2EE1E0FE2EF0E7CF2EF1E0DF2E5B
:10210000AFEFB0E7E2E0A150B040E040E1F700C03F
:102110000000D7010D917D01802F0E94A406BFEF22
:10212000E0E7F2E0B150E040F040E1F700C000002D
:1021300080EF0E94A406802F0E94A4062FEF80E764
:1021400092E0215080409040E1F700C00000609193
:10215000CF0286E090E00E94C016CE14DF0481F624
:102160007FCC6EE5E62E61E0F62E74E6C72E71E0B8
:10217000D72EAFEFB0E7E2E0A150B040E040E1F78A
:1021800000C00000D7010D917D01802F0E94A406A0
:10219000BFEFE0E7F2E0B150E040F040E1F700C00F
:1021A000000080EF0E94A406802F0E94A4062FEF5B
:1021B00080E792E0215080409040E1F700C00000AD
:1021C0006091CF0286E090E00E94C016CE14DF043A
:1021D00081F646CC892B81F480EF0E94A40682E12F
:1021E0000E94A4061092070380EF0E94A40684E1D7
:1021F0000E94A4061092120389E20E94A4068FEFA7
:1022000090E7A2E081509040A040E1F700C00000BC
:1022100080EF0E94A40689E20E94A40659E8C52E18
:1022200051E0D52EF12CE12CB2E0EB16F10421F0B7
:10223000E4E0EE16F104D9F4FFEF20E782E0F1507C
:1022400020408040E1F700C0000089E40E94A4061D
:102250009FEFA0E7B2E09150A040B040E1F700C08E
:10226000000080EF0E94A40689E40E94A406EFEF1C
:10227000F0E722E0E150F0402040E1F700C000002C
:10228000D601ED916D01F0E0E158FE4F0081802F05
:102290000E94A406BFEFE0E7F2E0B150E040F0405A
:1022A000E1F700C0000080EF0E94A406802F0E948A
:1022B000A4062FEF80E792E0215080409040E1F7A4
:1022C00000C00000AFEFEA1AFA0AB8E0EB16F1041A
:1022D00009F0AACF89E20E94A406EFEFF0E722E01E
:1022E000E150F0402040E1F700C0000080EF0E9484
:1022F000A40689E20E94A4068DE20E94A4068FEF44
:1023000090E7A2E081509040A040E1F700C00000BB
:1023100080EF0E94A4068DE20E94A406BFEFE0E7D2
:10232000F2E0B150E040F040E1F700C0000086E18B
:102330000E94A4062FEF80E792E021508040904059
:10234000E1F700C0000080EF0E94A40686E10E9431
:10235000A406AFEFB0E7E2E0A150B040E040E1F703
:1023600000C000001093ED021093EC0229CD892BE0
:1023700081F480EF0E94A40682E10E94A4061092DC
:10238000070380EF0E94A40684E10E94A406109235
:1023900012036091DF0285E090E00E94C0168091F8
:1023A0000101823009F068C0FFEF20E782E0F150C0
:1023B00020408040E1F700C0000089E20E94A406AE
:1023C0009FEFA0E7B2E09150A040B040E1F700C01D
:1023D000000080EF0E94A40689E20E94A406EFEFAD
:1023E000F0E722E0E150F0402040E1F700C00000BB
:1023F00089E40E94A4068FEF90E7A2E0815090400C
:10240000A040E1F700C0000080EF0E94A40689E42C
:102410000E94A40631E9E32E31E0F32E4BE9C42EED
:1024200041E0D42EBFEFE0E7F2E0B150E040F040F1
:10243000E1F700C00000D7010D917D01802F0E94BF
:10244000A406BFEFE0E7F2E0B150E040F040E1F772
:1024500000C0000080EF0E94A406802F0E94A40606
:102460002FEF80E792E0215080409040E1F700C0DC
:102470000000CE14DF04B1F61093ED021093EC02CD
:10248000AFCC813009F01ECD8091EE0280FF0AC0F2
:10249000C090EB02E12C00E020E04BE360E080E044
:1024A0000E9415088091EF0280FF0AC0C090EB02E5
:1024B000E12C00E020E04CE361E080E00E941508A0
:1024C0008091F00280FF0AC0C090EB02E12C00E096
:1024D00020E04DE362E080E00E9415088091F10267
:1024E00080FF0AC0C090EB02E12C00E020E04EE348
:1024F00063E080E00E9415088091F20280FF0AC02C
:10250000C090EB02E12C00E020E04FE364E080E0CB
:102510000E9415088091010380FF0AC0C090EB0261
:10252000E12C00E020E040E464E083E00E94150834
:102530008091000380FF0AC0C090EB02E12C00E014
:1025400020E041E463E083E00E9415088091FF02EF
:1025500080FF0AC0C090EB02E12C00E020E042E4E2
:1025600062E083E00E9415088091FE0280FF0AC0AD
:10257000C090EB02E12C00E020E043E461E083E066
:102580000E9415088091FD0280FF0AC0C090EB02F6
:10259000E12C00E020E044E460E083E00E941508C4
:1025A0008091F30280FF0AC0C090EB02E12C00E0B2
:1025B00020E047E560E081E00E9415088091F40288
:1025C00080FF0AC0C090EB02E12C00E020E048E56B
:1025D00061E081E00E9415088091150380FF0BC027
:1025E000CC24C394EE24E39400E020E04EE064E0C9
:1025F00087E00E9415088091140380FF63CCCC24EF
:10260000C394EE24E39400E020E043E563E057CC7C
:102610001092EC0257CC3091CE0231114FC088237A
:1026200011F091FF06C08091120380FF16C081FD5A
:1026300014C04EEE52E020E090E080E0253081F5BD
:10264000811132C0019685309105C1F72F5F4B5F34
:102650005F4F283089F73093CE028EEEA82E82E0AD
:10266000B82E00E0612CD501AE5EB2407D0165015F
:10267000712CB5E06B122BC071102FC07394FFEF5B
:10268000CF1ADF0A2FEFE21AF20A85E07812F1CFB3
:10269000639495E0A90EB11CA8E06A12E4CFAECC19
:1026A000273011F4813071F2FA01E80FF91F6081CF
:1026B000762F717060FFC6CF372FC8CF8111CDCF75
:1026C0008091120380FDC9CF1092CE02C6CFE7E001
:1026D0006E1203C0F1E07F1689F2D6018C9180FF63
:1026E00020C181FD1EC19091CE0291110EC090912A
:1026F000070390FF02C088608C938091120380FFD3
:1027000004C0F601808180618083D6018C9183FFB3
:102710002AC084FD28C080910101F701823009F0B0
:102720008AC0E55CFD4F90801092D6021092D502CF
:102730001092D20291108AC0823009F07FC082E1EB
:102740000E94A40682E18093D20280910101F701E8
:10275000823009F078C0ED59FD4F9080892D0E949C
:10276000A4069092D702D6018C9184FF32C083FDDB
:1027700030C08090DF029090E0021092D60210925A
:10278000D5021092D202B401F701ED59FD4F8081BC
:102790000E945E00482E8823E1F0BCE08B1A91086D
:1027A000E3E08E16910408F07BC080910101813036
:1027B00009F076C0F701ED53FE4F4080F701E55672
:1027C000FE4F8081811171C0842D0E94A406409229
:1027D000D702D6018C91887109F09FC080910101C8
:1027E0009091D0021092D6021092D502992309F44A
:1027F000F6C01092D202823009F064C0F701ED59A0
:10280000FD4F0081043409F455C00D3409F454C05F
:10281000053109F453C00C3109F452C00B3639F0BC
:10282000043729F0053719F0023709F069C080EE46
:102830008093D20265C0ED5EFD4F75CF8AE20E94A3
:10284000A4068AE280CFE551FE4F87CF823081F423
:10285000BBE69B1639F08CE8890D823018F0E2E770
:102860009E1206C080EE0E94A40680EE8093D202E3
:1028700080910101813009F071CFFBE49F1649F08E
:102880002DE4921631F088E4981619F090E599122B
:1028900065CF80EE0E94A40680EE8093D2025ECFC8
:1028A00047FE40C2F0E84F0E8FCF8AE20E94A40696
:1028B0008AE241C20BE6BBCF04E7B9CF05E7B7CF49
:1028C00002E7B5CF8130E1F4F701E551FE4F008119
:1028D000083109F47CC0093109F47BC0003109F4E6
:1028E0007AC00E3109F479C00B3409F4A0CF0D344D
:1028F00009F49DCF083409F49ACF003509F497CF35
:102900000093D7028091D202882319F080EE0E94B2
:10291000A4068091D7020E94A406F60180818260FD
:102920008083D6018C9182FFA9CE83FF21C084FDD4
:102930001FC080910101F701823009F05EC0E55CA3
:10294000FD4F90801092D702911063C0823009F041
:1029500057C080EF0E94A406F701ED59FD4F80811A
:102960000E94A40680EF0E94A40682E10E94A406B1
:10297000D6018C9184FF9AC083FD98C08090DF02BD
:102980009090E0021092D702B401F701ED59FD4F8B
:1029900080810E945E00482E882309F487C08091C0
:1029A0000101BCE08B1A9108E3E08E16910408F057
:1029B0005EC0813009F05BC0F701ED53FE4F4080EF
:1029C000F701E556FE4F908080E8840D60C00BE46F
:1029D0002ECF0DE42CCF08E42ACF00E528CFF70155
:1029E000823041F4ED59FD4F80818093D7021092DF
:1029F000D2028FCFE551FE4FF7CFED5EFD4FA1CF55
:102A0000F701E551FE4F808180580E94A4068AEAB2
:102A1000ADCF823069F4BBE69B1639F08CE8890DA6
:102A2000823018F0E2E79E1203C080EE0E94A406F6
:102A300080910101813079F4FBE49F1649F02DE487
:102A4000921631F088E4981619F090E5991203C0B7
:102A500080EE0E94A40680910101823029F480EF6B
:102A60000E94A406892D82CF80E8890D7FCF942C07
:102A70009094991C9924991C47FE02C0F0E84F0ECF
:102A8000823009F0A1CF80EF0E94A406842D0E941D
:102A9000A406992059F080910101823009F055C0B7
:102AA00080EF0E94A40682E10E94A406D6018C91C8
:102AB000887109F047C0809101019091D00299235B
:102AC00009F455C01092D7028230E9F4F701ED59AC
:102AD000FD4F00810434D9F10D34D9F10531D9F11C
:102AE0000C31D9F10B3631F0043721F0053711F0F4
:102AF000023719F480EE0E94A40680EF0E94A4061B
:102B0000802F0E94A406809101018130D9F4F70141
:102B1000E551FE4F0081083111F1093111F1003109
:102B200011F10E3111F10B3431F00D3421F0083474
:102B300011F0003519F480EE0E94A40680E8800FA1
:102B40000E94A406F601108299CD8AEAADCF0BE669
:102B5000D1CF04E7CFCF05E7CDCF02E7CBCF0BE452
:102B6000EACF0DE4E8CF08E4E6CF00E5E4CF823019
:102B700091F480EF0E94A406F701ED59FD4F90807B
:102B8000892D0E94A4068091D702981201C080E08E
:102B90008093D702D7CFF701E551FE4F908080E8B0
:102BA000890DEFCF8091D9028093D80286B1082F8A
:102BB000007184FDFBCF359BFECF80910001880F13
:102BC000880F0E949B063D9A80910001880F880F14
:102BD000880F0E949B0685E00E94530080910001AF
:102BE000880F880F0E949B06F12CE12CDD24D394E2
:102BF000349B09C0C1010E2C01C0880F0A94EAF76A
:102C0000082B21E0D22680910001880F880F0E94B6
:102C10009B063D9A80910001880F880F880F0E94C3
:102C20009B0685E00E94530080910001880F880F69
:102C30000E949B068FEFE81AF80A98E0E916F10463
:102C4000B9F686B182958170898B1A8AA989BA8969
:102C5000DA161B0609F05AC080910001880F880F10
:102C60000E949B063D9A80910001880F880F880F73
:102C70000E949B0685E00E94530080910001880F0E
:102C8000880F0E949B063C9A80910001880F880F54
:102C90000E949B063D9A80910001880F880F880F43
:102CA0000E949B0685E00E94530084E00E9453002E
:102CB000EFE8F1E03197F1F700C000000093D9028E
:102CC00080EA96E8A1E0B0E08093DA029093DB021C
:102CD000A093DC02B093DD020E3E11F00C94550B74
:102CE0008EEE0E94A4065092DE028091D9028230BC
:102CF00011F40C94730B10F00C945A0B882311F4FC
:102D00000C94670B813011F40C94730B89EE93E0F3
:102D1000019709F473C9349B45CFFAE1FA95F1F7AD
:102D200000C0F6CF80910101823009F0BECD82E172
:102D30000E94A40682E18093D20246CDDC01CB0141
:102D4000FC01F999FECF06C0F2BDE1BDF89A3196BB
:102D500000B40D9241505040B8F70895F999FECF54
:102D600092BD81BDF89A992780B50895DC01CB0109
:102D700003C02D910E94C11641505040D0F70895D4
:102D8000262FF999FECF1FBA92BD81BD20BD0FB687
:102D9000F894FA9AF99A0FBE01960895EE0FFF1F64
:0C2DA0000590F491E02D0994F894FFCF09
:102DAC0001025A58554E4F05423224222C04044D30
:102DBC0021222C04024D2104073B3C4D432C242D95
:102DCC0004031B1C3A0404442D432104032A43210D
:102DDC0004051C4D4D4B2404051C21442D310403CA
:102DEC0032322104051C2C1C2D43040321362504EE
:102DFC00033A1B220403214D2104021A22011A2238
:102E0C004D3C2D241A222B3C4B4B21443A32441B73
:102E1C001A224D1C2D2C431C4B21443A32441B4589
:102E2C00161E26252E363D3E4602060009020002DD
:102E3C0000212B342B4B1C1B3324230101010101DA
:102E4C00000000010101010001010101010001016B
:102E5C000000000000010001000000010001000062
:102E6C0000000102030405060000003334292B2B5B
:102E7C001A1B0C0B0A2808281B001B1A00270035EC
:102E8C0035000D0D0C070000343309020304050650
:102E9C0010111213141E1F2021220B0A09080719E6
:102EAC0018171615002C2D2E2F1C2625242339001F
:102EBC003231303C3A00004B0000000000000000B2
:102ECC0000000E004D00500000000000000000004B
:102EDC00000F000000000100000000065800006B0D
:102EEC000000000000000000000066007475720015
:102EFC000000000000000000000D00000000760043
:102F0C00000000161E26252E151D242D2C1C1B23FF
:102F1C002B3445463E3D364D44433C35001A222168
:102F2C002A5A4B423B3329003A3132010203040541
:102F3C00FFFF0EFFFF09FF0DFFFF000C080706FF48
:102F4C00FFFFFFFFFFFFFF0BFFFFFFFFFFFFFFFF79
:102F5C00FFFF0A010004030203030202020203043E
:0E2F6C00050607000104040404040402020028
:00000001FF
