:100000000C9434000C9451000C9451000C94510049
:100010000C9451000C9451000C9451000C9451001C
:100020000C9451000C9451000C9451000C9451000C
:100030000C9451000C9451000C9451000C945100FC
:100040000C9407080C9451000C9451000C9451002E
:100050000C9451000C9451000C9451000C945100DC
:100060000C9451000C94510011241FBECFEFD8E026
:10007000DEBFCDBF12E0A0E0B1E0E0ECFEE202C0E6
:1000800005900D92A23DB107D9F723E0A2EDB2E0B1
:1000900001C01D92AB31B207E1F70E9421090C9417
:1000A0005E170C94000097B121E030E001C0220FF0
:1000B0008A95EAF72095292327B90895843251F0CB
:1000C000982F977F953131F0833421F0893211F0E8
:1000D0008A3509F480E09B012C5031092330310529
:1000E00028F490910101913009F4C5C5863109F4D5
:1000F000C2C5863209F4BFC5853209F4BCC58E324B
:1001000009F4B9C5882309F4B6C5FB013197EE306F
:10011000F10508F097C3E157FF4F0C9458179D0065
:10012000F20042018801D70123026902AC02EF020A
:100130003E038703D003D003D0038E3109F484C378
:100140008C3209F483C38D3209F482C3843309F4F9
:1001500081C38B3209F480C3833209F47FC38B31AE
:1001600009F47EC38C3109F47DC3853309F47CC363
:100170008C3309F47BC3843409F47AC38D3409F4D5
:1001800079C38A3209F478C3813209F477C38232A1
:1001900009F476C38A3109F475C3833309F474C34F
:1001A0008B3309F473C3823409F472C38B3409F4BA
:1001B00071C3823309F470C3813309F46FC38A3386
:1001C00009F46EC3863309F456C58D3309F453C55B
:1001D0008E3309F450C5863409F44DC5853409F0D1
:1001E00061C308958E3109F45FC38C3209F45EC394
:1001F0008D3209F45DC3843309F45CC38B3209F496
:100200005BC3833209F45AC38B3109F459C38C316F
:1002100009F458C3863309F457C38D3309F456C320
:100220008E3309F455C3853409F454C3853309F476
:1002300053C38C3309F452C3843409F451C38D344D
:1002400009F450C38A3209F44FC3813209F44EC312
:100250008A3109F44DC3833309F44CC38B3309F459
:100260004BC3823409F44AC38B3409F449C3823343
:1002700009F448C3813309F447C38A3309F446C3F8
:1002800080E008958E3109F443C38C3209F442C3EF
:100290008D3209F441C38B3109F440C3853309F42D
:1002A0003FC38C3309F43EC3843409F43DC38D3419
:1002B00009F43CC38A3209F43BC3813209F43AC3DE
:1002C0008A3109F439C3833309F438C38B3309F411
:1002D00037C3823409F436C38B3409F435C382330F
:1002E00009F434C3813309F433C38A3309F432C3C4
:1002F000863309F4C0C48D3309F4BDC48E3309F4C8
:10030000BAC4863409F4B7C4853409F025C3089506
:100310008E3109F423C38C3209F422C38D3209F4DF
:1003200021C38D3109F420C3853109F41FC3833201
:1003300009F41EC38B3109F41DC3853309F41CC3B2
:100340008C3309F41BC3843409F41AC38D3409F4C3
:1003500019C38A3209F418C3813209F417C38A31E8
:1003600009F416C3833309F415C38B3309F414C39A
:10037000823409F413C38B3409F412C3823309F4B1
:1003800011C3813309F410C38A3309F40FC38633D0
:1003900009F471C48D3309F46EC48E3309F46BC44F
:1003A000863409F468C4853409F002C308958E3197
:1003B00009F400C38C3209F4FFC28D3209F4FEC285
:1003C0008D3109F4FDC2853109F4FCC28B3109F489
:1003D000FBC28C3109F4FAC2843409F4F9C28D34B9
:1003E00009F4F8C28A3209F4F7C2813209F4F6C27C
:1003F000823209F4F5C28A3109F4F4C2833309F474
:10040000F3C28B3309F4F2C2823409F4F1C28B34A3
:1004100009F4F0C2823309F4EFC2813309F4EEC269
:100420008A3309F4EDC2863309F425C48D3309F407
:1004300022C48E3309F41FC4863409F41CC48534E5
:1004400009F0E0C208958E3109F4DEC28C3209F45D
:10045000DDC28D3209F4DCC2833209F4DBC285339C
:1004600009F4DAC28C3309F4D9C2843409F4D8C24D
:100470008D3409F4D7C28A3209F4D6C2813209F424
:10048000D5C2823209F4D4C28A3109F4D3C28B3383
:1004900009F4D2C2823409F4D1C28B3409F4D0C237
:1004A000823309F4CFC2813309F4CEC28A3309F40E
:1004B000CDC2863309F4DFC38D3309F4DCC38E3338
:1004C00009F4D9C3863409F4D6C3853409F0C0C20F
:1004D00008958C3209F4BEC28D3209F4BDC2863350
:1004E00009F4BCC28D3309F4BBC28E3309F4BAC21D
:1004F000863409F4B9C2853409F4B8C2853309F4E5
:10050000B7C28C3309F4B6C2843409F4B5C28D3451
:1005100009F4B4C28A3209F4B3C2813209F4B2C216
:100520008A3109F4B1C2833309F4B0C28B3309F4C0
:10053000AFC2823409F4AEC28B3409F4ADC2823347
:1005400009F4ACC2813309F4ABC28A3309F4AAC2FC
:100550008E3109F0A9C208958E3109F4A7C28C32F8
:1005600009F4A6C28D3209F4A5C28B3109F4A4C2E4
:10057000853309F4A3C28C3309F4A2C2843409F48C
:10058000A1C28D3409F4A0C28A3209F49FC281321B
:1005900009F49EC28A3109F49DC28B3309F49CC2CE
:1005A000823409F49BC28B3409F49AC2823309F471
:1005B00099C2813309F498C28A3309F497C2863309
:1005C00009F459C38D3309F456C38E3309F453C368
:1005D000863409F450C3853409F08AC208958C32F8
:1005E00009F488C28D3209F487C2843309F486C2C3
:1005F0008B3209F485C2833209F484C28B3109F449
:1006000083C2863309F482C28D3309F481C28E33EA
:1006100009F480C2863409F47FC2853309F47EC2AE
:100620008C3309F47DC2843409F47CC28D3409F41E
:100630007BC28A3209F47AC2813209F479C28232E9
:1006400009F478C28A3109F477C2833309F476C297
:100650008B3309F475C2823409F474C28B3409F403
:1006600073C2823309F472C2813309F471C28A33CE
:1006700009F470C2853409F06FC208958E3109F40F
:100680006DC28C3209F46CC28D3209F46BC28433B2
:1006900009F46AC28B3209F469C28C3109F468C268
:1006A0008D3309F467C2853409F466C2843409F4D1
:1006B00065C28D3409F464C28A3209F463C281329E
:1006C00009F462C2823209F461C28A3109F460C25B
:1006D000833309F45FC28B3309F45EC2823409F4B8
:1006E0005DC28B3409F45CC2823309F45BC281338E
:1006F00009F45AC28A3309F459C2863309F4BBC2D9
:100700008E3309F4B8C2863409F052C208958E318E
:1007100009F450C28C3209F44FC28D3209F44EC232
:100720008B3209F44DC2833209F44CC28D3309F483
:100730004BC2853409F44AC2853309F449C2843472
:1007400009F448C28D3409F447C28A3209F446C21A
:10075000813209F445C2823209F444C28A3109F473
:1007600043C2833309F442C28B3309F441C2823459
:1007700009F440C28B3409F43FC2823309F43EC20B
:10078000813309F43DC28A3309F43CC2863309F44B
:1007900072C28E3309F46FC2863409F035C20895EF
:1007A000853409F433C2863409F432C28E3309F435
:1007B00031C28D3309F430C2863309F42FC28C3232
:1007C00009F42EC28D3209F42DC2843309F42CC2EF
:1007D0008B3209F42BC2833209F42AC28B3109F41B
:1007E00029C28C3109F428C2853309F427C28C331D
:1007F00009F426C2843409F425C28D3409F424C2D4
:100800008A3209F423C2813209F422C28A3109F4FE
:1008100021C2833309F420C28B3309F41FC282340E
:1008200009F41EC28B3409F41DC2823309F41CC2C0
:10083000813309F41BC28A3309F41AC28E3109F0DC
:1008400019C2089580E0089584ED089589E408951B
:1008500081E408958DE508958BE5089581EE08956E
:1008600084E5089581E608958BED08958DED089552
:1008700082ED08958EE108958AEC08958AE4089542
:1008800085E508958CEC089585ED08958EEC089526
:1008900082E508958EE408958CE4089581EC08952E
:1008A00089EC089580E0089582E5089589E408952B
:1008B00081E4089584E508958EE808958DED089506
:1008C0008DE508958BE5089582ED08958CE40895F3
:1008D00085E4089585ED08958EE1089584ED0895E9
:1008E0008CEC08958EE308958AEC08958AE40895C7
:1008F00085E508958DE308958EEC08958EE00895C2
:1009000086E3089586E4089581EC089589EC0895BE
:1009100084ED089581E4089581E608958EE40895B4
:100920008CE4089582E5089582ED08958EE108959E
:100930008AEC08958AE408958CEC08958DED08956D
:100940008EEC089589E8089585ED08958BED08955E
:1009500081EE089581EC089580E008958EE3089576
:1009600085ED08958EEC089587E8089588EF089541
:1009700082E508958BE5089581E4089589E408955A
:100980008CEC08958EE108958AEC08958AE4089528
:100990008CE408958DE5089584ED089582ED089521
:1009A0008BED08958DED089581EC089589EC0895FF
:1009B00080E008958EE8089589E4089581E408951B
:1009C00087E8089587E0089581E608958EEC0895FC
:1009D0008CEC08958EE108958AEC08958AE40895D8
:1009E0008DE5089582ED089585ED08958DED0895C6
:1009F0008CE408958EE4089582E5089581EC0895CD
:100A000089EC089580E0089585E4089589E40895C7
:100A100081E408958DED089584E508958BED0895A2
:100A20008CEC08958EE108958AEC08958AE4089587
:100A300084E5089582ED08958EEC08958CE4089580
:100A40008EE4089582E5089581EC089589EC089577
:100A500080E0089589E4089581E408958DE3089580
:100A600082ED089586E4089585E408958EE408955E
:100A700084ED08958BED08958CEC089582E508953A
:100A80008AEC08958AE408958CE4089586E3089535
:100A90008EEC089585E5089585ED08958EE308951B
:100AA00081EC089589EC089580E0089584ED08951F
:100AB00081E4089581E6089585E508958CE408951C
:100AC00082E5089582ED08958EE108958AEC0895F7
:100AD0008AE408958CEC089585ED08958EEC0895D0
:100AE0008DED08958BED089581EE089581EC0895C4
:100AF00080E0089589E4089581E408958BE50895E0
:100B000084E508958DED08958DE508958DE30895AC
:100B100082ED089586E4089585E4089584ED0895AE
:100B20008BED08958CEC089582E508958AEC089584
:100B30008AE408958EE408958CE4089586E3089588
:100B40008EEC089585E5089585ED08958EE308956A
:100B500081EC089589EC089580E008958DE508956D
:100B600081E6089581EE08958DED089582ED089552
:100B70008CEC08958EEC08958AE4089581E408953C
:100B80008EE108958DE308958EE4089584ED08952F
:100B900089E4089584E508958AEC08958BED08951D
:100BA00085E408958BE5089581EC089589EC089516
:100BB00080E008958DED089581E6089581EE089511
:100BC00082E508958EE808958EEC08958AE40895EC
:100BD00084E5089581E408958EE108958DE30895F4
:100BE0008EE4089582ED089589E4089584ED0895D2
:100BF0008AEC08958BED089585E408958BE50895BA
:100C000081EC089589EC089580E008958EE40895BC
:100C100085E4089586E4089582ED08958DE30895AE
:100C200089E4089581E408958BE5089584E50895A5
:100C300081EE08958DE508958EE0089584ED089580
:100C40008BED08958CEC089582E508958AEC089563
:100C50008AE408958CE4089586E308958EEC08955F
:100C600085E5089585ED08958EE3089581EC089556
:100C700089EC089580E00895359B06C086B1829581
:100C8000817091E08927089581E008956330B1F083
:100C9000643031F1623099F521E030E0B90102C0F1
:100CA000660F771F8A95E2F7CB0195B1411104C019
:100CB0008095892385B90895892BFCCF21E030E008
:100CC000B90102C0660F771F8A95E2F7CB0198B190
:100CD000411104C08095892388B90895892BFCCFE0
:100CE00021E030E0B90102C0660F771F8A95E2F774
:100CF000CB019BB1411104C0809589238BB9089524
:100D0000892BFCCF282F633081F0643081F0623072
:100D100081F493B1892F90E002C0959587952A952B
:100D2000E2F7809590958170089596B1F3CF99B1CF
:100D3000F1CF80E008956330B1F0643031F162307A
:100D400099F521E030E0B90102C0660F771F8A955E
:100D5000E2F7CB0194B1442321F08095892384B933
:100D60000895892BFCCF21E030E0B90102C0660F65
:100D7000771F8A95E2F7CB0197B1442321F0809544
:100D8000892387B90895892BFCCF21E030E0B90190
:100D900002C0660F771F8A95E2F7CB019AB1442310
:100DA00021F0809589238AB90895892BFCCF882367
:100DB00031F095E19A95F1F700008450F8CF08954D
:100DC000EF92FF920F931F93CF93DF93E82E0E9431
:100DD0003C068111FCCF3C9A80910001880F880F5E
:100DE0000E94D7063D9A80910001880F880F880FD6
:100DF0000E94D70685E00E94530080910001880F71
:100E0000880F0E94D706D0E0C0E011E0F12C01E08D
:100E1000C7010C2E02C0959587950A94E2F780FFD2
:100E200063C084E00E945300102780910001880F66
:100E3000880F0E94D7063D9A80910001880F880F85
:100E4000880F0E94D70685E00E9453008091000120
:100E5000880F880F0E94D7062196C830D105C1F6A9
:100E6000112309F443C084E00E94530080910001E3
:100E7000880F880F0E94D7063D9A80910001880F45
:100E8000880F880F0E94D70685E00E94530080914A
:100E90000001880F880F0E94D70684E00E9453004B
:100EA00080910001880F880F0E94D7063D9A80919B
:100EB0000001880F880F880F0E94D70685E00E94E6
:100EC000530080910001880F880F0E94D70687EC9D
:100ED00090E00197F1F700C00000DF91CF911F91E2
:100EE0000F91FF90EF9008953C9A9FCF3C9ABECF10
:100EF0000F931F93CF93DF93EC018091E3029091C6
:100F0000E402892B81F480EF0E94E00682E10E94D6
:100F1000E00610920B0380EF0E94E00684E10E943D
:100F2000E006109216032FEF81EE94E021508040EE
:100F30009040E1F700C0000089E20E94E006EFEF78
:100F4000F1EE24E0E150F0402040E1F700C0000065
:100F500080EF0E94E00689E20E94E0068FEF91EEAA
:100F6000E4E081509040E040E1F700C0000089E4F7
:100F70000E94E006FFEF21EE84E0F1502040804027
:100F8000E1F700C0000080EF0E94E00689E40E94C3
:100F9000E0068E010F5F1F4F888190E098012C1BA7
:100FA0003D0B821793074CF19FEFE1EEF4E0915077
:100FB000E040F040E1F700C00000F80181918F01AE
:100FC0000E94E006FFEF21EE84E0F15020408040D7
:100FD000E1F700C0000080EF0E94E006F8013197C1
:100FE00080810E94E0069FEFE1EEF4E09150E04046
:100FF000F040E1F700C00000CFCFC80FD91F8981B2
:1010000080930001DF91CF911F910F9108951F925E
:101010000F920FB60F9211242F933F938F939F93AC
:10102000AF93BF938091EA029091EB02A091EC0202
:10103000B091ED023091E90223E0230F2D3758F5EE
:101040000196A11DB11D2093E9028093EA029093BD
:10105000EB02A093EC02B093ED028091E502909137
:10106000E602A091E702B091E8020196A11DB11D30
:101070008093E5029093E602A093E702B093E80222
:10108000BF91AF919F918F913F912F910F900FBE84
:101090000F901F90189526E8230F0296A11DB11DF1
:1010A000D2CFCF92EF92FF920F931F93CF93DF9304
:1010B000C82FD62F142FF22E80911A03882331F0D7
:1010C0002AE12A95F1F700C010921A03002369F073
:1010D00080910101823009F09FC082E10E94E00608
:1010E00080911A038F5F80931A03EE2081F0809124
:1010F0000101823009F092C080EE0E94E00684E196
:101100000E94E00680911A038F5F80931A03CC201F
:1011100069F080910101823009F085C081E10E946F
:10112000E00680911A038F5F80931A0380911A035F
:10113000882331F08AE18A95F1F700C010921A03F2
:10114000FF2019F080EE0E94E006812F0E94E00649
:101150009FEFE0E7F2E09150E040F040E1F700C09F
:101160000000FF2019F080EE0E94E006809101014E
:10117000823019F480EF0E94E006809101018230F4
:1011800009F053C0812F0E94E00625E0C29FB00104
:1011900011246E507D4F6D0F711DFB0110820023D5
:1011A00059F080910101823009F042C080EF0E9425
:1011B000E00682E10E94E006EE2069F080910101E4
:1011C0008230C1F580EE0E94E00680EF0E94E006CA
:1011D00084E10E94E006CC2051F080910101823030
:1011E00071F580EF0E94E00681E10E94E006FAE1DD
:1011F000FA95F1F700C081E08093F1028093F0024C
:101200001092EF028093EE02DF91CF911F910F9128
:10121000FF90EF90CF9008958AE260CF80EE0E9419
:10122000E0068DE16DCF88E37ACF80E8810FABCF08
:101230008AEAC0CF80EE0E94E0068DE9CACF88EB33
:10124000D4CFCF93DF93CDB7DEB762970FB6F894C4
:10125000DEBF0FBECDBF789484B5826084BD84B5F7
:10126000816084BD85B5826085BD85B5816085BDA1
:1012700080916E00816080936E0010928100809159
:1012800081008260809381008091810081608093E1
:101290008100809180008160809380008091B10006
:1012A00084608093B1008091B00081608093B00031
:1012B00080917A00846080937A0080917A008260C5
:1012C00080937A0080917A00816080937A00809187
:1012D0007A00806880937A001092C10080E8809341
:1012E0006100109261004498459884E00E94530088
:1012F00085E00E945300259A2D9841E063E082E04A
:101300000E949B0641E063E082E00E94460641E0C5
:1013100063E083E00E949B0641E063E083E00E947B
:1013200046067DEBC72E72E0D72EE3EBEE2EE2E011
:10133000FE2E88EB92E09E878D87AD85BE850D9150
:10134000BE87AD87F70111917F0141E0602F812FAA
:101350000E949B0641E0602F812F0E9446068D85EA
:101360009E85C816D90649F75DECE52E52E0F52EAC
:101370000DEB12E065EC262E62E0362ED1016D9168
:101380001D0141E0F80181918F010E949B06E2144A
:10139000F304A1F785E0E2E0F1E0DE0116960190AA
:1013A0000D928A95E1F745E050E070E060E0CE01F3
:1013B00001960E942817FE013196DE011696AD01B6
:1013C00021E0CD0161913D91631320E04E175F074D
:1013D000C9F7222309F42EC185E090E00E94381756
:1013E000082F10E01092E2021092D40281E0011561
:1013F000110529F00130110509F0C2C084E0809385
:1014000000010530110509F0C1C084E0809300019E
:101410000A30110509F0C0C084E0809300011093E8
:10142000E4020093E30286E090E00E9438178330E4
:1014300008F080E08093D30211E0552453940E9479
:101440003C062091E3023091E4028823B1F02C3075
:10145000310599F48091E20281110C94101780916A
:10146000DE029091DF02A091E002B091E102892BAF
:101470008A2B8B2B11F00C9410178091DE02909127
:10148000DF02A091E002B091E1020097A105B10551
:1014900009F00EC12C30310589F58091DB028823DB
:1014A00069F18091D9029091DA029C012F5F3F4F40
:1014B0003093DA022093D902893E934020F4809140
:1014C00001018230D9F48091D7029091D8029C0119
:1014D0002F5F3F4F3093D8022093D7028739910571
:1014E00068F08091D60281110E94E0068091DB02B3
:1014F0000E94E0061092D8021092D7021092F102D8
:101500003FEC832E32E0932E4DECA42E42E0B42E1D
:10151000F12CF401E1904F01D5010D915D016E2D8B
:10152000802F0E948206882309F418C1B5E3BA957A
:10153000F1F700006E2D802F0E948206882309F4A7
:101540000DC18091E3029091E402F110BDC08230A0
:10155000910518F00A97029780F4809101014FE3FA
:10156000813009F043E0CC24C394EE24E39400E0FE
:1015700020E064E084E00E945108FF24F394C9CF86
:101580000230110569F484E08093000106301105F2
:1015900069F484E0809300010B30110569F43CCFBD
:1015A00003301105F1F484E0809300010730110548
:1015B000B9F584E0809300010C301105B9F584E0A1
:1015C0008093000181E08093E2021092DE0210928B
:1015D000DF021092E0021092E10282E080930101AA
:1015E0001ECF0430110509F00CCF84E08093000178
:1015F0000930110509F00CCF84E0809300010D3013
:10160000110509F00CCF84E0809300011092E202F2
:1016100081E0809301018EE091E00E947807FFCE87
:101620000830110529F784E0809300010E30110580
:1016300031F7C5CF45E050E070E060E00E94401710
:1016400060E085E090E00E944A1761E086E090E06B
:101650000E944A17F1CE8AEF0E94E0060C94FF1612
:10166000823F09F18F3F11F00C9410178AEA0E9413
:10167000E0061092E2020C9410178091DC02803F89
:1016800011F00C941017809101010E94E0060C9457
:1016900010179091DC02903F11F00C94101780937A
:1016A00001010C9410178BEA0E94E00683E8EDCF4D
:1016B0000197A109B1098093DE029093DF02A09304
:1016C000E002B093E102E6CE009749F09C0124507D
:1016D00031092230310518F00897029780F4809183
:1016E000010146E4813009F04EE7CC24C394EE2496
:1016F000E39400E020E064E082E00E9451088091E1
:10170000E3029091E402029739F580EE0E94E00630
:1017100082E10E94E00680EE0E94E0068CE70E94D3
:10172000E006EFEFF1EE24E0E150F0402040E1F779
:1017300000C0000080EE0E94E00680EF0E94E006FC
:1017400082E10E94E00680EE0E94E00680EF0E94A7
:10175000E0068CE70E94E0061093F10281E0F812A7
:101760000CCF8091F10281115EC092EFA92E92E020
:10177000B92EADEBB2E0BC87AB8725ECC22E22E0E0
:10178000D22EF60171906F01AB85BC850D91BC879F
:10179000AB8740E0672D802F0E949B0640E0672DBD
:1017A000802F0E944606BAE1BA95F1F700C0750194
:1017B000E3EBF2E0F88BEF8788EB882E82E0982E3F
:1017C000D4014D904D01EF85F8896190F88BEF873A
:1017D000642D862D0E948206882309F44AC0F5E311
:1017E000FA95F1F70000642D862D0E948206D7013C
:1017F0008823C9F18C9180FF32C082608C93FFEF07
:10180000EF1AFF0A8D859E8588169906C9F641E074
:10181000672D802F0E949B0695E0A90EB11C2C1409
:101820003D0409F0AECF8091EE02882349F142EFEA
:1018300052E028E030E090E080E0FA01E80FF91F84
:10184000608160FD31E0019685309105B1F721504E
:101850004B5F5F4F2111EFCF3093EE0282CF81605B
:10186000F7018083CCCF8C9180FFC9CF8C7F8460BF
:10187000C5CFF701808180FFC2CF8C7F8460F1CF1C
:101880008091D502882309F4C5C080910B0382FFA3
:101890000EC010920B038091E3029091E402892B19
:1018A00031F480EF0E94E00682E10E94E006809120
:1018B000160382FF0EC0109216038091E3029091EE
:1018C000E402892B31F480EF0E94E00684E10E945B
:1018D000E006A2EFAA2EA2E0BA2EBBE88B2EB2E061
:1018E0009B2E02E0D12CC12CF501EC0DFD1D808159
:1018F00080FF7AC0F401EC0DFD1D7080E72CF12C07
:101900004090E3026090E4021092E2021092D4024E
:101910008AE591E0E114F10431F0A1E0EA16F10466
:10192000D9F485E591E00E94780725E0E216F104FC
:10193000D9F48FE391E00E94780781E291E0EAE038
:10194000EE16F104C9F40E947807AEE0A71508F07E
:1019500041C0E42CF62C3EC0B2E0EB16F10499F441
:1019600080E591E00E94780786E0E816F104A1F492
:1019700088E391E00E947807FBE0EF16F104A9F4F8
:1019800088E191E0E0CFE3E0EE16F10409F0CBC38B
:101990008BE491E00E94780797E0E916F10409F0E2
:1019A000E8C381E391E00E9478072CE0E216F1049D
:1019B00009F0E7C35092E2021092DE021092DF02B9
:1019C0001092E0021092E1020093010184E191E0A3
:1019D0000E9478075092F1025092F0021092D502C4
:1019E000F092E402E092E302BFEFCB1ADB0AE5E0FB
:1019F000CE16D10409F078CFF5E0AF0EB11C25E08A
:101A0000820E911C8AE1A81683E0B80609F06ACF1D
:101A10001093F1028091F10281117DC380910B033B
:101A200080FFE1C28091160380FFDDC28091F00249
:101A3000811177C68091E3029091E4020C9703979D
:101A4000C8F480910E0380FF07C081E09091D4021A
:101A5000911180E08093D4028091110380FD109356
:101A6000EF029FEFA3ECB9E09150A040B040E1F746
:101A700000C000008091090380FF12C08091D30252
:101A8000813031F08091E3029091E402892B41F0A2
:101A90001092E2021093D5021093F1021093EE021D
:101AA00080910101823009F075C58091130380FF98
:101AB00068C08091E3029091E402892B09F061C033
:101AC0008091D3028F5F833008F080E08093D3024F
:101AD00080EF0E94E00682E10E94E00610920B0374
:101AE00080EF0E94E00684E10E94E0061092160357
:101AF00080910101823009F040C0EFEFF0E722E071
:101B0000E150F0402040E1F700C0000089E20E946F
:101B1000E0068FEF90E7A2E081509040A040E1F70F
:101B200000C0000080EF0E94E00689E20E94E0060B
:101B3000BFEFE0E7F2E0B150E040F040E1F700C075
:101B4000000089E40E94E0062FEF80E792E0215038
:101B500080409040E1F700C0000080EF0E94E00666
:101B600089E40E94E0068091D302813009F44BC3DE
:101B700008F412C3823009F47FC31093F10210936A
:101B8000F0028091F20280FF0DC08091D30282307A
:101B900049F0C12CE12C00E020E045E060E080E06D
:101BA0000E9451088091F30280FF0DC08091D30202
:101BB000823049F0C12CE12C00E020E046E061E0F9
:101BC00080E00E9451088091F40280FF0DC0809156
:101BD000D302823049F0C12CE12C00E020E044E047
:101BE00062E080E00E9451088091F50280FF0DC004
:101BF0008091D302823049F0C12CE12C00E020E03A
:101C00004CE063E080E00E9451088091F60280FF82
:101C10000DC08091D302823049F0C12CE12C00E04C
:101C200020E043E064E080E00E94510880910503D9
:101C300080FF0DC08091D302823049F0C12CE12C8D
:101C400000E020E04BE064E083E00E9451088091D6
:101C5000040380FF0DC08091D302823049F0C12C73
:101C6000E12C00E020E043E863E083E00E945108BB
:101C70008091030380FF0DC08091D302823049F030
:101C8000C12CE12C00E020E04AE062E083E00E9409
:101C900051088091020380FF0DC08091D3028230F1
:101CA00049F0C12CE12C00E020E041E061E083E05C
:101CB0000E9451088091010380FF0DC08091D302E2
:101CC000823049F0C12CE12C00E020E049E060E0E6
:101CD00083E00E9451088091F70280FF0DC080913F
:101CE000D302823049F0C12CE12C00E020E048E72B
:101CF00060E081E00E9451088091F80280FF0DC0F1
:101D00008091D302823049F0C12CE12C00E020E028
:101D100047E061E081E00E9451088091FD0280FF70
:101D200053C08091E3029091E402009709F44CC003
:101D30000497D1F58AE00E94E006BFEFE0E7F2E009
:101D4000B150E040F040E1F700C0000089E00E949F
:101D5000E0062FEF80E792E0215080409040E1F7CD
:101D600000C0000080EF0E94E00689E00E94E006CB
:101D7000AFEFB3EDE0E3A150B040E040E1F700C0C9
:101D8000000080EF0E94E0068AE00E94E006FFEF7C
:101D900020E782E0F15020408040E1F700C00000E1
:101DA0001093F1021093F0028091E3029091E4020B
:101DB000039751F4C12CEE24E39400E020E047E0C7
:101DC00061E082E00E9451088091FC0280FF13C014
:101DD0008091D302813031F08091E3029091E4024E
:101DE000892B49F0C12CE12C00E020E049E060E0C3
:101DF00082E00E94510880910A0380FF15C0809103
:101E0000D302823031F48091E3029091E402892B75
:101E100059F0CC24C394EE24E39400E020E043E0A6
:101E200064E084E00E9451088091190380FF15C08E
:101E30008091D302823031F48091E3029091E402E8
:101E4000892B59F0CC24C394EE24E39400E020E0E5
:101E500046E664E087E00E9451088091180380FF05
:101E600015C08091D302823031F48091E3029091C9
:101E7000E402892B59F0CC24C394EE24E39400E0CF
:101E800020E041E763E087E00E9451088091000371
:101E900080FF13C08091D302823031F48091E3023D
:101EA0009091E402892B49F0C12CE12C00E020E064
:101EB0004EE764E082E00E94510880910F0380FFAA
:101EC0000CC08091E3029091E4022091D302213072
:101ED00009F409C2892B09F018C280910D0380FF13
:101EE0000CC08091E3029091E4022091D302213052
:101EF00009F4C6C2892B09F0D5C28091F90280FF8E
:101F00000FC08091E3029091E402892B49F0C12C2B
:101F1000E12C00E021E04DE762E081E00E94510801
:101F20008091FA0280FF0FC08091E3029091E40259
:101F3000892B49F0C12CE12C00E021E04AE763E065
:101F400081E00E9451088091FE0280FF0FC08091C5
:101F5000E3029091E402892B49F0C12CE12C01E0CD
:101F600021E04DE762E082E00E9451088091FF028B
:101F700080FF0FC08091E3029091E402892B49F029
:101F8000C12CE12C01E021E04AE763E082E00E94FD
:101F900051088091140380FF0FC08091E30290915B
:101FA000E402892B49F0C12CE12C00E020E04BE752
:101FB00064E086E00E9451088091170380FF0FC003
:101FC0008091E3029091E402892B49F0C12CE12C2D
:101FD00000E020E04CE762E087E00E945108809139
:101FE000F102811198C090910B03892F817020918B
:101FF000E3023091E402232B09F096C3882379F0A1
:1020000091FD0DC082E10E94E00680910B03826089
:1020100080930B0380911A038F5F80931A03809142
:10202000160380FF0FC081FD0DC084E10E94E00611
:102030008091160382608093160380911A038F5F4C
:1020400080931A0380910B0382FF0DC080EF0E94E2
:10205000E00682E10E94E00610920B0380911A03D1
:102060008F5F80931A038091160382FF0DC080EF6B
:102070000E94E00684E10E94E0061092160380911F
:102080001A038F5F80931A0380911A03882331F01B
:10209000AAE1AA95F1F700C010921A0393E6E92E7F
:1020A00092E0F92E22EFA22E22E0B22E3501D12CA1
:1020B000C12C4301F301808180FF08C081FD06C06F
:1020C000F701EC0DFD1D80810E94E006FFEF6F1A05
:1020D0007F0AD4018C9182FF0CC080EF0E94E00641
:1020E000F701EC0DFD1D80810E94E006F3013197A0
:1020F0001082BFEFCB1ADB0AE5E0CE16D104C9F699
:10210000F5E0EF0EF11C25E0A20EB11C8BE892E089
:102110008E159F0559F680E090E0892B09F48FC950
:102120000E9400008CC9F4E0EF16F10409F0FDCB29
:1021300084E491E00E947807B9E0EB16F10409F01D
:10214000FCCB86E291E00E9478079EE0E916F1045C
:1021500009F0FBCB5092E2021092DE021092DF02F5
:102160001092E0021092E1020093010187E091E0F9
:102170002FCCA8E0EA16F104F9F68CE291E00E9477
:1021800078078DE0E816F10401F71092E202509210
:1021900001018EE091E01CCCF0E7EF2EF1E0FF2E84
:1021A000AFEFB0E7E2E0A150B040E040E1F700C09F
:1021B0000000D7010D917D01802F0E94E006BFEF46
:1021C000E0E7F2E0B150E040F040E1F700C000008D
:1021D00080EF0E94E006802F0E94E0062FEF80E74C
:1021E00092E0215080409040E1F700C000006091F3
:1021F000D30286E090E00E944A17AFE7EA16A1E01A
:10220000FA0671F6BACC74E6E72E71E0F72EE0E735
:10221000CE2EE1E0DE2EBFEFE0E7F2E0B150E0408D
:10222000F040E1F700C00000D7010D917D01802F43
:102230000E94E006BFEFE0E7F2E0B150E040F0407E
:10224000E1F700C0000080EF0E94E006802F0E94AE
:10225000E0062FEF80E792E0215080409040E1F7C8
:1022600000C000006091D30286E090E00E944A170F
:10227000CE14DF0481F681CC6EE5E62E61E0F62E09
:10228000AFEFB0E7E2E0A150B040E040E1F700C0BE
:102290000000D7010D917D01802F0E94E006BFEF65
:1022A000E0E7F2E0B150E040F040E1F700C00000AC
:1022B00080EF0E94E006802F0E94E0062FEF80E76B
:1022C00092E0215080409040E1F700C00000609112
:1022D000D30286E090E00E944A17A4E6EA16A1E045
:1022E000FA0671F64ACC892B81F480EF0E94E00651
:1022F00082E10E94E00610920B0380EF0E94E0064C
:1023000084E10E94E0061092160389E20E94E00632
:102310009FEFA0E7B2E09150A040B040E1F700C0CD
:10232000000080EF0E94E00689E20E94E00659E882
:10233000C52E51E0D52EF12CE12CE2E0EE16F10491
:1023400021F0F4E0EF16F104D9F42FEF80E792E0EA
:10235000215080409040E1F700C0000089E40E94D5
:10236000E006AFEFB0E7E2E0A150B040E040E1F7B7
:1023700000C0000080EF0E94E00689E40E94E006B1
:10238000FFEF20E782E0F15020408040E1F700C0FD
:102390000000D601ED916D01F0E0E158FE4F0081A3
:1023A000802F0E94E006BFEFE0E7F2E0B150E0408E
:1023B000F040E1F700C0000080EF0E94E006802FAF
:1023C0000E94E0062FEF80E792E02150804090408D
:1023D000E1F700C00000AFEFEA1AFA0AB8E0EB1626
:1023E000F10409F0AACF89E20E94E006EFEFF0E7DE
:1023F00022E0E150F0402040E1F700C0000080EF13
:102400000E94E00689E20E94E0068DE20E94E0065A
:102410008FEF90E7A2E081509040A040E1F700C02C
:10242000000080EF0E94E0068DE20E94E006BFEF10
:10243000E0E7F2E0B150E040F040E1F700C000001A
:1024400086E10E94E0062FEF80E792E02150804075
:102450009040E1F700C0000080EF0E94E00686E1B6
:102460000E94E006AFEFB0E7E2E0A150B040E040EC
:10247000E1F700C000001093F1021093F0022DCD9F
:10248000892B81F480EF0E94E00682E10E94E00641
:1024900010920B0380EF0E94E00684E10E94E006A8
:1024A000109216036091E30285E090E00E944A17C3
:1024B00080910101823009F068C0FFEF20E782E0DF
:1024C000F15020408040E1F700C0000089E20E9406
:1024D000E0069FEFA0E7B2E09150A040B040E1F7E6
:1024E00000C0000080EF0E94E00689E20E94E00642
:1024F000EFEFF0E722E0E150F0402040E1F700C0CC
:10250000000089E40E94E0068FEF90E7A2E081508E
:102510009040A040E1F700C0000080EF0E94E0067C
:1025200089E40E94E00631E9E32E31E0F32E4BE925
:10253000C42E41E0D42EBFEFE0E7F2E0B150E0401E
:10254000F040E1F700C00000D7010D917D01802F20
:102550000E94E006BFEFE0E7F2E0B150E040F0405B
:10256000E1F700C0000080EF0E94E006802F0E948B
:10257000E0062FEF80E792E0215080409040E1F7A5
:1025800000C00000CE14DF04B1F61093F1021093E6
:10259000F002B3CC813009F022CD8091F20280FFAD
:1025A0000AC0C090EF02E12C00E020E04BE360E0C5
:1025B00080E00E9451088091F30280FF0AC0C09021
:1025C000EF02E12C00E020E04CE361E080E00E94BB
:1025D00051088091F40280FF0AC0C090EF02E12C04
:1025E00000E020E04DE362E080E00E94510880912D
:1025F000F50280FF0AC0C090EF02E12C00E020E06D
:102600004EE363E080E00E9451088091F60280FF73
:102610000AC0C090EF02E12C00E020E04FE364E04C
:1026200080E00E9451088091050380FF0AC0C0909D
:10263000EF02E12C00E020E040E464E083E00E944F
:1026400051088091040380FF0AC0C090EF02E12C82
:1026500000E020E041E463E083E00E9451088091C3
:10266000030380FF0AC0C090EF02E12C00E020E0ED
:1026700042E462E083E00E9451088091020380FFFF
:102680000AC0C090EF02E12C00E020E043E461E0EA
:1026900083E00E9451088091010380FF0AC0C0902E
:1026A000EF02E12C00E020E044E460E083E00E94DF
:1026B00051088091F70280FF0AC0C090EF02E12C20
:1026C00000E020E047E560E081E00E945108809151
:1026D000F80280FF0AC0C090EF02E12C00E020E089
:1026E00048E561E081E00E9451088091190380FF74
:1026F0000BC0CC24C394EE24E39400E020E04EE031
:1027000064E087E00E9451088091180380FF67CC45
:10271000CC24C394EE24E39400E020E043E563E09E
:102720005BCC1092F0025BCC3091D20231114FC0E1
:10273000882311F091FF06C08091160380FF16C018
:1027400081FD14C042EF52E020E090E080E02530AF
:1027500081F5811132C0019685309105C1F72F5F57
:102760004B5F5F4F283089F73093D20282EFA82E5B
:1027700082E0B82E00E0412CD501A25FB2407D017D
:102780006501612CB5E04B122BC061102FC0639422
:10279000FFEFCF1ADF0A2FEFE21AF20A85E0681284
:1027A000F1CF439495E0A90EB11CA8E04A12E4CF02
:1027B000B2CC273011F4813071F2FA01E80FF91F21
:1027C0006081762F717060FFC6CF372FC8CF81111F
:1027D000CDCF8091160380FDC9CF1092D202C6CF13
:1027E000E7E04E1203C0F1E06F1689F2D6018C913A
:1027F00080FF20C181FD1EC19091D20291110EC0B7
:1028000090910B0390FF02C088608C938091160317
:1028100080FF04C0F601808180618083D6018C91A5
:1028200083FF2AC084FD28C080910101F701823016
:1028300009F08AC0E55CFD4F90801092DA02109298
:10284000D9021092D60291108AC0823009F07FC05E
:1028500082E10E94E00682E18093D602809101012C
:10286000F701823009F078C0ED59FD4F9080892D35
:102870000E94E0069092DB02D6018C9184FF32C068
:1028800083FD30C08090E3029090E4021092DA025F
:102890001092D9021092D602B401F701ED59FD4F02
:1028A00080810E945E00782E8823E1F0BCE08B1AC4
:1028B0009108E3E08E16910408F07BC0809101013D
:1028C000813009F076C0F701ED53FE4F7080F701BB
:1028D000E556FE4F8081811171C0872D0E94E00670
:1028E0007092DB02D6018C91887109F09FC08091B3
:1028F00001019091D4021092DA021092D902992328
:1029000009F4F6C01092D602823009F064C0F701D3
:10291000ED59FD4F0081043409F455C00D3409F41C
:1029200054C0053109F453C00C3109F452C00B36C0
:1029300039F0043729F0053719F0023709F069C07A
:1029400080EE8093D60265C0ED5EFD4F75CF8AE2C2
:102950000E94E0068AE280CFE551FE4F87CF8230A9
:1029600081F4BBE69B1639F08CE8890D823018F0B3
:10297000E2E79E1206C080EE0E94E00680EE8093A1
:10298000D60280910101813009F071CFFBE49F16DE
:1029900049F02DE4921631F088E4981619F090E58C
:1029A000991265CF80EE0E94E00680EE8093D602F9
:1029B0005ECF77FE41C2F0E87F0E8FCF8AE20E94A1
:1029C000E0068AE242C20BE6BBCF04E7B9CF05E7D7
:1029D000B7CF02E7B5CF8130E1F4F701E551FE4F03
:1029E0000081083109F47CC0093109F47BC0003151
:1029F00009F47AC00E3109F479C00B3409F4A0CF80
:102A00000D3409F49DCF083409F49ACF003509F448
:102A100097CF0093DB028091D602882319F080EED5
:102A20000E94E0068091DB020E94E006F6018081B0
:102A300082608083D6018C9182FFA9CE83FF21C062
:102A400084FD1FC080910101F701823009F05EC052
:102A5000E55CFD4F90801092DB02911063C08230E4
:102A600009F057C080EF0E94E006F701ED59FD4FD5
:102A700080810E94E00680EF0E94E00682E10E94D1
:102A8000E006D6018C9184FF9AC083FD98C08090A7
:102A9000E3029090E4021092DB02B401F701ED59D9
:102AA000FD4F80810E945E00782E882309F487C044
:102AB00080910101BCE08B1A9108E3E08E1691042D
:102AC00008F05EC0813009F05BC0F701ED53FE4FA6
:102AD0007080F701E556FE4F908080E8870D60C05A
:102AE0000BE42ECF0DE42CCF08E42ACF00E528CF4D
:102AF000F701823041F4ED59FD4F80818093DB0274
:102B00001092D6028FCFE551FE4FF7CFED5EFD4F0D
:102B1000A1CFF701E551FE4F808180580E94E00669
:102B20008AEAADCF823069F4BBE69B1639F08CE8B7
:102B3000890D823018F0E2E79E1203C080EE0E94F9
:102B4000E00680910101813079F4FBE49F1649F0A1
:102B50002DE4921631F088E4981619F090E5991258
:102B600003C080EE0E94E00680910101823029F4CA
:102B700080EF0E94E006892D82CF80E8890D7FCF0B
:102B8000972C9094991C9924991C77FE02C0F0E828
:102B90007F0E823009F0A1CF80EF0E94E006872DE2
:102BA0000E94E006992059F080910101823009F0DD
:102BB00055C080EF0E94E00682E10E94E006D60147
:102BC0008C91887109F047C0809101019091D402E5
:102BD000992309F455C01092DB028230E9F4F70121
:102BE000ED59FD4F00810434D9F10D34D9F105318F
:102BF000D9F10C31D9F10B3631F0043721F005371A
:102C000011F0023719F480EE0E94E00680EF0E9476
:102C1000E006802F0E94E006809101018130D9F406
:102C2000F701E551FE4F0081083111F1093111F131
:102C3000003111F10E3111F10B3431F00D3421F06E
:102C4000083411F0003519F480EE0E94E00680E8A7
:102C5000800F0E94E006F601108299CD8AEAADCF7E
:102C60000BE6D1CF04E7CFCF05E7CDCF02E7CBCF3F
:102C70000BE4EACF0DE4E8CF08E4E6CF00E5E4CFCB
:102C8000823091F480EF0E94E006F701ED59FD4F8C
:102C90009080892D0E94E0068091DB02981201C08D
:102CA00080E08093DB02D7CFF701E551FE4F9080A3
:102CB00080E8890DEFCF8091DD028093DC0286B140
:102CC000082F007184FDFBCF359BFECF8091000162
:102CD000880F880F0E94D7063D9A80910001880FC7
:102CE000880F880F0E94D70685E00E9453008091CC
:102CF0000001880F880F0E94D706F12CE12CDD24FB
:102D0000D394349B0AC081E090E00E2C01C0880F60
:102D10000A94EAF7082B21E0D22680910001880F5F
:102D2000880F0E94D7063D9A80910001880F880F76
:102D3000880F0E94D70685E00E9453008091000111
:102D4000880F880F0E94D7068FEFE81AF80A98E0DC
:102D5000E916F104B1F686B182958170898B1A8AE1
:102D6000A989BA89DA161B0609F05AC080910001B8
:102D7000880F880F0E94D7063D9A80910001880F26
:102D8000880F880F0E94D70685E00E94530080912B
:102D90000001880F880F0E94D7063C9A809100019D
:102DA000880F880F0E94D7063D9A80910001880FF6
:102DB000880F880F0E94D70685E00E94530084E0A8
:102DC0000E945300EFE8F1E03197F1F700C00000F6
:102DD0000093DD0280EA96E8A1E0B0E08093DE0295
:102DE0009093DF02A093E002B093E1020E3E11F057
:102DF0000C942B0B8EEE0E94E0065092E202809122
:102E0000DD02823011F40C94490B10F00C94300B5D
:102E1000882311F40C943D0B813011F40C94490B70
:102E200089EE93E0019709F476C9349B44CFFAE127
:102E3000FA95F1F700C0F6CF80910101823009F0D8
:102E4000BDCD82E10E94E00682E18093D60245CDAD
:102E5000DC01CB01FC01F999FECF06C0F2BDE1BD5A
:102E6000F89A319600B40D9241505040B8F7089549
:102E7000F999FECF92BD81BDF89A992780B5089542
:102E8000DC01CB0103C02D910E944B1741505040F3
:102E9000D0F70895262FF999FECF1FBA92BD81BDB4
:102EA00020BD0FB6F894FA9AF99A0FBE01960895CC
:102EB000EE0FFF1F0590F491E02D0994F894FFCFD9
:102EC00001025A58554E4F05423224222C04044D1B
:102ED00021222C04024D2104073B3C4D432C242D80
:102EE00004031B1C3A0404442D432104032A4321F8
:102EF00004051C4D4D4B2404051C21442D310403B5
:102F000032322104051C2C1C2D43040321362504D8
:102F1000033A1B220403214D2104021A22011A2222
:102F20004D3C2D241A222B3C4B4B21443A32441B5E
:102F30001A224D1C2D2C431C4B21443A32441B4574
:102F4000161E26252E363D3E4602060009020002C8
:102F500000212B342B4B1C1B3324230101010101C5
:102F60000000000101010100010101010100010156
:102F7000000000000001000100000001000100004D
:102F800000000102030405060000003334292B2B46
:102F90001A1B0C0B0A2808281B001B1A00270035D7
:102FA00035000D0D0C07000034330902030405063B
:102FB00010111213141E1F2021220B0A09080719D1
:102FC00018171615002C2D2E2F1C2625242339000A
:102FD0003231303C3A00004B00000000000000009D
:102FE00000000E004D005000000000000000000036
:102FF000000F000000000100000000065800006BF8
:1030000000000000000000000000660074757200FF
:103010000000000000000000000D0000000076002D
:10302000000000161E26252E151D242D2C1C1B23EA
:103030002B3445463E3D364D44433C35001A222153
:103040002A5A4B423B3329003A313201020304052C
:10305000FFFF0EFFFF09FF0DFFFF000C080706FF33
:10306000FFFFFFFFFFFFFF0BFFFFFFFFFFFFFFFF64
:10307000FFFF0A0100040302030302020202030429
:103080000506070001040404040404020202030309
:0230900003003B
:00000001FF
