:100000000C943E000C945B000C945B000C945B0021
:100010000C945B000C945B000C945B000C945B00F4
:100020000C945B000C945B000C945B000C945B00E4
:100030000C945B000C945B000C945B000C945B00D4
:100040000C945B000C945B000C94F0080C945B0027
:100050000C945B000C945B000C945B000C945B00B4
:100060000C945B000C945B000C945B000C945B00A4
:100070000C945B000C945B000C945B0011241FBE7D
:10008000CFEFD0E1DEBFCDBF13E0A0E0B1E0E2E40E
:10009000F0E302C005900D92A23BB107D9F724E02E
:1000A000A2EBB3E001C01D92A436B207E1F70E94B3
:1000B0000A0A0C941F180C94000091B121E030E062
:1000C00001C0220F8A95EAF72095292321B90895C6
:1000D000FF920F931F93CF93DF93A62FB0E0C82F0B
:1000E000D0E0FD019BE0899FE00DF11D1124E65356
:1000F000FD4F80818C3409F49CC028F58C3009F4C4
:10010000BFC088F4843009F4B4C0853009F4A7C0B6
:10011000813009F07BC08091B303840F8093B303D7
:1001200021E083E0A3C0813409F492C0893409F44A
:1001300087C08D3009F06AC08091B303840F80932B
:10014000B30321E074C08B3609F4A8C008F057C08F
:10015000883509F49CC0863609F4BCC0823509F0A4
:1001600055C08091B203840F8093B20320E084E0F5
:1001700071E057E090E030E06BE0F62EF89E8001F1
:10018000F99E100D11240C521C4F020F131FF80181
:100190006081FC9E8001FD9E100D11240C521C4FAD
:1001A0000A0F1B1FF80110814F3F41F44091B30328
:1001B00041110CC04091B203411108C0F59EF001FD
:1001C0001124EC52FC4FE70FF11D10837BE0789F68
:1001D000A001799F500D11244C525C4F240F351F04
:1001E0007C9FC0017D9F900D11248C529C4FA80FC5
:1001F000B91F68718C91682BF901608307C084373F
:1002000009F461C048F4823709F44FC0DF91CF91FF
:100210001F910F91FF900895853709F44DC08637DF
:10022000A9F78091B303840F8093B30320E087E0A4
:100230001DC08091B203840F8093B20321E097CF59
:100240008091B203840F8093B20322E087E090CFC5
:100250008091B203840F8093B20323E0F7CF8091A3
:10026000B303840F8093B30320E080E070E055E097
:1002700081CF8091B303840F8093B30322E0F5CF45
:100280008091B303840F8093B30323E0EECF80917A
:10029000B303840F8093B30321E0E7CF8091B303CE
:1002A000840F8093B30324E0E0CF8091B303840FE5
:1002B0008093B30324E035CF8091B303840F809300
:1002C000B30323E02ECF8091B303840F8093B30355
:1002D00022E027CF8091B303840F8093B30320E003
:1002E00020CF843251F0982F977F953131F08334AD
:1002F00021F0893211F08A3509F480E09B012C50FD
:1003000031092330310528F490910101913009F42D
:10031000C5C5863109F4C2C5863209F4BFC5853228
:1003200009F4BCC58E3209F4B9C5882309F4B6C5F1
:10033000FB013197EE30F10508F097C3EE55FE4F03
:100340000C941918B001050255029B02EA0236030B
:100350007C03BF03020451049A04E304E304E304AE
:100360008E3109F484C38C3209F483C38D3209F4CD
:1003700082C3843309F481C38B3209F480C383328E
:1003800009F47FC38B3109F47EC38C3109F47DC33A
:10039000853309F47CC38C3309F47BC3843409F4BA
:1003A0007AC38D3409F479C38A3209F478C381326F
:1003B00009F477C3823209F476C38A3109F475C32C
:1003C000833309F474C38B3309F473C3823409F49F
:1003D00072C38B3409F471C3823309F470C381335F
:1003E00009F46FC38A3309F46EC3863309F456C522
:1003F0008D3309F453C58E3309F450C5863409F49E
:100400004DC5853409F061C308958E3109F45FC389
:100410008C3209F45EC38D3209F45DC3843309F470
:100420005CC38B3209F45BC3833209F45AC38B314A
:1004300009F459C38C3109F458C3863309F457C3FE
:100440008D3309F456C38E3309F455C3853409F44A
:1004500054C3853309F453C38C3309F452C3843431
:1004600009F451C38D3409F450C38A3209F44FC3DF
:10047000813209F44EC38A3109F44DC3833309F440
:100480004CC38B3309F44BC3823409F44AC38B3415
:1004900009F449C3823309F448C3813309F447C3DB
:1004A0008A3309F446C380E008958E3109F443C3CA
:1004B0008C3209F442C38D3209F441C38B3109F403
:1004C00040C3853309F43FC38C3309F43EC38434FD
:1004D00009F43DC38D3409F43CC38A3209F43BC3AB
:1004E000813209F43AC38A3109F439C3833309F4F8
:1004F00038C38B3309F437C3823409F436C38B34E1
:1005000009F435C3823309F434C3813309F433C3A6
:100510008A3309F432C3863309F4C0C48D3309F435
:10052000BDC48E3309F4BAC4863409F4B7C4853423
:1005300009F025C308958E3109F423C38C3209F4E0
:1005400022C38D3209F421C38D3109F420C38531D2
:1005500009F41FC3833209F41EC38B3109F41DC390
:10056000853309F41CC38C3309F41BC3843409F4A8
:100570001AC38D3409F419C38A3209F418C38132BD
:1005800009F417C38A3109F416C3833309F415C378
:100590008B3309F414C3823409F413C38B3409F484
:1005A00012C3823309F411C3813309F410C38A33AF
:1005B00009F40FC3863309F471C48D3309F46EC492
:1005C0008E3309F46BC4863409F468C4853409F0A9
:1005D00002C308958E3109F400C38C3209F4FFC2BE
:1005E0008D3209F4FEC28D3109F4FDC2853109F462
:1005F000FCC28B3109F4FBC28C3109F4FAC2843499
:1006000009F4F9C28D3409F4F8C28A3209F4F7C248
:10061000813209F4F6C2823209F4F5C28A3109F452
:10062000F4C2833309F4F3C28B3309F4F2C2823487
:1006300009F4F1C28B3409F4F0C2823309F4EFC239
:10064000813309F4EEC28A3309F4EDC2863309F42A
:1006500025C48D3309F422C48E3309F41FC48634B3
:1006600009F41CC4853409F0E0C208958E3109F400
:10067000DEC28C3209F4DDC28D3209F4DCC2833271
:1006800009F4DBC2853309F4DAC28C3309F4D9C228
:10069000843409F4D8C28D3409F4D7C28A3209F4FB
:1006A000D6C2813209F4D5C2823209F4D4C28A3169
:1006B00009F4D3C28B3309F4D2C2823409F4D1C213
:1006C0008B3409F4D0C2823309F4CFC2813309F4E8
:1006D000CEC28A3309F4CDC2863309F4DFC38D3329
:1006E00009F4DCC38E3309F4D9C3863409F4D6C3C4
:1006F000853409F0C0C208958C3209F4BEC28D322F
:1007000009F4BDC2863309F4BCC28D3309F4BBC2FF
:100710008E3309F4BAC2863409F4B9C2853409F4B7
:10072000B8C2853309F4B7C28C3309F4B6C2843435
:1007300009F4B5C28D3409F4B4C28A3209F4B3C2E3
:10074000813209F4B2C28A3109F4B1C2833309F4A7
:10075000B0C28B3309F4AFC2823409F4AEC28B3419
:1007600009F4ADC2823309F4ACC2813309F4ABC2DF
:100770008A3309F4AAC28E3109F0A9C208958E31D4
:1007800009F4A7C28C3209F4A6C28D3209F4A5C2BD
:100790008B3109F4A4C2853309F4A3C28C3309F464
:1007A000A2C2843409F4A1C28D3409F4A0C28A32F1
:1007B00009F49FC2813209F49EC28A3109F49DC2B4
:1007C0008B3309F49CC2823409F49BC28B3409F444
:1007D0009AC2823309F499C2813309F498C28A33E8
:1007E00009F497C2863309F459C38D3309F456C30B
:1007F0008E3309F453C3863409F450C3853409F0A9
:100800008AC208958C3209F488C28D3209F487C2F5
:10081000843309F486C28B3209F485C2833209F429
:1008200084C28B3109F483C2863309F482C28D33CA
:1008300009F481C28E3309F480C2863409F47FC280
:10084000853309F47EC28C3309F47DC2843409F403
:100850007CC28D3409F47BC28A3209F47AC28132B7
:1008600009F479C2823209F478C28A3109F477C274
:10087000833309F476C28B3309F475C2823409F4E8
:1008800074C28B3409F473C2823309F472C28133A7
:1008900009F471C28A3309F470C2853409F06FC259
:1008A00008958E3109F46DC28C3209F46CC28D3218
:1008B00009F46BC2843309F46AC28B3209F469C249
:1008C0008C3109F468C28D3309F467C2853409F4A8
:1008D00066C2843409F465C28D3409F464C28A3274
:1008E00009F463C2813209F462C2823209F461C23E
:1008F0008A3109F460C2833309F45FC28B3309F48F
:100900005EC2823409F45DC28B3409F45CC2823366
:1009100009F45BC2813309F45AC28A3309F459C21B
:10092000863309F4BBC28E3309F4B8C2863409F0A9
:1009300052C208958E3109F450C28C3209F44FC26C
:100940008D3209F44EC28B3209F44DC2833209F460
:100950004CC28D3309F44BC2853409F44AC2853345
:1009600009F449C2843409F448C28D3409F447C2F9
:100970008A3209F446C2813209F445C2823209F44E
:1009800044C28A3109F443C2833309F442C28B332F
:1009900009F441C2823409F440C28B3409F43FC2E5
:1009A000823309F43EC2813309F43DC28A3309F42B
:1009B0003CC2863309F472C28E3309F46FC28634A6
:1009C00009F035C20895853409F433C2863409F438
:1009D00032C28E3309F431C28D3309F430C286330A
:1009E00009F42FC28C3209F42EC28D3209F42DC2C3
:1009F000843309F42CC28B3209F42BC2833209F4FC
:100A00002AC28B3109F429C28C3109F428C28533FA
:100A100009F427C28C3309F426C2843409F425C2B0
:100A20008D3409F424C28A3209F423C2813209F4D4
:100A300022C28A3109F421C2833309F420C28B33E4
:100A400009F41FC2823409F41EC28B3409F41DC29A
:100A5000823309F41CC2813309F41BC28A3309F4BE
:100A60001AC28E3109F019C2089580E0089584ED0C
:100A7000089589E4089581E408958DE508958BE54E
:100A8000089581EE089584E5089581E608958BED3B
:100A900008958DED089582ED08958EE108958AEC14
:100AA00008958AE4089585E508958CEC089585ED10
:100AB00008958EEC089582E508958EE408958CE4FF
:100AC000089581EC089589EC089580E0089582E509
:100AD000089589E4089581E4089584E508958EE8F1
:100AE00008958DED08958DE508958BE5089582EDC7
:100AF00008958CE4089585E4089585ED08958EE1C8
:100B0000089584ED08958CEC08958EE308958AECA1
:100B100008958AE4089585E508958DE308958EEC9F
:100B200008958EE0089586E3089586E4089581ECA3
:100B3000089589EC089584ED089581E4089581E68F
:100B400008958EE408958CE4089582E5089582ED79
:100B500008958EE108958AEC08958AE408958CEC56
:100B600008958DED08958EEC089589E8089585ED3A
:100B700008958BED089581EE089581EC089580E04D
:100B800008958EE3089585ED08958EEC089587E825
:100B9000089588EF089582E508958BE5089581E42E
:100BA000089589E408958CEC08958EE108958AEC07
:100BB00008958AE408958CE408958DE5089584ED00
:100BC000089582ED08958BED08958DED089581ECE3
:100BD000089589EC089580E008958EE8089589E4E9
:100BE000089581E4089587E8089587E0089581E6EF
:100BF00008958EEC08958CEC08958EE108958AECAA
:100C000008958AE408958DE5089582ED089585EDAF
:100C100008958DED08958CE408958EE4089582E59D
:100C2000089581EC089589EC089580E0089585E4A5
:100C3000089589E4089581E408958DED089584E58B
:100C400008958BED08958CEC08958EE108958AEC5B
:100C500008958AE4089584E5089582ED08958EEC60
:100C600008958CE408958EE4089582E5089581EC5A
:100C7000089589EC089580E0089589E4089581E459
:100C800008958DE3089582ED089586E4089585E43E
:100C900008958EE4089584ED08958BED08958CEC0D
:100CA000089582E508958AEC08958AE408958CE415
:100CB000089586E308958EEC089585E5089585ED01
:100CC00008958EE3089581EC089589EC089580E0FD
:100CD000089584ED089581E4089581E6089585E5F9
:100CE00008958CE4089582E5089582ED08958EE1DB
:100CF00008958AEC08958AE408958CEC089585EDB2
:100D000008958EEC08958DED08958BED089581EE94
:100D1000089581EC089580E0089589E4089581E4C0
:100D200008958BE5089584E508958DED08958DE58A
:100D300008958DE3089582ED089586E4089585E48D
:100D4000089584ED08958BED08958CEC089582E567
:100D500008958AEC08958AE408958EE408958CE459
:100D6000089586E308958EEC089585E5089585ED50
:100D700008958EE3089581EC089589EC089580E04C
:100D800008958DE5089581E6089581EE08958DED2D
:100D9000089582ED08958CEC08958EEC08958AE410
:100DA000089581E408958EE108958DE308958EE419
:100DB000089584ED089589E4089584E508958AEC02
:100DC00008958BED089585E408958BE5089581ECF1
:100DD000089589EC089580E008958DED089581E6E9
:100DE000089581EE089582E508958EE808958EECC9
:100DF00008958AE4089584E5089581E408958EE1D4
:100E000008958DE308958EE4089582ED089589E4B0
:100E1000089584ED08958AEC08958BED089585E496
:100E200008958BE5089581EC089589EC089580E09C
:100E300008958EE4089585E4089586E4089582ED8A
:100E400008958DE3089589E4089581E408958BE57C
:100E5000089584E5089581EE08958DE508958EE066
:100E6000089584ED08958BED08958CEC089582E546
:100E700008958AEC08958AE408958CE4089586E341
:100E800008958EEC089585E5089585ED08958EE327
:100E9000089581EC089589EC089580E00895282F45
:100EA0006230B9F020F4613041F080E008956330A1
:100EB00091F06430D1F799B101C090B1892F90E0E1
:100EC00002C0959587952A95E2F780959095817057
:100ED000089593B1F3CF96B1F1CF6230D9F018F401
:100EE000613031F00895633039F16430B9F108951B
:100EF00021E030E0B90102C0660F771F8A95E2F762
:100F0000CB0191B1442321F08095892381B90895C3
:100F1000892BFCCF21E030E0B90102C0660F771FBA
:100F20008A95E2F7CB0194B1442321F0809589237F
:100F300084B90895892BFCCF21E030E0B90102C0CB
:100F4000660F771F8A95E2F7CB0197B1442321F012
:100F50008095892387B90895892BFCCF21E030E063
:100F6000B90102C0660F771F8A95E2F7CB019AB1EB
:100F7000442321F0809589238AB90895892BFCCFD9
:100F8000882331F095E19A95F1F700008450F8CF6D
:100F90000895EF92FF920F931F93CF93DF93E82E64
:100FA000069BFECF079BFCCF0F9A80910001880F14
:100FB000880F0E94C0070E9A80910001880F880F49
:100FC000880F0E94C00786E00E945D0080910001AA
:100FD000880F880F0E94C007D0E0C0E011E0F12C1C
:100FE00001E0C7010C2E02C0959587950A94E2F79F
:100FF00080FF63C087E00E945D00102780910001A0
:10100000880F880F0E94C0070E9A80910001880FF8
:10101000880F880F0E94C00786E00E945D008091C3
:101020000001880F880F0E94C0072196C830D105A3
:10103000C1F6112309F443C087E00E945D0080914E
:101040000001880F880F0E94C0070E9A809100014E
:10105000880F880F880F0E94C00786E00E945D00FD
:1010600080910001880F880F0E94C00787E00E94CE
:101070005D0080910001880F880F0E94C0070E9AC2
:1010800080910001880F880F880F0E94C00786E0BA
:101090000E945D0080910001880F880F0E94C007A8
:1010A00087EC90E00197F1F700C00000DF91CF914D
:1010B0001F910F91FF90EF9008950F9A9FCF0F9A75
:1010C000BECF0F931F93CF93DF93EC018091C503A5
:1010D0009091C603892B81F480EF0E94C90782E1B9
:1010E0000E94C90710920B0480EF0E94C90784E197
:1010F0000E94C907109222042FEF81EE94E0215044
:1011000080409040E1F700C0000089E20E94C907DA
:10111000EFEFF1EE24E0E150F0402040E1F700C0B5
:10112000000080EF0E94C90789E20E94C9078FEF83
:1011300091EEE4E081509040E040E1F700C0000013
:1011400089E40E94C907FFEF21EE84E0F1502040BE
:101150008040E1F700C0000080EF0E94C90789E4E9
:101160000E94C9078E010F5F1F4F888190E0980190
:101170002C1B3D0B821793074CF19FEFE1EEF4E03F
:101180009150E040F040E1F700C00000F80181918B
:101190008F010E94C907FFEF21EE84E0F15020404B
:1011A0008040E1F700C0000080EF0E94C907F8010D
:1011B000319780810E94C9079FEFE1EEF4E09150E2
:1011C000E040F040E1F700C00000CFCFC80FD91FCA
:1011D000898180930001DF91CF911F910F91089534
:1011E0001F920F920FB60F9211242F933F938F935C
:1011F0009F93AF93BF938091CC039091CD03A09127
:10120000CE03B091CF033091CB0323E0230F2D37D2
:1012100058F50196A11DB11D2093CB038093CC03FB
:101220009093CD03A093CE03B093CF038091C703D7
:101230009091C803A091C903B091CA030196A11D62
:10124000B11D8093C7039093C803A093C903B093C3
:10125000CA03BF91AF919F918F913F912F910F90B2
:101260000FBE0F901F90189526E8230F0296A11D20
:10127000B11DD2CFCF92EF92FF920F931F93CF93D6
:10128000DF93C82FD62F142FF22E8091630488236A
:1012900031F02AE12A95F1F700C01092630400238F
:1012A00069F080910101823009F09FC082E10E94C3
:1012B000C907809163048F5F80936304EE2081F0FF
:1012C00080910101823009F092C080EE0E94C9072E
:1012D00084E10E94C907809163048F5F8093630457
:1012E000CC2069F080910101823009F085C081E154
:1012F0000E94C907809163048F5F8093630480918B
:101300006304882331F08AE18A95F1F700C01092D6
:101310006304FF2019F080EE0E94C907812F0E940C
:10132000C9079FEFE0E7F2E09150E040F040E1F7BD
:1013300000C00000FF2019F080EE0E94C9078091D4
:101340000101823019F480EF0E94C90780910101E8
:10135000823009F053C0812F0E94C9072BE0C29F41
:10136000B00111246C527C4F6D0F711DFB01108276
:10137000002359F080910101823009F042C080EFD2
:101380000E94C90782E10E94C907EE2069F080919E
:1013900001018230C1F580EE0E94C90780EF0E94F2
:1013A000C90784E10E94C907CC2051F08091010156
:1013B000823071F580EF0E94C90781E10E94C90760
:1013C000FAE1FA95F1F700C081E08093D3038093AE
:1013D000D2031092D1038093D003DF91CF911F915C
:1013E0000F91FF90EF90CF9008958AE260CF80EE4A
:1013F0000E94C9078DE16DCF88E37ACF80E8810F25
:10140000ABCF8AEAC0CF80EE0E94C9078DE9CACF70
:1014100088EBD4CFCF93DF93CDB7DEB760970FB60D
:10142000F894DEBF0FBECDBF789484B5826084BDD2
:1014300084B5816084BD85B5826085BD85B58160D8
:1014400085BD80916E00816080936E001092810056
:101450008091810082608093810080918100816011
:1014600080938100809180008160809380008091D2
:10147000B10084608093B1008091B000816080935E
:10148000B00080917A00846080937A0080917A0025
:10149000826080937A0080917A00816080937A00E4
:1014A00080917A00806880937A001092C10080E871
:1014B00080936100109261001798169887E00E944F
:1014C0005D0086E00E945D0007E9802E03E0902E1B
:1014D00081E8A82E83E0B82E9CE8C92E93E0D92E8F
:1014E000EE24E394F12CD6011D916D01F5010191DB
:1014F0005F0141E0612F802F0E946D07123009F4D7
:101500007EC108F065C1113009F470C18C149D04CE
:1015100051F7B1EBCB2EB3E0DB2E17E9E12E13E050
:10152000F12E04EA13E0D8016D918D0141E0F7013D
:1015300081917F010E946D07C016D106A1F785E059
:10154000E2E0F1E0DE01169601900D928A95E1F756
:1015500045E050E070E060E0CE0101960E94E9179E
:10156000FE013196DE011696AD0121E0CD016191BB
:101570003D91631320E0E417F507C9F7222309F42E
:10158000AAC185E090E00E94F917082F10E01092A0
:10159000C4031092B60381E00115110529F0013052
:1015A000110509F03EC184E080930001053011056A
:1015B00009F03DC184E0809300010A30110509F073
:1015C0003CC184E0809300011093C6030093C503DF
:1015D00086E090E00E94F917833008F080E0809365
:1015E000B503AA24A394B12C77247394662463943E
:1015F0002091C5033091C603069B02C0079916C00F
:101600002C30310599F48091C40381110C94D117C9
:101610008091C0039091C103A091C203B091C30314
:10162000892B8A2B8B2B11F00C94D1178091C0033E
:101630009091C103A091C203B091C3030097A1058B
:10164000B10509F086C12C30310589F58091BD03C3
:10165000882369F18091BB039091BC039C012F5FAB
:101660003F4F3093BC032093BB03893E934020F44B
:10167000809101018230D9F48091B9039091BA032D
:101680009C012F5F3F4F3093BA032093B9038739F2
:10169000910568F08091B80381110E94C90780917B
:1016A000BD030E94C9071092BA031092B9031092A9
:1016B000D3038091D30381116EC064EDE62E63E005
:1016C000F62E77E9272E73E0372EE4EA4E2EE3E07C
:1016D0005E2ED12CF20111912F01D1010D911D012E
:1016E00040E0612F802F0E946D07123009F456C12F
:1016F00008F03BC1113009F447C1BAE1BA95F1F7DE
:1017000000C08701E1E8F3E0FC87EB878CE893E019
:101710009E878D87C12CAD85BE858D90BE87AD8798
:10172000EB85FC859190FC87EB87682D892D0E94C5
:101730004F07882309F46CC1F5E3FA95F1F700002F
:10174000682D892D0E944F07D801882309F44AC1CA
:101750008C9180FF37C182608C93B7E0BD1528F46F
:10176000E4E040E0EC1508F438C1C3940F5F1F4F6C
:10177000BBE0CB12D0CF41E0F20131976081F101A3
:10178000319780810E946D07D394EBE0EE0EF11C3F
:10179000FDE0DF129FCF8091D003882309F447C179
:1017A00044ED53E028E030E090E080E0FA01E80FFB
:1017B000F91F608160FD31E0019685309105B1F738
:1017C0002150455F5F4F2111EFCF3093D00371CF90
:1017D0001330F1F0143009F099CE8BB1970101C0AC
:1017E000220F0A95EAF7822B8BB990CE82B197012E
:1017F00001C0220F0A95EAF7822B82B987CE85B104
:10180000970101C0220F0A95EAF7822B85B97ECE97
:1018100088B1970101C0220F0A95EAF7822B88B997
:1018200075CE0230110569F484E080930001063022
:10183000110569F484E0809300010B30110569F40F
:10184000C0CE03301105F1F484E08093000107302D
:101850001105B9F584E0809300010C301105B9F54C
:1018600084E08093000181E08093C4031092C00360
:101870001092C1031092C2031092C30382E08093BE
:101880000101A2CE0430110509F090CE84E08093CE
:1018900000010930110509F090CE84E08093000129
:1018A0000D30110509F090CE84E080930001109274
:1018B000C40381E0809301018EE091E00E94610801
:1018C00083CE0830110529F784E0809300010E30A3
:1018D000110531F7C5CF45E050E070E060E00E94AF
:1018E000011860E085E090E00E940B1861E086E05E
:1018F00090E00E940B1875CE8AEF0E94C9070C94E5
:10190000C017823F09F18F3F11F00C94D1178AEA7A
:101910000E94C9071092C4030C94D1178091BE0392
:10192000803F11F00C94D117809101010E94C907EA
:101930000C94D1179091BE03903F11F00C94D117E5
:10194000809301010C94D1178BEA0E94C90783E8A8
:10195000EDCF0197A109B1098093C0039093C10312
:10196000A093C203B093C3036ECE133009F11430B9
:1019700009F0C3CE2BB1C50101C0880F0A95EAF763
:10198000809582238BB9B9CE22B1C50101C0880FE1
:101990000A95EAF78095822382B9AFCE25B1C501B9
:1019A00001C0880F0A95EAF78095822385B9A5CEF4
:1019B00028B1C50101C0880F0A95EAF780958223F6
:1019C00088B99BCE81608C93B7E0BD1508F0CDCE71
:1019D000E4E0EC1508F0C9CE41E06C2D8D2D0E949D
:1019E0006800C3CE8C9180FFC0CE8C7F84608C93C6
:1019F000B7E0BD1508F0B9CEE4E0EC1508F0B5CEBF
:101A00004FEF6C2D8D2D0E946800D8011C92ADCE39
:101A1000F801808180FFA9CE8C7F84608083F7E00D
:101A2000FD1508F0A2CE24E02C1550F39ECE809137
:101A3000B703882309F4C0C080910B0482FF0EC055
:101A400010920B048091C5039091C603892B31F449
:101A500080EF0E94C90782E10E94C9078091220499
:101A600082FF0EC0109222048091C5039091C6039C
:101A7000892B31F480EF0E94C90784E10E94C907D5
:101A800024EDC22E23E0D22E39E5832E33E0932EAF
:101A90004CE2442E44E0542E52E0352EF12CE12C41
:101AA000F601EE0DFF1D808180FF72C0F401EE0D86
:101AB000FF1D20812B87022F10E02090C50380910D
:101AC000C6038D871092C4031092B6038AE591E095
:101AD0000115110529F001301105C1F485E591E0EA
:101AE0000E94610805301105C1F48FE391E00E9466
:101AF000610881E291E00A301105B1F40E946108A9
:101B00009B859F30D8F1022D1D8538C0023011050C
:101B100089F480E591E00E9461080630110591F496
:101B200088E391E00E9461080B30110599F488E187
:101B300091E0E4CF0330110509F0C4C38BE491E0D8
:101B40000E9461080730110509F0DFC381E391E0CD
:101B50000E9461080C30110509F0DEC36092C403D5
:101B60001092C0031092C1031092C2031092C303DB
:101B70003092010184E191E00E9461086092D303F8
:101B80006092D2031092B7031093C6030093C5036B
:101B9000AFEFEA1AFA0AB5E0EB16F10409F080CFCC
:101BA000EBE0CE0ED11CF5E08F0E911C4C145D04C1
:101BB00009F074CF7092D3038091D30381117AC35B
:101BC00080910B0480FFE1C28091220480FFDDC27E
:101BD0008091D20381115BC68091C5039091C603A9
:101BE0000C970397C8F480910E0480FF07C081E032
:101BF0009091B603911180E08093B6038091170411
:101C000080FD7092D1032FEF83EC99E0215080404A
:101C10009040E1F700C000008091030480FF12C0F3
:101C20008091B503813031F08091C5039091C60356
:101C3000892B41F01092C4037092B7037092D303C2
:101C40007092D00380910101823009F059C58091D2
:101C5000190480FF68C08091C5039091C603892B49
:101C600009F061C08091B5038F5F833008F080E098
:101C70008093B50380EF0E94C90782E10E94C907E3
:101C800010920B0480EF0E94C90784E10E94C907EB
:101C90001092220480910101823009F040C0AFEF20
:101CA000B0E7E2E0A150B040E040E1F700C0000042
:101CB00089E20E94C907FFEF20E782E0F15020404F
:101CC0008040E1F700C0000080EF0E94C90789E270
:101CD0000E94C9079FEFA0E7B2E09150A040B0403A
:101CE000E1F700C0000089E40E94C907EFEFF0E7C8
:101CF00022E0E150F0402040E1F700C0000080EF1A
:101D00000E94C90789E40E94C9078091B503813008
:101D100009F440C308F40AC3823009F46FC3709217
:101D2000D3037092D2038091D40380FF0DC08091C1
:101D3000B503823049F0C12CE12C00E020E045E001
:101D400060E080E00E943A098091D50380FF0DC0D9
:101D50008091B503823049F0C12CE12C00E020E0F5
:101D600046E061E080E00E943A098091D60380FF5E
:101D70000DC08091B503823049F0C12CE12C00E008
:101D800020E044E062E080E00E943A098091D703BD
:101D900080FF0DC08091B503823049F0C12CE12C49
:101DA00000E020E04CE063E080E00E943A0980918E
:101DB000D80380FF0DC08091B503823049F0C12C5B
:101DC000E12C00E020E043E064E080E00E943A097A
:101DD0008091F90380FF0DC08091B503823049F0F6
:101DE000C12CE12C00E020E04BE064E083E00E94A5
:101DF0003A098091F80380FF0DC08091B5038230CD
:101E000049F0C12CE12C00E020E043E863E083E0EE
:101E10000E943A098091F70380FF0DC08091B503BD
:101E2000823049F0C12CE12C00E020E04AE062E081
:101E300083E00E943A098091F60380FF0DC08091F3
:101E4000B503823049F0C12CE12C00E020E041E0F4
:101E500061E083E00E943A098091F50380FF0DC0A4
:101E60008091B503823049F0C12CE12C00E020E0E4
:101E700049E060E083E00E943A098091DF0380FF3F
:101E80000DC08091B503823049F0C12CE12C00E0F7
:101E900020E048E760E081E00E943A098091E00399
:101EA00080FF0DC08091B503823049F0C12CE12C38
:101EB00000E020E047E061E081E00E943A09809183
:101EC000EB0380FF53C08091C5039091C603009738
:101ED00009F44CC00497D1F58AE00E94C907BFEF0E
:101EE000E0E7F2E0B150E040F040E1F700C0000070
:101EF00089E00E94C9072FEF80E792E021508040DF
:101F00009040E1F700C0000080EF0E94C90789E01F
:101F10000E94C907AFEFB3EDE0E3A150B040E0404D
:101F2000E1F700C0000080EF0E94C9078AE00E942C
:101F3000C907FFEF20E782E0F15020408040E1F741
:101F400000C000007092D3037092D2038091C50349
:101F50009091C603039751F4C12CEE24E39400E062
:101F600020E047E061E082E00E943A098091EA03C4
:101F700080FF13C08091B503813031F08091C5039B
:101F80009091C603892B49F0C12CE12C00E020E0A0
:101F900049E060E082E00E943A098091040480FFF9
:101FA00015C08091B503823031F48091C5039091C2
:101FB000C603892B59F0CC24C394EE24E39400E0AB
:101FC00020E043E064E084E00E943A098091250427
:101FD00080FF15C08091B503823031F48091C50334
:101FE0009091C603892B59F0CC24C394EE24E3943A
:101FF00000E020E046E664E087E00E943A09809134
:10200000240480FF15C08091B503823031F48091A3
:10201000C5039091C603892B59F0CC24C394EE24B8
:10202000E39400E020E041E763E087E00E943A09A2
:102030008091EE0380FF13C08091B503823031F4AC
:102040008091C5039091C603892B49F0C12CE12CE6
:1020500000E020E04EE764E082E00E943A098091CF
:102060000F0480FF0CC08091C5039091C60320919E
:10207000B503213009F4F6C1892B09F005C280911E
:102080000D0480FF0CC08091C5039091C603209180
:10209000B503213009F4AFC2892B09F0BEC280918B
:1020A000E10380FF0FC08091C5039091C603892B87
:1020B00049F0C12CE12C00E021E04DE762E081E035
:1020C0000E943A098091E20380FF0FC08091C5030E
:1020D0009091C603892B49F0C12CE12C00E021E04E
:1020E0004AE763E081E00E943A098091EC0380FFB7
:1020F0000FC08091C5039091C603892B49F0C12C74
:10210000E12C01E021E04DE762E082E00E943A0923
:102110008091ED0380FF0FC08091C5039091C603AD
:10212000892B49F0C12CE12C01E021E04AE763E072
:1021300082E00E943A0980911A0480FF0FC08091CA
:10214000C5039091C603892B49F0C12CE12C00E016
:1021500020E04BE764E086E00E943A098091230486
:1021600080FF0FC08091C5039091C603892B49F071
:10217000C12CE12C00E020E04CE762E087E00E9407
:102180003A098091D303811195C020910B04922FBD
:1021900091704091C5035091C603452B09F07AC355
:1021A000992379F021FD0DC082E10E94C907809139
:1021B0000B04826080930B04809163048F5F809393
:1021C00063048091220480FF0FC081FD0DC084E173
:1021D0000E94C9078091220482608093220480912A
:1021E00063048F5F8093630480910B0482FF0DC0B2
:1021F00080EF0E94C90782E10E94C90710920B0478
:10220000809163048F5F809363048091220482FF36
:102210000DC080EF0E94C90784E10E94C907109297
:102220002204809163048F5F809363048091630430
:10223000882331F0FAE1FA95F1F700C010926304B7
:102240000AEC12E084EDC82E83E0D82E4601F12C72
:10225000E12C2401D4018C9180FF08C081FD06C0CF
:10226000F801EE0DFF1D80810E94C907BFEF8B1A98
:102270009B0AF201808182FF0CC080EF0E94C90797
:10228000F801EE0DFF1D80810E94C907F40131970E
:102290001082FFEFEF1AFF0A25E0E216F104C9F6FB
:1022A000055F1F4F8BE0C80ED11CA2E2B3E0A01760
:1022B000B10761F680E090E0892B09F499C90E948A
:1022C000000096C90430110509F00CCC84E491E0BB
:1022D0000E9461080930110509F00BCC86E291E0FB
:1022E0000E9461080E30110509F00ACC6092C40307
:1022F0001092C0031092C1031092C2031092C30344
:102300003092010187E091E037CC0830110511F7D8
:102310008CE291E00E9461080D30110519F71092CE
:10232000C403609201018EE091E026CC00E711E049
:102330008FEF90E7A2E081509040A040E1F700C00D
:102340000000F801F1908F018F2D0E94C907FFEF67
:1023500020E782E0F15020408040E1F700C000001B
:1023600080EF0E94C9078F2D0E94C9079FEFA0E749
:10237000B2E09150A040B040E1F700C00000609191
:10238000B50386E090E00E940B18E1E00F371E07CE
:1023900079F6C5CC04E611E0FFEF20E782E0F150CA
:1023A00020408040E1F700C00000D801FD908D0181
:1023B0008F2D0E94C907BFEFE0E7F2E0B150E04087
:1023C000F040E1F700C0000080EF0E94C9078F2DA8
:1023D0000E94C9072FEF80E792E021508040904093
:1023E000E1F700C000006091B50386E090E00E9434
:1023F0000B18A1E000371A0779F691CC0EE511E031
:10240000BFEFE0E7F2E0B150E040F040E1F700C09C
:102410000000D801FD908D018F2D0E94C907BFEFEC
:10242000E0E7F2E0B150E040F040E1F700C000002A
:1024300080EF0E94C9078F2D0E94C9072FEF80E708
:1024400092E0215080409040E1F700C00000609190
:10245000B50386E090E00E940B18A1E004361A074D
:1024600079F65DCC892B81F480EF0E94C90782E167
:102470000E94C90710920B0480EF0E94C90784E1F3
:102480000E94C9071092220489E20E94C9079FEFA7
:10249000A0E7B2E09150A040B040E1F700C00000DA
:1024A00080EF0E94C90789E20E94C90799E8E92ED6
:1024B00091E0F92E10E000E00230110519F004302F
:1024C0001105D9F4EFEFF0E722E0E150F0402040B1
:1024D000E1F700C0000089E40E94C9078FEF90E790
:1024E000A2E081509040A040E1F700C0000080EFE2
:1024F0000E94C90789E40E94C907BFEFE0E7F2E044
:10250000B150E040F040E1F700C00000D701ED918C
:102510007D01F0E0E158FE4FD0808D2D0E94C9076B
:10252000BFEFE0E7F2E0B150E040F040E1F700C07B
:10253000000080EF0E94C9078D2D0E94C9072FEF70
:1025400080E792E0215080409040E1F700C0000019
:102550000F5F1F4F0830110509F0AECF89E20E94CE
:10256000C907AFEFB0E7E2E0A150B040E040E1F7CB
:1025700000C0000080EF0E94C90789E20E94C907DD
:102580008DE20E94C907FFEF20E782E0F150204072
:102590008040E1F700C0000080EF0E94C9078DE293
:1025A0000E94C9079FEFA0E7B2E09150A040B04061
:1025B000E1F700C0000086E10E94C907EFEFF0E7F5
:1025C00022E0E150F0402040E1F700C0000080EF41
:1025D0000E94C90786E10E94C9078FEF90E7A2E039
:1025E00081509040A040E1F700C000007092D303FA
:1025F0007092D20344CD892B81F480EF0E94C907E9
:1026000082E10E94C90710920B0480EF0E94C90763
:1026100084E10E94C907109222046091C50385E0FD
:1026200090E00E940B1880910101823009F063C094
:10263000BFEFE0E7F2E0B150E040F040E1F700C06A
:10264000000089E20E94C9072FEF80E792E0215045
:1026500080409040E1F700C0000080EF0E94C90771
:1026600089E20E94C907AFEFB0E7E2E0A150B040B5
:10267000E040E1F700C0000089E40E94C907FFEFD5
:1026800020E782E0F15020408040E1F700C00000E8
:1026900080EF0E94C90789E40E94C90701E911E09F
:1026A0009FEFA0E7B2E09150A040B040E1F700C03A
:1026B0000000F801F1908F018F2D0E94C907FFEFF4
:1026C00020E782E0F15020408040E1F700C00000A8
:1026D00080EF0E94C9078F2D0E94C9079FEFA0E7D6
:1026E000B2E09150A040B040E1F700C00000E1E04E
:1026F0000B391E07A9F67092D3037092D203CFCC88
:10270000813009F03ECD8091D40380FF0AC0C09093
:10271000D103E12C00E020E04BE360E080E00E9488
:102720003A098091D50380FF0AC0C090D103E12C03
:1027300000E020E04CE361E080E00E943A098091F3
:10274000D60380FF0AC0C090D103E12C00E020E056
:102750004DE362E080E00E943A098091D70380FF58
:102760000AC0C090D103E12C00E020E04EE363E01A
:1027700080E00E943A098091D80380FF0AC0C0908F
:10278000D103E12C00E020E04FE364E080E00E9410
:102790003A098091F90380FF0AC0C090D103E12C6F
:1027A00000E020E040E464E083E00E943A09809188
:1027B000F80380FF0AC0C090D103E12C00E020E0C4
:1027C00041E463E083E00E943A098091F70380FFCF
:1027D0000AC0C090D103E12C00E020E042E462E0B6
:1027E00083E00E943A098091F60380FF0AC0C090FE
:1027F000D103E12C00E020E043E461E083E00E94AB
:102800003A098091F50380FF0AC0C090D103E12C02
:1028100000E020E044E460E083E00E943A09809117
:10282000DF0380FF0AC0C090D103E12C00E020E06C
:1028300047E560E081E00E943A098091E00380FF73
:102840000AC0C090D103E12C00E020E048E561E03F
:1028500081E00E943A098091250480FF0BC0CC24BE
:10286000C394EE24E39400E020E04EE064E087E0CF
:102870000E943A098091240480FF83CCCC24C39425
:10288000EE24E39400E020E043E563E077CC10928F
:10289000D20377CC4091B403411169C08091B30356
:1028A000811165C08091B203811161C0992311F03B
:1028B00021FF06C09091220490FF17C091FD15C022
:1028C00064ED73E030E020E0853009F041C0211173
:1028D00044C02F5F3F4F25303105B1F78F5F655FF3
:1028E0007F4F883079F74093B403E4EDF3E0F88B41
:1028F000EF8710E01D86312C212C8F859889845D0F
:1029000093404C016101EF84F8881B869D859530CA
:10291000B9F5AB85A1113AC0FB85FF5FFB872FEFAF
:10292000E21AF20A8FEFC81AD80A9FEF891A990A99
:10293000F53061F7AD85AF5FAD87EF85F8893B96E0
:10294000F88BEF87F5E02F0E311CA830B1F6B2CC32
:10295000873019F4213009F4BCCFFB01E20FF31FDB
:102960009081592F517090FFB4CF452FB7CF91115F
:10297000BCCF8091220480FDB8CF1092B403B5CFB4
:10298000BD85B73019F4EB85E13031F2D7018C9178
:1029900080FF1AC181FD18C19091B40391110EC03E
:1029A00090910B0490FF02C088608C938091220468
:1029B00080FF04C0F701808180618083D7018C9102
:1029C00083FF2AC084FD28C080910101F601823076
:1029D00009F087C0EE55FD4F00811092BC031092A4
:1029E000BB031092B803011187C0823009F07CC08C
:1029F00082E10E94C90782E18093B80380910101BE
:102A0000F401823009F075C0E653FD4F5080852DEA
:102A10000E94C9075092BD03F701808184FF2FC037
:102A200083FD2DC04090C5035090C6031092BC0397
:102A30001092BB031092B803B201F401E653FD4FAC
:102A400080810E947101082F8823C9F0C2010C9770
:102A5000039708F079C080910101813009F074C0BA
:102A6000F601ED53FE4F0081F601E556FE4F8081E1
:102A700081116EC0802F0E94C9070093BD03D7014A
:102A80008C91887109F09CC0809101019091B603EE
:102A90001092BC031092BB03992309F4F0C010926A
:102AA000B803823009F061C0F401E653FD4F108194
:102AB000143409F452C01D3409F451C0153109F41D
:102AC00050C01C3109F44FC01B3639F0143729F0BF
:102AD000153719F0123709F066C080EE8093B803FD
:102AE00062C0E658FD4F78CF8AE20E94C9078AE2A9
:102AF00083CFE551FE4F8ACF823071F40B3631F02F
:102B00008CE8800F823010F0023731F480EE0E94A2
:102B1000C90780EE8093B80380910101813071F480
:102B20000B3431F00D3421F0083411F0003531F45C
:102B300080EE0E94C90780EE8093B803802F0E9428
:102B4000C9070093BD0368CF07FF37C2005892CF73
:102B50008AE20E94C9078AE239C21BE6BECF14E7A7
:102B6000BCCF15E7BACF12E7B8CF8130E1F4F4015A
:102B7000E551FE4F1081183109F479C0193109F47B
:102B800078C0103109F477C01E3109F476C01B34C7
:102B900009F4A3CF1D3409F4A0CF183409F49DCF54
:102BA000103509F49ACF1093BD038091B8038823A0
:102BB00019F080EE0E94C9078091BD030E94C907E9
:102BC000F701808182608083D7018C9182FFA4CE3F
:102BD00083FF21C084FD1FC080910101F601823076
:102BE00009F05BC0EE55FD4F00811092BD0301114D
:102BF00060C0823009F054C080EF0E94C907F40120
:102C0000E653FD4F80810E94C90780EF0E94C907EB
:102C100082E10E94C907F701808184FF8FC083FD94
:102C20008DC04090C5035090C6031092BD03B20101
:102C3000F401E653FD4F80810E947101082F882323
:102C400009F47CC020910101C2010C97039708F0A0
:102C500058C0213009F055C0F601ED53FE4F0081F8
:102C6000F601E556FE4F408080E8800F58C01BE417
:102C700034CF1DE432CF18E430CF10E52ECFF4016D
:102C8000823041F4E653FD4F80818093BD03109262
:102C9000B80392CFE551FE4FF7CFE658FD4FA4CFD2
:102CA000F401E551FE4F808180580E94C9078AEAED
:102CB000B0CF823059F40B3631F08CE8800F82307F
:102CC00010F0023719F480EE0E94C90780910101CB
:102CD000813059F40B3431F00D3421F0083411F007
:102CE000003519F480EE0E94C907809101018230FD
:102CF00029F480EF0E94C907802F8BCF80E8800FD6
:102D000088CF402E4094441C4424441C07FD0058A6
:102D1000223009F0A9CF80EF0E94C907802F0E94BE
:102D2000C907442059F080910101823009F055C053
:102D300080EF0E94C90782E10E94C907D7018C91E8
:102D4000887109F047C0809101019091B6039923E1
:102D500009F455C01092BD038230E9F4F401E65342
:102D6000FD4F10811434D9F11D34D9F11531D9F149
:102D70001C31D9F11B3631F0143721F0153711F021
:102D8000123719F480EE0E94C90780EF0E94C9072C
:102D9000812F0E94C907809101018130D9F4F4018B
:102DA000E551FE4F1081183111F1193111F1103137
:102DB00011F11E3111F11B3431F01D3421F01834A2
:102DC00011F0103519F480EE0E94C90780E8810FD8
:102DD0000E94C907F70110829FCD8AEAADCF1BE69A
:102DE000D1CF14E7CFCF15E7CDCF12E7CBCF1BE480
:102DF000EACF1DE4E8CF18E4E6CF10E5E4CF823057
:102E000081F480EF0E94C907F401E653FD4F508022
:102E1000852D0E94C9078091BD0358120EC080E025
:102E20000CC0F401E551FE4F008180E8800F0E9444
:102E3000C9078091BD03081791F38093BD03CACFE2
:102E40008091BF038093BE030799FECF069BFECF00
:102E500080910001880F880F0E94C0070E9A809110
:102E60000001880F880F880F0E94C00786E00E942B
:102E70005D0080910001880F880F0E94C00710E05C
:102E800000E0EE24E394F12C079B09C0C501002E5D
:102E900001C0880F0A94EAF7F82A21E0E22680911F
:102EA0000001880F880F0E94C0070E9A80910001D0
:102EB000880F880F880F0E94C00786E00E945D007F
:102EC00080910001880F880F0E94C0070F5F1F4F7D
:102ED00008301105C9F680B1082E000C990B88271F
:102EE000990F881F9927E816190609F05AC0809192
:102EF0000001880F880F0E94C0070E9A8091000180
:102F0000880F880F880F0E94C00786E00E945D002E
:102F100080910001880F880F0E94C0070F9A80914E
:102F20000001880F880F0E94C0070E9A809100014F
:102F3000880F880F880F0E94C00786E00E945D00FE
:102F400087E00E945D008FE891E00197F1F700C0F3
:102F50000000F092BF0380EA96E8A1E0B0E0809321
:102F6000C0039093C103A093C203B093C3039EEE2A
:102F7000F9120C947C0C8EEE0E94C9076092C40377
:102F80008091BF03823011F40C949A0C10F00C94D1
:102F9000810C882311F40C948E0C813011F40C9464
:102FA0009A0C89EE93E0019709F484C9079B48CFF6
:102FB000FAE1FA95F1F700C0F6CF80910101823075
:102FC00009F0C6CD82E10E94C90782E18093B8036F
:102FD00051CDDC01CB01FC01F999FECF06C0F2BD59
:102FE000E1BDF89A319600B40D9241505040B8F7C7
:102FF0000895F999FECF92BD81BDF89A992780B5C1
:103000000895DC01CB0103C02D910E940C184150A2
:103010005040D0F70895262FF999FECF1FBA92BDE0
:1030200081BD20BD0FB6F894FA9AF99A0FBE0196A9
:103030000895EE0FFF1F0590F491E02D0994F89488
:02304000FFCFC0
:1030420001025A58554E4F05423224222C04044D97
:1030520021222C04024D2104073B3C4D432C242DFC
:1030620004031B1C3A0404442D432104032A432174
:1030720004051C4D4D4B2404051C21442D31040331
:1030820032322104051C2C1C2D4304032136250455
:10309200033A1B220403214D2104021A22011A229F
:1030A2004D3C2D241A222B3C4B4B21443A32441BDB
:1030B2001A224D1C2D2C431C4B21443A32441B45F1
:1030C200161E26252E363D3E460206000902000245
:1030D20000212B342B4B1C1B332423010101010142
:1030E20000000001010101000101010101000101D3
:1030F20000000000000100010000000100010000CA
:1031020000000102030405060000003334292B2BC2
:103112001A1B0C0B0A2808281B001B1A0027003553
:1031220035000D0D0C0700003433090203040506B7
:103132000000000000001011121314000000000033
:10314200001E1F2021220000000000000B0A0908B7
:1031520007000000000000191817161500000000F3
:103162000000002C2D2E2F0000000000001C262540
:10317200242300000000000039003231300000003A
:1031820000000000000000000000000028270000EE
:1031920000000034330000000000000000003D3E4B
:1031A2003B3A004B00000000004D480E4300500027
:1031B200000000000000010F00003C3A00004B003C
:1031C2000000000000000000000E004D0050000052
:1031D20000000000000000000F00000000010000DD
:1031E2000000065800006B00000000000000000014
:1031F200006600747572000000000000000000000C
:103202000D000000007600000000161E26252E008C
:103212000000000000151D242D2C000000000000FD
:103222001C1B232B3400000000000045463E3D36A7
:103232000000000000004D44433C35000000000047
:1032420000001A22212A0000000000005A4B423BD3
:103252003300000000000029003A31320000000073
:103262000000000000000000000000524C000000BE
:1032720000004941000000000000000000040C05AD
:1032820058006B00000000007475660100720000B7
:103292000000000000760D00000102030405FFFF9C
:1032A2000EFFFF09FF0DFFFF000C080706FFFFFFDF
:1032B200FFFFFFFFFF0BFFFFFFFFFFFFFFFFFFFF10
:1032C2000A040302010000010203040501010101D5
:1032D20001020202020202070605040302010004BF
:1032E20003020100030303030303030304040404AE
:0232F2000400D6
:00000001FF
