:100000000C944F000C946C000C946C000C946C00DD
:100010000C946C000C946C000C946C000C946C00B0
:100020000C946C000C946C000C946C000C946C00A0
:100030000C946C000C946C000C946C000C946C0090
:100040000C946C000C946C000C94B3200C946C0019
:100050000C946C000C946C000C946C000C946C0070
:100060000C946C000C946C000C946C000C946C0060
:100070000C946C000C946C000C946C00DE02530326
:100080001B0488041D068606E5064907C4073408D4
:100090009F08CD091B04B50502054D052E09112445
:1000A0001FBECFEFD0E1DEBFCDBF13E0A0E0B1E0D7
:1000B000E0EEF2E402C005900D92AE3AB107D9F736
:1000C00024E0AEEAB3E001C01D92A238B207E1F726
:1000D0000E94A4200C946E210C94000091B121E0A8
:1000E00030E0082E01C0220F0A94EAF72095292358
:1000F00021B908956230D1F018F4613031F00895DB
:10010000633029F16430A1F1089591B121E030E02C
:10011000082E01C0220F0A94EAF7442321F020950B
:10012000292321B90895922B91B9089594B121E022
:1001300030E0082E01C0220F0A94EAF7442321F090
:100140002095292324B90895922B94B9089597B145
:1001500021E030E0082E01C0220F0A94EAF7442380
:1001600021F02095292327B90895922B97B9089556
:100170009AB121E030E0082E01C0220F0A94EAF77C
:10018000442321F0209529232AB90895922B9AB966
:100190000895623059F020F46130C1F420B109C0F3
:1001A000633031F0643091F429B103C023B101C050
:1001B00026B130E002C0359527958A95E2F7217087
:1001C000332781E02827822F8170089580E00895E9
:1001D0006230D1F018F4613031F00895633029F1C4
:1001E0006430A1F1089592B121E030E0082E01C001
:1001F000220F0A94EAF7411104C02095292322B95D
:100200000895922B92B9089595B121E030E0082E1F
:1002100001C0220F0A94EAF7411104C02095292356
:1002200025B90895922B95B9089598B121E030E051
:10023000082E01C0220F0A94EAF7411104C020954C
:10024000292328B90895922B98B908959BB121E0EC
:1002500030E0082E01C0220F0A94EAF7411104C0D1
:10026000209529232BB90895922B9BB908951798AF
:10027000169887E00E946E0086E00C946E00069B44
:1002800006C080B18095881F8827881F089581E067
:10029000089520E030E02817390749F02F5F3F4FDD
:1002A000079B07C04AE14A95F1F700C0F4CF80E010
:1002B000089581E00895882331F095E19A95F1F74A
:1002C00000008450F8CF0895BF92CF92DF92EF9252
:1002D000FF920F931F93CF93DF938C010799FECF6B
:1002E000069BFECF80910001880F880F0E945B0162
:1002F0000E9A80910001880F880F880F0E945B0181
:1003000086E00E946E0080910001880F880F0E9495
:100310005B01C0E0D0E0CC24C394D12CEE24E39464
:10032000F12CBB24B394079B08C097010C2E01C08D
:10033000220F0A94EAF7D22ACB2480910001880F79
:10034000880F0E945B010E9A80910001880F880F30
:10035000880F0E945B0186E00E946E008091000180
:10036000880F880F0E945B012196C830D105D9F60D
:1003700020B1332727FD30952227330F221F332743
:100380008C2D90E028173907B9F580910001880F6E
:10039000880F0E945B010E9A80910001880F880FE0
:1003A000880F0E945B0186E00E946E008091000130
:1003B000880F880F0E945B010F9A80910001880FBF
:1003C000880F0E945B010E9A80910001880F880FB0
:1003D000880F0E945B0186E00E946E0087E00E9409
:1003E0006E00EFE8F1E03197F1F700C00000F8018E
:1003F000D08280E090E002C08FEF9FEFDF91CF913D
:100400001F910F91FF90EF90DF90CF90BF900895D4
:10041000CF92DF92EF92FF920F931F93CF93DF93D0
:10042000CEE1D1E009E211E06E01780141E069918D
:10043000F80181918F010E947A0041E0F60160810C
:10044000F70180810E94E800F1E0C932DF0761F71F
:10045000C4E0D1E001E111E0699141E0F80181914E
:100460008F010E947A00F1E0C131DF07A9F7DF9127
:10047000CF911F910F91FF90EF90DF90CF90089553
:100480001092CE031092CD03009711F421E004C026
:100490008130910521F424E02093000115C08230C1
:1004A000910521F424E02093000115C083309105CB
:1004B00021F424E0209300011CC08430910521F434
:1004C00024E0209300011CC08530910521F424E034
:1004D000209300011CC08630910521F424E0209374
:1004E00000011CC08730910521F424E02093000115
:1004F0001CC08830910521F424E0209300011CC029
:100500008930910521F424E02093000118C08A303D
:10051000910521F424E02093000116C08B30910551
:1005200021F424E02093000112C08C30910521F4C5
:1005300024E02093000112C08D30910559F08E30D7
:10054000910511F426E007C08F30910519F0803134
:10055000910521F424E02093000108958131910553
:1005600089F424E02093000121E02093BE0310923F
:10057000BA031092BB031092BC031092BD0322E099
:10058000209303010895CF93DF93EC01DB01413108
:10059000510529F480910301813009F4FFC6888157
:1005A000882309F4FBC6415051094131510508F037
:1005B000F4C6425C5F4FFA010C9438218C31A1F0F3
:1005C000982F9F7E933291F0843481F08A3271F0BB
:1005D000982F9B7F9A3151F0913341F096EC980F10
:1005E00081E0933020F402C082E001C080E08C936F
:1005F00088818E3109F441C08C3209F452C08D32A9
:1006000009F44DC08433E9F18B32C9F1833299F199
:100610008B3199F18C31B9F1853389F18C3389F1C2
:100620008434B9F18D3479F18A3279F1813269F10A
:10063000823269F18A3189F1833349F18B3359F17F
:10064000823439F18B3439F1823339F1813339F124
:100650008A3339F1982F9F7E963209F49CC693EC29
:10066000980F923008F497C69BEB980F923008F4DD
:1006700092C680E090C681E68EC684E58CC68BE586
:100680008AC68DE588C68EE186C68AE484C685E57D
:1006900082C682E580C68EE47EC68CE47CC681E498
:1006A0007AC689E478C68D3109F440C08432E1F11C
:1006B0008334E1F18631D1F18E31A1F1863291F1AD
:1006C0008532A1F1982F977F963381F12BEB280F7C
:1006D000223060F1282F2D7F2C3241F1853311F12A
:1006E0008C3301F1843411F18D3401F18C31D1F06E
:1006F0008B31B1F09332B1F08433A1F08333B1F098
:100700008B34A1F08A3191F0823271F0813271F034
:100710008A3261F091E0823309F090E0892F07C0BE
:1007200085E005C088E003C089E001C081E08C93CA
:100730008881982F977F953109F465C0843209F438
:1007400060C0833409F44DC0863109F45AC08E313B
:1007500009F455C0863209F446C0853209F45FC0F9
:100760008E3209F442C0863309F441C08D3309F456
:1007700058C08E33F1F18634F1F1853409F44BC061
:1007800094ED980F9230C8F1853309F442C08C3350
:1007900009F44BC0843409F44AC08D3481F18C31A2
:1007A000F1F18B3171F1833271F18B3271F184335C
:1007B00071F1833371F18B3371F18234B1F18B3488
:1007C00061F18A31B1F1823251F1813251F18A32D3
:1007D00051F1823351F1813351F18A3351F180E08B
:1007E000DAC585E5D8C586E2D6C58EE2D4C586E3EE
:1007F000D2C58EE3D0C586E4CEC581E6CCC58EE1F8
:10080000CAC586E1C8C58EE0C6C582E5C4C58DE50A
:10081000C2C584E5C0C58AE4BEC585E4BCC585E221
:10082000BAC58EE4B8C58DE3B6C58BE5B4C581E421
:10083000B2C589E4B0C58534B1F08434B1F08A32F0
:10084000A1F0982F9B7F9A3181F0823471F08B3424
:1008500061F09FEC980F933040F096EC980F81E098
:10086000923020F402C084E001C080E08C93888143
:100870008534A1F18E3191F18D3209F445C08C326D
:1008800009F440C08B31B1F1853381F18C3341F1F2
:10089000843431F18D3431F18A3231F1813221F1F8
:1008A0008A3121F1833321F18B3321F1823421F11B
:1008B0008B3421F1823321F18A3321F1813321F10B
:1008C000982F9F7E963209F466C593EC980F92306C
:1008D00008F461C58634D1F080E05DC584E55BC570
:1008E00082E559C58EE157C58AE455C58CE453C5E8
:1008F0008DE551C58EE44FC589E04DC585E54BC5F5
:100900008BE549C589E447C581E445C586E443C50F
:1009100094ED980F9230A8F0982F977F953189F039
:10092000843479F08A3269F0823459F08B3449F09A
:100930009FEC980F923028F096EC980F81E092305F
:1009400008F480E08C9388818E33D1F18634D1F124
:10095000853409F449C08E31B9F18C32B9F18D3248
:10096000B9F18D31B9F18531B9F18332F9F18B31BA
:10097000F9F1853309F440C08C3309F43FC0843465
:1009800089F18D3459F18A3259F1813249F18A3134
:1009900049F1833379F18B3339F1823439F18B3476
:1009A00039F1823339F1813339F18A3339F1982FB2
:1009B0009F7E963209F4EFC48D3311F180E0EBC4D1
:1009C00086E4E9C485E4E7C48EE3E5C485E5E3C4D1
:1009D0008EE4E1C487E0DFC488E7DDC48EE1DBC4D8
:1009E0008AE4D9C48CE4D7C484E5D5C482E5D3C4F1
:1009F0008BE5D1C48DE5CFC481E4CDC489E4CBC4FB
:100A00008DE3C9C4843471F08B3461F0982F9F7DDD
:100A10009A3141F08A3231F091E0813309F490E06B
:100A2000892F01C080E08C938881843471F18B34EC
:100A300051F18A3171F18A3251F1813301F18A33F6
:100A4000E1F08C32D1F08D32D1F08D34D1F08B3396
:100A5000D1F08234D1F08132D1F08233D1F0982FAD
:100A60009F7E963209F497C48E33A9F09BEB980FC2
:100A7000923008F490C480E08EC489E48CC481E490
:100A80008AC48EE188C485E586C48CE484C48AE483
:100A900082C484E580C48EE37EC4843469F08B34E0
:100AA00059F08A3249F0982F9B7F913329F096ECC8
:100AB000980F81E0943008F480E08C93888186332D
:100AC000A1F18E33A1F18634A1F18D33A1F18534EA
:100AD000D1F18D3209F441C08C3209F440C0853324
:100AE00061F18C3361F1843491F18D3421F18B32D9
:100AF00021F1843321F1833321F18B3321F18234CD
:100B000021F18B3411F18A3111F1813211F18A32E4
:100B100001F1823301F1813301F18A3301F18E3128
:100B200001F1863201F180E036C48DE334C486E4FD
:100B300032C485E430C482E52EC484E52CC48BE540
:100B40002AC486E328C48EE426C485E524C48CE444
:100B500022C48AE420C48EE31EC481E41CC489E458
:100B60001AC48EE118C486E216C4982F9F7E933271
:100B700089F09CEB980F923068F0982F9B7F9A3108
:100B800049F08A3239F0913329F096EC980F81E0E0
:100B9000933008F480E08C938881833291F1833321
:100BA00091F18E3191F1853491F1853391F18C334E
:100BB00091F18434D1F18B34B1F18A31D1F18A329F
:100BC000B1F1813361F18A3341F18C3231F18D32EF
:100BD00031F18D3431F18B3331F1823431F18132A5
:100BE00031F1823331F1982F9F7E963209F4D3C3CD
:100BF00093EC980F923008F4CEC38634E1F080E095
:100C0000CAC386E0C8C38CE0C6C38DE5C4C385E013
:100C1000C2C384E5C0C38BE5BEC389E4BCC381E421
:100C2000BAC38EE1B8C385E5B6C38CE4B4C38AE425
:100C3000B2C38EE4B0C386E4AEC394EE980F933093
:100C400078F0843469F08A3259F08A3149F0982F6B
:100C50009D7F913329F096EC980F81E0923008F453
:100C600080E08C9388818E31C9F18C3209F44CC0BC
:100C70008D3209F447C0982F977F953189F18B31D8
:100C800089F18C31D9F18434B9F18D3469F18A322A
:100C900069F1813259F1823269F18A3189F1833304
:100CA00039F18B3339F1823439F18B3439F18233B4
:100CB00039F1813339F18A3339F1982F9F7E963299
:100CC00009F469C393EC980F923008F464C39BEB6A
:100CD000980F923008F45FC380E05DC38EE05BC381
:100CE00087E059C381E657C38EE155C38AE453C3F5
:100CF00085E551C38DE54FC38CE44DC38EE44BC3F2
:100D000082E549C381E447C389E445C3833269F07E
:100D1000843459F08A3249F08A3139F0813329F02C
:100D200096EC980F81E0933008F480E08C938881F2
:100D30008E31A9F18C3209F446C08D3209F441C0DC
:100D4000833279F18533A9F18C3369F1843499F1D7
:100D50008D3459F18A3259F1813249F1823249F1A7
:100D60008A3169F18B3349F1823429F18B3429F1CD
:100D7000823329F1813329F18A3329F1982F9F7E1B
:100D8000963209F408C393EC980F923008F403C329
:100D90009BEB980F923008F4FEC280E0FCC285E421
:100DA000FAC28DE5F8C28BE5F6C28EE1F4C28AE4A0
:100DB000F2C284E5F0C28CE4EEC28EE4ECC282E5BD
:100DC000EAC281E4E8C289E4E6C2843469F08A3286
:100DD00059F08B3449F0982F9B7F913329F096EC92
:100DE000980F81E0943008F480E08C9388818C32F5
:100DF00009F449C08D3209F444C0863351F18D3372
:100E000091F18E3341F1863441F18534A1F185337E
:100E100031F18C3331F1843451F18D3421F18A3246
:100E200021F1813211F18A3111F1833311F18B33C8
:100E300011F1823411F18B3401F1823301F18133EC
:100E400001F18A3301F1863201F18E3101F180E046
:100E5000A2C28DE3A0C286E49EC285E49CC284E562
:100E60009AC28BE598C282E596C28AE494C28CE469
:100E700092C286E390C28EE48EC285E58CC28EE378
:100E80008AC281E488C289E486C286E284C28EE195
:100E900082C28333D1F08232C1F08534C1F0843410
:100EA000C1F08A32B1F0982F9B7F9A3191F0823451
:100EB00081F08B3471F09FEC980F923050F096ECEB
:100EC000980F81E0923030F404C080E203C082E0E9
:100ED00001C080E08C9388818333C1F18232C1F1FB
:100EE0008332C1F18534C1F18E31B1F18D3209F413
:100EF00047C08C3209F442C08B31C1F18533A1F176
:100F00008C3361F1843451F18D3451F18A3251F1D5
:100F1000813241F18A3141F18B3341F1823441F127
:100F20008B3441F1823341F18A3341F1813341F114
:100F3000982F9F7E963209F42EC293EC980F923030
:100F400008F429C28634F1F080E025C281E723C28B
:100F500080E721C28AE31FC284E51DC282E51BC26D
:100F60008EE119C28AE417C28CE415C285E513C26A
:100F70008EE411C28DE50FC28BE50DC289E40BC270
:100F800081E409C286E407C2833279F0843469F0CF
:100F90008A3259F08B3449F0982F9B7F913329F096
:100FA00096EC980F81E0943008F480E08C9388816F
:100FB0008C3209F453C08D3209F44EC08433E1F110
:100FC0008B32C1F1833271F18B3161F1863361F182
:100FD0008D33A1F18E3351F1863451F1853351F1C6
:100FE0008C3351F1843471F18D3441F18A3241F105
:100FF000813231F1823251F18A3121F1833321F191
:101000008B3321F1823421F18B3411F1823311F1D0
:10101000813311F18A3311F1863211F18E3111F1E0
:1010200080E0B9C18DE5B7C18DE3B5C186E4B3C138
:1010300085E4B1C184E5AFC18BE5ADC182E5ABC14B
:101040008AE4A9C18CE4A7C186E3A5C18EE4A3C14B
:1010500085E5A1C18EE39FC181E49DC189E49BC167
:1010600086E299C18EE197C1982F9F7E9D3289F0CB
:10107000843379F08B3269F08C3159F0823249F047
:10108000823439F0813329F096EC980F81E0923068
:1010900008F480E08C9388818E31A9F194ED980F4B
:1010A000923078F1843379F18B3279F18C3179F1A6
:1010B0008D3399F18534A9F18434C9F18D3449F126
:1010C0008A3249F1813249F1823249F18A3189F11A
:1010D000833329F18B3329F1823439F18B3419F1BF
:1010E000823319F1813319F18A3319F1982F9F7ED8
:1010F000963209F450C18E33F1F08634F1F080E07D
:101100004AC181E648C18DE546C182E544C18CE40F
:1011100042C18EE140C18DE33EC18EE43CC184E515
:101120003AC18AE438C185E436C18BE534C181E433
:1011300032C189E430C18EE32EC186E42CC18C33E8
:10114000F1F08B31E1F08C31E1F08433D1F0853175
:10115000D1F08E31B1F0982F9F7E9D32A1F09EED9F
:10116000980F923080F0823471F0982F9D7F9133E8
:1011700051F096EC980F81E0923030F404C084E096
:1011800003C080E101C080E08C9388818C3309F436
:1011900059C08B3109F440C0853109F43FC094ED4A
:1011A000980F9230E8F18B3209F444C08332D1F1C8
:1011B0008D33F1F1853409F441C08533E9F184348C
:1011C00009F442C08D3481F18A3281F1813281F19A
:1011D000823281F18A31D1F1833371F18B3371F134
:1011E000823481F18B3461F1823361F1813361F1B9
:1011F0008A3361F1982F9F7E963209F4CCC08E33EA
:1012000039F1863439F1843339F1982F9D7F9C313F
:1012100009F4C1C080E0BFC086E1BDC08DE5BBC0A0
:1012200081E6B9C08EE0B7C08EE1B5C08DE3B3C032
:101230008EE4B1C082E5AFC084E5ADC08AE4ABC046
:1012400085E4A9C08BE5A7C081E4A5C089E4A3C05B
:101250008EE3A1C086E49FC084E39DC08C3131F150
:10126000823221F18E3121F1863211F1853111F175
:10127000843201F18D32F1F08B31D1F0982F977FCC
:101280009332B1F08433A1F08D33A1F08C3381F02F
:10129000853371F0823471F096EC980F923050F0F3
:1012A00091E0813309F490E0892F05C080E403C008
:1012B00088E001C080E08C9388818C3109F448C0BB
:1012C000823209F447C0982F977F953109F448C0BE
:1012D000843209F44DC094ED980F9230E8F18B31CF
:1012E000E9F18332E9F18B32E9F18433E9F18534B4
:1012F00009F446C08D33F1F18D34C1F1843409F421
:1013000045C08334A9F18C3309F442C08533D1F14F
:101310008A31D1F1813271F18A3271F18B3471F1FC
:101320008234B1F18B3361F1833361F18A3361F13E
:10133000813361F1823361F1982F9F7D9E3159F1A4
:10134000982F9F7E963239F1863421F180E023C0B8
:101350008EE721C08CE91FC081E61DC086E11BC05D
:101360008EE019C082E517C08DE515C08EE113C06F
:1013700085E511C08EE40FC08DE30DC085E40BC080
:101380008AE409C084E507C089E405C081E403C09C
:101390008BE501C086E4888301C01882DF91CF917C
:1013A00008950F931F93CF93DF9370E0282F30E0C1
:1013B000FB019BE0899FE00DF11D1124ED5FFC4FC7
:1013C00080818C3409F454C020F58C3009F477C046
:1013D00080F4843009F46CC0853009F462C0813037
:1013E00009F0DCC08091C303840F8093C30381E0C4
:1013F00090C0813409F44BC0893409F441C08D3068
:1014000009F0CCC08091C303840F8093C30381E0B3
:1014100082C08B3609F461C080F4883509F456C067
:10142000863609F470C0823509F0B8C08091C203D5
:10143000840F8093C20380E021C0843709F45CC02C
:1014400050F4823709F0AAC08091C303840F8093BF
:10145000C30384E05EC0853709F447C0863709F0CE
:101460009DC08091C303840F8093C30380E053C069
:101470008091C203840F8093C20381E0F4E00EC028
:101480008091C203840F8093C20382E006C08091E2
:10149000C203840F8093C20383E0F7E011E057E0BA
:1014A0003DC08091C303840F8093C30380E01BC0C1
:1014B0008091C303840F8093C30382E014C08091A2
:1014C000C303840F8093C30383E00DC08091C303E3
:1014D000840F8093C30381E006C08091C303840F0F
:1014E0008093C30384E0F0E017C08091C303840FAE
:1014F0008093C30383E00DC08091C303840F809366
:10150000C30382E006C08091C303840F8093C303AA
:1015100080E0F3E001C0F7E010E055E090E0EDE09E
:10152000CF2FD0E0DC01EF9FA00DB11D1124A153FE
:10153000BC4F0C914F3F41F44091C303411116C081
:101540004091C203411112C0E29FD001E39FB00D50
:101550001124A60FB71FA153BC4F4C91E59FF0017A
:101560001124E10FF11DE153FC4F40834DE04C9FEE
:10157000F0014D9FF00D1124E80FF91FE153FC4FCE
:10158000802F8871429FD001439FB00D1124A60F78
:10159000B71FA153BC4F9C91892B8083DF91CF91C2
:1015A0001F910F9108950F931F93CF93DF93162FE1
:1015B000D42FC22F882371F18091B303813019F0A9
:1015C000823079F027C08091030160E0823011F40D
:1015D00084E101C08DE10E94EF0B82E08093B303B0
:1015E00019C02FEF84E39CE0215080409040E1F748
:1015F00000C000008091030160E0823031F480EF90
:101600000E94EF0B60E084E101C08DE90E94EF0BC6
:101610001092B303112371F18091B203813019F05C
:10162000823079F027C08091030160E0823011F4AC
:1016300081E101C088E30E94EF0B82E08093B20356
:1016400019C02FEF84E39CE0215080409040E1F7E7
:1016500000C000008091030160E0823031F480EF2F
:101660000E94EF0B60E081E101C088EB0E94EF0B6C
:101670001092B203DD2371F18091B103813019F032
:10168000823079F027C08091030160E0823011F44C
:1016900082E101C08AE20E94EF0B82E08093B103F5
:1016A00019C02FEF84E39CE0215080409040E1F787
:1016B00000C000008091030160E0823031F480EFCF
:1016C0000E94EF0B60E082E101C08AEA0E94EF0B0A
:1016D0001092B103CC23F1F18091AF03813019F066
:1016E0008230B9F037C08091030160E0823031F47C
:1016F00080EE0E94EF0B60E081E105C080EE0E9469
:10170000EF0B60E088E30E94EF0B82E08093AF0371
:1017100021C02FEF84E39CE0215080409040E1F70E
:1017200000C000008091030160E0823051F480EE3F
:101730000E94EF0B60E080EF0E94EF0B60E081E120
:1017400005C080EE0E94EF0B60E088EB0E94EF0B7B
:101750001092AF030023F1F18091B003813019F0B2
:101760008230B9F037C08091030160E0823031F4FB
:1017700080EE0E94EF0B60E08FE105C080EE0E94DA
:10178000EF0B60E08BE50E94EF0B82E08093B003EB
:1017900021C02FEF84E39CE0215080409040E1F78E
:1017A00000C000008091030160E0823051F480EEBF
:1017B0000E94EF0B60E080EF0E94EF0B60E08FE192
:1017C00005C080EE0E94EF0B60E08BED0E94EF0BF6
:1017D0001092B003DF91CF911F910F910895AF92B6
:1017E000BF92DF92EF920F931F93CF93DF93182F47
:1017F000E62E0E943F018111FCCF0F9A80910001DB
:10180000880F880F0E945B010E9A80910001880F5B
:10181000880F880F0E945B0186E00E946E00809115
:101820000001880F880F0E945B01C0E0D0E001E05A
:10183000A12EB12CDD24D39495010C2E02C0359538
:1018400027950A94E2F720FF05C087E00E946E000A
:101850000D2501C00F9A80910001880F880F0E940A
:101860005B010E9A80910001880F880F880F0E94FB
:101870005B0186E00E946E0080910001880F880F56
:101880000E945B012196C830D105B1F6002321F0FA
:1018900087E00E946E0001C00F9A80910001880FBE
:1018A000880F0E945B010E9A80910001880F880FBB
:1018B000880F0E945B0186E00E946E00809100010B
:1018C000880F880F0E945B0187E00E946E00809164
:1018D0000001880F880F0E945B010E9A8091000121
:1018E000880F880F880F0E945B0186E00E946E00BF
:1018F00080910001880F880F0E945B0187EC90E0C7
:101900000197F1F700C00000EE2009F464C02091B7
:1019100003018091B3032230B9F5882319F0143103
:1019200009F459C08091B203882319F0113109F4E8
:1019300052C08091B103882319F0123109F44BC0D1
:101940008091AF03882319F0113109F444C08091CC
:10195000B003882311F01F31F1F18091AE03882389
:1019600061F0103F51F001E021E041E061E081E0F1
:101970000E94D30A1092AE032EC081E0103F09F0FE
:1019800080E08093AE0327C0882311F01D3919F140
:101990008091B203882311F0183BE9F08091B103E4
:1019A000882311F01A3AB9F08091AF03882311F01F
:1019B000183B89F08091B003882311F01B3D59F04A
:1019C000103E49F0113838F001E021E041E061E0DB
:1019D00081E00E94D30ADF91CF911F910F91EF9088
:1019E000DF90BF90AF90089561E00C94EF0B1F93D0
:1019F000CF93DF93D82F162FC42F1092B7031092D6
:101A0000B6031092B4039091030141112CC092309F
:101A100029F482E10E94F40C82E104C08AE20E946F
:101A2000F40C8AE28093B40320910301612F70E0EB
:101A30008D2F90E0223059F42BE0289FF001299F50
:101A4000F00D1124E60FF71FED5FFC4F0AC02BE0ED
:101A5000289FF001299FF00D1124E60FF71FE45B8A
:101A6000FD4FC08122C0923071F44B3631F08CE8CA
:101A7000840F823010F0423731F480EE0E94F40C73
:101A800080EE8093B40380910301813071F4CB34F4
:101A900031F0CD3421F0C83411F0C03531F480EE8E
:101AA0000E94F40C80EE8093B4038C2F0E94F40CFF
:101AB000C093B503DF91CF911F9108950F931F93AA
:101AC000CF93DF93D42F1092B5039091030141116E
:101AD0002BC0C62FD0E0082F10E09230A9F480EF81
:101AE0000E94F40C8BE0809FF001819FF00D112487
:101AF000EC0FFD1FED5FFC4F80810E94F40C80EF26
:101B00000E94F40C82E137C08BE0809FF001819F3E
:101B1000F00D1124EC0FFD1FE45BFD4F8081805818
:101B20000E94F40C8AEA27C0923059F44B3631F007
:101B30008CE8840F823010F0423719F480EE0E9456
:101B4000F40C80910301813059F4DB3431F0DD3441
:101B500021F0D83411F0D03519F480EE0E94F40C45
:101B600080910301823029F480EF0E94F40C8D2FC4
:101B700002C080E88D0FDF91CF911F910F910C94DF
:101B8000F40CFF920F931F93CF93DF938091C703C1
:101B90009091C803892BB1F460E080EF0E94EF0BB5
:101BA00060E0809102010E94EF0B1092100460E04F
:101BB00080EF0E94EF0B60E0809101010E94EF0B2B
:101BC00010922B0489E20E94F40C2FE789EA93E03B
:101BD000215080409040E1F700C0000080EF0E945B
:101BE000F40C89E20E94F40C06EA13E0C0E0D0E0B5
:101BF000C230D10519F0C430D105D9F4AFE7B9EA44
:101C000023E0A150B0402040E1F700C0000089E48B
:101C10000E94F40C8FE799EAA3E081509040A04025
:101C2000E1F700C0000080EF0E94F40C89E40E94FC
:101C3000F40CBFE729EA83E0B15020408040E1F78F
:101C400000C00000D801ED918D01F0E0E456FC4F9A
:101C5000F0808F2D0E94F40CBFE729EA83E0B15099
:101C600020408040E1F700C0000080EF0E94F40CAB
:101C70008F2D0E94F40C9FE7A9EAB3E09150A04099
:101C8000B040E1F700C000002196C830D10509F04E
:101C9000AFCF81E08093CA038093C903DF91CF91D6
:101CA0001F910F91FF9008951F93CF93DF93809121
:101CB000C7039091C803892BB1F460E080EF0E94C4
:101CC000EF0B60E0809102010E94EF0B1092100474
:101CD00060E080EF0E94EF0B60E0809101010E94C4
:101CE000EF0B10922B046091C70385E090E00E94F7
:101CF00060216091CC0386E090E00E946021809199
:101D00000301823049F081E08093CA038093C903C4
:101D1000DF91CF911F9108952FEF80E792E021503E
:101D200080409040E1F700C0000089E20E94F40C7E
:101D30002FEF80E792E0215080409040E1F700C013
:101D4000000080EF0E94F40C89E20E94F40C2FEF57
:101D500080E792E0215080409040E1F700C0000011
:101D600089E40E94F40C2FEF80E792E0215080403C
:101D70009040E1F700C0000080EF0E94F40C89E47D
:101D80000E94F40CC2E9D3E02FEF80E792E02150EB
:101D900080409040E1F700C000001991812F0E941F
:101DA000F40C2FEF80E792E0215080409040E1F763
:101DB00000C0000080EF0E94F40C812F0E94F40C00
:101DC0002FEF80E792E0215080409040E1F700C083
:101DD000000023E0CC39D207B9F695CFEF92FF92FD
:101DE0000F931F93CF93DF93EC018091C7039091E2
:101DF000C803892BB1F460E080EF0E94EF0B60E034
:101E0000809102010E94EF0B1092100460E080EFBD
:101E10000E94EF0B60E0809101010E94EF0B109295
:101E20002B042FEF81EE94E0215080409040E1F7A9
:101E300000C0000089E20E94F40CEFEFF1EE24E014
:101E4000E150F0402040E1F700C0000080EF0E9428
:101E5000F40C89E20E94F40C8FEF91EEE4E08150E3
:101E60009040E040E1F700C0000089E40E94F40CDB
:101E7000FFEF21EE84E0F15020408040E1F700C008
:101E8000000080EF0E94F40C89E40E94F40C8E01A3
:101E90000F5F1F4F888190E098012C1B3D0B82172C
:101EA00093074CF19FEFE1EEF4E09150E040F040F9
:101EB000E1F700C000007801F80181918F010E94D4
:101EC000F40CFFEF21EE84E0F15020408040E1F778
:101ED00000C0000080EF0E94F40CF70180810E9496
:101EE000F40CFFEF21EE84E0F15020408040E1F758
:101EF00000C00000CFCFC80FD91F89818093000197
:101F0000DF91CF911F910F91FF90EF900895EF9285
:101F1000FF920F931F93CF93DF93EC010091C703C0
:101F20001091C8031092CE031092CD03FF24F394B6
:101F300022E0E22E209719F488EA91E005C0C13032
:101F4000D10529F483EA91E00E94EE0E18C0C23058
:101F5000D10529F48EE991E00E94EE0E18C0C3303D
:101F6000D10529F489E991E00E94EE0E20C0C43029
:101F7000D10529F486E891E00E94EE0E20C0C5301C
:101F8000D10529F481E891E00E94EE0E20C0C63010
:101F9000D10529F48AE791E00E94EE0E20C0C730F7
:101FA000D10529F48AE591E00E94EE0E20C0C830E8
:101FB000D10529F485E791E00E94EE0E20C0C930DA
:101FC000D10529F48FE691E00E94EE0E1EC0CA30C2
:101FD000D10529F48AE691E00E94EE0E1CC0CB30B8
:101FE000D10529F481E691E00E94EE0E1AC0CC30B2
:101FF000D10529F48FE491E00E94EE0E18C0CD3097
:10200000D10519F484E991E023C0CE30D10519F44B
:102010008DE891E01DC0CF30D10519F484E491E042
:1020200017C0C031D10519F489E391E011C0C13165
:10203000D10581F4F092BE031092BA031092BB0353
:102040001092BC031092BD03E092030184E591E07D
:102050000E94EE0EC231D1051CF0C02FD12F6ACFE5
:10206000C131D10519F082E08093030181E08093B2
:10207000CA038093C9031092C603CE01DF91CF91AA
:102080001F910F91FF90EF90089560E081EE0E9404
:10209000EF0B60E084E10E94EF0B60E087E70E94B5
:1020A000EF0B60E081EE0E94EF0B60E080EF0E949A
:1020B000EF0B60E084E10E94EF0B60E080EF0E9494
:1020C000EF0B60E087E70E94EF0B2FEF81EE94E0CB
:1020D000215080409040E1F700C00000089560E08A
:1020E00080EE0E94EF0B60E082E10E94EF0B60E067
:1020F00080EE0E94EF0B60E08CE70E94EF0B2FEF69
:1021000081EE94E0215080409040E1F700C0000053
:1021100060E080EE0E94EF0B60E080EF0E94EF0B2A
:1021200060E082E10E94EF0B60E080EE0E94EF0B26
:1021300060E080EF0E94EF0B60E08CE70C94EF0B07
:102140001F93CF93DF93182FD62FC42F262F30E065
:10215000280F311D240F311D232B61F160E088E32E
:102160000E94EF0B112349F060E0812F0E94EF0BDA
:1021700060E080E8810F0E94EF0BDD2349F060E012
:102180008D2F0E94EF0B60E080E88D0F0E94EF0B17
:10219000CC2349F060E08C2F0E94EF0B60E080E8D8
:1021A0008C0F0E94EF0B60E088EBDF91CF911F91C5
:1021B0000C94EF0BDF91CF911F9108951F93CF9354
:1021C000DF93182FD62FC42F262F30E0280F311D74
:1021D000240F311D232BC9F160E081E10E94EF0B38
:1021E000112361F060E0812F0E94EF0B60E080EF2F
:1021F0000E94EF0B60E0812F0E94EF0BDD2361F066
:1022000060E08D2F0E94EF0B60E080EF0E94EF0BEB
:1022100060E08D2F0E94EF0BCC2361F060E08C2FEB
:102220000E94EF0B60E080EF0E94EF0B60E08C2FCC
:102230000E94EF0B60E080EF0E94EF0B60E081E115
:10224000DF91CF911F910C94EF0BDF91CF911F91F4
:102250000895CF92DF92EF92FF920F931F93CF9347
:10226000DF9300D0CDB7DEB76A0119821092B703B1
:102270001092B6031092B40390910301062F10E060
:10228000E82EF12C8BE08E9DF0018F9DF00D112436
:10229000E00FF11F913019F4E45BFD4F02C0ED5FD8
:1022A000FC4F80818A838091C7039091C803892B5A
:1022B00009F497C0A601BE016F5F7F4FCE01029661
:1022C0000E94C3028A81882309F4A3C021E1C216B7
:1022D000D10401F5809103018130E1F425E02E9DC8
:1022E000C0012F9D900D1124800F911FFC01E4501F
:1022F000FE4F20812A83FC01EC52FE4F8081982FF3
:102300009170282F2870F22E807410E0E12C00E0EC
:10231000D12C15C08981982F917081FBDD24D0F8D4
:1023200082FBEE24E0F883FBFF24F0F884FB002717
:1023300000F985FB112710F986FB882780F92A818F
:10234000222309F466C0811164C0992379F0809139
:102350000301823029F482E10E94F40C82E104C07E
:102360008AE20E94F40C8AE28093B403DD2051F0EB
:1023700080910301823031F484E10E94F40C84E105
:102380008093B403EE2051F080910301823031F448
:1023900081E10E94F40C81E18093B403FF2069F095
:1023A00060E080EE0E94EF0B80910301823011F417
:1023B00081E101C088E30E94F40C002359F0809170
:1023C0000301823039F460E080EE0E94EF0B84E17B
:1023D0000E94F40C1123B9F060E080EE0E94EF0B34
:1023E00012C08BE08E9DF0018F9DF00D1124E00F47
:1023F000F11FED5FFC4F80818A8384E10E94F40C21
:1024000084E18093B4038A810E94F40C8A818093D2
:10241000B5030F900F90DF91CF911F910F91FF9017
:10242000EF90DF90CF900895CF92DF92EF92FF92DE
:102430000F931F93CF93DF9300D01F92CDB7DEB7DA
:102440007A0119821092B503062F10E0C82ED12C04
:10245000F8019BE0899FE00DF11D1124ED5FFC4F19
:1024600080818A838091C7039091C803892B09F4E6
:10247000C9C0BE016F5F7F4FCE0102960E94C302AA
:102480008A81882309F4CAC081E1E816F10409F5BC
:10249000809103018130E9F425E02C9DC0012D9D40
:1024A000900D1124800F911FFC01E450FE4F2081FC
:1024B0002A83FC01EC52FE4F8081982F9170D92E17
:1024C000082F0870382F307490E0F12C10E0E12CC8
:1024D00016C08981982F9170D92E81FBEE24E0F8E7
:1024E00082FBFF24F0F883FB002700F984FB11270F
:1024F00010F985FB992790F986FB332730F98A81FB
:10250000882309F48BC02091030131114FC0223080
:1025100059F4992321F060E080EE0E94EF0B80EFE8
:102520000E94F40C8A8101C080580E94F40CDD20C6
:1025300061F080910301823029F480EF0E94F40C55
:1025400082E101C08AEA0E94F40CEE2051F08091F1
:102550000301823031F480EF0E94F40C84E10E9488
:10256000F40CFF2051F080910301823031F480EFB0
:102570000E94F40C81E10E94F40C002379F080EEBB
:102580000E94F40C80910301823029F480EF0E94B4
:10259000F40C81E101C088EB0E94F40C1123F1F1ED
:1025A000809103018230D1F580EE30C08E3729F45E
:1025B000223091F494E702E70DC08C3929F42230DF
:1025C00039F09DE40CE40AC090E000E010E007C0A0
:1025D00094E703E719E60CC09DE400E51FE4213011
:1025E00039F4492F602F812F9B830E94A0109B817B
:1025F00080910301823091F4492F602F812F0E9436
:10260000DE100CC080EF0E94F40C8A810E94F40C52
:1026100080EF0E94F40C84E10E94F40C0F900F9064
:102620000F90DF91CF911F910F91FF90EF90DF906E
:10263000CF9008950F93CF93DF93D82FC62F01E04B
:1026400021E041E061E081E00E94D30A8DE0D89F63
:10265000F0011124EC0FF11DE153FC4F1082DF91CA
:10266000CF910F9108954F925F926F927F928F92C8
:10267000AF92CF92EF92FF920F931F93CF93DF937E
:10268000CDB7DEB7F82E662E142F722E8091CB03B5
:10269000882331F02AE12A95F1F700C01092CB038C
:1026A000002371F080910301823011F482E101C0B6
:1026B0008AE20E94F40C8091CB038F5F8093CB035E
:1026C000EE2071F080910301823011F484E101C0A9
:1026D0008DE10E94F40C8091CB038F5F8093CB033C
:1026E000CC2071F080910301823011F481E101C0AE
:1026F00088E30E94F40C8091CB038F5F8093CB031F
:10270000AA20A1F080910301823029F480EE0E947A
:10271000F40C81E104C080EE0E94F40C88E30E9476
:10272000F40C8091CB038F5F8093CB038820A1F0C2
:1027300080910301823029F480EE0E94F40C8FE135
:1027400004C080EE0E94F40C8BE50E94F40C909182
:10275000CB039F5F9093CB038091CB03882331F011
:102760008AE18A95F1F700C01092CB03772019F027
:1027700080EE0E94F40C812F0E94F40C9FEF21EE5A
:1027800084E0915020408040E1F700C000007720B5
:1027900019F080EE0E94F40C80910301823019F44C
:1027A00080EF0E94F40C80910301823011F4812F9C
:1027B00002C080E8810F0E94F40C712C4F2C512C28
:1027C000F3019DE0F99EE00DF11D1124E153FC4F52
:1027D0001082002361F080910301823029F480EFA0
:1027E0000E94F40C82E101C08AEA0E94F40CEE20FF
:1027F00061F080910301823029F480EF0E94F40C93
:1028000084E101C08DE90E94F40CCC2061F080913C
:102810000301823029F480EF0E94F40C81E101C0B1
:1028200088EB0E94F40CAA2091F080910301823081
:1028300041F480EE0E94F40C80EF0E94F40C81E1E0
:1028400004C080EE0E94F40C88EB0E94F40C8820F7
:1028500091F080910301823041F480EE0E94F40CEB
:1028600080EF0E94F40C81E104C080EE0E94F40C21
:1028700088EB0E94F40C2AE12A95F1F700C001E0F0
:1028800021E041E061E081E00E94D30A8DE0849D77
:10289000F001859DF00D1124E60DF71DE153FC4F6D
:1028A0001082DF91CF911F910F91FF90EF90CF9009
:1028B000AF908F907F906F905F904F9008958F9220
:1028C000AF92CF92EF920F931092C503823309F427
:1028D000FAC0B8F4833209F450C060F4813279F15F
:1028E000823209F080C10F91EF90CF90AF908F901E
:1028F0000C94540E8A3209F4DAC0813309F4F5C01D
:1029000072C1853309F41AC138F4833309F45AC00B
:10291000843309F432C167C18C3321F0843409F463
:102920008FC061C181E08093C6032FEF84E39CE0F8
:10293000215080409040E1F700C0000059C18091D3
:10294000C7039091C8038B30910519F00397029744
:1029500050F41092CE0381E09091CD03911180E06C
:102960008093CD0340C11092CD0381E09091CE03BE
:10297000911180E08093CE0336C18091C70390917E
:10298000C803892B09F034C181E09091CC039111E7
:1029900080E08093CC0360E080EF0E94EF0B60E06A
:1029A000809102010E94EF0B1092100460E080EF12
:1029B0000E94EF0B60E0809101010E94EF0B1092EA
:1029C0002B0411C18091C7039091C803049709F0AB
:1029D0000FC18AE00E94F40C2FEF80E792E02150B3
:1029E00080409040E1F700C0000089E00E94F40CB4
:1029F0002FEF80E792E0215080409040E1F700C047
:102A0000000080EF0E94F40C89E00E94F40C2FEF8C
:102A100083ED90E3215080409040E1F700C000003A
:102A200080EF0E94F40C8AE00E94F40C2FEF80E704
:102A300092E0215080409040E1F700C00000D3C0F8
:102A40008091C7039091C803059711F5812CA12CA3
:102A5000C12CE12C00E020E047E061E084E00E942E
:102A6000331382E10E94F40C2FEF83ED90E32150A9
:102A700080409040E1F700C0000080EF0E94F40C1D
:102A800082E10E94F40C81E08093CA038093C90321
:102A90008091C7039091C803029709F0A9C0809163
:102AA0000301813011F448E55BC047E059C08091D3
:102AB0000301823009F09CC00F91EF90CF90AF904E
:102AC0008F900C94C10D80910301813011F44EE080
:102AD00001C046E6812CA12CCC24C394EE24E394BF
:102AE00000E020E064E087E045C080910301813090
:102AF00011F443E501C041E7812CA12CCC24C394FF
:102B0000EE24E39400E021E063E087E00E943313C9
:102B10008091C7039091C803419709F069C081E093
:102B20008093BE031092BA031092BB031092BC03B1
:102B30001092BD0382E0809303015AC08091C703C5
:102B40009091C8038230910520F00A97029708F00F
:102B50004FC080910301813011F44FE301C043E085
:102B6000812CA12CCC24C394EE24E39400E020E03B
:102B700064E084E00E9433133BC08091C7039091CE
:102B8000C803009771F09C012450310922303105AF
:102B900040F0245031092230310518F08D7F0C9718
:102BA00099F480910301813011F446E401C04EE7AD
:102BB000812CA12CCC24C394EE24E39400E020E0EB
:102BC00064E082E00E9433138091C7039091C803B0
:102BD000029771F464E082E00F91EF90CF90AF9094
:102BE0008F900C946F1081E08093CA038093C90387
:102BF0000F91EF90CF90AF908F900895BF92CF92AA
:102C0000DF92EF92FF920F931F93CF93DF93B62E35
:102C1000C82FD0E0CE018C5F9E4F7C018E010F5EED
:102C20001E4F40E0FC016081F80180810E947A0023
:102C300040E0F7016081F80180810E94E800FAE13C
:102C4000FA95F1F700C0CE018C5F9E4F6C01FE013A
:102C5000EF5EFE4F7F016B2D70E08B01025E1E4F19
:102C6000EB01C75DDE4FF801608188810E94C900D9
:102C70008111F9CF41E0F6016081F7018081DF9198
:102C8000CF911F910F91FF90EF90DF90CF90BF9069
:102C90000C947A002F923F924F925F926F927F92A4
:102CA0008F929F92AF92BF92CF92DF92EF92FF925C
:102CB0000F931F93CF93DF9300D000D0CDB7DEB733
:102CC0001092CA038091CA03882349F08091C403FB
:102CD000882309F4A3C02FEC33E040E08AC0A4E0CD
:102CE000EA2EA1E0FA2E01E111E0BFEC8B2EB3E059
:102CF0009B2E712C40E0F7016081F80180810E94D9
:102D00007A0040E0F7016081F80180810E94E800CC
:102D1000FAE1FA95F1F700C0EEE1AE2EE1E0BE2E49
:102D2000F9E2CF2EF1E0DF2E2401612CF501608164
:102D3000F60180810E94C900882349F1F5E3FA95E4
:102D4000F1F70000F5016081F60180810E94C90061
:102D5000F2018823E9F0808180FF0AC082608083CD
:102D6000F7E0F71540F524E0261528F540E00AC005
:102D70008160F2018083F7E0F715E8F424E026157E
:102D8000D0F441E0662D872D0E94D10914C0F201D4
:102D9000808180FF10C08C7F84608083F7E0F7150E
:102DA00050F424E0261538F44FEF662D872D0E944D
:102DB000D109F20110826394FFEFAF1ABF0A2FEF1F
:102DC000C21AD20A8FEF481A580A9BE06912AECF96
:102DD00041E0F70161917F01F80181918F010E942B
:102DE0007A007394FDE08F0E911C2DE0721282CF59
:102DF0006DCF80E090E0F901E80FF91F508150FDA0
:102E000041E0019685309105B1F7235F3F4F84E0A3
:102E10002733380771F74093C40354CF8091C5031B
:102E2000811105C08091C603882309F479C080917F
:102E3000100482FF11C0109210048091C70390917A
:102E4000C803892B49F460E080EF0E94EF0B60E03B
:102E5000809102010E94EF0B80912B0482FF11C030
:102E600010922B048091C7039091C803892B49F4D9
:102E700060E080EF0E94EF0B60E0809101010E9412
:102E8000EF0B0FEC13E06CEAC62E61E0D62EE12CBE
:102E9000F12C7BE0B72E812C912C8091C5038823E7
:102EA00099F0F801E80DF91D808180FF0DC0BE9CEE
:102EB000F001BF9CF00D1124E80DF91DED5FFC4FF2
:102EC00080810E945F141CC08091C603882389F012
:102ED000F801E80DF91D808180FF0BC0F601E80DB7
:102EE000F91D808190E00E94870F9093C803809322
:102EF000C7039FEF891A990AE5E08E16910469F6D7
:102F0000FFEFEF1AFF0A035F1F4F25E0C20ED11C2F
:102F100088E0E816F10409F0BECF81E08093CA038F
:102F20008091CA03811101C58091100480FFFDC406
:102F300080912B0480FFF9C48091C9038111F7C4EB
:102F40008091EC0380FF10C081E08093C5038093E3
:102F5000CA038093C4039FEFE4E3FCE09150E04098
:102F6000F040E1F700C000008091110480FF1CC018
:102F70008091C7039091C803892B21F48091CC03E1
:102F8000882391F08091B303811101C081E0809387
:102F9000B30300E020E040E060E081E00E94D30A5B
:102FA00061E085E00E94FE158091130480FF1CC043
:102FB0008091C7039091C803892B21F48091CC03A1
:102FC000882391F08091B203811101C081E0809348
:102FD000B20300E020E040E061E080E00E94D30A1C
:102FE00063E085E00E94FE158091E90380FF1CC02C
:102FF0008091C7039091C803892B21F48091CC0361
:10300000882391F08091B103811101C081E0809308
:10301000B10300E020E041E060E080E00E94D30ADC
:1030200060E082E00E94FE158091120480FF1CC0C7
:103030008091C7039091C803892B21F48091CC0320
:10304000882391F08091B003811101C081E08093C9
:10305000B00301E020E040E060E080E00E94D30A9D
:1030600062E085E00E94FE1580912C0480FF1CC068
:103070008091C7039091C803892B21F48091CC03E0
:10308000882391F08091AF03811101C081E080938A
:10309000AF0300E021E040E060E080E00E94D30A5E
:1030A00062E087E00E94FE158091CF0380FF20C080
:1030B0008091C7039091C803892B21F48091CC03A0
:1030C0008823B1F08090B003A090AF03C090B2030A
:1030D000E090B3030091B10380910301813011F4BA
:1030E0004BE301C045E020E060E080E00E94331344
:1030F0008091D00380FF20C08091C7039091C803C6
:10310000892B21F48091CC038823B1F08090B00307
:10311000A090AF03C090B203E090B3030091B1035D
:1031200080910301813011F44CE301C046E020E0BE
:1031300061E080E00E9433138091D10380FF20C0C2
:103140008091C7039091C803892B21F48091CC030F
:103150008823B1F08090B003A090AF03C090B20379
:10316000E090B3030091B10380910301813011F429
:103170004DE301C044E020E062E080E00E943313B0
:103180008091D20380FF20C08091C7039091C80333
:10319000892B21F48091CC038823B1F08090B00377
:1031A000A090AF03C090B203E090B3030091B103CD
:1031B00080910301813011F44EE301C04CE020E026
:1031C00063E080E00E9433138091D30380FF20C02E
:1031D0008091C7039091C803892B21F48091CC037F
:1031E0008823B1F08090B003A090AF03C090B203E9
:1031F000E090B3030091B10380910301813011F499
:103200004FE301C043E020E064E080E00E9433131C
:103210008091FA0380FF20C08091C7039091C8037A
:10322000892B21F48091CC038823B1F08090B003E6
:10323000A090AF03C090B203E090B3030091B1033C
:1032400080910301813011F440E401C04BE020E0A3
:1032500064E083E00E9433138091F90380FF20C073
:103260008091C7039091C803892B21F48091CC03EE
:103270008823B1F08090B003A090AF03C090B20358
:10328000E090B3030091B10380910301813011F408
:1032900041E401C043E820E063E083E00E9433138F
:1032A0008091F80380FF20C08091C7039091C803EC
:1032B000892B21F48091CC038823B1F08090B00356
:1032C000A090AF03C090B203E090B3030091B103AC
:1032D00080910301813011F442E401C04AE020E012
:1032E00062E083E00E9433138091F70380FF20C0E7
:1032F0008091C7039091C803892B21F48091CC035E
:103300008823B1F08090B003A090AF03C090B203C7
:10331000E090B3030091B10380910301813011F477
:1033200043E401C041E020E061E083E00E94331308
:103330008091F60380FF20C08091C7039091C8035D
:10334000892B21F48091CC038823B1F08090B003C5
:10335000A090AF03C090B203E090B3030091B1031B
:1033600080910301813011F444E401C049E020E080
:1033700060E083E00E9433138091DC0380FF20C073
:103380008091C7039091C803892B21F48091CC03CD
:103390008823B1F08090B003A090AF03C090B20337
:1033A000E090B3030091B10380910301813011F4E7
:1033B00047E501C048E720E060E081E00E94331368
:1033C0008091DD0380FF20C08091C7039091C803E6
:1033D000892B21F48091CC038823B1F08090B00335
:1033E000A090AF03C090B203E090B3030091B1038B
:1033F00080910301813011F448E501C047E020E0ED
:1034000061E081E00E9433138091EA0380FF20C0D5
:103410008091C7039091C803892B21F48091CC033C
:103420008823B1F08090B003A090AF03C090B203A6
:10343000E090B3030091B10380910301813011F456
:1034400046E501C041E620E061E082E00E943313DE
:103450008091050480FF20C08091C7039091C8032C
:10346000892B21F48091CC038823B1F08090B003A4
:10347000A090AF03C090B203E090B3030091B103FA
:1034800080910301813011F445E401C047E720E059
:1034900062E084E00E9433138091040480FF20C026
:1034A0008091C7039091C803892B21F48091CC03AC
:1034B0008823B1F08090B003A090AF03C090B20316
:1034C000E090B3030091B10380910301813011F4C6
:1034D0004AE101C044E520E061E084E00E9433134A
:1034E0008091030480FF20C08091C7039091C8039E
:1034F000892B21F48091CC038823B1F08090B00314
:10350000A090AF03C090B203E090B3030091B10369
:1035100080910301813011F44BE101C04BE520E0C3
:1035200060E084E00E9433138091DE0380FF20C0BE
:103530008091C7039091C803892B21F48091CC031B
:103540008823B1F08090B003A090AF03C090B20385
:10355000E090B3030091B10380910301813011F435
:1035600047E301C04CE720E062E081E00E943313B2
:103570008091DF0380FF20C08091C7039091C80332
:10358000892B21F48091CC038823B1F08090B00383
:10359000A090AF03C090B203E090B3030091B103D9
:1035A00080910301813011F44AE401C04BE720E02F
:1035B00063E081E00E9433138091EB0380FF20C021
:1035C0008091C7039091C803892B21F48091CC038B
:1035D0008823B1F08090B003A090AF03C090B203F5
:1035E000E090B3030091B10380910301813011F4A5
:1035F0004EE401C049E720E062E082E00E9433131C
:103600008091E00380FF12C08091C7039091C803AE
:10361000892B21F48091CC03882341F064E081E080
:103620000E946F1064E081E00E941A1380910704E9
:1036300080FF20C08091C7039091C803892B21F49B
:103640008091CC038823B1F08090B003A090AF03A9
:10365000C090B203E090B3030091B10380910301E5
:10366000813011F446E401C04EE720E064E084E0DC
:103670000E9433138091060480FF12C08091C7031B
:103680009091C803892B21F48091CC03882341F0C9
:1036900063E084E00E94451063E084E00E941A1316
:1036A0008091ED0380FF20C08091C7039091C803F3
:1036B000892B21F48091CC038823B1F08090B00352
:1036C000A090AF03C090B203E090B3030091B103A8
:1036D00080910301813011F442E501C040E721E00F
:1036E00064E082E00E9433138091210480FF20C0B7
:1036F0008091C7039091C803892B21F48091CC035A
:103700008823B1F08090B003A090AF03C090B203C3
:10371000E090B3030091B10380910301813011F473
:1037200047E401C04CE621E064E086E00E943313E8
:103730008091200480FF20C08091C7039091C8032E
:10374000892B21F48091CC038823B1F08090B003C1
:10375000A090AF03C090B203E090B3030091B10317
:1037600080910301813011F449E401C04DE721E06B
:1037700063E086E00E9433138091140480FF20C030
:103780008091C7039091C803892B21F48091CC03C9
:103790008823B1F08090B003A090AF03C090B20333
:1037A000E090B3030091B10380910301813011F4E3
:1037B00043E501C041E721E064E085E00E94331366
:1037C00080912E0480FF20C08091C7039091C80390
:1037D000892B21F48091CC038823B1F08090B00331
:1037E000A090AF03C090B203E090B3030091B10387
:1037F00080910301813011F44FE401C049E621E0DA
:1038000064E087E00E94331380912D0480FF20C084
:103810008091C7039091C803892B21F48091CC0338
:103820008823B1F08090B003A090AF03C090B203A2
:10383000E090B3030091B10380910301813011F452
:1038400041E501C04AE721E063E087E00E943313CD
:1038500080911F0480FF20C08091C7039091C8030E
:10386000892B21F48091CC038823B1F08090B003A0
:10387000A090AF03C090B203E090B3030091B103F6
:1038800080910301813011F447E201C04CE420E053
:1038900062E086E00E94331380911E0480FF20C006
:1038A0008091C7039091C803892B21F48091CC03A8
:1038B0008823B1F08090B003A090AF03C090B20312
:1038C000E090B3030091B10380910301813011F4C2
:1038D00048E201C042E520E061E086E00E94331347
:1038E00080911D0480FF23C08091C7039091C8037D
:1038F000892B21F48091CC038823C9F08090B003F8
:10390000A090AF03C090B203E090B3030091B10365
:1039100080910301813011F44BE201C04DE520E0BC
:1039200060E086E00E94331302C01092C9038091C8
:10393000CA038111BDC28091C7039091C803209131
:103940001004892B09F090C08091CC0381118CC0A8
:1039500020FF10C021FD0EC0809102010E94F40CD6
:10396000809110048260809310048091CB038F5F5C
:103970008093CB0380912B0480FF10C081FD0EC08B
:10398000809101010E94F40C80912B04826080934D
:103990002B048091CB038F5F8093CB038091100425
:1039A00082FF0EC080EF0E94F40C809102010E9401
:1039B000F40C109210048091CB038F5F8093CB03A3
:1039C00080912B0482FF0EC080EF0E94F40C809146
:1039D00001010E94F40C10922B048091CB038F5FA5
:1039E0008093CB038091CB03882331F02AE12A9581
:1039F000F1F700C01092CB035FECE52E53E0F52EFB
:103A000003E013E0A12CB12C6701CA0CDB1CF6010A
:103A1000808180FF08C081FD06C0F801EA0DFB1D12
:103A200080810E94F40CF601808182FF0BC080EF40
:103A30000E94F40CF801EA0DFB1D80810E94F40C39
:103A4000F6011082FFEFAF1ABF0A25E0A216B104FB
:103A5000D9F68DE0E80EF11C055F1F4F97E3E916DC
:103A600094E0F90679F624C28091BF03811135C034
:103A70008091C303811131C08091C20381112DC097
:103A800020FF02C021FF06C080912B0480FF2CC0C4
:103A900081FD2AC02FEC33E050E040E080E090E070
:103AA000453019F4811105C00AC0473011F4813046
:103AB00031F0F901E80FF91F608160FD05C0019642
:103AC0008530910569F701C051E04F5F235F3F4F9B
:103AD000483021F75093BF0307C020FD05C08091F7
:103AE0002B0480FF1092BF033BEDA32E32E0B32ED8
:103AF00044E2842E42E0942EEFECF3E0FA83E98373
:103B0000612C712C00E010E0C301845B9D4F7C01AF
:103B1000F301ED5FFC4F6F0189819A819C838B8358
:103B2000212C312C422C053019F4211007C096C1EC
:103B3000073021F4F1E02F1609F490C1EB81FC81EC
:103B4000808180FFCDC081FDCBC02091BF032111BA
:103B50000FC02091100420FF02C0886080838091F4
:103B60002B0480FF05C0EB81FC8180818061808314
:103B7000EB81FC81808183FF10C084FD0EC08091A9
:103B80000301823011F4F50101C0F401E20DF31DCF
:103B90004081642D802F0E94F70CEB81FC81808195
:103BA00084FF0AC083FD08C04091C7035091C80339
:103BB000642D802F0E942911EB81FC818081887106
:103BC00009F089C02091CE0380910301211105C025
:103BD0003091CD03332309F46CC01092B7031092D7
:103BE000B6031092B4038230A1F5F60110811434AB
:103BF00041F01D3441F0153141F01C3139F412E728
:103C000005C01BE603C014E701C015E780917804E6
:103C10008823A1F01A3359F4211146C18091C703BA
:103C20009091C8030B9709F43FC110E709C01932FE
:103C300029F4222309F438C11AE302C01B3631F0FB
:103C40008CE8810F823010F0123749F5222339F1C8
:103C500021C0813021F5F7011081183141F019316F
:103C600041F0103141F01E3139F410E505C01BE47C
:103C700003C01DE401C018E480917804882311F08A
:103C8000123361F01B3431F01D3421F0183411F07F
:103C9000103529F480EE8093B40301C019E310932A
:103CA000B5038091B403882391F080EE0E94F40C58
:103CB0000EC01092B7031092B603823011F4F601D1
:103CC00001C0F70180818093B5031092B403809105
:103CD000B5030E94F40CEB81FC81808182608083BB
:103CE000EB81FC81808182FFB9C083FF10C084FD1D
:103CF0000EC080910301823011F4F50101C0F4017E
:103D0000E20DF31D4081642D802F0E945E0DEB813A
:103D1000FC81808184FF0AC083FD08C04091C703F5
:103D20005091C803642D802F0E941412EB81FC81F6
:103D30008081887109F08FC02091CE0380910301AA
:103D4000211105C03091CD03332309F46EC01092C8
:103D5000B5038230E1F5F6011081143441F01D34D1
:103D600041F0153141F01C3139F412E705C01BE672
:103D700003C014E701C015E7809178048823A1F0FF
:103D80001A3359F4211192C08091C7039091C8034E
:103D90000B9709F48BC010E709C0193229F42223CC
:103DA00009F484C01AE302C01B3631F08CE8810F9D
:103DB000823010F0123729F4222319F080EE0E948D
:103DC000F40C80EF0E94F40C812F0E94F40C80917F
:103DD0000301813009F03FC0F7011081183141F033
:103DE000193141F0103141F01E3139F410E505C0B0
:103DF0001BE403C01DE401C018E48091780488230B
:103E000011F0123361F01B3431F01D3421F01834FD
:103E100011F0103529F480EE0E94F40C01C019E372
:103E200080E8810F0E94F40C16C0823039F480EFD4
:103E30000E94F40CF6014080842D04C0F7014080FC
:103E400080E8840D0E94F40C8091B503841101C0B8
:103E500080E08093B503EB81FC811082FFEF2F1A85
:103E60003F0A8B819C8101969C838B839FEFC91AAB
:103E7000D90AEFEFEE1AFE0AF5E02F16310409F029
:103E800051CE0F5F25E0A20EB11C85E0880E911C7B
:103E9000E981FA813D96FA83E983FBE06F0E711C9C
:103EA000083009F031CE04C019E2CACE19E27ECF43
:103EB0000F900F900F900F90DF91CF911F910F9166
:103EC000FF90EF90DF90CF90BF90AF909F908F903A
:103ED0007F906F905F904F903F902F900895CF9379
:103EE000DF93CDB7DEB72A970FB6F894DEBF0FBECB
:103EF000CDBF80E880936100109261000E9437017D
:103F00000E94080285E0E4E3F1E0DE0116960190EC
:103F10000D928A95E1F745E050E060E070E0CE0157
:103F200001960E943E21DE011196FE0136969F0108
:103F300041E0CF016D915191651340E0A217B307A5
:103F4000C9F74423A9F085E090E00E944E2190E05B
:103F50000E9440029093C8038093C70386E090E0DC
:103F60000E944E21823008F080E08093CC0310C084
:103F700045E050E060E070E00E94562160E085E09E
:103F800090E00E94602161E086E090E00E94602164
:103F90002A960FB6F894DEBF0FBECDBFDF91CF914A
:103FA0000895CF92DF92EF92FF92CF930E943F014C
:103FB0002091C7033091C803882309F46CC02131D4
:103FC000310509F068C08091BE0381110DC0809158
:103FD000BA039091BB03A091BC03B091BD03892BA0
:103FE0008A2B8B2B09F457C0C0EACC2EC6E8DC2EF6
:103FF000EE24E394F12CC1E088EE93E00E944901A5
:10400000882309F49AC08091C1038093C00381EC96
:1040100093E00E946401892B79F7C092BA03D09291
:10402000BB03E092BC03F092BD038091C1038E3EBE
:1040300029F40E94F40CC093BE0303C08AEF0E94CF
:10404000F40C8091C1038230B9F028F4882369F020
:10405000813091F0D1CF823FB9F08F3F69F68AEA83
:104060000E94F40C1092BE03C7CF8091C003803F22
:1040700019F6809103010CC09091C003903F09F0A4
:10408000BBCF80930301B8CF8BEA0E94F40C83E886
:104090000E94F40CB1CF8091BA039091BB03A09120
:1040A000BC03B091BD030097A105B10559F001977C
:1040B000A109B1098093BA039093BB03A093BC03F9
:1040C000B093BD032131310589F58091B503882373
:1040D00069F18091B6039091B7039C012F5F3F4F28
:1040E0003093B7032093B603893E934020F4809128
:1040F00003018230D9F48091B8039091B9039C01F7
:104100002F5F3F4F3093B9032093B8038739910550
:1041100068F08091B40381110E94F40C8091B50382
:104120000E94F40C1092B9031092B803CF91FF9043
:10413000EF90DF90CF900C944A16CF91FF90EF90C4
:10414000DF90CF90089508950E94FD200E94A32043
:104150000E946F1FC0E0D0E00E94D11F2097E1F3C2
:104160000E940000F9CF1F920F920FB60F921124F8
:104170002F933F938F939F93AF93BF9380917A0434
:1041800090917B04A0917C04B0917D0430917904DE
:1041900023E0230F2D3720F40196A11DB11D05C08A
:1041A00026E8230F0296A11DB11D20937904809368
:1041B0007A0490937B04A0937C04B0937D04809157
:1041C0007E0490917F04A0918004B09181040196B7
:1041D000A11DB11D80937E0490937F04A093800461
:1041E000B0938104BF91AF919F918F913F912F9197
:1041F0000F900FBE0F901F901895789484B5826031
:1042000084BD84B5816084BD85B5826085BD85B57A
:10421000816085BDEEE6F0E0808181608083E1E829
:10422000F0E0108280818260808380818160808361
:10423000E0E8F0E0808181608083E1EBF0E0808164
:1042400084608083E0EBF0E0808181608083EAE736
:10425000F0E08081846080838081826080838081BF
:10426000816080838081806880831092C10008957E
:10427000EE0FFF1F0590F491E02D0994DC01CB01B6
:10428000FC01F999FECF06C0F2BDE1BDF89A319666
:1042900000B40D9241505040B8F70895F999FECFFF
:1042A00092BD81BDF89A992780B50895DC01CB01B4
:1042B00003C02D910E94612141505040D0F70895D4
:1042C000262FF999FECF1FBA92BD81BD20BD0FB632
:1042D000F894FA9AF99A0FBE01960895F894FFCFD0
:1042E000011412020303030303030303040404047D
:1042F0000407060504030201000403020100010192
:104300000101010202020202020403020100000193
:10431000020304055A58554E4F093A3C4B2C432191
:10432000443A4D0409341C4B1C421B433B1C040300
:104330001B3A1B04044D21222C04051C4D4D4B241B
:1043400004073B3C4D432C242D04031B1C3A04045E
:10435000442D432104032A432104051C21442D310B
:10436000040332322104051C2C1C2D4304052C2D82
:104370001B3E450603211636040321362504033A65
:104380001B220403214D2104021A2201010203040D
:1043900005FFFF0DFFFF09FF0C0E0F0011080706B8
:1043A000FFFFFFFFFFFFFFFF0BFFFFFFFFFF10FF00
:1043B000FFFFFF0A01080801010001000001400899
:1043C000080808010101000101010108080001407D
:1043D00001010001000001000000000102030405CA
:1043E0000629290D56567E0229282B350A090C0765
:1043F00003330D1B1A00349C0C08000B1B351A00EC
:104400000034331B3C3A00004B0000000000000069
:104410000000000E004D48500000000000000000A9
:1044200000000F000000000100000000020304056E
:10443000060000000000001011121314000000001C
:1044400000001E1F2021220000000000000B0A09AE
:1044500008070000000000001918171615000000DA
:10446000000000002C2D2E2F0000000000001C2654
:104470002524230000000000003900323130000004
:1044800000000000000000000000000000282700DD
:104490000000000034330000000000000000003D78
:1044A0003E3B3A004B00000000004D480E430050D8
:1044B00000000000000000010F0000065800006B23
:1044C000000000000000000000006600747572002B
:1044D0000000000000000000000D00000000760059
:1044E000000000161E26252E000000000000151DED
:1044F000242D2C0000000000001C1B232B34000086
:104500000000000045463E3D360000000000004D22
:1045100044433C35000000000000001A22212A001C
:1045200000000000005A4B423B3300000000000036
:1045300029003A31320000000000000000000000B5
:1045400000000000524C0000000000494100000043
:10455000000000000000040C0558006B0000000083
:104560000074756601007200000000000000760D06
:104570000000212B342B4B1C1B33242345161E26F5
:0E458000252E363D3E460007000602000109CA
:00000001FF
