:100000000C943E000C945B000C945B000C945B0021
:100010000C945B000C945B000C945B000C945B00F4
:100020000C945B000C945B000C945B000C945B00E4
:100030000C945B000C945B000C945B000C945B00D4
:100040000C945B000C945B000C94780D0C945B009A
:100050000C945B000C945B000C945B000C945B00B4
:100060000C945B000C945B000C945B000C945B00A4
:100070000C945B000C945B000C945B0011241FBE7D
:10008000CFEFD0E1DEBFCDBF13E0A0E0B1E0EAE802
:10009000FFE302C005900D92AC3AB107D9F724E016
:1000A000ACEAB3E001C01D92A536B207E1F70E94A9
:1000B000C20D0C94C31F0C94000091B121E030E0FC
:1000C00001C0220F8A95EAF72095292321B90895C6
:1000D000FF920F931F93CF93DF93A62FB0E0C82F0B
:1000E000D0E0FD019BE0899FE00DF11D1124E3515B
:1000F000FD4F80818C3409F49CC028F58C3009F4C4
:10010000BFC088F4843009F4B4C0853009F4A7C0B6
:10011000813009F07BC08091B003840F8093B003DD
:1001200021E083E0A3C0813409F492C0893409F44A
:1001300087C08D3009F06AC08091B003840F80932E
:10014000B00321E074C08B3609F4A8C008F057C092
:10015000883509F49CC0863609F4BCC0823509F0A4
:1001600055C08091AF03840F8093AF0320E084E0FB
:1001700071E057E090E030E06BE0F62EF89E8001F1
:10018000F99E100D112403541C4F020F131FF80188
:100190006081FC9E8001FD9E100D112403541C4FB4
:1001A0000A0F1B1FF80110814F3F41F44091B0032B
:1001B00041110CC04091AF03411108C0F59EF00100
:1001C0001124E354FC4FE70FF11D10837BE0789F6F
:1001D000A001799F500D112443545C4F240F351F0B
:1001E0007C9FC0017D9F900D112483549C4FA80FCC
:1001F000B91F68718C91682BF901608307C084373F
:1002000009F461C048F4823709F44FC0DF91CF91FF
:100210001F910F91FF900895853709F44DC08637DF
:10022000A9F78091B003840F8093B00320E087E0AA
:100230001DC08091AF03840F8093AF0321E097CF5F
:100240008091AF03840F8093AF0322E087E090CFCB
:100250008091AF03840F8093AF0323E0F7CF8091A9
:10026000B003840F8093B00320E080E070E055E09D
:1002700081CF8091B003840F8093B00322E0F5CF4B
:100280008091B003840F8093B00323E0EECF809180
:10029000B003840F8093B00321E0E7CF8091B003D7
:1002A000840F8093B00324E0E0CF8091B003840FEB
:1002B0008093B00324E035CF8091B003840F809306
:1002C000B00323E02ECF8091B003840F8093B0035E
:1002D00022E027CF8091B003840F8093B00320E009
:1002E00020CFCF93DF93DC01EB014131510529F49D
:1002F00080910101813009F4C4C19C91992309F4D2
:10030000C0C1FA013197E131F10508F0C8C6E557DF
:10031000FE4F0C94BD1F9C010C02E1024403BF047C
:100320001C055D05BE053706A4060D074F08E10252
:100330006B04BF030604A10782E09C3199F0892F6A
:100340008F7E833271F0943461F09A3251F0892FAC
:100350008B7F8A3131F0813321F09A5381E09330E1
:1003600008F480E088839C919E31F1F19C3209F47D
:100370004FC09D3209F44AC09433D1F19B32B1F1A0
:10038000933281F19B3181F19C31A1F1953371F16F
:100390009C3371F19434A1F19D3461F19A3261F191
:1003A000913251F1923251F19A3171F1933331F12D
:1003B0009B3341F1923421F19B3421F1923321F1AD
:1003C000913321F19A3321F1963251F0963341F075
:1003D0009D3331F09E3321F0963411F09534D1F4F1
:1003E0009C934FC191E6FCCF94E5FACF9BE5F8CF03
:1003F0009DE5F6CF9EE1F4CF9AE4F2CF95E5F0CFFC
:1004000092E5EECF9EE4ECCF9CE4EACF91E4E8CF16
:1004100099E4E6CF90E0E4CF9D3109F4B0C0943286
:1004200009F4ABC0933409F4AAC0963109F4A7C00B
:100430009E3109F4A0C0963209F49DC0953209F4AA
:100440009EC0892F877F863309F499C02BEB290F33
:10045000223008F494C0292F2D7F2C3209F48FC04C
:10046000953309F488C09C3309F485C0943409F4A9
:1004700086C09D3409F483C09C3109F47CC09B3153
:1004800009F477C0833209F476C0943309F473C059
:10049000933309F474C09B3409F471C09A3109F4A0
:1004A0006EC0923209F469C0913209F468C081E0EB
:1004B0009A3219F0923309F080E088839C91892F59
:1004C000877F853109F465C0943209F460C09334A4
:1004D00009F457C0963109F483CF9E3109F480CFD7
:1004E000963209F47DCF953209F47ACF9E3209F421
:1004F00077CF963309F474CF9D3309F458C09E33F7
:1005000009F46ECF963409F46BCF953409F449C0E1
:1005100084ED890F8230B8F1953309F440C09C33E3
:1005200009F449C0943409F448C09D3471F19C31F8
:10053000E1F19B3161F1933261F19B3261F19433CE
:1005400061F1933361F19B3361F19234A1F19B34FA
:1005500051F19A3161F0923241F1913241F19A3286
:1005600041F1923341F1913341F19A3341F599E4EC
:1005700037CF85E0A2CF88E0A0CF89E09ECF81E091
:100580009CCF95E52DCF91E62BCF9EE129CF96E12B
:1005900027CF9EE025CF92E523CF9DE521CF94E59F
:1005A0001FCF9AE41DCF95E41BCF95E219CF9EE4AF
:1005B00017CF9DE315CF9BE513CF91E411CF90E0CA
:1005C0000FCF84E09534A9F0943491F09A3281F001
:1005D000892F8B7F8A3161F0923451F09B3441F046
:1005E0008FEC890F833020F09A5381E0923008F429
:1005F00080E088838C91853409F455C28E3109F4EA
:1006000052C28D3209F455C28C3209F454C28B3176
:1006100009F4ADC1853309F448C28C3309F447C2EB
:10062000843409F444C28D3409F439C28A3209F49D
:1006300038C2813209F435C28A3109F436C28333B3
:1006400009F429C28B3309F492C18234C1F08B348E
:1006500009F4F0C1823309F420C28A3309F42BC2B1
:10066000813309F426C2863259F0863349F08D333E
:1006700039F08E3329F0863419F080E001C089E02A
:100680008C93DF91CF91089584ED890F8230A0F093
:10069000892F877F853181F0943471F09A3261F02F
:1006A000923451F09B3441F08FEC890F823020F06E
:1006B0009A5381E0923008F480E088839C919E33C5
:1006C000F1F19634F1F1953409F44DC09E31D9F130
:1006D0009C32D9F19D32D9F19D31D9F19531D9F1C1
:1006E000933209F442C09B3109F441C0953309F4B7
:1006F00042C09C3309F441C0943499F19D3469F1AE
:100700009A3269F1913259F19A3159F1933389F161
:100710009B3349F1923449F19B3449F1923349F1C9
:10072000913349F19A3349F1963209F459CE96330F
:1007300009F456CE9D3309F453CE90E051CE96E4A1
:100740004FCE95E44DCE9EE34BCE95E549CE9EE44B
:1007500047CE97E045CE98E743CE9EE141CE9AE45E
:100760003FCE9CE43DCE94E53BCE92E539CE9BE571
:1007700037CE9DE535CE91E433CE99E431CE943435
:1007800059F09B3449F0892F8F7D8A3129F09A32B4
:1007900019F081E0913309F480E088838C918434EE
:1007A00009F483C18B3409F445C18A3109F47BC152
:1007B0008A3209F476C1813309F47BC18A3309F4A2
:1007C0007AC18C3209F477C18D3209F472C18D344B
:1007D00009F465C18B3309F42DC1823409F465C174
:1007E000813209F45EC1823309F45DC1863209F4B5
:1007F00047CF863309F444CF8E3309F441CF863492
:1008000009F43ECF853409F038CF3ACF943461F003
:100810009B3451F09A3241F0892F8B7F813321F044
:100820009A5381E0943008F480E088839C91963359
:10083000B1F19E33B1F19634B1F19D33B1F19534FC
:10084000E1F19D3209F443C09C3209F442C0953372
:1008500071F19C3371F19434A1F19D3431F19B32EB
:1008600031F1943331F1933331F19B3331F19234DF
:1008700031F19B3421F19A3121F1913221F19A32F7
:1008800011F1923311F1913311F19A3311F19E313B
:1008900009F4A6CD963209F4A3CD90E0A1CD9DE355
:1008A0009FCD96E49DCD95E49BCD92E599CD94E5C1
:1008B00097CD9BE595CD96E393CD9EE491CD95E5BF
:1008C0008FCD9CE48DCD9AE48BCD9EE389CD91E4D0
:1008D00087CD99E485CD892F8F7E833281F08CEB93
:1008E000890F823060F0892F8B7F8A3141F09A32F4
:1008F00031F0813321F09A5381E0933008F480E0A5
:1009000088838C918332A9F18333A9F18E3109F464
:10091000C2C0853491F1853309F4C5C08C3309F424
:10092000BCC0843409F4C1C08B3409F483C08A315B
:10093000F1F08A3209F4B5C0813309F4BAC08A33C0
:1009400009F4B9C08C3209F4B6C08D3209F4B1C0D3
:100950008D3409F4A4C08B3309F46CC0823409F4DB
:10096000A4C0813209F49DC0823309F07CCE8EE4AC
:1009700087CE86E085CE8CE083CE85E081CE84EE86
:10098000890F833070F0943461F09A3251F09A31CB
:1009900041F0892F8D7F813321F09A5381E092308D
:1009A00008F480E088838C918E31F1F18C3209F467
:1009B00082C08D3209F47DC0982F977F9531B1F1B7
:1009C0008B31B1F18C3199F2843409F46EC08D34DD
:1009D00009F465C08A3209F464C0813209F461C047
:1009E000823209F458C08A3109F461C0833311F1AD
:1009F0008B3309F450C0823409F457C08B3409F4A6
:100A0000B6CF823309F453C0813309F452C08A331C
:100A100009F451C0863209F433CE863309F430CE5E
:100A20008D3309F0E9CE2CCE8EE02ACE87E028CE99
:100A300081E626CE85E524CE933261F0943451F0E0
:100A40009A3241F09A3131F0913321F09A5381E09A
:100A5000933008F480E088838C918E31D1F08C3211
:100A600051F18D3231F18332B1F08533E1F08C33C5
:100A7000A1F08434D1F08D3491F08A3291F081323A
:100A800081F0823281F08A3191F08B3309F0B3CF5B
:100A90006ECF85E4F5CD8DE5F3CD8BE5F1CD8EE11F
:100AA000EFCD8AE4EDCD84E5EBCD8CE4E9CD82E5B4
:100AB000E7CD81E4E5CD89E4E3CD943461F09A3269
:100AC00051F09B3441F0892F8B7F813321F09A5371
:100AD00081E0943008F480E088839C919C3209F492
:100AE0004BC09D3209F446C0963361F19D33A1F1AC
:100AF0009E3351F1963451F19534B1F1953341F172
:100B00009C3341F1943461F19D3431F19A3231F1E9
:100B1000913221F19A3121F1933321F19B3321F16B
:100B2000923421F19B3411F1923311F1913311F18F
:100B30009A3311F1963209F453CC9E3109F450CC1A
:100B400090E04ECC9DE34CCC96E44ACC95E448CC66
:100B500094E546CC9BE544CC92E542CC9AE440CC6B
:100B60009CE43ECC96E33CCC9EE43ACC95E538CC74
:100B70009EE336CC91E434CC99E432CC9333D9F073
:100B80009232C9F082E09534B9F0943491F09A32FF
:100B900081F0892F8B7F8A3161F0923451F09B3440
:100BA00041F08FEC890F823020F09A5381E092302F
:100BB00018F480E001C080E288839C919333D9F1DE
:100BC0009232D9F19332D9F19534D9F19E31C9F1EC
:100BD0009D3209F44AC09C3209F445C09B31D9F1D9
:100BE0009533B9F19C3379F1943469F19D3469F10D
:100BF0009A3269F1913259F19A3159F19B3359F195
:100C0000923459F19B3459F1923359F19A3359F195
:100C1000913359F1963209F4E3CB963309F4E0CBE2
:100C20009D3309F4DDCB9E3309F4DACB963409F415
:100C3000D7CB90E0D5CB91E7D3CB90E7D1CB9AE35C
:100C4000CFCB94E5CDCB92E5CBCB9EE1C9CB9AE45B
:100C5000C7CB9CE4C5CB95E5C3CB9EE4C1CB9DE55A
:100C6000BFCB9BE5BDCB99E4BBCB91E4B9CB933231
:100C700071F0943461F09A3251F09B3441F0892F35
:100C80008B7F813321F09A5381E0943008F480E027
:100C900088839C919C3209F455C09D3209F450C060
:100CA0009433F1F19B32D1F1933281F19B3171F1A7
:100CB000963371F19D33B1F19E3361F1963461F158
:100CC000953361F19C3361F1943481F19D3451F19C
:100CD0009A3251F1913241F1923261F19A3131F10E
:100CE000933331F19B3331F1923431F19B3421F163
:100CF000923321F1913321F19A3321F1963209F4A3
:100D00006FCB9E3109F46CCB90E06ACB9DE568CB4C
:100D10009DE366CB96E464CB95E462CB94E560CB2F
:100D20009BE55ECB92E55CCB9AE45ACB9CE458CB36
:100D300096E356CB9EE454CB95E552CB9EE350CB45
:100D400091E44ECB99E44CCB892F8F7E8D3281F08C
:100D5000943371F09B3261F09C3151F0923241F04A
:100D6000923431F0913321F09A5381E0923008F4BB
:100D700080E088839C919E31C1F184ED890F82309F
:100D800090F1943391F19B3291F19C3191F19D332B
:100D9000B1F19534C1F19434E1F19D3461F19A32AD
:100DA00061F1913261F1923261F19A31A1F19333A3
:100DB00041F19B3341F1923451F19B3431F1923343
:100DC00031F1913331F19A3331F1963209F408CB94
:100DD000963309F405CB9E3309F402CB963409F41B
:100DE000FFCA90E0FDCA91E6FBCA9DE5F9CA92E50B
:100DF000F7CA9CE4F5CA9EE1F3CA9DE3F1CA9EE4FA
:100E0000EFCA94E5EDCA9AE4EBCA95E4E9CA9BE51A
:100E1000E7CA91E4E5CA99E4E3CA9C3309F19B313E
:100E2000F9F09C3109F46FC0943309F46CC095312A
:100E3000A9F09E3109F467C0892F8F7E8D3271F041
:100E40008EED890F823050F0923441F0892F8D7FE2
:100E5000813321F09A5381E0923018F480E001C090
:100E600084E088839C919C3309F465C09B3109F42C
:100E70004CC0953109F44BC084ED890F823008F4E1
:100E800048C09B3209F44FC0933209F444C09D33EB
:100E900009F447C0953409F44AC0953309F445C0B4
:100EA000943409F44AC09D34C1F19A32C1F19132AF
:100EB000C1F19232C1F19A3109F441C09333A9F1E1
:100EC0009B33A9F19234B9F19B3499F1923399F1A2
:100ED000913399F19A3399F1963209F481CA9E318E
:100EE00009F47ECA963309F47BCA9E3309F478CAA2
:100EF000963409F475CA943309F472CA9C3109F422
:100F00006FCA90E06DCA80E1ACCF96E169CA9DE5F9
:100F100067CA91E665CA9EE063CA9EE161CA9DE325
:100F20005FCA9EE45DCA92E55BCA94E559CA9AE439
:100F300057CA95E455CA9BE553CA91E451CA99E44E
:100F40004FCA9C3161F1923251F19E3109F483C054
:100F5000963209F480C0953101F19432F1F09D325E
:100F6000E1F09B3109F477C0892F877F833209F440
:100F700072C0943309F46FC09D3379F09C3309F447
:100F80006AC0953309F467C0923439F086EC890F52
:100F9000823018F081E0913319F480E001C080E4E0
:100FA00088839C919C3109F458C0923209F457C04F
:100FB000892F877F853109F458C0943209F45DC0C8
:100FC00084ED890F823008F44CC09B3109F44BC08A
:100FD000933209F44AC09B3209F449C0943309F4AE
:100FE00048C0953409F451C09D3309F448C09D347C
:100FF00009F441C0943409F44EC09334F1F19C33A8
:1010000009F44BC0953309F442C09A3109F441C048
:101010009132A9F19A32A9F19B34A9F19234E9F104
:101020009B3399F1933399F19A3399F1913399F173
:10103000923399F19E3109F4D3C9963209F4D0C99B
:10104000963309F4CDC99E3309F4CAC9963409F41C
:10105000C7C990E0C5C988E0A3CF9EE7C1C99CE994
:10106000BFC991E6BDC996E1BBC99EE0B9C992E589
:10107000B7C99DE5B5C99EE1B3C995E5B1C99EE47F
:10108000AFC99DE3ADC995E4ABC99AE4A9C994E59C
:10109000A7C999E4A5C991E4A3C99BE5A1C91C927C
:1010A000F0CA6230D9F018F4613031F0089563303D
:1010B00039F16430B9F1089521E030E0B90102C09E
:1010C000660F771F8A95E2F7CB0192B1411104C0F8
:1010D0008095892382B90895892BFCCF21E030E0E7
:1010E000B90102C0660F771F8A95E2F7CB0195B16F
:1010F000411104C08095892385B90895892BFCCFBF
:1011000021E030E0B90102C0660F771F8A95E2F74F
:10111000CB0198B1411104C08095892388B9089505
:10112000892BFCCF21E030E0B90102C0660F771FA8
:101130008A95E2F7CB019BB1411104C080958923C8
:101140008BB90895892BFCCF282F6230B9F020F499
:10115000613041F080E00895633091F06430D1F760
:1011600099B101C090B1892F90E002C09595879503
:101170002A95E2F7809590958170089593B1F3CF09
:1011800096B1F1CF6230D9F018F4613031F00895A2
:10119000633039F16430B9F1089521E030E0B901EC
:1011A00002C0660F771F8A95E2F7CB0191B1442305
:1011B00021F08095892381B90895892BFCCF21E006
:1011C00030E0B90102C0660F771F8A95E2F7CB01C4
:1011D00094B1442321F08095892384B90895892B03
:1011E000FCCF21E030E0B90102C0660F771F8A957D
:1011F000E2F7CB0197B1442321F08095892387B989
:101200000895892BFCCF21E030E0B90102C0660FC0
:10121000771F8A95E2F7CB019AB1442321F080959C
:1012200089238AB90895892BFCCF0F931F93CF93FD
:10123000DF93C62F90E0FC01E156FC4F10818E56E3
:101240009C4FFC01D08140E0612F8D2F0E94C2088D
:1012500040E0612F8D2F0E945108FAE1FA95F1F7D5
:1012600000C06C2F70E0FB01E957FC4F64587C4FC5
:101270000081FB01C081602F8C2F0E94A408811186
:10128000FACF41E0612F8D2FDF91CF911F910F9108
:101290000C94C208882331F095E19A95F1F700008B
:1012A0008450F8CF0895CF92DF92EF92FF920F9380
:1012B0001F93CF93DF93C82FF62E069BFECF079B7D
:1012C000FCCF0F9A80910001880F880F0E944A0975
:1012D0000E9A80910001880F880F880F0E944A099A
:1012E00086E00E945D0080910001880F880F0E94B7
:1012F0004A0910E000E0D1E0CC2ED12CEE24E3949A
:10130000C601002E02C0959587950A94E2F780FFEA
:101310009AC087E00E945D00DE2580910001880F61
:10132000880F0E944A090E9A80910001880F880F49
:10133000880F0E944A0986E00E945D0080910001AA
:10134000880F880F0E944A090F5F1F4F0830110550
:10135000B9F6DD2309F479C087E00E945D00809131
:101360000001880F880F0E944A090E9A809100019F
:10137000880F880F880F0E944A0986E00E945D004E
:1013800080910001880F880F0E944A0987E00E941F
:101390005D0080910001880F880F0E944A090E9A13
:1013A00080910001880F880F880F0E944A0986E00B
:1013B0000E945D0080910001880F880F0E944A09F9
:1013C00087EC90E00197F1F700C00000FF2091F159
:1013D0008091B70390910101923009F03FC08823BA
:1013E00011F0C43139F18091B603882311F0C13175
:1013F00009F18091B503882311F0C231D9F08091B1
:10140000B303882311F0C131A9F08091B40388237C
:1014100011F0CF3179F08091AC038823C1F0C03F47
:10142000B1F001E021E041E061E081E00E94870A43
:101430001092AC03DF91CF911F910F91FF90EF902D
:10144000DF90CF9008950F9A68CF0F9A88CF81E0F0
:10145000C03F09F080E08093AC03ECCF882311F00B
:10146000CD3941F38091B603882311F0C83B11F3C5
:101470008091B503882311F0CA3AE1F28091B30359
:10148000882311F0C83BB1F28091B403882311F096
:10149000CB3D81F2C03E71F2C13860F201E021E043
:1014A00041E061E081E00E94870AC4CF60E080EE05
:1014B0000E94530960E082E10E94530960E080EEDF
:1014C0000E94530960E08CE70E9453092FEF81EEE0
:1014D00094E0215080409040E1F700C0000060E0BF
:1014E00080EE0E94530960E080EF0E94530960E0A3
:1014F00082E10E94530960E080EE0E94530960E09F
:1015000080EF0E94530960E08CE70C9453090F931D
:101510001F93CF93DF93162FD42FC22F882331F040
:101520008091B703813079F18230D9F1112341F0F4
:101530008091B603813009F44EC0823009F459C05D
:10154000DD2341F08091B503813009F46CC0823015
:1015500009F477C0CC2341F08091B303813009F4C2
:101560008AC0823009F49DC0002341F08091B40309
:10157000813009F4B8C0823009F4CBC0DF91CF913B
:101580001F910F9108958091010160E0823039F43C
:1015900084E10E94530982E08093B703C7CF8DE1B5
:1015A000F8CF2FEF84E39CE0215080409040E1F79A
:1015B00000C000008091010160E0823051F480EFB2
:1015C0000E94530960E084E10E9453091092B7031E
:1015D000ADCF8DE9F9CF8091010160E0823039F41F
:1015E00081E10E94530982E08093B603A9CF88E38A
:1015F000F8CF2FEF84E39CE0215080409040E1F74A
:1016000000C000008091010160E0823051F480EF61
:101610000E94530960E081E10E9453091092B603D1
:101620008FCF88EBF9CF8091010160E0823039F4EF
:1016300082E10E94530982E08093B5038BCF8AE256
:10164000F8CF2FEF84E39CE0215080409040E1F7F9
:1016500000C000008091010160E0823051F480EF11
:101660000E94530960E082E10E9453091092B50381
:1016700071CF8AEAF9CF8091010160E0823059F49C
:1016800080EE0E94530960E081E10E94530982E0EC
:101690008093B30369CF80EE0E94530960E088E332
:1016A000F4CF2FEF84E39CE0215080409040E1F79D
:1016B00000C000008091010160E0823071F480EE92
:1016C0000E94530960E080EF0E94530960E081E1CD
:1016D0000E9453091092B30347CF80EE0E94530932
:1016E00060E088EBF5CF8091010160E0823059F431
:1016F00080EE0E94530960E08FE10E94530982E06E
:101700008093B4033BCF80EE0E94530960E08BE5E9
:10171000F4CF2FEF84E39CE0215080409040E1F72C
:1017200000C000008091010160E0823071F480EE21
:101730000E94530960E080EF0E94530960E08FE14E
:101740000E9453091092B40319CF80EE0E945309EE
:1017500060E08BEDF5CF61E00C9453094F925F92FE
:101760006F927F928F92AF92CF92EF92FF920F93F0
:101770001F93CF93DF93CDB7DEB7F82E662E142FCD
:10178000722E8091B203882331F02AE12A95F1F775
:1017900000C01092B203002369F0809101018230F1
:1017A00009F0F0C082E10E94AB0B8091B2038F5F21
:1017B0008093B203EE2069F080910101823009F03C
:1017C000E3C084E10E94AB0B8091B2038F5F8093F2
:1017D000B203CC2069F080910101823009F0D6C0BB
:1017E00081E10E94AB0B8091B2038F5F8093B203C3
:1017F000AA2081F080910101823009F0C9C080EEF9
:101800000E94AB0B81E10E94AB0B8091B2038F5F12
:101810008093B203882081F080910101823009F029
:10182000BCC080EE0E94AB0B8FE10E94AB0B80919D
:10183000B2038F5F8093B2038091B203882331F0AB
:101840008AE18A95F1F700C01092B203772019F06F
:1018500080EE0E94AB0B812F0E94AB0B9FEF21EE1D
:1018600084E0915020408040E1F700C000007720E4
:1018700019F080EE0E94AB0B80910101823019F4C7
:1018800080EF0E94AB0B80910101823009F08AC089
:10189000812F0E94AB0B712C4F2C512CF3019BE03C
:1018A000F99EE00DF11D1124E354FC4F108200233A
:1018B00059F080910101823009F077C080EF0E94D9
:1018C000AB0B82E10E94AB0BEE2059F0809101013D
:1018D000823009F06CC080EF0E94AB0B84E10E9463
:1018E000AB0BCC2059F080910101823009F061C02E
:1018F00080EF0E94AB0B81E10E94AB0BAA2071F03C
:1019000080910101823009F056C080EE0E94AB0B3D
:1019100080EF0E94AB0B81E10E94AB0B882071F03D
:1019200080910101823009F04BC080EE0E94AB0B28
:1019300080EF0E94AB0B81E10E94AB0B2AE12A955C
:10194000F1F700C001E021E041E061E081E00E94A8
:10195000870A8BE0849DF001859DF00D1124E354EE
:10196000FC4FE60DF71D1082DF91CF911F910F9173
:10197000FF90EF90CF90AF908F907F906F905F909F
:101980004F9008958AE20FCF8DE11CCF88E329CFD5
:1019900080EE0E94AB0B88E336CF80EE0E94AB0B4B
:1019A0008BE543CF80E8810F74CF8AEA8BCF8DE936
:1019B00096CF88EBA1CF80EE0E94AB0B88EBACCF2B
:1019C00080EE0E94AB0B88EBB7CF0F931F93CF93A2
:1019D000DF93EC0180915A0490915B04892BA1F470
:1019E00060E080EF0E94530960E082E10E945309A9
:1019F0001092F40360E080EF0E94530960E084E1FC
:101A00000E94530910920B042FEF81EE94E02150B5
:101A100080409040E1F700C0000089E20E94AB0BDB
:101A2000EFEFF1EE24E0E150F0402040E1F700C09C
:101A3000000080EF0E94AB0B89E20E94AB0B8FEF9E
:101A400091EEE4E081509040E040E1F700C00000FA
:101A500089E40E94AB0BFFEF21EE84E0F1502040BF
:101A60008040E1F700C0000080EF0E94AB0B89E4EA
:101A70000E94AB0B8E010F5F1F4F888190E0980191
:101A80002C1B3D0B821793074CF19FEFE1EEF4E026
:101A90009150E040F040E1F700C00000F801819172
:101AA0008F010E94AB0BFFEF21EE84E0F15020404C
:101AB0008040E1F700C0000080EF0E94AB0BF8010E
:101AC000319780810E94AB0B9FEFE1EEF4E09150E3
:101AD000E040F040E1F700C00000CFCFC80FD91FB1
:101AE000898180930001DF91CF911F910F9108951B
:101AF0001F920F920FB60F9211242F933F938F9343
:101B00009F93AF93BF938091610490916204A091E1
:101B10006304B09164043091600423E0230F2D37F7
:101B200058F50196A11DB11D2093600480936104B6
:101B300090936204A0936304B093640480915C0466
:101B400090915D04A0915E04B0915F040196A11D87
:101B5000B11D80935C0490935D04A0935E04B093E8
:101B60005F04BF91AF919F918F913F912F910F9003
:101B70000FBE0F901F90189526E8230F0296A11D07
:101B8000B11DD2CFCF93DF93CDB7DEB761970FB63C
:101B9000F894DEBF0FBECDBF789484B5826084BD5B
:101BA00084B5816084BD85B5826085BD85B5816061
:101BB00085BD80916E00816080936E0010928100DF
:101BC000809181008260809381008091810081609A
:101BD000809381008091800081608093800080915B
:101BE000B10084608093B1008091B00081608093E7
:101BF000B00080917A00846080937A0080917A00AE
:101C0000826080937A0080917A00816080937A006C
:101C100080917A00806880937A001092C10080E8F9
:101C200080936100109261001798169887E00E94D7
:101C30005D0086E00E945D0012E9A12E13E0B12E46
:101C40000CE7C02E03E0D02E07E813E0D801ED909A
:101C50008D01F601F1906F0141E06E2D8F2D0E94F4
:101C6000C20841E06E2D8F2D0E945108A016B106CA
:101C700069F7ACEACA2EA3E0DA2EB2E9EB2EB3E0A4
:101C8000FB2E0FE913E0D8016D918D0141E0F701C2
:101C900081917F010E94C208C016D106A1F785E09C
:101CA000E2E0F1E0DE01169601900D928A95E1F7EF
:101CB00045E050E070E060E0CE0101960E948D1F8B
:101CC000DE011196FE0136969F0181E0E88BF98BCB
:101CD0004D919191491380E02A173B07C9F788235A
:101CE00009F47BC185E090E00E949D1F90E0109276
:101CF000AE031092AD0321E0009721F081309105F1
:101D000099F424E0209300018530910599F424E0B2
:101D1000209300018A30910599F424E0209300017A
:101D20008F30910599F457C18230910599F424E0E0
:101D3000209300018630910599F424E0209300015E
:101D40008B309105A1F424E02093000180319105AE
:101D5000A9F441C18330910531F524E020930001BD
:101D60008730910509F02CC124E0209300018C30CC
:101D7000910509F02CC124E02093000181319105E7
:101D800039F524E02093000121E0209359041092BA
:101D9000550410925604109257041092580422E0F1
:101DA0002093010115C08430910509F0ADCF24E0E6
:101DB000209300018930910509F0ACCF24E02093F5
:101DC000000126E08E30910509F0AACF2093000192
:101DD00090935B0480935A0486E090E00E949D1FDC
:101DE000823008F080E08093B803FF24F3942091C0
:101DF0005A0430915B04069B02C0079916C021313A
:101E0000310599F48091590481110C94701F8091CF
:101E1000550490915604A0915704B0915804892B11
:101E20008A2B8B2B11F00C94701F8091550490918C
:101E30005604A0915704B09158040097A105B1052C
:101E400009F00BC12131310589F5809152048823B5
:101E500069F180915004909151049C012F5F3F4F94
:101E60003093510420935004893E934020F4809194
:101E700001018230D9F480914E0490914F049C016D
:101E80002F5F3F4F30934F0420934E0487399105C5
:101E900068F080914D0481110E94AB0B8091520437
:101EA0000E94AB0B10924F0410924E0410924C04FF
:101EB00080914C04811167C0EDEBCE2EE3E0DE2E65
:101EC000E2E9F3E0FE87ED872FE933E03C872B87DB
:101ED000E12CAB85BC855D90BC87AB87ED85FE852D
:101EE0006190FE87ED8740E0652D862D0E94C20837
:101EF00040E0652D862D0E945108FAE1FA95F1F730
:101F000000C086016CE7A62E63E0B62E77E8872E28
:101F100073E0972E712CD4013D904D01F501419055
:101F20005F01632D842D0E94A408882309F4C7C093
:101F3000F5E3FA95F1F70000632D842D0E94A408C3
:101F4000D801882309F4A5C08C9180FF92C08260DB
:101F50008C93B7E0BE1528F4E4E040E0E71508F400
:101F600093C073940F5F1F4FBBE07B12D4CF41E04F
:101F7000652D862D0E94C208E394EBE0CE0ED11CA5
:101F8000FDE0EF12A6CF8091BC03882309F4A6C020
:101F90004DEB53E028E030E090E080E0FA01E80FFC
:101FA000F91F608160FD31E0019685309105B1F740
:101FB0002150455F5F4F2111EFCF3093BC0378CFA5
:101FC0008830910509F0F6CE24E0209300018D3091
:101FD000910509F0F6CE24E0F9CE45E050E070E03E
:101FE00060E0888999890E94A51F60E085E090E003
:101FF0000E94AF1F61E086E090E00E94AF1FF5CE27
:102000008AEF0E94AB0B0C945F1F823F09F18F3F58
:1020100011F00C94701F8AEA0E94AB0B10925904C5
:102020000C94701F80915304803F11F00C94701F2A
:10203000809101010E94AB0B0C94701F909153048E
:10204000903F11F00C94701F809301010C94701F4D
:102050008BEA0E94AB0B83E8EDCF0197A109B10990
:102060008093550490935604A0935704B09358045A
:10207000E9CE81608C93B7E0BE1508F072CFE4E042
:10208000E71508F06ECF41E0672D8E2D0E946800A5
:1020900068CF8C9180FF65CF8C7F84608C93B7E094
:1020A000BE1508F05ECFE4E0E71508F05ACF4FEF19
:1020B000672D8E2D0E946800D8011C9252CFF80126
:1020C000808180FF4ECF8C7F84608083F7E0FE1597
:1020D00008F047CF24E0271550F343CF8091BB038E
:1020E000811105C08091BA03882309F42CC1809125
:1020F000F40382FF10C01092F40380915A0490916F
:102100005B04892B41F460E080EF0E94530960E09A
:1021100082E10E94530980910B0482FF10C010924B
:102120000B0480915A0490915B04892B41F460E088
:1021300080EF0E94530960E084E10E9453092DEB77
:10214000422E23E0522E35EC232E32E0332E712C1A
:10215000612C42E0B42E5BE0952ED12CC12C8091F5
:10216000BB03882311F40C946719F201EC0DFD1DDB
:10217000808180FD02C00C946719969CC001979CD9
:10218000900D112483519D4FC80ED91ED6018C91FC
:102190001092BB03823311F40C944119D0F58332B1
:1021A00009F4B0C658F4813209F48EC6823209F4BB
:1021B000D6C7F0924C04F092B903B4C08A3209F445
:1021C00002C78133B1F78091010143E5813009F005
:1021D00041E7812CA12CCC24C394EE24E39400E0AD
:1021E00021E063E087E00E94AE0B80915A04909159
:1021F0005B04419709F096C0F0925904109255047F
:10220000109256041092570410925804B092010193
:1022100089C0853311F40C945419A8F5833309F45B
:1022200094C6843331F680915A0490915B040097F0
:1022300071F09C01245031092230310540F02450C6
:1022400031092230310518F08D7F0C9791F480917F
:10225000010146E4813009F04EE7812CA12CCC2409
:10226000C394EE24E39400E020E064E082E00E9466
:10227000AE0B80915A0490915B04029709F052C012
:102280000E94560A4FC08C3309F441C0843409F0CF
:1022900090CF80915A0490915B04059709F5812CA9
:1022A000A12CC12CE12C00E020E047E061E084E0BB
:1022B0000E94AE0B82E10E94AB0BAFEFB3EDE0E307
:1022C000A150B040E040E1F700C0000080EF0E9464
:1022D000AB0B82E10E94AB0BF0924C04F092B9037D
:1022E00080915A0490915B040297E1F4809101017E
:1022F00048E5813009F047E0812CA12CCC24C3941F
:10230000EE24E39400E020E064E084E0CAC7F092A9
:10231000BA03BFEFE4E3FCE0B150E040F040E1F786
:1023200000C00000FFEF6F1A7F0A2BE0420E511C25
:1023300035E0230E311C88E06816710409F00DCFDA
:1023400091E090934C0480914C0481110C94281AD4
:102350008091F40380FD02C00C94281A80910B0434
:1023600080FD02C00C94281A8091B903811109C51F
:102370008091D60380FF10C0A1E0A093BB03A0937F
:102380004C04A093BC03BFEFE4E3FCE0B150E04099
:10239000F040E1F700C000008091F50380FF1CC011
:1023A00080915A0490915B04892B21F48091B803A9
:1023B000882391F08091B703811101C081E080935F
:1023C000B70300E020E040E060E081E00E94870A7F
:1023D00061E085E00E9415098091F70380FF1CC031
:1023E00080915A0490915B04892B21F48091B80369
:1023F000882391F08091B603811101C081E0809320
:10240000B60300E020E040E061E080E00E94870A3F
:1024100063E085E00E9415098091D30380FF1CC012
:1024200080915A0490915B04892B21F48091B80328
:10243000882391F08091B503811101C081E08093E0
:10244000B50300E020E041E060E080E00E94870A00
:1024500060E082E00E9415098091F60380FF1CC0B5
:1024600080915A0490915B04892B21F48091B803E8
:10247000882391F08091B403811101C081E08093A1
:10248000B40301E020E040E060E080E00E94870AC1
:1024900062E085E00E94150980910C0480FF1CC059
:1024A00080915A0490915B04892B21F48091B803A8
:1024B000882391F08091B303811101C081E0809362
:1024C000B30300E021E040E060E080E00E94870A82
:1024D00062E087E00E9415098091BD0380FF1FC064
:1024E00080915A0490915B04892B21F48091B80368
:1024F0008823A9F08090B403A090B303C090B603E2
:10250000E090B7030091B503809101014BE3813066
:1025100009F045E020E060E080E00E94AE0B809191
:10252000BE0380FF1FC080915A0490915B04892BE9
:1025300021F48091B8038823A9F08090B403A0907F
:10254000B303C090B603E090B7030091B503809148
:1025500001014CE3813009F046E020E061E080E0D9
:102560000E94AE0B8091BF0380FF1FC080915A0470
:1025700090915B04892B21F48091B8038823A9F002
:102580008090B403A090B303C090B603E090B7036B
:102590000091B503809101014DE3813009F044E0E1
:1025A00020E062E080E00E94AE0B8091C00380FFDB
:1025B0001FC080915A0490915B04892B21F4809173
:1025C000B8038823A9F08090B403A090B303C0900F
:1025D000B603E090B7030091B503809101014EE38B
:1025E000813009F04CE020E063E080E00E94AE0B17
:1025F0008091C10380FF1FC080915A0490915B04B9
:10260000892B21F48091B8038823A9F08090B4032A
:10261000A090B303C090B603E090B7030091B50358
:10262000809101014FE3813009F043E020E064E054
:1026300080E00E94AE0B8091E20380FF1FC080917A
:102640005A0490915B04892B21F48091B80388236C
:10265000A9F08090B403A090B303C090B603E090BB
:10266000B7030091B5038091010140E4813009F086
:102670004BE020E064E083E00E94AE0B8091E10338
:1026800080FF1FC080915A0490915B04892B21F434
:102690008091B8038823A9F08090B403A090B3037D
:1026A000C090B603E090B7030091B503809101019B
:1026B00041E4813009F043E820E063E083E00E94D8
:1026C000AE0B8091E00380FF1FC080915A0490916F
:1026D0005B04892B21F48091B8038823A9F08090B2
:1026E000B403A090B303C090B603E090B703009189
:1026F000B5038091010142E4813009F04AE020E015
:1027000062E083E00E94AE0B8091DF03482F4170AE
:1027100080FF1EC080915A0490915B04892B21F4A4
:102720008091B8038823A1F08090B403A090B303F4
:10273000C090B603E090B7030091B503809101010A
:10274000813009F443E420E061E083E00E94AE0BB5
:102750008091DE0380FF1FC080915A0490915B043A
:10276000892B21F48091B8038823A9F08090B403C9
:10277000A090B303C090B603E090B7030091B503F7
:102780008091010144E4813009F049E020E060E0FB
:1027900083E00E94AE0B8091C80380FF1FC0809130
:1027A0005A0490915B04892B21F48091B80388230B
:1027B000A9F08090B403A090B303C090B603E0905A
:1027C000B7030091B5038091010147E5813009F01D
:1027D00048E720E060E081E00E94AE0B8091C903F1
:1027E00080FF1FC080915A0490915B04892B21F4D3
:1027F0008091B8038823A9F08090B403A090B3031C
:10280000C090B603E090B7030091B5038091010139
:1028100048E5813009F047E020E061E081E00E9476
:10282000AE0B8091D40380FF1FC080915A04909119
:102830005B04892B21F48091B8038823A9F0809050
:10284000B403A090B303C090B603E090B703009127
:10285000B5038091010146E5813009F041E620E0B1
:1028600061E082E00E94AE0B8091EB0380FF1FC00D
:1028700080915A0490915B04892B21F48091B803D4
:102880008823A9F08090B403A090B303C090B6034E
:10289000E090B7030091B5038091010145E48130D8
:1028A00009F047E720E062E084E00E94AE0B8091EF
:1028B000EA0380FF1FC080915A0490915B04892B2A
:1028C00021F48091B8038823A9F08090B403A090EC
:1028D000B303C090B603E090B7030091B5038091B5
:1028E00001014AE1813009F044E520E061E084E043
:1028F0000E94AE0B8091E90380FF1FC080915A04B3
:1029000090915B04892B21F48091B8038823A9F06E
:102910008090B403A090B303C090B603E090B703D7
:102920000091B503809101014BE1813009F04BE545
:1029300020E060E084E00E94AE0B8091CA0380FF3B
:102940001FC080915A0490915B04892B21F48091DF
:10295000B8038823A9F08090B403A090B303C0907B
:10296000B603E090B7030091B5038091010147E3FE
:10297000813009F04CE720E062E081E00E94AE0B7C
:102980008091CB0380FF1FC080915A0490915B041B
:10299000892B21F48091B8038823A9F08090B40397
:1029A000A090B303C090B603E090B7030091B503C5
:1029B000809101014AE4813009F04BE720E063E0B7
:1029C00081E00E94AE0B8091D50380FF1FC08091F3
:1029D0005A0490915B04892B21F48091B8038823D9
:1029E000A9F08090B403A090B303C090B603E09028
:1029F000B7030091B503809101014EE4813009F0E5
:102A000049E720E062E082E00E94AE0B8091CC03B7
:102A100080FF15C080915A0490915B04892B21F4AA
:102A20008091B803882359F00E94560A01E021E002
:102A300041E061E081E00E94870A1092CC0380911E
:102A4000ED0380FF1FC080915A0490915B04892B95
:102A500021F48091B8038823A9F08090B403A0905A
:102A6000B303C090B603E090B7030091B503809123
:102A7000010146E4813009F04EE720E064E084E0A3
:102A80000E94AE0B8091EC0380FF3CC080915A0401
:102A900090915B04892B21F48091B803882391F1F4
:102AA00060E081EE0E94530960E084E10E945309D6
:102AB00060E087E70E94530960E081EE0E945309BD
:102AC00060E080EF0E94530960E084E10E945309B6
:102AD00060E080EF0E94530960E087E70E9453099D
:102AE0002FEF31EE84E0215030408040E1F700C00C
:102AF000000001E021E041E061E081E00E94870AFE
:102B00001092EC038091D70380FF1FC080915A047C
:102B100090915B04892B21F48091B8038823A9F05C
:102B20008090B403A090B303C090B603E090B703C5
:102B30000091B5038091010142E5813009F040E741
:102B400021E064E082E00E94AE0B8091030480FFEC
:102B50001FC080915A0490915B04892B21F48091CD
:102B6000B8038823A9F08090B403A090B303C09069
:102B7000B603E090B7030091B5038091010147E4EB
:102B8000813009F04CE621E064E086E00E94AE0B63
:102B90008091020480FF1FC080915A0490915B04D1
:102BA000892B21F48091B8038823A9F08090B40385
:102BB000A090B303C090B603E090B7030091B503B3
:102BC0008091010149E4813009F04DE721E063E0A3
:102BD00086E00E94AE0B8091F80380FF1FC08091B9
:102BE0005A0490915B04892B21F48091B8038823C7
:102BF000A9F08090B403A090B303C090B603E09016
:102C0000B7030091B5038091010143E5813009F0DC
:102C100041E721E064E085E00E94AE0B80910E0464
:102C200080FF1FC080915A0490915B04892B21F48E
:102C30008091B8038823A9F08090B403A090B303D7
:102C4000C090B603E090B7030091B50380910101F5
:102C50004FE4813009F049E621E064E087E00E941A
:102C6000AE0B80910D0480FF1FC080915A0490919B
:102C70005B04892B21F48091B8038823A9F080900C
:102C8000B403A090B303C090B603E090B7030091E3
:102C9000B5038091010141E5813009F04AE721E067
:102CA00063E087E00E94AE0B8091010480FF1FC0AB
:102CB00080915A0490915B04892B21F48091B80390
:102CC0008823A9F08090B403A090B303C090B6030A
:102CD000E090B7030091B5038091010147E2813094
:102CE00009F04CE420E062E086E00E94AE0B8091A7
:102CF000000480FF1FC080915A0490915B04892BCF
:102D000021F48091B8038823A9F08090B403A090A7
:102D1000B303C090B603E090B7030091B503809170
:102D2000010148E2813009F042E520E061E086E0FF
:102D30000E94AE0B8091FF0380FF1FC080915A0458
:102D400090915B04892B21F48091B8038823A9F02A
:102D50008090B403A090B303C090B603E090B70393
:102D60000091B503809101014BE2813009F04DE5FE
:102D700020E060E086E00E94AE0B80914C0481115F
:102D800099C02091F403922F917040915A04509170
:102D90005B04452B09F05FC38091B80381115BC3CD
:102DA000992379F021FD0DC082E10E94AB0B809147
:102DB000F40382608093F4038091B2038F5F809369
:102DC000B20380910B0480FF0FC081FD0DC084E130
:102DD0000E94AB0B80910B04826080930B04809166
:102DE000B2038F5F8093B2038091F40382FF0DC022
:102DF00080EF0E94AB0B82E10E94AB0B1092F403B8
:102E00008091B2038F5F8093B20380910B0482FFA5
:102E10000DC080EF0E94AB0B84E10E94AB0B1092BF
:102E20000B048091B2038F5F8093B2038091B20351
:102E3000882331F09AE19A95F1F700C01092B2031D
:102E40000DEE12E08DEB682E83E0782E1301D12C6D
:102E5000C12C2101D1018C9180FF08C081FD06C0E9
:102E6000F801EC0DFD1D80810E94AB0BBFEF2B1A0A
:102E70003B0AF201808182FF0CC080EF0E94AB0B05
:102E8000F801EC0DFD1D80810E94AB0BF101319723
:102E90001082FFEFCF1ADF0A25E0C216D104C9F66F
:102EA000055F1F4F3BE0630E711C85E493E08017C4
:102EB000910761F680E090E0892B11F40C94F70EF5
:102EC0000E9400000C94F70E80915A0490915B04CC
:102ED0008B30910519F00397029750F41092AE03CE
:102EE00081E09091AD03911180E08093AD0361C9C1
:102EF0001092AD0381E09091AE03911180E0809338
:102F0000AE0357C980915A0490915B04892B09F054
:102F100009CA81E09091B803911180E08093B803D1
:102F200060E080EF0E94530960E082E10E94530953
:102F30001092F40360E080EF0E94530960E084E1A6
:102F40000E94530910920B0434C980915A04909145
:102F50005B04049709F0E6C98AE00E94AB0B2FEFEF
:102F600030E782E0215030408040E1F700C00000AF
:102F700089E00E94AB0B9FEFA0E7B2E09150A04028
:102F8000B040E1F700C0000080EF0E94AB0B89E089
:102F90000E94AB0BEFEFF3ED20E3E150F040204057
:102FA000E1F700C0000080EF0E94AB0B8AE00E94B6
:102FB000AB0B3FEF80E792E0315080409040E1F76B
:102FC00000C00000F6C880910101823009F0AAC952
:102FD00080915A0490915B04892B81F480EF0E94C8
:102FE000AB0B82E10E94AB0B1092F40380EF0E94C6
:102FF000AB0B84E10E94AB0B10920B0489E20E94A0
:10300000AB0BFFEF20E732E0F15020403040E1F71A
:1030100000C0000080EF0E94AB0B89E20E94AB0B66
:1030200091E1C92E91E0D92E10E000E002301105A7
:1030300019F004301105D9F48FEF90E7A2E0815028
:103040009040A040E1F700C0000089E40E94AB0B73
:10305000BFEFE0E7F2E0B150E040F040E1F700C040
:10306000000080EF0E94AB0B89E40E94AB0B2FEFB6
:1030700030E782E0215030408040E1F700C000009E
:10308000D601ED916D01F0E0E95FFE4FE0808E2DFD
:103090000E94AB0BBFEFE0E7F2E0B150E040F04040
:1030A000E1F700C0000080EF0E94AB0B8E2D0E9464
:1030B000AB0B2FEF30E782E0215030408040E1F74A
:1030C00000C000000F5F1F4F0830110509F0AECFA0
:1030D00089E20E94AB0B9FEFA0E7B2E09150A040C5
:1030E000B040E1F700C0000080EF0E94AB0B89E226
:1030F0000E94AB0B8DE20E94AB0BEFEFF0E722E0FA
:10310000E150F0402040E1F700C0000080EF0E9455
:10311000AB0B8DE20E94AB0B3FEF80E792E03150AA
:1031200080409040E1F700C000008EE10E94AB0BB0
:10313000AFEFB0E7E2E0A150B040E040E1F700C0FF
:10314000000080EF0E94AB0B8EE10E94AB0BFFEF03
:1031500020E732E0F15020403040E1F731CF80915C
:103160005A0490915B04892BA1F460E080EF0E94E7
:10317000530960E082E10E9453091092F40360E079
:1031800080EF0E94530960E084E10E94530910928D
:103190000B0460915A0485E090E00E94AF1F60919B
:1031A000B80386E090E00E94AF1F80910101823059
:1031B00011F00C94D9108FEF90E7A2E0815090406D
:1031C000A040E1F700C0000089E20E94AB0BBFEF16
:1031D000E0E7F2E0B150E040F040E1F700C000006D
:1031E00080EF0E94AB0B89E20E94AB0B2FEF30E720
:1031F00082E0215030408040E1F700C0000089E4C7
:103200000E94AB0B9FEFA0E7B2E09150A040B0400E
:10321000E1F700C0000080EF0E94AB0B89E40E9440
:10322000AB0B09E111E0EFEFF0E722E0E150F040F5
:103230002040E1F700C00000D801ED908D018E2DF7
:103240000E94AB0BBFEFE0E7F2E0B150E040F0408E
:10325000E1F700C0000080EF0E94AB0B8E2D0E94B2
:10326000AB0B2FEF30E782E0215030408040E1F798
:1032700000C00000A3E2B1E0A017B107A1F60C94D2
:10328000D910809101014EE0813009F046E6812C91
:10329000A12CCC24C394EE24E39400E020E064E06D
:1032A00087E00E94AE0B3EC880915A0490915B0467
:1032B0008230910520F00A97029708F033C8809178
:1032C00001014FE3813009F417C843E015C880912C
:1032D000BA03882309F4B1C0F201EC0DFD1D808111
:1032E00080FFABC0F101EC0DFD1D008110E0E0900E
:1032F0005A04A0905B041092AE031092AD0382E9D1
:1033000091E00115110529F001301105E1F48DE876
:1033100091E00E94E50C05301105E1F487E791E0AA
:103320000E94E50C0A301105E1F489E591E00E9464
:10333000E50C84E391E00F30110509F469C018C071
:103340000E2D1A2DDCCF02301105C9F488E891E06A
:103350000E94E50C06301105C9F480E791E00E9457
:10336000E50C0B301105C9F480E591E00E94E50CF5
:1033700089E291E00031110509F44AC015C003301B
:10338000110521F583E891E00E94E50C0730110555
:1033900099F589E691E00E94E50C0C30110599F54C
:1033A0008BE491E00E94E50C0131110599F5F09252
:1033B000590410925504109256041092570410921A
:1033C0005804B092010183E291E022C0043011055B
:1033D00009F0A1CF8CE791E00E94E50C09301105BE
:1033E00009F0A0CF8EE591E00E94E50C8FE391E01B
:1033F0000E30110569F09DCF0830110579F784E68C
:1034000091E00E94E50C86E491E00D30110571F722
:103410000E94E50C023111050CF092CF013111052B
:1034200011F0B0920101F0924C04F092B9031092A5
:10343000BA0310935B0400935A04BFEFCB1ADB0A64
:10344000E5E0CE16D10411F00C94AF100C9492115B
:103450001092B90392CC4091B103411166C08091A2
:10346000B003811162C08091AF0381115EC09923C6
:1034700011F021FF06C090910B0490FF17C091FD41
:1034800015C06DEB73E030E020E0853009F03EC000
:10349000211141C02F5F3F4F25303105B1F78F5FBC
:1034A000655F7F4F883079F74093B103BDEB8B2E7A
:1034B000B3E09B2E10E01B861E861D86D401AD5BFB
:1034C000B3406D014D845E843401B12CBB85B530B1
:1034D000A9F5B11039C0B394BFEF6B1A7B0AEFEFB7
:1034E0004E1A5E0AFFEFCF1ADF0A25E0B212EECFC6
:1034F0003B853F5F3B878BE0880E911CAD85BE8589
:103500001596BE87AD873830C9F6D4CC873019F40C
:10351000213009F4BFCFFB01E20FF31F9081592F37
:10352000517090FFB7CF452FBACF9111BFCF809187
:103530000B0480FDBBCF1092B103B8CFEB85E73011
:1035400019F4F1E0BF1639F2D3018C9180FF86C1E6
:1035500081FD84C19091B10391110EC09091F4034B
:1035600090FF02C088608C9380910B0480FF04C0A0
:10357000F301808180618083D3018C9183FF2AC015
:1035800084FD28C080910101F201823009F0F3C06E
:10359000E356FD4F00811092510410925004109296
:1035A0004D040111F3C0823009F0E8C082E10E94AD
:1035B000AB0B82E180934D0480910101F6018230D2
:1035C00009F0E1C0E351FD4F0081802F0E94AB0B59
:1035D00000935204F301808184FF95C0F82FF870A6
:1035E000FF8783FD90C020905A0430905B041982BD
:1035F000109251041092500410924D040091010158
:10360000F601013009F0E7C0EA51FE4F80818E8358
:103610002114310409F400C1A101BE016F5F7F4F85
:10362000888999890E9471018E81882309F46BC071
:1036300021E12216310409F0D1C0013009F0CEC0D9
:10364000F201E254FE4F80818E83F201EA56FE4F72
:103650008081982F9170382F3870332E8074E12C30
:10366000212CA12C2E81222309F44DC081114BC0A5
:10367000992349F0023009F0C8C082E10E94AB0BE7
:1036800082E180934D04BF85BB2351F080910101FD
:10369000823091F484E10E94AB0B84E180934D046D
:1036A000222051F080910101823031F481E10E94A9
:1036B000AB0B81E180934D04332061F060E080EE3C
:1036C0000E94530980910101823009F0A3C081E179
:1036D0000E94AB0BAA2059F080910101823039F48D
:1036E00060E080EE0E94530984E10E94AB0BEE2063
:1036F00021F060E080EE0E9453098E810E94AB0BA6
:103700008E8180935204F3018081887109F0A2C0F8
:103710008091AE0390910101811105C02091AD030C
:10372000222309F4A0C11092510410925004109267
:103730004D04923009F073C1F601E351FD4F108141
:10374000143409F464C11D3409F463C1153109F45A
:1037500062C11C3109F461C11A3309F069C08111D9
:1037600008C080915A0490915B0410E70B9709F010
:1037700064C019E262C0EB58FD4F0CCF8AE20E9490
:10378000AB0B8AE217CFEA51FE4F1ECF823071F4A5
:103790000B3631F08CE8800F823010F0023731F4B4
:1037A00080EE0E94AB0B80EE80934D04809101016E
:1037B000813009F00ACF0B3439F00D3429F0083488
:1037C00019F0003509F001CF80EE0E94AB0B80EEBE
:1037D00080934D04FACEE351FD4F18CF8981982F85
:1037E000917081FBAA27A0F9AF8782FB222420F8E1
:1037F00083FB332430F884FBAA24A0F885FBEE2455
:10380000E0F886FB882780F92DCF8AE20E94AB0B77
:103810008AE237CF88E35CCFF601E351FD4F808128
:103820008E8384E10E94AB0B84E180934D0465CFCD
:10383000193209F0DCC081111AE31093520480910F
:103840004D04882319F080EE0E94AB0B8091520446
:103850000E94AB0BD3018C9182608C93F301808129
:1038600082FF39CE83FF21C084FD1FC080910101FA
:10387000F201823009F009C1E356FD4F0081109238
:10388000520401110EC1823009F002C180EF0E9482
:10389000AB0BF601E351FD4F80810E94AB0B80EF33
:1038A0000E94AB0B82E10E94AB0BD3018C9184FF91
:1038B0008AC1082F087083FD86C120905A04309079
:1038C0005B04198210925204F601E351FD4F80818E
:1038D0008E832114310409F4E3C1A101BE016F5F9D
:1038E0007F4F888999890E9471018E81882309F40C
:1038F0006AC1B1E12B16310409F0FBC080910101CE
:10390000813009F0F6C0F201E254FE4F80818E83CF
:10391000F201EA56FE4F8081E82FE170EF87F82F21
:10392000F8702F2E807430E0E12C312CA12C2E81E8
:10393000222309F448C1909101018111F5C080E86A
:10394000820F923051F4332321F060E080EE0E9428
:10395000530980EF0E94AB0B8E810E94AB0B3F8519
:10396000332359F080910101823009F0D9C080EFF2
:103970000E94AB0B82E10E94AB0BAA2051F0809118
:103980000101823091F480EF0E94AB0B84E10E9430
:10399000AB0BEE2051F080910101823031F480EFC9
:1039A0000E94AB0B81E10E94AB0B222071F080EEF4
:1039B0000E94AB0B80910101823009F0B3C080EF0F
:1039C0000E94AB0B81E10E94AB0B332009F4FBC0DA
:1039D00080910101823009F0F6C080EE0E94AB0BAD
:1039E00080EF0E94AB0B84E10E94AB0BECC01B3656
:1039F00039F0143729F0153719F0123709F01DCFB7
:103A0000882309F41ACF80EE80934D0416CF1BE66D
:103A1000F7CF14E7F5CF15E7F3CF12E7F1CF9130E9
:103A200009F00BCFF601EA51FE4F1081183189F0F1
:103A3000193189F0103189F01E3189F0123389F083
:103A40001B3409F31D34F9F21834E9F21035D9F2B8
:103A5000F4CE1BE4D8CF1DE4D6CF18E4D4CF10E5C4
:103A6000D2CF19E3EACE1092510410925004F6011D
:103A7000923041F4E351FD4F8081809352041092C3
:103A80004D04E4CEEA51FE4FF7CFEB58FD4FF6CE92
:103A9000F601EA51FE4F808180580E94AB0B8AEA02
:103AA00002CF823059F40B3631F08CE8800F82302F
:103AB00010F0023719F480EE0E94AB0B80910101E7
:103AC000813059F40B3431F00D3421F0083411F009
:103AD000003519F480EE0E94AB0B80910101823019
:103AE00029F480EF0E94AB0B802FDDCE80E8800FA1
:103AF000DACE8981282F21702F8781FBAA24A0F894
:103B000082FBEE24E0F883FB222420F884FB33249C
:103B100030F885FB332730F986FB882780F907CFFB
:103B20008AEA29CF88EB4FCF2E3709F080C0923038
:103B300009F0EBC164E7A62E72E7E72E09E6809153
:103B40000101823009F03FC0A02FAE0DBB27BB1F83
:103B5000CD018A0D911D892BB1F160E081E10E94B8
:103B60005309002361F060E0802F0E94530960E058
:103B700080EF0E94530960E0802F0E945309EE20DD
:103B800061F060E08E2D0E94530960E080EF0E949A
:103B9000530960E08E2D0E945309AA2061F060E075
:103BA0008A2D0E94530960E080EF0E94530960E073
:103BB0008A2D0E94530960E080EF0E94530960E063
:103BC00081E10E945309F3018081887109F095C059
:103BD0008091AE0390910101811105C02091AD0348
:103BE000222309F4B0C010925204923009F067C049
:103BF000F601E351FD4F1081143409F48FC01D34D8
:103C000009F48EC0153109F48DC01C3109F48CC043
:103C10001A3309F04AC0811108C080915A0490916A
:103C20005B0410E70B9709F044C019E242C0A12CD5
:103C3000E12C2C3909F083CF923009F05EC144E7C2
:103C4000A42E53E7E52E7ACFACE4EA2E60E088E3B9
:103C50000E94530960E08FE40E94530960E08FECFA
:103C60000E945309EE2049F060E08E2D0E94530916
:103C700060E080E88E0D0E94530960E08DE40E94B0
:103C8000530960E08DEC0E94530960E088EB0E94CC
:103C90005309EDE4AE2E0FE452CFF0E5EF2ED6CF70
:103CA00080EF0E94AB0B8E8199CE193249F58111BC
:103CB0001AE380EF0E94AB0B812F0E94AB0B809127
:103CC00001018130D1F4F601EA51FE4F1081183123
:103CD00069F1193181F1103181F11E3181F1123315
:103CE00081F11B3421F11D3411F1183401F110352B
:103CF000F1F080E8810F0E94AB0BD3011C92EBCB5B
:103D00001B3631F0143721F0153711F0123789F6D0
:103D1000882379F280EE0E94AB0BCBCF1BE6F8CF65
:103D200014E7F6CF15E7F4CF12E7F2CF1BE480EEED
:103D30000E94AB0BDECF1DE4FACF18E4F8CF10E5FC
:103D4000F6CF19E3D6CF923091F480EF0E94AB0BFF
:103D5000F601E351FD4F0081802F0E94AB0B809153
:103D60005204081301C080E080935204C6CFF601CC
:103D7000EA51FE4F008180E8800FEFCF809154041C
:103D8000809353040799FECF069BFECF80910001DC
:103D9000880F880F0E944A090E9A80910001880FAF
:103DA000880F880F0E944A0986E00E945D0080917A
:103DB0000001880F880F0E944A0910E000E0DD240E
:103DC000D394E12C079B0AC081E090E0002E01C053
:103DD000880F0A94EAF7E82A21E0D22680910001B0
:103DE000880F880F0E944A090E9A80910001880F5F
:103DF000880F880F0E944A0986E00E945D0080912A
:103E00000001880F880F0E944A090F5F1F4F08307A
:103E10001105C1F680B1082E000C990B8827990F67
:103E2000881F9927D816190609F05AC080910001F9
:103E3000880F880F0E944A090E9A80910001880F0E
:103E4000880F880F0E944A0986E00E945D008091D9
:103E50000001880F880F0E944A090F9A8091000183
:103E6000880F880F0E944A090E9A80910001880FDE
:103E7000880F880F0E944A0986E00E945D0087E053
:103E80000E945D008FE891E00197F1F700C000000B
:103E9000E092540480EA96E8A1E0B0E080935504F3
:103EA00090935604A0935704B09358049EEEE912E1
:103EB0000C9400108EEE0E94AB0BF092590480918E
:103EC0005404823011F40C941E1010F00C94051060
:103ED000882311F40C941210813011F40C941E10EC
:103EE00089EE93E0019711F40C945A17079B46CF83
:103EF000FAE1FA95F1F700C0F5CF913009F4A4CEBC
:103F00002DE4A22E3CE4E32EC6CE913009F4C5CEBA
:103F10008DE4A82E90E5E92EBECEDC01CB01FC019C
:103F2000F999FECF06C0F2BDE1BDF89A319600B412
:103F30000D9241505040B8F70895F999FECF92BDC7
:103F400081BDF89A992780B50895DC01CB0103C0A3
:103F50002D910E94B01F41505040D0F70895262F58
:103F6000F999FECF1FBA92BD81BD20BD0FB6F8945E
:103F7000FA9AF99A0FBE01960895EE0FFF1F059069
:0A3F8000F491E02D0994F894FFCFAE
:103F8A0001025A58554E4F45161E26252E363D3EDD
:103F9A00460206000902000200212B342B4B1C1B8F
:103FAA00332423044D21222C04093A3C4B2C43216F
:103FBA00443A4D0409341C4B1C421B433B1C040568
:103FCA002C2D1B3E45060321163604031B3A1B04FF
:103FDA00073B3C4D432C242D04031B1C3A04044488
:103FEA002D432104032A432104051C4D4D4B24046F
:103FFA00051C21442D31040332322104051C2C1CDA
:10400A002D43040321362504033A1B220403214DC0
:10401A002104021A2201010808010100010000011D
:10402A00400808080801010100010101010808000F
:10403A00014001010001000001000000000102032B
:10404A0004050629290D56567E0229282B350A0908
:10405A000C0703330D1B1A00349C0C08000B1B358C
:10406A001A000034331B0203040506000000000096
:10407A000010111213140000000000001E1F20215E
:10408A00220000000000000B0A09080700000000D7
:10409A0000001918171615000000000000002C2D4A
:1040AA002E2F0000000000001C26252423000000FB
:1040BA00000000390032313000000000000000002A
:1040CA000000000000000028270000000000343330
:1040DA000000000000000000003D3E3B3A004B009B
:1040EA00000000004D480E43005000000000000090
:1040FA0000010F00003C3A00004B000000000000E5
:10410A00000000000E004D485000000000000000B2
:10411A000000000F00000000010000000006580027
:10412A00006B0000000000000000000066007475CB
:10413A0072000000000000000000000D00000000F6
:10414A0076000000000102030405FFFF0DFFFF09CE
:10415A00FF0C0E0F0011080706FFFFFFFFFFFFFF0E
:10416A00FF0BFFFFFFFFFF10FFFFFFFF0A161E26D0
:10417A00252E000000000000151D242D2C00000033
:10418A000000001C1B232B340000000000004546E1
:10419A003E3D360000000000004D44433C3500001F
:1041AA0000000000001A22212A0000000000005A24
:1041BA004B423B3300000000000029003A31320034
:1041CA000000000000000000000000000000524C47
:1041DA00000000000049410000000000000000004B
:1041EA00040C0558006B000000000074756601009D
:1041FA007200000000000000760D000004030201B6
:10420A000000010203040501010101010202020288
:10421A000202070605040302010004030201000367
:0C422A000303030303030304040404045F
:00000001FF
