:100000000C9434000C9451000C9451000C94510049
:100010000C9451000C9451000C9451000C9451001C
:100020000C9451000C9451000C9451000C9451000C
:100030000C9451000C9451000C9451000C945100FC
:100040000C943C0C0C9451000C9451000C945100F5
:100050000C9451000C9451000C9451000C945100DC
:100060000C9451000C94510011241FBECFEFD8E026
:10007000DEBFCDBF12E0A0E0B1E0E2EEFDE302C0E2
:1000800005900D92AC3CB107D9F723E0ACECB2E09F
:1000900001C01D92AC31B207E1F70E94860C0C94AE
:1000A000EF1E0C94000097B121E030E001C0220F58
:1000B0008A95EAF72095292327B90895CF93DF93EE
:1000C000DC01EB014131510529F4809101018130BE
:1000D00009F4C4C19C91992309F4C0C1FA01319774
:1000E000E131F10508F0C8C6E858FF4F0C94E91E4D
:1000F0008900F900CE013102AC0309044A04AB04C3
:1001000024059105FA053C07CE015803AC02F30221
:100110008E0682E09C3199F0892F8F7E833271F0B8
:10012000943461F09A3251F0892F8B7F8A3131F00B
:10013000813321F09A5381E0933008F480E0888382
:100140009C919E31F1F19C3209F44FC09D3209F42B
:100150004AC09433D1F19B32B1F1933281F19B319A
:1001600081F19C31A1F1953371F19C3371F194349B
:10017000A1F19D3461F19A3261F1913251F19232E3
:1001800051F19A3171F1933331F19B3341F1923452
:1001900021F19B3421F1923321F1913321F19A33F2
:1001A00021F1963251F0963341F09D3331F09E3378
:1001B00021F0963411F09534D1F49C934FC191E61F
:1001C000FCCF94E5FACF9BE5F8CF9DE5F6CF9EE115
:1001D000F4CF9AE4F2CF95E5F0CF92E5EECF9EE42E
:1001E000ECCF9CE4EACF91E4E8CF99E4E6CF90E04D
:1001F000E4CF9D3109F4B0C0943209F4ABC093341C
:1002000009F4AAC0963109F4A7C09E3109F4A0C030
:10021000963209F49DC0953209F49EC0892F877FDC
:10022000863309F499C02BEB290F223008F494C0CF
:10023000292F2D7F2C3209F48FC0953309F488C003
:100240009C3309F485C0943409F486C09D3409F4C4
:1002500083C09C3109F47CC09B3109F477C08332A0
:1002600009F476C0943309F473C0933309F474C06D
:100270009B3409F471C09A3109F46EC0923209F4CA
:1002800069C0913209F468C081E09A3219F0923362
:1002900009F080E088839C91892F877F853109F45C
:1002A00065C0943209F460C0933409F457C09631A4
:1002B00009F483CF9E3109F480CF963209F47DCFC3
:1002C000953209F47ACF9E3209F477CF963309F448
:1002D00074CF9D3309F458C09E3309F46ECF963421
:1002E00009F46BCF953409F449C084ED890F82304D
:1002F000B8F1953309F440C09C3309F449C09434F3
:1003000009F448C09D3471F19C31E1F19B3161F1F8
:10031000933261F19B3261F1943361F1933361F176
:100320009B3361F19234A1F19B3451F19A3161F028
:10033000923241F1913241F19A3241F1923341F1DD
:10034000913341F19A3341F599E437CF85E0A2CF5B
:1003500088E0A0CF89E09ECF81E09CCF95E52DCFAE
:1003600091E62BCF9EE129CF96E127CF9EE025CFC6
:1003700092E523CF9DE521CF94E51FCF9AE41DCFD1
:1003800095E41BCF95E219CF9EE417CF9DE315CFDF
:100390009BE513CF91E411CF90E00FCF84E095342B
:1003A000A9F0943491F09A3281F0892F8B7F8A31B1
:1003B00061F0923451F09B3441F08FEC890F83301F
:1003C00020F09A5381E0923008F480E088838C9189
:1003D000853409F455C28E3109F452C28D3209F4C4
:1003E00055C28C3209F454C28B3109F4ADC1853346
:1003F00009F448C28C3309F447C2843409F444C276
:100400008D3409F439C28A3209F438C2813209F4D0
:1004100035C28A3109F436C2833309F429C28B33D9
:1004200009F492C18234C1F08B3409F4F0C18233F3
:1004300009F420C28A3309F42BC2813309F426C29D
:10044000863259F0863349F08D3339F08E3329F0F6
:10045000863419F080E001C089E08C93DF91CF9160
:10046000089584ED890F8230A0F0892F877F853130
:1004700081F0943471F09A3261F0923451F09B34EF
:1004800041F08FEC890F823020F09A5381E0923056
:1004900008F480E088839C919E33F1F19634F1F169
:1004A000953409F44DC09E31D9F19C32D9F19D3279
:1004B000D9F19D31D9F19531D9F1933209F442C086
:1004C0009B3109F441C0953309F442C09C3309F4CF
:1004D00041C0943499F19D3469F19A3269F19132B5
:1004E00059F19A3159F1933389F19B3349F192349F
:1004F00049F19B3449F1923349F1913349F19A33EF
:1005000049F1963209F459CE963309F456CE9D330B
:1005100009F453CE90E051CE96E44FCE95E44DCE03
:100520009EE34BCE95E549CE9EE447CE97E045CE7F
:1005300098E743CE9EE141CE9AE43FCE9CE43DCE87
:1005400094E53BCE92E539CE9BE537CE9DE535CEA1
:1005500091E433CE99E431CE943459F09B3449F090
:10056000892F8F7D8A3129F09A3219F081E09133F9
:1005700009F480E088838C91843409F483C18B343E
:1005800009F445C18A3109F47BC18A3209F476C184
:10059000813309F47BC18A3309F47AC18C3209F4BE
:1005A00077C18D3209F472C18D3409F465C18B3382
:1005B00009F42DC1823409F465C1813209F45EC1A8
:1005C000823309F45DC1863209F447CF863309F4DA
:1005D00044CF8E3309F441CF863409F43ECF8534BD
:1005E00009F038CF3ACF943461F09B3451F09A320D
:1005F00041F0892F8B7F813321F09A5381E0943031
:1006000008F480E088839C919633B1F19E33B1F178
:100610009634B1F19D33B1F19534E1F19D3209F495
:1006200043C09C3209F442C0953371F19C3371F19F
:100630009434A1F19D3431F19B3231F1943331F195
:10064000933331F19B3331F1923431F19B3421F109
:100650009A3121F1913221F19A3211F1923311F153
:10066000913311F19A3311F19E3109F4A6CD9632EE
:1006700009F4A3CD90E0A1CD9DE39FCD96E49DCD5F
:1006800095E49BCD92E599CD94E597CD9BE595CDED
:1006900096E393CD9EE491CD95E58FCD9CE48DCDF1
:1006A0009AE48BCD9EE389CD91E487CD99E485CD05
:1006B000892F8F7E833281F08CEB890F823060F03E
:1006C000892F8B7F8A3141F09A3231F0813321F0CA
:1006D0009A5381E0933008F480E088838C918332D0
:1006E000A9F18333A9F18E3109F4C2C0853491F1A7
:1006F000853309F4C5C08C3309F4BCC0843409F4D3
:10070000C1C08B3409F483C08A31F1F08A3209F414
:10071000B5C0813309F4BAC08A3309F4B9C08C3248
:1007200009F4B6C08D3209F4B1C08D3409F4A4C007
:100730008B3309F46CC0823409F4A4C0813209F40B
:100740009DC0823309F07CCE8EE487CE86E085CED4
:100750008CE083CE85E081CE84EE890F833070F00B
:10076000943461F09A3251F09A3141F0892F8D7FA3
:10077000813321F09A5381E0923008F480E088833D
:100780008C918E31F1F18C3209F482C08D3209F4F2
:100790007DC0982F977F9531B1F18B31B1F18C31BC
:1007A00099F2843409F46EC08D3409F465C08A323C
:1007B00009F464C0813209F461C0823209F458C07E
:1007C0008A3109F461C0833311F18B3309F450C0CD
:1007D000823409F457C08B3409F4B6CF823309F45C
:1007E00053C0813309F452C08A3309F451C08632B0
:1007F00009F433CE863309F430CE8D3309F0E9CED7
:100800002CCE8EE02ACE87E028CE81E626CE85E566
:1008100024CE933261F0943451F09A3241F09A31FF
:1008200031F0913321F09A5381E0933008F480E065
:1008300088838C918E31D1F08C3251F18D3231F12F
:100840008332B1F08533E1F08C33A1F08434D1F000
:100850008D3491F08A3291F0813281F0823281F0D0
:100860008A3191F08B3309F0B3CF6ECF85E4F5CDAB
:100870008DE5F3CD8BE5F1CD8EE1EFCD8AE4EDCDC5
:1008800084E5EBCD8CE4E9CD82E5E7CD81E4E5CDEF
:1008900089E4E3CD943461F09A3251F09B3441F015
:1008A000892F8B7F813321F09A5381E0943008F4B3
:1008B00080E088839C919C3209F44BC09D3209F4FE
:1008C00046C0963361F19D33A1F19E3351F19634C8
:1008D00051F19534B1F1953341F19C3341F19434A8
:1008E00061F19D3431F19A3231F1913221F19A3135
:1008F00021F1933321F19B3321F1923421F19B3487
:1009000011F1923311F1913311F19A3311F19632C1
:1009100009F453CC9E3109F450CC90E04ECC9DE3C9
:100920004CCC96E44ACC95E448CC94E546CC9BE587
:1009300044CC92E542CC9AE440CC9CE43ECC96E395
:100940003CCC9EE43ACC95E538CC9EE336CC91E4A1
:1009500034CC99E432CC9333D9F09232C9F082E0AE
:100960009534B9F0943491F09A3281F0892F8B7FCD
:100970008A3161F0923451F09B3441F08FEC890F51
:10098000823020F09A5381E0923018F480E001C068
:1009900080E288839C919333D9F19232D9F19332DA
:1009A000D9F19534D9F19E31C9F19D3209F44AC08B
:1009B0009C3209F445C09B31D9F19533B9F19C3390
:1009C00079F1943469F19D3469F19A3269F1913287
:1009D00059F19A3159F19B3359F1923459F19B34C1
:1009E00059F1923359F19A3359F1913359F19632C1
:1009F00009F4E3CB963309F4E0CB9D3309F4DDCB66
:100A00009E3309F4DACB963409F4D7CB90E0D5CBFA
:100A100091E7D3CB90E7D1CB9AE3CFCB94E5CDCB85
:100A200092E5CBCB9EE1C9CB9AE4C7CB9CE4C5CB86
:100A300095E5C3CB9EE4C1CB9DE5BFCB9BE5BDCB8C
:100A400099E4BBCB91E4B9CB933271F0943461F06B
:100A50009A3251F09B3441F0892F8B7F813321F002
:100A60009A5381E0943008F480E088839C919C3212
:100A700009F455C09D3209F450C09433F1F19B3212
:100A8000D1F1933281F19B3171F1963371F19D3344
:100A9000B1F19E3361F1963461F1953361F19C338C
:100AA00061F1943481F19D3451F19A3251F19132D6
:100AB00041F1923261F19A3131F1933331F19B334B
:100AC00031F1923431F19B3421F1923321F19133A0
:100AD00021F19A3321F1963209F46FCB9E3109F45A
:100AE0006CCB90E06ACB9DE568CB9DE366CB96E44A
:100AF00064CB95E462CB94E560CB9BE55ECB92E55D
:100B00005CCB9AE45ACB9CE458CB96E356CB9EE45C
:100B100054CB95E552CB9EE350CB91E44ECB99E478
:100B20004CCB892F8F7E8D3281F0943371F09B32C4
:100B300061F09C3151F0923241F0923431F09133B6
:100B400021F09A5381E0923008F480E088839C91F0
:100B50009E31C1F184ED890F823090F1943391F18F
:100B60009B3291F19C3191F19D33B1F19534C1F1FA
:100B70009434E1F19D3461F19A3261F1913261F185
:100B8000923261F19A31A1F1933341F19B3341F1FA
:100B9000923451F19B3431F1923331F1913331F18F
:100BA0009A3331F1963209F408CB963309F405CB28
:100BB0009E3309F402CB963409F4FFCA90E0FDCAD3
:100BC00091E6FBCA9DE5F9CA92E5F7CA9CE4F5CA2D
:100BD0009EE1F3CA9DE3F1CA9EE4EFCA94E5EDCA33
:100BE0009AE4EBCA95E4E9CA9BE5E7CA91E4E5CA51
:100BF00099E4E3CA9C3309F19B31F9F09C3109F483
:100C00006FC0943309F46CC09531A9F09E3109F49A
:100C100067C0892F8F7E8D3271F08EED890F823003
:100C200050F0923441F0892F8D7F813321F09A5317
:100C300081E0923018F480E001C084E088839C91C8
:100C40009C3309F465C09B3109F44CC0953109F41B
:100C50004BC084ED890F823008F448C09B3209F400
:100C60004FC0933209F444C09D3309F447C0953412
:100C700009F44AC0953309F445C0943409F44AC0D4
:100C80009D34C1F19A32C1F19132C1F19232C1F178
:100C90009A3109F441C09333A9F19B33A9F19234FD
:100CA000B9F19B3499F1923399F1913399F19A33D7
:100CB00099F1963209F481CA9E3109F47ECA9633BD
:100CC00009F47BCA9E3309F478CA963409F475CACC
:100CD000943309F472CA9C3109F46FCA90E06DCA6A
:100CE00080E1ACCF96E169CA9DE567CA91E665CA25
:100CF0009EE063CA9EE161CA9DE35FCA9EE45DCA4D
:100D000092E55BCA94E559CA9AE457CA95E455CA74
:100D10009BE553CA91E451CA99E44FCA9C3161F1F1
:100D2000923251F19E3109F483C0963209F480C0A9
:100D3000953101F19432F1F09D32E1F09B3109F4EB
:100D400077C0892F877F833209F472C0943309F406
:100D50006FC09D3379F09C3309F46AC0953309F470
:100D600067C0923439F086EC890F823018F081E048
:100D7000913319F480E001C080E488839C919C3118
:100D800009F458C0923209F457C0892F877F853102
:100D900009F458C0943209F45DC084ED890F8230A3
:100DA00008F44CC09B3109F44BC0933209F44AC09B
:100DB0009B3209F449C0943309F448C0953409F4CE
:100DC00051C09D3309F448C09D3409F441C09434A6
:100DD00009F44EC09334F1F19C3309F44BC09533C0
:100DE00009F442C09A3109F441C09132A9F19A3212
:100DF000A9F19B34A9F19234E9F19B3399F1933332
:100E000099F19A3399F1913399F1923399F19E3195
:100E100009F4D3C9963209F4D0C9963309F4CDC97F
:100E20009E3309F4CAC9963409F4C7C990E0C5C90C
:100E300088E0A3CF9EE7C1C99CE9BFC991E6BDC9BF
:100E400096E1BBC99EE0B9C992E5B7C99DE5B5C9B0
:100E50009EE1B3C995E5B1C99EE4AFC99DE3ADC9B3
:100E600095E4ABC99AE4A9C994E5A7C999E4A5C9D1
:100E700091E4A3C99BE5A1C91C92F0CA359B06C0A9
:100E800086B18295817091E08927089581E0089567
:100E90006330B1F0643031F1623099F521E030E037
:100EA000B90102C0660F771F8A95E2F7CB0195B1B1
:100EB000411104C08095892385B90895892BFCCF01
:100EC00021E030E0B90102C0660F771F8A95E2F792
:100ED000CB0198B1411104C08095892388B9089548
:100EE000892BFCCF21E030E0B90102C0660F771FEB
:100EF0008A95E2F7CB019BB1411104C0809589230B
:100F00008BB90895892BFCCF282F633081F0643092
:100F100081F0623081F493B1892F90E002C0959501
:100F200087952A95E2F7809590958170089596B1FE
:100F3000F3CF99B1F1CF80E008956330B1F0643020
:100F400031F1623099F521E030E0B90102C0660F5D
:100F5000771F8A95E2F7CB0194B1442321F0809565
:100F6000892384B90895892BFCCF21E030E0B901B1
:100F700002C0660F771F8A95E2F7CB0197B1442331
:100F800021F08095892387B90895892BFCCF21E032
:100F900030E0B90102C0660F771F8A95E2F7CB01F6
:100FA0009AB1442321F0809589238AB90895892B29
:100FB000FCCF0F931F93CF93DF93C62F90E0FC01DC
:100FC000E054FD4F108188549D4FFC01D08140E0DA
:100FD000612F8D2F0E949D0740E0612F8D2F0E9471
:100FE0004807FAE1FA95F1F700C06C2F70E0FB01B9
:100FF000ED54FD4F62557D4F0081FB01C081602F94
:101000008C2F0E9484078111FACF41E0612F8D2F30
:10101000DF91CF911F910F910C949D07882331F0A0
:1010200095E19A95F1F700008450F8CF0895CF929A
:10103000DF92EF92FF920F931F93CF93DF93C82F0E
:10104000F62E0E943E078111FCCF3C9A8091000150
:10105000880F880F0E940E083D9A80910001880F2A
:10106000880F880F0E940E0885E00E94530080912F
:101070000001880F880F0E940E0810E000E0D1E008
:10108000CC2ED12CEE24E394C601002E02C09595FF
:1010900087950A94E2F780FF9AC084E00E9453008B
:1010A000DE2580910001880F880F0E940E083D9A6E
:1010B00080910001880F880F880F0E940E0885E03C
:1010C0000E94530080910001880F880F0E940E0833
:1010D0000F5F1F4F08301105B9F6DD2309F479C001
:1010E00084E00E94530080910001880F880F0E94C5
:1010F0000E083D9A80910001880F880F880F0E948A
:101100000E0885E00E94530080910001880F880F2F
:101110000E940E0884E00E94530080910001880F15
:10112000880F0E940E083D9A80910001880F880F59
:10113000880F0E940E0885E00E94530080910001F4
:10114000880F880F0E940E0887EC90E00197F1F756
:1011500000C00000FF2091F18091D5029091010123
:10116000923009F03FC0882311F0C43139F18091E9
:10117000D402882311F0C13109F18091D302882370
:1011800011F0C231D9F08091D102882311F0C13120
:10119000A9F08091D202882311F0CF3179F08091AB
:1011A000CC028823C1F0C03FB1F001E021E041E072
:1011B00061E081E00E944B091092CC02DF91CF9157
:1011C0001F910F91FF90EF90DF90CF9008953C9A80
:1011D00068CF3C9A88CF81E0C03F09F080E08093DF
:1011E000CC02ECCF882311F0CD3941F38091D402A9
:1011F000882311F0C83B11F38091D302882311F0AA
:10120000CA3AE1F28091D102882311F0C83BB1F2D1
:101210008091D202882311F0CB3D81F2C03E71F261
:10122000C13860F201E021E041E061E081E00E942C
:101230004B09C4CF60E080EE0E94170860E082E1B5
:101240000E94170860E080EE0E94170860E08CE7BB
:101250000E9417082FEF81EE94E0215080409040CB
:10126000E1F700C0000060E080EE0E94170860E037
:1012700080EF0E94170860E082E10E94170860E09A
:1012800080EE0E94170860E080EF0E94170860E07F
:101290008CE70C9417080F931F93CF93DF93162FAF
:1012A000D42FC22F882331F08091D502813079F17B
:1012B0008230D9F1112341F08091D402813009F4B8
:1012C0004EC0823009F459C0DD2341F08091D30231
:1012D000813009F46CC0823009F477C0CC2341F02E
:1012E0008091D102813009F48AC0823009F49DC016
:1012F000002341F08091D202813009F4B8C08230DD
:1013000009F4CBC0DF91CF911F910F910895809187
:10131000010160E0823039F484E10E94170882E024
:101320008093D502C7CF8DE1F8CF2FEF84E39CE007
:10133000215080409040E1F700C000008091010101
:1013400060E0823051F480EF0E94170860E084E191
:101350000E9417081092D502ADCF8DE9F9CF809188
:10136000010160E0823039F481E10E94170882E0D7
:101370008093D402A9CF88E3F8CF2FEF84E39CE0D9
:10138000215080409040E1F700C0000080910101B1
:1013900060E0823051F480EF0E94170860E081E144
:1013A0000E9417081092D4028FCF88EBF9CF80915A
:1013B000010160E0823039F482E10E94170882E086
:1013C0008093D3028BCF8AE2F8CF2FEF84E39CE0A7
:1013D000215080409040E1F700C000008091010161
:1013E00060E0823051F480EF0E94170860E082E1F3
:1013F0000E9417081092D30271CF8AEAF9CF809128
:10140000010160E0823059F480EE0E94170860E02C
:1014100081E10E94170882E08093D10269CF80EEBB
:101420000E94170860E088E3F4CF2FEF84E39CE08C
:10143000215080409040E1F700C000008091010100
:1014400060E0823071F480EE0E94170860E080EF67
:101450000E94170860E081E10E9417081092D102F3
:1014600047CF80EE0E94170860E088EBF5CF8091AF
:10147000010160E0823059F480EE0E94170860E0BC
:101480008FE10E94170882E08093D2023BCF80EE6A
:101490000E94170860E08BE5F4CF2FEF84E39CE017
:1014A000215080409040E1F700C000008091010190
:1014B00060E0823071F480EE0E94170860E080EFF7
:1014C0000E94170860E08FE10E9417081092D20274
:1014D00019CF80EE0E94170860E08BEDF5CF61E038
:1014E0000C9417084F925F926F927F928F92AF92F7
:1014F000CF92EF92FF920F931F93CF93DF93CDB7CD
:10150000DEB7F82E662E142F722E8091D00288231B
:1015100031F02AE12A95F1F700C01092D0020023A1
:1015200069F080910101823009F0F0C082E10E94EF
:101530006F0A8091D0028F5F8093D002EE2069F015
:1015400080910101823009F0E3C084E10E946F0ABA
:101550008091D0028F5F8093D002CC2069F080917F
:101560000101823009F0D6C081E10E946F0A8091AA
:10157000D0028F5F8093D002AA2081F08091010178
:10158000823009F0C9C080EE0E946F0A81E10E949A
:101590006F0A8091D0028F5F8093D002882081F003
:1015A00080910101823009F0BCC080EE0E946F0A78
:1015B0008FE10E946F0A8091D0028F5F8093D002EA
:1015C0008091D002882331F08AE18A95F1F700C03A
:1015D0001092D002772019F080EE0E946F0A812FBE
:1015E0000E946F0A9FEF21EE84E0915020408040DE
:1015F000E1F700C00000772019F080EE0E946F0A2A
:1016000080910101823019F480EF0E946F0A80916D
:101610000101823009F08AC0812F0E946F0A712C6B
:101620004F2C512CF30195E0F99EE00DF11D112492
:10163000E552FD4F1082002359F080910101823064
:1016400009F077C080EF0E946F0A82E10E946F0A62
:10165000EE2059F080910101823009F06CC080EFDA
:101660000E946F0A84E10E946F0ACC2059F0809199
:101670000101823009F061C080EF0E946F0A81E1B0
:101680000E946F0AAA2071F080910101823009F056
:1016900056C080EE0E946F0A80EF0E946F0A81E1BF
:1016A0000E946F0A882071F080910101823009F058
:1016B0004BC080EE0E946F0A80EF0E946F0A81E1AA
:1016C0000E946F0A2AE12A95F1F700C001E021E0AB
:1016D00041E061E081E00E944B0985E0849DF001DA
:1016E000859DF00D1124E552FD4FE60DF71D10828A
:1016F000DF91CF911F910F91FF90EF90CF90AF901E
:101700008F907F906F905F904F9008958AE20FCFF7
:101710008DE11CCF88E329CF80EE0E946F0A88E319
:1017200036CF80EE0E946F0A8BE543CF80E8810FB1
:1017300074CF8AEA8BCF8DE996CF88EBA1CF80EE6C
:101740000E946F0A88EBACCF80EE0E946F0A88EB94
:10175000B7CF0F931F93CF93DF93EC0180911103C9
:1017600090911203892BA1F460E080EF0E9417088A
:1017700060E082E10E9417081092F40260E080EFBE
:101780000E94170860E084E10E9417081092FF028F
:101790002FEF81EE94E0215080409040E1F700C0AF
:1017A000000089E20E946F0AEFEFF1EE24E0E150C1
:1017B000F0402040E1F700C0000080EF0E946F0A77
:1017C00089E20E946F0A8FEF91EEE4E08150904031
:1017D000E040E1F700C0000089E40E946F0AFFEFDB
:1017E00021EE84E0F15020408040E1F700C000008D
:1017F00080EF0E946F0A89E40E946F0A8E010F5FDA
:101800001F4F888190E098012C1B3D0B8217930796
:101810004CF19FEFE1EEF4E09150E040F040E1F751
:1018200000C00000F80181918F010E946F0AFFEF54
:1018300021EE84E0F15020408040E1F700C000003C
:1018400080EF0E946F0AF801319780810E946F0A31
:101850009FEFE1EEF4E09150E040F040E1F700C08E
:101860000000CFCFC80FD91F898180930001DF917D
:10187000CF911F910F9108951F920F920FB60F9263
:1018800011242F933F938F939F93AF93BF93809196
:10189000180390911903A0911A03B0911B03309182
:1018A000170323E0230F2D3758F50196A11DB11D15
:1018B000209317038093180390931903A0931A039E
:1018C000B0931B038091130390911403A09115030F
:1018D000B09116030196A11DB11D8093130390933F
:1018E0001403A0931503B0931603BF91AF919F917A
:1018F0008F913F912F910F900FBE0F901F901895D1
:1019000026E8230F0296A11DB11DD2CFCF93DF93FE
:10191000CDB7DEB764970FB6F894DEBF0FBECDBF6C
:10192000789484B5826084BD84B5816084BD85B5BA
:10193000826085BD85B5816085BD80916E008160C6
:1019400080936E001092810080918100826080936C
:10195000810080918100816080938100809180006E
:101960008160809380008091B10084608093B10099
:101970008091B00081608093B00080917A00846093
:1019800080937A0080917A00826080937A008091BF
:101990007A00816080937A0080917A0080688093D9
:1019A0007A001092C10080E880936100109261007B
:1019B0004498459884E00E94530085E00E945300BB
:1019C000259A2D9841E063E082E00E949D0741E066
:1019D00063E082E00E94480741E063E083E00E9408
:1019E0009D0741E063E083E00E94480748EBC42E76
:1019F00042E0D42E5EEAE52E52E0F52E23EB32E0F3
:101A00003C872B87AB85BC850D91BC87AB87F701E5
:101A100011917F0141E0602F812F0E949D0741E0DD
:101A2000602F812F0E9448072B853C85C216D30664
:101A300049F738ECE32E32E0F32E08EB12E080ECAD
:101A400092E09E878D87AD85BE856D91BE87AD87FF
:101A500041E0F80181918F010E949D072D853E850F
:101A6000E216F30681F785E0E2E0F1E0DE0116968A
:101A700001900D928A95E1F745E050E070E060E05A
:101A8000CE0101960E94B91EDE011196FE01369626
:101A90009F0181E0EF87F88B4D919191491380E090
:101AA0002A173B07C9F7882309F434C185E090E081
:101AB0000E94C91E90E01092CE021092CD0221E049
:101AC000009721F08130910599F424E020930001E2
:101AD0008530910599F424E0209300018A30910526
:101AE00099F424E0209300018F30910599F410C1FE
:101AF0008230910599F424E020930001863091050D
:101B000099F424E0209300018B309105A1F424E0A6
:101B10002093000180319105A9F4FAC0833091052A
:101B200031F524E0209300018730910509F0E5C0EC
:101B300024E0209300018C30910509F0E5C024E0F9
:101B4000209300018131910539F524E020930001B3
:101B500021E02093100310920C0310920D031092B9
:101B60000E0310920F0322E02093010115C0843070
:101B7000910509F0ADCF24E0209300018930910553
:101B800009F0ACCF24E02093000126E08E309105CF
:101B900009F0AACF209300019093120380931103C0
:101BA00086E090E00E94C91E823008F080E08093B9
:101BB000D60211E00E943E072091110330911203DA
:101BC0008823B1F02131310599F4809110038111FE
:101BD0000C94741E80910C0390910D03A0910E0340
:101BE000B0910F03892B8A2B8B2B11F00C94741E50
:101BF00080910C0390910D03A0910E03B0910F03FF
:101C00000097A105B10509F0C5C02131310589F55D
:101C100080910903882369F180910703909108035B
:101C20009C012F5F3F4F3093080320930703893EA9
:101C3000934020F4809101018230D9F48091050312
:101C4000909106039C012F5F3F4F30930603209332
:101C500005038739910568F08091040381110E9482
:101C60006F0A809109030E946F0A10920603109276
:101C70000503109203039AEC692E92E0792E28EC6A
:101C8000422E22E0522EF12CF301E1903F01D201CD
:101C90000D912D016E2D802F0E948407882309F459
:101CA000B2C0B5E3BA95F1F700006E2D802F0E9407
:101CB0008407882309F4A7C080911103909112032F
:101CC000F11074C08230910518F00A97029790F4D1
:101CD000809101014FE3813009F043E0812CA12C78
:101CE000CC24C394EE24E39400E020E064E084E09C
:101CF0000E94720AFF24F394C7CF8830910509F03F
:101D00003DCF24E0209300018D30910509F03DCFB7
:101D100024E040CF45E050E070E060E08F85988996
:101D20000E94D11E60E085E090E00E94DB1E61E031
:101D300086E090E00E94DB1E3CCF8AEF0E946F0A93
:101D40000C94631E823F09F18F3F11F00C94741EB6
:101D50008AEA0E946F0A109210030C94741E8091FC
:101D60000A03803F11F00C94741E809101010E94BF
:101D70006F0A0C94741E90910A03903F11F00C941A
:101D8000741E809301010C94741E8BEA0E946F0AEA
:101D900083E8EDCF0197A109B10980930C039093DB
:101DA0000D03A0930E03B0930F032FCF009771F094
:101DB0009C01245031092230310540F02450310972
:101DC0002230310518F08D7F0C9791F4809101013C
:101DD00046E4813009F04EE7812CA12CCC24C39439
:101DE000EE24E39400E020E064E082E00E94720AC6
:101DF0008091110390911203029711F40E941A0925
:101E0000E1E0E0930303F1E0FF1274CF809103035C
:101E100081115EC0BBEDCB2EB2E0DB2E08EB802E35
:101E200002E0902E80ECE82E82E0F82ED7015D9043
:101E30007D01F40101914F0140E0652D802F0E944A
:101E40009D0740E0652D802F0E944807FAE1FA9532
:101E5000F1F700C036012EEA32E03A8B298BA3EB72
:101E6000AA2EA2E0BA2ED5013D905D01E989FA893A
:101E70004190FA8BE98B632D842D0E94840788237F
:101E800009F44CC0F5E3FA95F1F70000632D842DB9
:101E90000E948407D3018823D9F18C9180FF34C03C
:101EA00082608C93FFEF6F1A7F0A2B853C852A1581
:101EB0003B05C9F641E0652D802F0E949D0735E066
:101EC000C30ED11C8D859E85E816F90609F0AECFAC
:101ED0008091DA02882349F14BED52E028E030E0AE
:101EE00090E080E0FA01E80FF91F608160FD31E0C9
:101EF000019685309105B1F721504B5F5F4F21115D
:101F0000EFCF3093DA0282CF8160F3018083CACFB2
:101F10008C9180FFC7CF8C7F8460C3CFF301808119
:101F200080FFC0CF8C7F8460F1CF8091D902811176
:101F300005C08091D802882309F42CC18091F40255
:101F400082FF10C01092F40280911103909112034D
:101F5000892B41F460E080EF0E94170860E082E185
:101F60000E9417088091FF0282FF10C01092FF02AA
:101F70008091110390911203892B41F460E080EF6E
:101F80000E94170860E084E10E9417086BED462E5E
:101F900062E0562E7EE5272E72E0372E712C612CE2
:101FA000E2E0BE2EF5E09F2ED12CC12C8091D9020B
:101FB000882311F40C948E18F201EC0DFD1D808124
:101FC00080FD02C00C948E18969CC001979C900DC9
:101FD00011248A579D4FC80ED91ED6018C9110929C
:101FE000D902823311F40C946818D0F5833209F4C5
:101FF000B3C658F4813209F491C6823209F4D4C7C9
:10200000109303031093D702B4C08A3209F405C7B2
:102010008133B1F78091010143E5813009F041E757
:10202000812CA12CCC24C394EE24E39400E021E085
:1020300063E087E00E94720A80911103909112037D
:10204000419709F096C01093100310920C03109260
:102050000D0310920E0310920F03B092010189C07C
:10206000853311F40C947B18A8F5833309F497C6D3
:10207000843331F68091110390911203009771F02F
:102080009C01245031092230310540F0245031099F
:102090002230310518F08D7F0C9791F48091010169
:1020A00046E4813009F04EE7812CA12CCC24C39466
:1020B000EE24E39400E020E064E082E00E94720AF3
:1020C0008091110390911203029709F052C00E946F
:1020D0001A094FC08C3309F441C0843409F090CF01
:1020E0008091110390911203059709F5812CA12C81
:1020F000C12CE12C00E020E047E061E084E00E9498
:10210000720A82E10E946F0AAFEFB3EDE0E3A150E3
:10211000B040E040E1F700C0000080EF0E946F0A8D
:1021200082E10E946F0A109303031093D7028091FB
:102130001103909112030297E1F48091010148E5A7
:10214000813009F047E0812CA12CCC24C394EE24EB
:10215000E39400E020E064E084E0CAC71093D80272
:10216000BFEFE4E3FCE0B150E040F040E1F700C035
:1021700000003FEF631A730A85E0480E511C95E09A
:10218000290E311CA8E06A16710409F00DCFB1E0E8
:10219000B09303038091030381110C946019809123
:1021A000F40280FD02C00C9460198091FF0280FD52
:1021B00002C00C9460198091D702811109C58091E9
:1021C000E80280FF10C0E1E0E093D902E09303034E
:1021D000E093DA02FFEF24E33CE0F150204030408E
:1021E000E1F700C000008091F50280FF1CC08091E3
:1021F000110390911203892B21F48091D602882338
:1022000091F08091D502811101C081E08093D502C7
:1022100000E020E040E060E081E00E944B0961E0E6
:1022200085E00E94D9078091F70280FF1CC0809151
:10223000110390911203892B21F48091D6028823F7
:1022400091F08091D402811101C081E08093D40289
:1022500000E020E040E061E080E00E944B0963E0A4
:1022600085E00E94D9078091E50280FF1CC0809123
:10227000110390911203892B21F48091D6028823B7
:1022800091F08091D302811101C081E08093D3024B
:1022900000E020E041E060E080E00E944B0960E067
:1022A00082E00E94D9078091F60280FF1CC08091D5
:1022B000110390911203892B21F48091D602882377
:1022C00091F08091D202811101C081E08093D2020D
:1022D00001E020E040E060E080E00E944B0962E025
:1022E00085E00E94D9078091000380FF1CC0809187
:1022F000110390911203892B21F48091D602882337
:1023000091F08091D102811101C081E08093D102CE
:1023100000E021E040E060E080E00E944B0962E0E4
:1023200087E00E94D9078091DB0280FF1FC0809167
:10233000110390911203892B21F48091D6028823F6
:10234000A9F08090D202A090D102C090D402E09077
:10235000D5020091D302809101014BE3813009F055
:1023600045E020E060E080E00E94720A8091DC029B
:1023700080FF1FC08091110390911203892B21F4DB
:102380008091D6028823A9F08090D202A090D10239
:10239000C090D402E090D5020091D3028091010157
:1023A0004CE3813009F046E020E061E080E00E94EB
:1023B000720A8091DD0280FF1FC08091110390910D
:1023C0001203892B21F48091D6028823A9F08090F2
:1023D000D202A090D102C090D402E090D502009128
:1023E000D302809101014DE3813009F044E020E007
:1023F00062E080E00E94720A8091DE0280FF1FC0CE
:102400008091110390911203892B21F48091D602BF
:102410008823A9F08090D202A090D102C090D4026B
:10242000E090D5020091D302809101014EE381300A
:1024300009F04CE020E063E080E00E94720A8091A5
:10244000DF0280FF1FC08091110390911203892B3E
:1024500021F48091D6028823A9F08090D202A09026
:10246000D102C090D402E090D5020091D3028091B5
:1024700001014FE3813009F043E020E064E080E0B7
:102480000E94720A8091EE0280FF1FC080911103AA
:1024900090911203892B21F48091D6028823A9F010
:1024A0008090D202A090D102C090D402E090D502D8
:1024B0000091D3028091010140E4813009F04BE0AA
:1024C00020E064E083E00E94720A8091ED0280FFC8
:1024D0001FC08091110390911203892B21F48091E8
:1024E000D6028823A9F08090D202A090D102C09099
:1024F000D402E090D5020091D3028091010141E421
:10250000813009F043E820E063E083E00E94720A32
:102510008091EC0280FF1FC0809111039091120303
:10252000892B21F48091D6028823A9F08090D202D1
:10253000A090D102C090D402E090D5020091D302C5
:102540008091010142E4813009F04AE020E062E03C
:1025500083E00E94720A8091EB02482F417080FF55
:102560001EC08091110390911203892B21F4809158
:10257000D6028823A1F08090D202A090D102C09010
:10258000D402E090D5020091D30280910101813004
:1025900009F443E420E061E083E00E94720A809144
:1025A000EA0280FF1FC08091110390911203892BD2
:1025B00021F48091D6028823A9F08090D202A090C5
:1025C000D102C090D402E090D5020091D302809154
:1025D000010144E4813009F049E020E060E083E05B
:1025E0000E94720A8091E00280FF1FC08091110357
:1025F00090911203892B21F48091D6028823A9F0AF
:102600008090D202A090D102C090D402E090D50276
:102610000091D3028091010147E5813009F048E73C
:1026200020E060E081E00E94720A8091E10280FF78
:102630001FC08091110390911203892B21F4809186
:10264000D6028823A9F08090D202A090D102C09037
:10265000D402E090D5020091D3028091010148E5B7
:10266000813009F047E020E061E081E00E94720AD9
:102670008091E60280FF1FC08091110390911203A8
:10268000892B21F48091D6028823A9F08090D20270
:10269000A090D102C090D402E090D5020091D30264
:1026A0008091010146E5813009F041E620E061E0DA
:1026B00082E00E94720A8091F10280FF1FC0809127
:1026C000110390911203892B21F48091D602882363
:1026D000A9F08090D202A090D102C090D402E090E4
:1026E000D5020091D3028091010145E4813009F0C7
:1026F00047E720E062E084E00E94720A8091F002E5
:1027000080FF1FC08091110390911203892B21F447
:102710008091D6028823A9F08090D202A090D102A5
:10272000C090D402E090D5020091D30280910101C3
:102730004AE1813009F044E520E061E084E00E9454
:10274000720A8091EF0280FF1FC080911103909167
:102750001203892B21F48091D6028823A9F080905E
:10276000D202A090D102C090D402E090D502009194
:10277000D302809101014BE1813009F04BE520E06B
:1027800060E084E00E94720A8091E20280FF1FC034
:102790008091110390911203892B21F48091D6022C
:1027A0008823A9F08090D202A090D102C090D402D8
:1027B000E090D5020091D3028091010147E381307E
:1027C00009F04CE720E062E081E00E94720A80910B
:1027D000E30280FF1FC08091110390911203892BA7
:1027E00021F48091D6028823A9F08090D202A09093
:1027F000D102C090D402E090D5020091D302809122
:1028000001014AE4813009F04BE720E063E081E018
:102810000E94720A8091E70280FF1FC0809111031D
:1028200090911203892B21F48091D6028823A9F07C
:102830008090D202A090D102C090D402E090D50244
:102840000091D302809101014EE4813009F049E703
:1028500020E062E082E00E94720A8091E40280FF40
:1028600015C08091110390911203892B21F480915E
:10287000D602882359F00E941A0901E021E041E0C4
:1028800061E081E00E944B091092E4028091F30222
:1028900080FF1FC08091110390911203892B21F4B6
:1028A0008091D6028823A9F08090D202A090D10214
:1028B000C090D402E090D5020091D3028091010132
:1028C00046E4813009F04EE720E064E084E00E94B5
:1028D000720A8091F20280FF3CC0809111039091B6
:1028E0001203892B21F48091D602882391F160E0B4
:1028F00081EE0E94170860E084E10E94170860E002
:1029000087E70E94170860E081EE0E94170860E0E8
:1029100080EF0E94170860E084E10E94170860E0E1
:1029200080EF0E94170860E087E70E9417088FEF8A
:1029300091EEA4E081509040A040E1F700C000007B
:1029400001E021E041E061E081E00E944B0910924A
:10295000F2028091E90280FF1FC0809111039091E3
:102960001203892B21F48091D6028823A9F080904C
:10297000D202A090D102C090D402E090D502009182
:10298000D3028091010142E5813009F040E721E066
:1029900064E082E00E94720A8091FD0280FF1FC005
:1029A0008091110390911203892B21F48091D6021A
:1029B0008823A9F08090D202A090D102C090D402C6
:1029C000E090D5020091D3028091010147E481306B
:1029D00009F04CE621E064E086E00E94720A8091F2
:1029E000FC0280FF1FC08091110390911203892B7C
:1029F00021F48091D6028823A9F08090D202A09081
:102A0000D102C090D402E090D5020091D30280910F
:102A1000010149E4813009F04DE721E063E086E0FF
:102A20000E94720A8091F80280FF1FC080911103FA
:102A300090911203892B21F48091D6028823A9F06A
:102A40008090D202A090D102C090D402E090D50232
:102A50000091D3028091010143E5813009F041E703
:102A600021E064E085E00E94720A8091020380FF09
:102A70001FC08091110390911203892B21F4809142
:102A8000D6028823A9F08090D202A090D102C090F3
:102A9000D402E090D5020091D302809101014FE46D
:102AA000813009F049E621E064E087E00E94720A83
:102AB0008091010380FF1FC0809111039091120348
:102AC000892B21F48091D6028823A9F08090D2022C
:102AD000A090D102C090D402E090D5020091D30220
:102AE0008091010141E5813009F04AE721E063E08E
:102AF00087E00E94720A8091FB0280FF1FC08091D4
:102B0000110390911203892B21F48091D60288231E
:102B1000A9F08090D202A090D102C090D402E0909F
:102B2000D5020091D3028091010147E2813009F082
:102B30004CE420E062E086E00E94720A8091FA0292
:102B400080FF1FC08091110390911203892B21F403
:102B50008091D6028823A9F08090D202A090D10261
:102B6000C090D402E090D5020091D302809101017F
:102B700048E2813009F042E520E061E086E00E9411
:102B8000720A8091F90280FF1FC080911103909119
:102B90001203892B21F48091D6028823A9F080901A
:102BA000D202A090D102C090D402E090D502009150
:102BB000D302809101014BE2813009F04DE520E024
:102BC00060E086E00E94720A8091030381119CC03C
:102BD0009091F402892F817020911103309112039A
:102BE000232B09F070C32091D60221116CC38823D6
:102BF00079F091FD0DC082E10E946F0A8091F4028C
:102C000082608093F4028091D0028F5F8093D00223
:102C10008091FF0280FF0FC081FD0DC084E10E9402
:102C20006F0A8091FF0282608093FF028091D00240
:102C30008F5F8093D0028091F40282FF0DC080EFFD
:102C40000E946F0A82E10E946F0A1092F402809142
:102C5000D0028F5F8093D0028091FF0282FF0DC06F
:102C600080EF0E946F0A84E10E946F0A1092FF02B7
:102C70008091D0028F5F8093D0028091D002882310
:102C800031F0BAE1BA95F1F700C01092D00226E80F
:102C9000E22E22E0F22E3BEDA32E32E0B32E3501E0
:102CA000D12CC12C4301F301808180FF08C081FD3C
:102CB00006C0F701EC0DFD1D80810E946F0AFFEF39
:102CC0006F1A7F0AD4018C9182FF0CC080EF0E94A2
:102CD0006F0AF701EC0DFD1D80810E946F0AF30160
:102CE00031971082BFEFCB1ADB0AE5E0CE16D10494
:102CF000C9F6F5E0EF0EF11C25E0A20EB11C8EEA3C
:102D000092E08E159F0559F680E090E0892B11F432
:102D10000C94DA0D0E9400000C94DA0D80911103DE
:102D2000909112038B30910519F00397029750F49C
:102D30001092CE0281E09091CD02911180E08093BB
:102D4000CD025EC91092CD0281E09091CE02911128
:102D500080E08093CE0254C98091110390911203B8
:102D6000892B09F006CA81E09091D602911180E08A
:102D70008093D60260E080EF0E94170860E082E155
:102D80000E9417081092F40260E080EF0E9417087A
:102D900060E084E10E9417081092FF0231C980911F
:102DA000110390911203049709F0E3C98AE00E948D
:102DB0006F0A2FEF30E782E0215030408040E1F78A
:102DC00000C0000089E00E946F0A9FEFA0E7B2E018
:102DD0009150A040B040E1F700C0000080EF0E9499
:102DE0006F0A89E00E946F0AEFEFF3ED20E3E150F4
:102DF000F0402040E1F700C0000080EF0E946F0A21
:102E00008AE00E946F0A3FEF80E792E031508040F5
:102E10009040E1F700C00000F3C8809101018230CA
:102E200009F0A7C98091110390911203892B81F4B5
:102E300080EF0E946F0A82E10E946F0A1092F402F2
:102E400080EF0E946F0A84E10E946F0A1092FF02D5
:102E500089E20E946F0AFFEF20E732E0F150204044
:102E60003040E1F700C0000080EF0E946F0A89E265
:102E70000E946F0A51E1C52E51E0D52EF12CE12CB4
:102E800082E0E816F10421F094E0E916F104D9F4A7
:102E9000AFEFB0E7E2E0A150B040E040E1F700C0A2
:102EA000000089E40E946F0AFFEF20E732E0F15052
:102EB00020403040E1F700C0000080EF0E946F0A20
:102EC00089E40E946F0A8FEF90E7A2E08150904062
:102ED000A040E1F700C00000D601ED916D01F0E0E7
:102EE000E95FFE4F0081802F0E946F0ABFEFE0E78D
:102EF000F2E0B150E040F040E1F700C0000080EFA8
:102F00000E946F0A802F0E946F0A2FEF30E782E045
:102F1000215030408040E1F700C000009FEFE91AE7
:102F2000F90AA8E0EA16F10409F0AACF89E20E94A2
:102F30006F0ABFEFE0E7F2E0B150E040F040E1F7A8
:102F400000C0000080EF0E946F0A89E20E946F0AB1
:102F50008DE20E946F0A2FEF30E782E0215030406F
:102F60008040E1F700C0000080EF0E946F0A8DE210
:102F70000E946F0A9FEFA0E7B2E09150A040B040DE
:102F8000E1F700C000008EE10E946F0AEFEFF0E76A
:102F900022E0E150F0402040E1F700C0000080EF67
:102FA0000E946F0A8EE12DCF809111039091120340
:102FB000892BA1F460E080EF0E94170860E082E1B5
:102FC0000E9417081092F40260E080EF0E94170838
:102FD00060E084E10E9417081092FF0260911103E3
:102FE00085E090E00E94DB1E6091D60286E090E0D2
:102FF0000E94DB1E80910101823011F00C940010C0
:10300000AFEFB0E7E2E0A150B040E040E1F700C030
:10301000000089E20E946F0AFFEF20E732E0F150E2
:1030200020403040E1F700C0000080EF0E946F0AAE
:1030300089E20E946F0A8FEF90E7A2E081509040F2
:10304000A040E1F700C0000089E40E946F0ABFEFD2
:10305000E0E7F2E0B150E040F040E1F700C00000EE
:1030600080EF0E946F0A89E40E946F0A49E1E42E12
:1030700041E0F42E2FEF30E782E0215030408040D5
:10308000E1F700C00000D7010D917D01802F0E9463
:103090006F0ABFEFE0E7F2E0B150E040F040E1F747
:1030A00000C0000080EF0E946F0A802F0E946F0A0C
:1030B0002FEF30E782E0215030408040E1F700C040
:1030C000000093E2E91691E0F906A1F60C940010D5
:1030D000809101014EE0813009F046E6812CA12C5F
:1030E000CC24C394EE24E39400E020E064E087E085
:1030F0000E94720A3EC8809111039091120382309F
:10310000910520F00A97029708F033C880910101D9
:103110004FE3813009F417C843E015C88091D80205
:10312000882309F4C2C0F201EC0DFD1D808180FFEF
:10313000BCC0F101EC0DFD1DE080F12C00911103EC
:10314000A09012031092CE021092CD0282E991E07B
:10315000E114F10431F0A1E0EA16F104F1F48DE894
:1031600091E00E94A90B25E0E216F104F1F487E753
:1031700091E00E94A90BBAE0EB16F104F1F489E5A5
:1031800091E00E94A90B8FE0E816F104F1F484E3CA
:1031900091E074C0E02EFA2CD9CFB2E0EB16F10426
:1031A000D9F488E891E00E94A90B36E0E316F10417
:1031B000D9F480E791E00E94A90BEBE0EE16F10450
:1031C000D9F480E591E00E94A90B90E1E916F104A1
:1031D000D9F489E291E052C0E3E0EE16F10439F54A
:1031E00083E891E00E94A90B87E0E816F104C1F59D
:1031F00089E691E00E94A90BFCE0EF16F104C1F50D
:103200008BE491E00E94A90BA1E1EA16F104C1F55B
:103210001093100310920C0310920D0310920E03E2
:1032200010920F03B092010183E291E027C0F4E015
:10323000EF16F10409F097CF8CE791E00E94A90BFB
:10324000A9E0EA16F10409F096CF8EE591E00E941C
:10325000A90B8FE391E03EE0E316F10479F093CF00
:1032600098E0E916F10461F784E691E00E94A90B69
:1032700086E491E02DE0E216F10459F70E94A90BD3
:10328000B2E1EB16F1040CF085CFE1E1EE16F104AA
:1032900011F0B0920101109303031093D702109222
:1032A000D802F0921203E0921103FFEFCF1ADF0A67
:1032B00025E0C216D10411F00C94D60F0C94B9106D
:1032C0001092D70281CC3091CF0231114FC08823A8
:1032D00011F091FF06C08091FF0280FF16C081FDB2
:1032E00014C04BED52E020E090E080E0253081F505
:1032F000811132C0019685309105C1F72F5F4B5F78
:103300005F4F283089F73093CF029BED292E92E052
:10331000392E00E0712CD101AB5DB2407D0161011D
:10332000A12CB5E07B122BC0A1102FC0A394BFEF3E
:10333000CB1ADB0AEFEFEE1AFE0AF5E0AF12F1CF7F
:10334000739425E0220E311C38E07312E4CFDCCCFC
:10335000273011F4813071F2FA01E80FF91F608112
:10336000762F717060FFC6CF372FC8CF8111CDCFB8
:103370008091FF0280FDC9CF1092CF02C6CFE7E057
:103380007E1203C0F1E0AF1689F2D6018C9180FF66
:103390008AC181FD88C19091CF0291110EC0909198
:1033A000F40290FF02C088608C938091FF0280FF3E
:1033B00004C0F601808180618083D6018C9183FFF7
:1033C0002AC084FD28C080910101F701823009F0F4
:1033D000F2C0EA5CFD4FB080109208031092070320
:1033E00010920403B110F2C0823009F0E7C082E10C
:1033F0000E946F0A82E18093040380910101F7012A
:10340000823009F0E0C0EA57FD4FB0808B2D0E945A
:103410006F0AB0920903D6018C9184FF94C0B82F33
:10342000B8705B2E83FD8FC08090110390901203C3
:103430001982109208031092070310920403B090AF
:103440000101E1E0BE12ECC0F701EA51FE4F8081BC
:103450008E838114910409F404C1A401BE016F5F3D
:103460007F4F8F8598890E945E008E81882309F4A2
:103470006AC0F1E18F16910409F0D6C021E0B212C2
:10348000D3C0F701E254FE4F80818E83F701EA56E4
:10349000FE4F8081982F9170382F3870632E807482
:1034A000912C412C812C2E81222309F44CC08111B6
:1034B0004AC0992349F082E0B812CCC082E10E9450
:1034C0006F0A82E180930403552051F0809101013D
:1034D000823091F484E10E946F0A84E180930403B6
:1034E000442051F080910101823031F481E10E9449
:1034F0006F0A81E180930403662061F060E080EE52
:103500000E94170880910101823009F0A8C081E172
:103510000E946F0A882059F080910101823039F4AD
:1035200060E080EE0E94170884E10E946F0A9920F3
:1035300021F060E080EE0E9417088E810E946F0AE1
:103540008E8180930903D6018C91887109F0A7C000
:103550008091CE0290910101811105C02091CD0290
:10356000222309F4A6C110920803109207031092B7
:103570000403923009F078C1F701EA57FD4F00814A
:10358000043409F469C10D3409F468C1053109F442
:1035900067C10C3109F466C10A3309F06EC08111AC
:1035A00008C0809111039091120300E70B9709F076
:1035B00069C009E267C0E25FFD4F0DCF8AE20E9459
:1035C0006F0A8AE218CFEA51FE4F1FCF823081F492
:1035D000BBE6BB1639F08CE88B0D823018F0E2E7C1
:1035E000BE1206C080EE0E946F0A80EE8093040334
:1035F00080910101813009F009CFFBE4BF1649F049
:103600002DE4B21631F038E4B31619F080E5B812A3
:10361000FDCE80EE0E946F0A80EE80930403F6CE0A
:10362000F701EA57FD4F13CF8981982F917081FBE5
:10363000552450F882FB442440F883FB662460F84C
:1036400084FB882480F885FB992490F886FB8827E2
:1036500080F929CF8AE20E946F0A8AE233CF88E399
:1036600057CFF701EA57FD4F80818E8384E10E9496
:103670006F0A84E18093040360CF093209F0DCC053
:1036800081110AE30093090380910403882319F050
:1036900080EE0E946F0A809109030E946F0AF60172
:1036A000808182608083D6018C9182FF3FCE83FF30
:1036B00021C084FD1FC080910101F701823009F013
:1036C0000AC1EA5CFD4FB08010920903B1100FC12E
:1036D000823009F003C180EF0E946F0AF701EA57B8
:1036E000FD4F80810E946F0A80EF0E946F0A82E185
:1036F0000E946F0AD6018C9184FF92C1B82FB870D6
:10370000BB2E83FD8DC1809011039090120319820E
:1037100010920903F701EA57FD4F80818E838114CF
:10372000910409F4BEC1A401BE016F5F7F4F8F8574
:1037300098890E945E008E81882309F471C1E1E1BD
:103740008E16910409F001C180910101813009F0C8
:10375000FCC0F701E254FE4F80818E83F701EA56E8
:10376000FE4F8081F82FF1704F2E282F2870822E67
:10377000807430E0612C912C512C2E81222309F48D
:103780004FC1909101018111FBC080E8820F9230FE
:1037900051F4332321F060E080EE0E94170880EF9F
:1037A0000E946F0A8E810E946F0A442059F0809116
:1037B0000101823009F0E0C080EF0E946F0A82E1CF
:1037C0000E946F0A552051F080910101823091F4DE
:1037D00080EF0E946F0A84E10E946F0A662051F018
:1037E00080910101823031F480EF0E946F0A81E103
:1037F0000E946F0A882071F080EE0E946F0A80910B
:103800000101823009F0BAC080EF0E946F0A81E1A5
:103810000E946F0A992009F403C18091010182304E
:1038200009F0FEC080EE0E946F0A80EF0E946F0ACE
:1038300084E10E946F0AF4C00B3639F0043729F096
:10384000053719F0023709F01DCF882309F41ACF84
:1038500080EE8093040316CF0BE6F7CF04E7F5CF95
:1038600005E7F3CF02E7F1CF913009F00BCFF70175
:10387000EA51FE4F0081083191F0093191F0003199
:1038800091F00E3191F0023391F00B3409F30D34C5
:10389000F9F20834E9F2003509F0F4CED9CF0BE49F
:1038A000D7CF0DE4D5CF08E4D3CF00E5D1CF09E3DE
:1038B000E9CE1092080310920703F701923041F409
:1038C000EA57FD4F80818093090310920403E3CEF1
:1038D000EA51FE4FF7CFE25FFD4FF5CEF701EA5117
:1038E000FE4F808180580E946F0A8AEA01CF8230A1
:1038F00069F4BBE6BB1639F08CE88B0D823018F00A
:10390000E2E7BE1203C080EE0E946F0A80910101BF
:10391000813079F4FBE4BF1649F02DE4B21631F0A2
:1039200038E4B31619F080E5B81203C080EE0E94A7
:103930006F0A80910101823029F480EF0E946F0AA2
:103940008B2DD6CE80E88B0DD3CE8981382F317068
:10395000432E81FB552450F882FB662460F883FBDC
:10396000882480F884FB992490F885FB332730F96C
:1039700086FB882780F901CF8AEA22CF88EB48CFDF
:103980002E3709F07EC0923009F0EBC1E4E7BE2E7D
:10399000F2E79F2E59E6852E80910101823009F0D1
:1039A0003FC0A82DA90DBB27BB1FCD018B0D911DBD
:1039B000892BB1F160E081E10E941708882061F055
:1039C00060E0882D0E94170860E080EF0E941708D1
:1039D00060E0882D0E941708992061F060E0892D31
:1039E0000E94170860E080EF0E94170860E0892DB0
:1039F0000E941708BB2061F060E08B2D0E94170821
:103A000060E080EF0E94170860E08B2D0E9417088D
:103A100060E080EF0E94170860E081E10E941708D3
:103A2000F6018081887109F069C08091CE02909181
:103A30000101811105C02091CD02222309F484C027
:103A4000109209039230E1F5F701EA57FD4F00812A
:103A5000043409F464C00D3409F463C0053109F479
:103A600062C00C3109F461C00A3301F5811107C04D
:103A7000809111039091120300E70B97D9F409E2AA
:103A800019C0912C812C2C3909F086CF923009F085
:103A900038C164E7B62E73E7972E7CCFB0E59B2E36
:103AA00038C180EF0E946F0A8E81BDCE093249F580
:103AB00081110AE380EF0E946F0A802F0E946F0A33
:103AC000809101018130D1F4F701EA51FE4F00816C
:103AD000083169F1093181F1003181F10E3181F153
:103AE000023381F10B3421F10D3411F1083401F16D
:103AF0000035F1F080E8800F0E946F0AD6011C9219
:103B000015CC0B3631F0043721F0053711F00237B0
:103B100089F6882379F280EE0E946F0ACBCF0BE6FC
:103B2000F8CF04E7F6CF05E7F4CF02E7F2CF0BE4D6
:103B300080EE0E946F0ADECF0DE4FACF08E4F8CFE2
:103B400000E5F6CF09E3D6CF923091F480EF0E94E2
:103B50006F0AF701EA57FD4FB0808B2D0E946F0A64
:103B600080910903B81201C080E080930903C6CF99
:103B7000F701EA51FE4FB08080E88B0DEFCF8091C6
:103B80000B0380930A0386B1082F007184FDFBCFDD
:103B9000359BFECF80910001880F880F0E940E0890
:103BA0003D9A80910001880F880F880F0E940E08AF
:103BB00085E00E94530080910001880F880F0E94C9
:103BC0000E08F12CE12CDD24D394349B0AC081E053
:103BD00090E00E2C01C0880F0A94EAF7082B81E0D0
:103BE000D82680910001880F880F0E940E083D9A08
:103BF00080910001880F880F880F0E940E0885E0D1
:103C00000E94530080910001880F880F0E940E08C7
:103C10009FEFE91AF90AA8E0EA16F104B1F686B1B5
:103C2000829581708B8B1C8AEB89FC89DE161F06BE
:103C300009F05AC080910001880F880F0E940E0879
:103C40003D9A80910001880F880F880F0E940E080E
:103C500085E00E94530080910001880F880F0E9428
:103C60000E083C9A80910001880F880F0E940E0870
:103C70003D9A80910001880F880F880F0E940E08DE
:103C800085E00E94530084E00E9453008FE891E099
:103C90000197F1F700C0000000930B0380EA96E85B
:103CA000A1E0B0E080930C0390930D03A0930E036A
:103CB000B0930F030E3E11F00C949D0E8EEE0E94F9
:103CC0006F0A1093100380910B03823011F40C944F
:103CD000BB0E10F00C94A20E882311F40C94AF0EBE
:103CE000813011F40C94BB0E89EE93E0019711F42E
:103CF0000C948416349B43CF3AE13A95F1F700C017
:103D0000F5CF3DE4B32E4CE4942E913039F58CE49C
:103D1000982E60E088E30E94170860E08FE40E941C
:103D2000170860E08FEC0E941708992049F060E0C6
:103D3000892D0E94170860E080E8890D0E9417080D
:103D400060E08DE40E94170860E08DEC0E94170887
:103D500060E088EB0E941708ADE4BA2E8FE4882E4D
:103D60001BCE913009F49ACE9DE4B92E20E5922E17
:103D7000F5CFDC01CB01FC01F999FECF06C0F2BD05
:103D8000E1BDF89A319600B40D9241505040B8F719
:103D90000895F999FECF92BD81BDF89A992780B513
:103DA0000895DC01CB0103C02D910E94DC1E41501F
:103DB0005040D0F70895262FF999FECF1FBA92BD33
:103DC00081BD20BD0FB6F894FA9AF99A0FBE0196FC
:103DD0000895EE0FFF1F0590F491E02D0994F894DB
:023DE000FFCF13
:103DE20001025A58554E4F45161E26252E363D3E87
:103DF200460206000902000200212B342B4B1C1B39
:103E0200332423044D21222C04093A3C4B2C432118
:103E1200443A4D0409341C4B1C421B433B1C040511
:103E22002C2D1B3E45060321163604031B3A1B04A8
:103E3200073B3C4D432C242D04031B1C3A04044431
:103E42002D432104032A432104051C4D4D4B240418
:103E5200051C21442D31040332322104051C2C1C83
:103E62002D43040321362504033A1B220403214D6A
:103E72002104021A220101080801010001000001C7
:103E820040080808080101010001010101080800B9
:103E920001400101000100000100000000010203D5
:103EA20004050629290D56567E0229282B350A09B2
:103EB2000C0703330D1B1A00349C0C08000B1B3536
:103EC2001A000034331B02030405061011121314E6
:103ED2001E1F2021220B0A090807191817161500A0
:103EE2002C2D2E2F1C2625242339003231303C3A2A
:103EF20000004B000000000000000000000E004D1A
:103F02004850000000000000000000000F00000008
:103F1200000100000000065800006B0000000000D5
:103F220000000000006600747572000000000000CE
:103F3200000000000D0000000076000000000102F9
:103F4200030405FFFF0DFFFF09FF0C0E0F00110810
:103F52000706FFFFFFFFFFFFFFFF0BFFFFFFFFFF54
:103F620010FFFFFFFF0A161E26252E151D242D2CDD
:103F72001C1B232B3445463E3D364D44433C350005
:103F82001A22212A5A4B423B3329003A313201008C
:103F920004030203030202020203040506070001EE
:0C3FA200040404040404020202030303EC
:00000001FF
