:100000000C9434000C9451000C9451000C94510049
:100010000C9451000C9451000C9451000C9451001C
:100020000C9451000C9451000C9451000C9451000C
:100030000C9451000C9451000C9451000C945100FC
:100040000C94B7110C9451000C9451000C94510075
:100050000C9451000C9451000C9451000C945100DC
:100060000C9451000C94510011241FBECFEFD8E026
:10007000DEBFCDBF12E0A0E0B1E0E4EFFBE402C0E0
:1000800005900D92A83FB107D9F723E0A8EFB2E0A1
:1000900001C01D92A834B207E1F70E9401120C942E
:1000A000F8250C94000097B121E030E001C0220F48
:1000B0008A95EAF72095292327B90895CF93DF93EE
:1000C000DC01EB014731510529F4809101018130B8
:1000D00009F4D8C19C91992309F4D4C1FA0131974C
:1000E000E731F10510F00C94B10CE758FF4F0C9478
:1000F000F22590000801EB016102EC027503010496
:100100006C04A3051C06B20696095607D7075608C5
:10011000D1082309F5096E0A050B6D0BFE0BF504DA
:1001200082E09C3199F0892F8F7E833271F0943474
:1001300061F09A3251F0892F8B7F8A3131F081330F
:1001400021F09A5381E0933008F480E088839C91F9
:100150009E3109F445C09C3209F456C09D3209F421
:1001600051C0943309F440C09B32E1F19332B1F1B4
:100170009B31B1F19C31D1F19533A1F19C33A1F1C7
:100180009434D1F19D3491F19A3291F1913281F10F
:10019000923281F19A31A1F1933361F19B3371F184
:1001A000923451F19B3451F1923351F1913351F129
:1001B0009A3351F1963181F0963271F0953261F0B7
:1001C0009E3251F0963341F09D3331F09E3321F051
:1001D000963411F09534D1F49C9354C191E6FCCF40
:1001E00094E5FACF9BE5F8CF9DE5F6CF9EE1F4CFFD
:1001F0009AE4F2CF95E5F0CF92E5EECF9EE4ECCF16
:100200009CE4EACF91E4E8CF99E4E6CF90E0E4CF34
:100210009D3109F4BEC0943209F4B9C0933409F495
:10022000B8C0963109F4B5C09E3109F4AEC096321B
:1002300009F4ABC0953209F4ACC0892F877F8633AF
:1002400009F4A7C02BEB290F223008F4A2C0292FF4
:100250002D7F2C3209F49DC0953309F496C09C3350
:1002600009F493C0943409F494C09D3409F491C006
:100270009C3109F48AC09B3109F485C0833209F4AA
:1002800084C0943309F481C0933309F482C09B3451
:1002900009F47FC09A3109F47CC0923209F477C026
:1002A000913209F476C081E09A3219F0923309F064
:1002B00080E088839C91892F877F853109F473C002
:1002C000943209F46EC0933409F465C09D3309F487
:1002D00078C0953409F46FC084ED890F823008F43A
:1002E0005CC0953309F465C09C3309F46EC0943446
:1002F00009F46DC09D3409F452C09C3109F45FC00B
:100300009B3109F44EC0933209F44DC09B3209F47D
:100310004CC0943309F44BC0933309F44AC09B3367
:1003200009F449C0923409F450C09B3409F445C023
:100330009A3109F44EC0923209F441C0913209F465
:1003400040C0963209F448CF9A32E9F19233E9F18C
:100350009133E9F19A33E9F1963109F43DCF9E31B9
:1003600009F43ACF953209F437CF9E3209F434CFED
:10037000963309F431CF9E3309F42ECF963409F425
:100380002BCF90E029CF85E094CF88E092CF89E011
:1003900090CF81E08ECF95E51FCF91E61DCF9EE1F6
:1003A0001BCF96E119CF9EE017CF92E515CF9DE5C3
:1003B00013CF94E511CF9AE40FCF95E40DCF95E2DA
:1003C0000BCF9EE409CF9DE307CF9BE505CF91E4DA
:1003D00003CF99E401CF84E09534B9F09434A1F0CF
:1003E000892F8B7F8A3181F0923471F09B3461F0D8
:1003F0008FEC890F833040F086EC890F823020F03B
:10040000977F81E0923209F480E088838C91853473
:10041000E1F18E31D1F18D3209F44DC08C3209F405
:1004200048C08B31F1F18533C1F18C3381F18434D3
:1004300071F18D3471F18A3271F1813261F18A3159
:1004400061F1833361F18B3361F1823461F18B347B
:1004500061F1823361F18A3361F1813361F182327A
:1004600061F1863171F0863261F0853251F08E3261
:1004700041F0863331F08D3321F08E3311F0863424
:10048000F1F48C93DF91CF91089584E5FACF82E562
:10049000F8CF8EE1F6CF8AE4F4CF8CE4F2CF8DE58D
:1004A000F0CF8EE4EECF89E0ECCF85E5EACF8BE5A7
:1004B000E8CF89E4E6CF81E4E4CF81E0E2CF80E0D9
:1004C000E0CF84ED890F8230A0F0892F877F8531BE
:1004D00081F0943471F09A3261F0923451F09B348F
:1004E00041F08FEC890F823020F09A5381E09230F6
:1004F00008F480E088839C919E3309F44DC09634C3
:1005000009F44CC0953409F45BC09E3109F448C02D
:100510009C3209F447C09D3209F446C09D3109F46C
:1005200045C0953109F444C0933209F44BC09B3166
:1005300009F44AC0953309F44BC09C3309F44AC00E
:100540009434E1F19D34B1F19A32B1F19132A1F1DB
:100550009A31A1F19333D1F19B3391F1923491F11E
:100560009B3491F1923391F1913391F19A3391F15E
:10057000963109F431CE963209F42ECE953209F433
:100580002BCE9E3209F428CE963309F425CE9D3326
:1005900009F422CE90E020CE96E41ECE95E41CCE47
:1005A0009EE31ACE95E518CE9EE416CE97E014CEC3
:1005B00098E712CE9EE110CE9AE40ECE9CE40CCECB
:1005C00094E50ACE92E508CE9BE506CE9DE504CEE5
:1005D00091E402CE99E400CE892F8F7E833281F0A0
:1005E0008CEB890F823060F09A3251F09A3141F0F1
:1005F000892F8B7F813321F09A5381E0933008F467
:1006000080E088839C919E3109F455C09C3209F4A6
:1006100068C09D3209F463C0953409F456C09C311A
:1006200009F44DC09B3109F448C0933209F445C028
:10063000933309F444C0943409F449C09D3409F457
:1006400040C09A3209F43FC0953309F444C0913256
:10065000D1F19232D1F19A3109F43FC09C3309F4BF
:1006600042C09B33B1F1923491F19B3491F19B32B2
:1006700091F1923391F1913391F19A3391F1943355
:1006800091F1963109F4A8CD963209F4A5CD9532B1
:1006900009F4A2CD9E3209F49FCD963309F49CCD86
:1006A0009D3309F499CD9E3309F496CD963409F41F
:1006B00093CD90E091CD9EE08FCD91E68DCD95E5E7
:1006C0008BCD9EE189CD9AE487CD9DE585CD9CE4D7
:1006D00083CD9EE481CD94E57FCD92E57DCD91E4FF
:1006E0007BCD99E479CD9BE577CD9434B1F09A3206
:1006F000A1F09A3191F0913381F086EC890F82302C
:1007000060F0943341F0892F877F833221F09F7D01
:1007100081E09C3119F482E001C080E088839C91E3
:100720009E3109F452C09C3209F469C09D3209F42B
:1007300064C0933209F44FC09C3109F44AC0953427
:1007400009F445C0933309F444C09B3109F443C014
:10075000953309F442C09C3309F43FC0943409F442
:1007600046C09D34E1F19433E1F19B32F1F19A32CC
:10077000D1F19132C1F19232C1F19A31E1F19B3361
:10078000C1F19234A1F19B34A1F19233A1F19133E3
:10079000A1F19A33A1F1963109F41ECD963209F4F4
:1007A0001BCD953209F418CD9E3209F415CD963340
:1007B00009F412CD9D3309F40FCD9E3309F40CCD0D
:1007C000963409F409CD90E007CD95E405CD92E784
:1007D00003CD9BE601CD94E7FFCC99E6FDCC9EE1ED
:1007E000FBCC9BE5F9CC9AE4F7CC94E5F5CC9CE402
:1007F000F3CC9EE4F1CC92E5EFCC91E4EDCC99E41E
:10080000EBCC943461F09A3251F09B3441F0892F53
:100810008B7F813321F09A5381E0943008F480E09B
:1008200088838C918C3209F455C08D3209F450C004
:100830008633B1F18D33F1F18E33A1F18634A1F11C
:10084000853409F43FC0853389F18C3389F18434D0
:10085000A9F18D3479F18A3279F1813269F18A31E5
:1008600069F1833369F18B3369F1823469F18B3437
:1008700059F1823359F1813359F18A3359F1863173
:1008800009F4FFCD8E3109F4FCCD863209F4F9CD9F
:10089000853209F4F6CD8E3209F4F3CD80E0F1CD46
:1008A0008DE3EFCD86E4EDCD85E4EBCD84E5E9CDB8
:1008B0008BE5E7CD82E5E5CD8AE4E3CD8CE4E1CDBF
:1008C00086E3DFCD8EE4DDCD85E5DBCD8EE3D9CDCE
:1008D00081E4D7CD89E4D5CD9333D9F09232C9F0F4
:1008E00082E09534B9F0943491F09A3281F0892FF6
:1008F0008B7F8A3161F0923451F09B3441F08FEC60
:10090000890F823020F09A5381E0923018F480E011
:1009100001C080E288838C91833309F44AC082321B
:1009200009F449C0833209F448C0853409F447C04A
:100930008E3109F444C08D3209F455C08C3209F46B
:1009400050C08B3109F445C0853309F440C08C3365
:10095000C1F18434B1F18D34B1F18A32B1F1813217
:10096000A1F18A31A1F18B33A1F18234A1F18B3451
:10097000A1F18233A1F18A33A1F18133A1F1863152
:1009800009F47FCD863209F47CCD853209F479CD26
:100990008E3209F476CD863309F473CD8D3309F4A4
:1009A00070CD8E3309F46DCD863409F46ACD80E0C4
:1009B00068CD81E766CD80E764CD8AE362CD84E5CA
:1009C00060CD82E55ECD8EE15CCD8AE45ACD8CE4CB
:1009D00058CD85E556CD8EE454CD8DE552CD8BE5D1
:1009E00050CD89E44ECD81E44CCD9C3161F1923201
:1009F00051F19E3109F483C0963209F480C09531DB
:100A000001F19432F1F09D32E1F09B3109F477C0AD
:100A1000892F877F833209F472C0943309F46FC041
:100A20009D3379F09C3309F46AC0953309F467C0AB
:100A3000923439F086EC890F823018F081E09133DE
:100A400019F480E001C080E488839C919C3109F412
:100A500058C0923209F457C0892F877F853109F435
:100A600058C0943209F45DC084ED890F823008F4D7
:100A70004CC09B3109F44BC0933209F44AC09B32FD
:100A800009F449C0943309F448C0953409F451C0BD
:100A90009D3309F448C09D3409F441C0943409F4ED
:100AA0004EC09334F1F19C3309F44BC0953309F4F3
:100AB00042C09A3109F441C09132A9F19A32A9F1A8
:100AC0009B34A9F19234E9F19B3399F1933399F175
:100AD0009A3399F1913399F1923399F19E3109F456
:100AE0007BCB963209F478CB963309F475CB9E33E1
:100AF00009F472CB963409F46FCB90E06DCB88E0AB
:100B0000A3CF9EE769CB9CE967CB91E665CB96E1E5
:100B100063CB9EE061CB92E55FCB9DE55DCB9EE133
:100B20005BCB95E559CB9EE457CB9DE355CB95E444
:100B300053CB9AE451CB94E54FCB99E44DCB91E460
:100B40004BCB9BE549CB933271F0943461F09A32F0
:100B500051F09B3441F0892F8B7F813321F09A53E0
:100B600081E0943008F480E088839C919C3209F401
:100B700061C09D3209F45CC0943309F449C09B32D2
:100B800009F444C09332D1F19B31C1F19633C1F1E4
:100B90009D3309F43FC09E33A9F19634A9F19533F2
:100BA000A9F19C33A9F19434C9F19D3499F19A3299
:100BB00099F1913289F19232A9F19A3179F1933315
:100BC00079F19B3379F1923479F19B3469F1923365
:100BD00069F1913369F19A3369F1963109F4FCCAEC
:100BE0009E3109F4F9CA963209F4F6CA953209F42D
:100BF000F3CA9E3209F4F0CA90E0EECA9DE5ECCA51
:100C00009DE3EACA96E4E8CA95E4E6CA94E5E4CA34
:100C10009BE5E2CA92E5E0CA9AE4DECA9CE4DCCA3B
:100C200096E3DACA9EE4D8CA95E5D6CA9EE3D4CA4A
:100C300091E4D2CA99E4D0CA892F8F7E8D32D9F03F
:100C40009433C9F09B32B9F09C31A9F0923299F0FB
:100C5000923489F0913379F086EC890F823058F024
:100C60009B3139F0953329F09C3319F081E09332B0
:100C700019F480E801C080E088839C91953109F4E3
:100C800051C084ED890F823008F44AC0943309F4CE
:100C900049C09B3209F448C09C3109F447C09D33D8
:100CA00009F44AC0953409F44BC0943409F44EC099
:100CB0009D34F1F19A32F1F19132F1F19232F1F188
:100CC0009A3109F445C09333C9F19B33C9F1923489
:100CD000D9F19B34B9F19233B9F19133B9F19A3327
:100CE000B9F19B31B9F19533B9F19C33B9F1933234
:100CF000B9F1963109F470CA963209F46DCA953289
:100D000009F46ACA9E3209F467CA963309F464CAC0
:100D10009E3309F461CA963409F45ECA90E05CCA55
:100D200091E65ACA9DE558CA92E556CA9CE454CA4F
:100D30009EE152CA9DE350CA9EE44ECA94E54CCA55
:100D40009AE44ACA95E448CA9BE546CA91E444CA73
:100D500099E442CA96E440CA9DE23ECA9CE23CCA7B
:100D600091E13ACA9C3309F19B31F9F09C3109F4C5
:100D70007FC0943309F47CC09531A9F09E3109F409
:100D800077C0892F8F7E8D3271F08EED890F823082
:100D900050F0923441F0892F8D7F813321F09A53A6
:100DA00081E0923018F480E001C084E088839C9157
:100DB0009C3309F475C09B3109F45CC0953109F48A
:100DC0005BC084ED890F823008F458C09B3209F46F
:100DD0005FC0933209F454C09D3309F457C0953471
:100DE00009F45AC0953309F455C0943409F45AC033
:100DF0009D3409F447C09A3209F446C0913209F48F
:100E000045C0923209F444C09A3109F44DC093337D
:100E100009F440C09B3309F43FC0923409F440C048
:100E20009B34E1F19233E1F19133E1F19A33E1F155
:100E3000963109F4D1C99E3109F4CEC9963209F42C
:100E4000CBC9953209F4C8C99E3209F4C5C9963395
:100E500009F4C2C99E3309F4BFC9963409F4BCC968
:100E6000943309F4B9C99C3109F4B6C990E0B4C906
:100E700080E19CCF96E1B0C99DE5AEC991E6ACC9D1
:100E80009EE0AAC99EE1A8C99DE3A6C99EE4A4C9A3
:100E900092E5A2C994E5A0C99AE49EC995E49CC9CB
:100EA0009BE59AC991E498C999E496C980E09A3380
:100EB00031F09B3119F081E0933409F480E88883A4
:100EC0008C91843309F451C0853209F450C08B31C0
:100ED00009F465C0833409F44CC0853309F44BC070
:100EE0008B3209F44AC0833209F449C08C3309F4C7
:100EF00048C0853109F447C08D3109F446C08432B9
:100F000009F445C08E3309F444C0863409F443C063
:100F1000843409F442C08D3209F441C08C3209F4A2
:100F200040C0813309F43FC08A33E9F18232E9F1EC
:100F30008D3409F4A6CA8B3309F4A3CA823409F4A8
:100F4000A0CA8B3409F49DCA8A3109F49ACA813245
:100F500009F497CA8A3209F494CA823309F491CA0F
:100F6000833309F48ECA80E08CCA86E28ACA8CE395
:100F700088CA81E286CA8EE184CA85E282CA84E296
:100F800080CA8DE17ECA8DE27CCA8CE27ACA85E392
:100F900078CA83E476CA84E474CA82E272CA81E3BE
:100FA00070CA8AE36ECA89E46CCA89E26ACA943458
:100FB000B9F09A32A9F0892F8B7F8A3189F0923467
:100FC00079F09B3469F08FEC890F823048F086EC21
:100FD000890F823028F080E2923219F081E001C05E
:100FE00080E088838C918E3109F444C08D3209F4FD
:100FF00057C08C3209F452C08B3109F447C0853395
:1010000009F440C08C33C1F18434B1F18D34B1F1B5
:101010008A32B1F18132A1F18A31A1F18333A1F198
:101020008B33A1F18234A1F18B34A1F18233A1F190
:101030008A33A1F18133A1F18232A1F18332A1F18E
:10104000863109F41ECA863209F41BCA853209F4B6
:1010500018CA8E3209F415CA863309F412CA8D33C0
:1010600009F40FCA8E3309F40CCA863409F409CA8C
:1010700080E007CA84E505CA82E503CA8EE101CA99
:101080008AE4FFC98CE4FDC985E4FBC98EE4F9C993
:1010900085E5F7C98DE5F5C98BE5F3C989E4F1C9A3
:1010A00081E4EFC98FE2EDC98AE3EBC9892F8F7E16
:1010B000833281F08CEB890F823060F0892F8B7F37
:1010C0008A3141F09A3231F0813321F09A5381E034
:1010D000933008F480E088838C91833209F447C010
:1010E000833309F446C08E3109F445C0853409F4D0
:1010F00044C0853309F443C08C3309F442C08434BE
:1011000009F449C08B3409F444C08A3109F447C05A
:101110008A3209F442C08133C1F18A33A1F18C32A1
:1011200091F18D3291F18D3491F18B3391F18234C3
:1011300091F1813291F1823391F1863109F4A1C9A3
:10114000863209F49EC9853209F49BC98E3209F4AE
:1011500098C9863309F495C98D3309F492C98E3341
:1011600009F48FC9863409F48CC980E08AC986E005
:1011700088C98CE086C98DE584C985E082C984E58B
:1011800080C98BE57EC989E47CC981E47AC98EE196
:1011900078C985E576C98CE474C98AE472C98EE49D
:1011A00070C9943459F09B3449F0892F8F7D8A316E
:1011B00029F09A3219F081E0913309F480E08883B4
:1011C0008C918434D1F18B34B1F18A31D1F18A32EE
:1011D000B1F1813361F18A3341F18C3231F18D32D9
:1011E00031F18D3431F18B3331F1823431F181328F
:1011F00031F1823331F1863109F443C9863209F481
:1012000040C9853209F43DC98E3209F43AC98633A2
:1012100009F437C98E3309F434C9863409F431C965
:10122000853409F42EC980E02CC989E42AC981E4F7
:1012300028C98EE126C985E524C98CE422C98AE43F
:1012400020C984E51EC9943461F09B3451F09A3270
:1012500041F0892F8B7F813321F09A5381E09430C4
:1012600008F480E088838C91863309F443C08E3380
:1012700009F442C0863409F441C08D3309F440C0FA
:10128000853409F445C08D3209F44CC08C3209F420
:101290004BC08533B9F18C33B9F18434E9F18D3425
:1012A00079F18B3279F1843379F1833379F18B33AE
:1012B00079F1823479F18B3469F18A3169F18132C3
:1012C00069F18A3259F1823359F1813359F18A3304
:1012D00059F1863109F4D5C88E3109F4D2C8863265
:1012E00009F4CFC8853209F4CCC88E3209F4C9C8D4
:1012F00080E0C7C88DE3C5C886E4C3C885E4C1C81B
:1013000082E5BFC884E5BDC88BE5BBC886E3B9C824
:101310008EE4B7C885E5B5C88CE4B3C88AE4B1C823
:101320008EE3AFC881E4ADC889E4ABC881E09A33ED
:1013300009F480E088838C918433B9F18532B9F166
:101340008533B9F18631B9F18B31B9F18C33B9F10B
:101350008B32B9F18E33B9F18634B9F18D34B9F1EC
:101360008233B9F18434B9F18D32B9F18C32B9F1EB
:101370008133B9F18A33A9F18232A9F18B3309F4AF
:1013800080C8823409F47DC88B3409F47AC88A3164
:1013900009F477C8813209F474C88A3209F471C833
:1013A000833309F46EC880E06CC886E26AC88CE3B7
:1013B00068C88EE166C88AE564C886E162C882E3CF
:1013C00060C885E25EC883E45CC884E45AC885E3EB
:1013D00058C88DE456C882E254C881E352C88AE3F3
:1013E00050C889E44EC889E24CC8943479F09A32E6
:1013F00069F0892F8B7F8A3149F0813339F086EC8F
:10140000890F833018F081E0933209F480E08883FB
:101410008C918E3109F441C08C3209F45CC08D325C
:1014200009F456C08332E1F18533E9F18C33F1F1EF
:10143000843409F447C08D34E1F18A32E9F1813214
:10144000D9F18A31E1F18233D1F18B33F1F1823478
:10145000C9F18B34D1F18133D9F18A33E1F186318D
:1014600009F40FC8863209F40CC8853209F409C89A
:101470008E3209F406C8863309F403C88D3311F49B
:101480000C9441028E3311F40C944102863411F411
:101490000C94410280E00C94410285E50C944102D9
:1014A0008DE50C94410284E50C9441028BE50C948B
:1014B00041028EE10C9441028AE40C94410282E5DF
:1014C0000C9441028CE40C9441028EE40C94410291
:1014D00081E40C94410289E40C9441029B3479F03C
:1014E000933269F09A3259F0892F8B7F813339F02A
:1014F00086EC890F843018F081E0943409F480E0A0
:1015000088838C91863309F453C08E3309F453C019
:10151000863409F453C08D3309F45FC0823309F473
:1015200050C0853309F450C08C3309F450C0833364
:1015300009F450C08D3409F450C08B3309F450C005
:10154000823409F450C08B3409F44DC0833209F45D
:101550004DC08A3209F44DC0813209F44AC081334A
:1015600009F44AC08A3309F44AC08D3209F444C0F0
:101570008C3209F444C0843409F444C08A3109F43B
:1015800041C0863111F40C9441028E3111F40C9457
:101590004102863211F40C944102853211F40C940C
:1015A00041028E3211F40C94410280E00C9441020D
:1015B0008DE30C94410286E40C94410285E40C9482
:1015C00041028EE30C94410284E50C9441028BE5C8
:1015D0000C94410286E30C94410282E50C94410292
:1015E0008EE40C94410285E50C9441028DE50C9447
:1015F00041028AE40C94410281E40C94410289E4A2
:101600000C9441028CE40C9441029A3261F0892FCF
:101610008B7F8A3141F0943431F0913321F09A5329
:1016200081E0923008F480E088838C918A31E9F17E
:101630008233D9F18E31E1F18D34E9F18132F1F16A
:101640008A32E1F18434E9F18234D9F18B34E1F169
:101650008B33D1F18133D9F18D32C9F18A33D1F194
:101660008C32C1F1863111F40C944102863211F4AE
:101670000C944102853211F40C9441028E3211F423
:101680000C944102863311F40C9441028D3311F411
:101690000C9441028E3311F40C944102863411F4FF
:1016A0000C94410280E00C9441028EE40C944102BF
:1016B00084E50C9441028EE10C9441028AE40C947E
:1016C00041028CE40C94410282E50C94410281E4D5
:1016D0000C94410289E40C944102943489F0892FDE
:1016E0008B7F8A3169F0813359F086EC890F833022
:1016F00038F09A3229F081E8953119F081E001C083
:1017000080E088838C918B3309F45AC08B3409F4C0
:1017100057C08E3109F457C0823209F454C0853164
:1017200009F457C0853309F451C08C3309F451C012
:10173000843409F451C0823409F44EC08A3109F46A
:101740004EC0823309F44BC0813309F44BC08D3253
:1017500009F448C08D3409F448C08A3309F448C0FC
:101760008C3209F445C08A3209F445C0813209F44B
:1017700042C0863111F40C944102863211F40C946B
:101780004102853211F40C9441028E3211F40C9412
:101790004102863311F40C9441028D3311F40C9400
:1017A00041028E3311F40C944102863411F40C94EE
:1017B0004102853411F40C94410280E00C94410202
:1017C0008EE40C94410285E50C94410284E50C946E
:1017D00041028BE50C9441028CE40C94410282E5B9
:1017E0000C94410281E40C9441028EE10C9441027C
:1017F00089E40C9441028AE40C9441029434B9F0D7
:10180000892F8B7F8A3199F0813389F086EC890F9B
:10181000833068F09A3259F0892F8F7E833239F005
:10182000963219F081E0953119F484E001C080E02E
:1018300088839C919B3309F46AC09B3409F467C088
:10184000933309F467C09C3109F464C09E3109F4F4
:1018500085C0953309F461C09B3209F45EC09D34A4
:1018600009F45EC0923209F45EC0892F877F843309
:1018700009F45CC09A3109F45CC0923309F459C090
:10188000943409F459C0923409F456C0913309F4E0
:1018900056C09D3209F453C09A3309F453C09C32A8
:1018A00009F450C09A3209F450C0913209F44DC085
:1018B000933209F44DC09B3109F44AC0963209F4C1
:1018C0004AC0953109F44AC0963111F40C94EC00E9
:1018D000953211F40C94EC009E3211F40C94EC004F
:1018E000963311F40C94EC009D3311F40C94EC003D
:1018F0009E3311F40C94EC00963411F40C94EC002B
:10190000953411F40C94EC0090E00C94EC009EE4FF
:101910000C94EC0095E50C94EC009BE50C94EC0029
:101920009EE10C94EC0096E20C94EC009DE50C9486
:10193000EC0092E50C94EC009CE40C94EC0091E437
:101940000C94EC0099E40C94EC009AE40C94EC00F8
:1019500091E60C94EC009CE10C94EC0094E50C9462
:10196000EC001C920C944202359B06C086B1829515
:10197000817091E08927089581E008956330B1F086
:10198000643031F1623099F521E030E0B90102C0F4
:10199000660F771F8A95E2F7CB0195B1411104C01C
:1019A0008095892385B90895892BFCCF21E030E00B
:1019B000B90102C0660F771F8A95E2F7CB0198B193
:1019C000411104C08095892388B90895892BFCCFE3
:1019D00021E030E0B90102C0660F771F8A95E2F777
:1019E000CB019BB1411104C0809589238BB9089527
:1019F000892BFCCF282F633081F0643081F0623076
:101A000081F493B1892F90E002C0959587952A952E
:101A1000E2F7809590958170089596B1F3CF99B1D2
:101A2000F1CF80E008956330B1F0643031F162307D
:101A300099F521E030E0B90102C0660F771F8A9561
:101A4000E2F7CB0194B1442321F08095892384B936
:101A50000895892BFCCF21E030E0B90102C0660F68
:101A6000771F8A95E2F7CB0197B1442321F0809547
:101A7000892387B90895892BFCCF21E030E0B90193
:101A800002C0660F771F8A95E2F7CB019AB1442313
:101A900021F0809589238AB90895892BFCCF0F9373
:101AA0001F93CF93DF93C62F90E0FC01E451FD4FCD
:101AB00010818C519D4FFC01D08140E0612F8D2F12
:101AC0000E94130D40E0612F8D2F0E94BE0CFAE1A1
:101AD000FA95F1F700C06C2F70E0FB01E152FD4F69
:101AE00066527D4F0081FB01C081602F8C2F0E94C8
:101AF000FA0C8111FACF41E0612F8D2FDF91CF9148
:101B00001F910F910C94130D882331F095E19A9554
:101B1000F1F700008450F8CF0895CF92DF92EF9252
:101B2000FF920F931F93CF93DF93C82FF62E0E943F
:101B3000B40C8111FCCF3C9A80910001880F880F72
:101B40000E94840D3D9A80910001880F880F880FB4
:101B50000E94840D85E00E94530080910001880F4F
:101B6000880F0E94840D10E000E0D1E0CC2ED12C33
:101B7000EE24E394C601002E02C0959587950A9441
:101B8000E2F780FF9AC084E00E945300DE25809136
:101B90000001880F880F0E94840D3D9A80910001FA
:101BA000880F880F880F0E94840D85E00E945300E3
:101BB00080910001880F880F0E94840D0F5F1F4FD6
:101BC00008301105B9F6DD2309F479C084E00E94DC
:101BD000530080910001880F880F0E94840D3D9A68
:101BE00080910001880F880F880F0E94840D85E086
:101BF0000E94530080910001880F880F0E94840D7D
:101C000084E00E94530080910001880F880F0E9499
:101C1000840D3D9A80910001880F880F880F0E94E3
:101C2000840D85E00E94530080910001880F880F89
:101C30000E94840D87EC90E00197F1F700C000004E
:101C4000FF2091F18091010390910101923009F000
:101C50003FC0882311F0C43139F1809100038823FB
:101C600011F0C13109F18091FF02882311F0C231D6
:101C7000D9F08091FD02882311F0C131A9F0809143
:101C8000FE02882311F0CF3179F08091F802882389
:101C9000C1F0C03FB1F001E021E041E061E081E04E
:101CA0000E94C10E1092F802DF91CF911F910F9107
:101CB000FF90EF90DF90CF9008953C9A68CF3C9AC8
:101CC00088CF81E0C03F09F080E08093F802ECCF3C
:101CD000882311F0CD3941F380910003882311F05E
:101CE000C83B11F38091FF02882311F0CA3AE1F258
:101CF0008091FD02882311F0C83BB1F28091FE0271
:101D0000882311F0CB3D81F2C03E71F2C13860F200
:101D100001E021E041E061E081E00E94C10EC4CF1A
:101D200060E080EE0E948D0D60E082E10E948D0DEA
:101D300060E080EE0E948D0D60E08CE70E948D0DCA
:101D40002FEF81EE94E0215080409040E1F700C0F9
:101D5000000060E080EE0E948D0D60E080EF0E9448
:101D60008D0D60E082E10E948D0D60E080EE0E94AA
:101D70008D0D60E080EF0E948D0D60E08CE70C948B
:101D80008D0D0F931F93CF93DF93162FD42FC22F58
:101D9000882331F080910103813079F18230D9F1CB
:101DA000112341F080910003813009F44EC082304C
:101DB00009F459C0DD2341F08091FF02813009F41C
:101DC0006CC0823009F477C0CC2341F08091FD02D1
:101DD000813009F48AC0823009F49DC0002341F0AB
:101DE0008091FE02813009F4B8C0823009F4CBC082
:101DF000DF91CF911F910F9108958091010160E0D3
:101E0000823039F484E10E948D0D82E080930103D9
:101E1000C7CF8DE1F8CF2FEF84E39CE021508040C5
:101E20009040E1F700C000008091010160E0823045
:101E300051F480EF0E948D0D60E084E10E948D0DD1
:101E400010920103ADCF8DE9F9CF8091010160E0DF
:101E5000823039F481E10E948D0D82E0809300038D
:101E6000A9CF88E3F8CF2FEF84E39CE02150804096
:101E70009040E1F700C000008091010160E08230F5
:101E800051F480EF0E948D0D60E081E10E948D0D84
:101E9000109200038FCF88EBF9CF8091010160E0B1
:101EA000823039F482E10E948D0D82E08093FF023E
:101EB0008BCF8AE2F8CF2FEF84E39CE02150804063
:101EC0009040E1F700C000008091010160E08230A5
:101ED00051F480EF0E948D0D60E082E10E948D0D33
:101EE0001092FF0271CF8AEAF9CF8091010160E080
:101EF000823059F480EE0E948D0D60E081E10E94F5
:101F00008D0D82E08093FD0269CF80EE0E948D0DE1
:101F100060E088E3F4CF2FEF84E39CE02150804021
:101F20009040E1F700C000008091010160E0823044
:101F300071F480EE0E948D0D60E080EF0E948D0DA7
:101F400060E081E10E948D0D1092FD0247CF80EE8E
:101F50000E948D0D60E088EBF5CF8091010160E07B
:101F6000823059F480EE0E948D0D60E08FE10E9476
:101F70008D0D82E08093FE023BCF80EE0E948D0D9E
:101F800060E08BE5F4CF2FEF84E39CE021508040AC
:101F90009040E1F700C000008091010160E08230D4
:101FA00071F480EE0E948D0D60E080EF0E948D0D37
:101FB00060E08FE10E948D0D1092FE0219CF80EE3D
:101FC0000E948D0D60E08BEDF5CF61E00C948D0DDE
:101FD0004F925F926F927F928F92AF92CF92EF92D9
:101FE000FF920F931F93CF93DF93CDB7DEB7F82EF9
:101FF000662E142F722E8091FC02882331F02AE184
:102000002A95F1F700C01092FC02002369F080913C
:102010000101823009F0F5C082E10E94E50F809154
:10202000FC028F5F8093FC02EE2069F08091010139
:10203000823009F0E8C084E10E94E50F8091FC0243
:102040008F5F8093FC02CC2069F080910101823087
:1020500009F0DBC081E10E94E50F8091FC028F5FF7
:102060008093FC02AA2081F080910101823009F066
:10207000CEC080EE0E94E50F81E10E94E50F8091C5
:10208000FC028F5F8093FC02882081F08091010127
:10209000823009F0C1C080EE0E94E50F8FE10E94FE
:1020A000E50F8091FC028F5F8093FC028091FC021F
:1020B000882331F08AE18A95F1F700C01092FC0282
:1020C000772019F080EE0E94E50F812F0E94E50F26
:1020D0009FEF21EE84E0915020408040E1F700C066
:1020E0000000772019F080EE0E94E50F8091010139
:1020F000823019F480EF0E94E50F80910101823057
:1021000009F08FC0812F0E94E50F712C4F2C512CAC
:10211000F30195E0F99EE00DF11D1124E95FFC4FFC
:102120001082002359F080910101823009F07CC0B7
:1021300080EF0E94E50F82E10E94E50FEE2059F04A
:1021400080910101823009F071C080EF0E94E50F9B
:1021500084E10E94E50FCC2059F08091010182308A
:1021600009F066C080EF0E94E50F81E10E94E50F53
:10217000AA2071F080910101823009F05BC080EEED
:102180000E94E50F80EF0E94E50F81E10E94E50FBC
:10219000882071F080910101823009F050C080EEFA
:1021A0000E94E50F80EF0E94E50F81E10E94E50F9C
:1021B0002FEF81EE94E0215080409040E1F700C085
:1021C000000001E021E041E061E081E00E94C10EF9
:1021D00085E0849DF001859DF00D1124E95FFC4FA1
:1021E000E60DF71D1082DF91CF911F910F91FF90A7
:1021F000EF90CF90AF908F907F906F905F904F90C7
:1022000008958AE20ACF8DE117CF88E324CF80EECC
:102210000E94E50F88E331CF80EE0E94E50F8BE549
:102220003ECF80E8810F6FCF8AEA86CF8DE991CFCC
:1022300088EB9CCF80EE0E94E50F88EBA7CF80EE65
:102240000E94E50F88EBB2CF0F931F93CF93DF93DC
:10225000EC0180913D0390913E03892BA1F460E055
:1022600080EF0E948D0D60E082E10E948D0D109242
:10227000200360E080EF0E948D0D60E084E10E9409
:102280008D0D10922B032FEF81EE94E021508040B2
:102290009040E1F700C0000089E20E94E50FEFEFF7
:1022A000F1EE24E0E150F0402040E1F700C00000F2
:1022B00080EF0E94E50F89E20E94E50F8FEF91EE1B
:1022C000E4E081509040E040E1F700C0000089E484
:1022D0000E94E50FFFEF21EE84E0F15020408040A6
:1022E000E1F700C0000080EF0E94E50F89E40E9442
:1022F000E50F8E010F5F1F4F888190E098012C1B26
:102300003D0B821793074CF19FEFE1EEF4E0915003
:10231000E040F040E1F700C00000F80181918F013A
:102320000E94E50FFFEF21EE84E0F1502040804055
:10233000E1F700C0000080EF0E94E50FF80131973F
:1023400080810E94E50F9FEFE1EEF4E09150E040C4
:10235000F040E1F700C00000CFCFC80FD91F89813E
:1023600080930001DF91CF911F910F9108951F92EB
:102370000F920FB60F9211242F933F938F939F9339
:10238000AF93BF938091440390914503A09146037E
:10239000B09147033091430323E0230F2D3758F5C5
:1023A0000196A11DB11D2093430380934403909394
:1023B0004503A0934603B093470380913F03909158
:1023C0004003A0914103B09142030196A11DB11DAC
:1023D00080933F0390934003A0934103B093420343
:1023E000BF91AF919F918F913F912F910F900FBE11
:1023F0000F901F90189526E8230F0296A11DB11D7E
:10240000D2CFCF93DF93CDB7DEB766970FB6F894F0
:10241000DEBF0FBECDBF789484B5826084BD84B525
:10242000816084BD85B5826085BD85B5816085BDCF
:1024300080916E00816080936E0010928100809187
:10244000810082608093810080918100816080930F
:102450008100809180008160809380008091B10034
:1024600084608093B1008091B00081608093B0005F
:1024700080917A00846080937A0080917A008260F3
:1024800080937A0080917A00816080937A008091B5
:102490007A00806880937A001092C10080E880936F
:1024A0006100109261004498459884E00E945300B6
:1024B00085E00E945300259A2D9841E063E082E078
:1024C0000E94130D41E063E082E00E94BE0C41E0F7
:1024D00063E083E00E94130D41E063E083E00E942B
:1024E000BE0C74EEC72E72E0D72EEAEDEE2EE2E0BF
:1024F000FE2E2FED32E0398B288BA889B9890D91FA
:10250000B98BA88BF70111917F0141E0602F812FDA
:102510000E94130D41E0602F812F0E94BE0C28897C
:102520003989C216D30649F704EE12E08CEE92E028
:102530009F878E87AE85BF856D91BF87AE8741E04F
:10254000F80181918F010E94130D2E853F85245F34
:10255000324081F785E0E2E0F1E0DE01169601907D
:102560000D928A95E1F745E050E070E060E0CE0121
:1025700001960E94C225DE011196FE0136969F014A
:1025800081E0EA8BFB8B4D919191491380E02A17F2
:102590003B07C9F7882309F45CC185E090E00E94FD
:1025A000D22590E01092FA021092F90221E00097F1
:1025B00021F081309105C9F424E020930001853099
:1025C0009105C9F424E0209300018A309105C9F4F3
:1025D00024E02093000181319105C9F424E0209387
:1025E000000184319105C9F455C082309105C9F4C8
:1025F00024E02093000186309105C9F424E0209363
:1026000000018B309105D1F424E0209300018C303F
:102610009105D9F424E02093000185319105E1F47E
:1026200039C083309105E9F424E02093000187301C
:10263000910509F0E3C024E0209300018E3091055C
:1026400009F0E3C024E0209300018D30910509F0EA
:10265000E3C024E0209300018631910509F0E3C036
:1026600019C08430910509F0AACF24E0209300011D
:102670008930910509F0A9CF24E020930001803131
:10268000910509F0A8CF24E0209300018331910542
:1026900009F0A7CF24E02093000190933E0380939C
:1026A0003D0386E090E00E94D225823008F080E071
:1026B0008093020311E00E94B40C20913D033091FD
:1026C0003E038823B1F02731310599F480913C0312
:1026D00081110C9438258091380390913903A09191
:1026E0003A03B0913B03892B8A2B8B2B11F00C946E
:1026F00038258091380390913903A0913A03B09125
:102700003B030097A105B10509F0E3C0273131056E
:1027100089F580913503882369F180913303909185
:1027200034039C012F5F3F4F3093340320933303D6
:10273000893E934020F4809101018230D9F4809148
:102740003103909132039C012F5F3F4F309332034E
:10275000209331038739910568F08091300381110E
:102760000E94E50F809135030E94E50F109232031D
:102770001092310310922F0356EF652E52E0752E02
:1027800064EF462E62E0562EF12CF301E1903F01FA
:10279000D2010D912D016E2D802F0E94FA0C8823FD
:1027A00009F4CFC0B5E3BA95F1F700006E2D802F84
:1027B0000E94FA0C882309F4C4C080913D039091D3
:1027C0003E03F11092C08230910518F00A970297EB
:1027D00090F4809101014FE3813009F043E0812CB6
:1027E000A12CCC24C394EE24E39400E020E064E028
:1027F00084E00E94E80FFF24F394C7CF883091054E
:1028000009F036CF24E0209300018F30910509F0C4
:1028100036CF26E0209300018231910509F036CFB2
:1028200024E0209300018731910509F036CF24E0A0
:102830002093000121E020933C0310923803109272
:10284000390310923A0310923B0322E020930101D6
:1028500024CF45E050E070E060E08A899B890E94C7
:10286000DA2560E085E090E00E94E42561E086E002
:1028700090E00E94E4251ECF8AEF0E94E50F0C94A1
:102880002725823F09F18F3F11F00C9438258AEA01
:102890000E94E50F10923C030C943825809136037A
:1028A000803F11F00C943825809101010E94E50FC2
:1028B0000C94382590913603903F11F00C943825F4
:1028C000809301010C9438258BEA0E94E50F83E880
:1028D000EDCF0197A109B109809338039093390393
:1028E000A0933A03B0933B0311CF009769F09C018A
:1028F000245031092230310538F02450310922307A
:10290000310510F00F9791F48091010146E4813078
:1029100009F04EE7812CA12CCC24C394EE24E3943F
:1029200000E020E064E082E00E94E80F80913D0337
:1029300090913E03029711F40E94900EE1E0E09323
:102940002F03F1E0FF1257CF80912F0381115EC05A
:1029500027E0C22E23E0D22E34EE832E32E0932ED7
:102960004CEEE42E42E0F42ED7015D907D01F4019F
:1029700001914F0140E0652D802F0E94130D40E032
:10298000652D802F0E94BE0CFAE1FA95F1F700C088
:1029900036012AED32E03C872B879FEDA92E92E08D
:1029A000B92ED5013D905D01EB85FC854190FC87FA
:1029B000EB87632D842D0E94FA0C882309F44CC008
:1029C000F5E3FA95F1F70000632D842D0E94FA0CCF
:1029D000D3018823D9F18C9180FF34C082608C931D
:1029E000FFEF6F1A7F0A28893989A216B306C9F644
:1029F00041E0652D802F0E94130D35E0C30ED11CE0
:102A00008E859F858E159F0509F0AECF80910603B8
:102A1000882349F147E053E028E030E090E080E08F
:102A2000FA01E80FF91F608160FD31E00196853001
:102A30009105B1F721504B5F5F4F2111EFCF3093DC
:102A4000060382CF8160F3018083CACF8C9180FF1F
:102A5000C7CF8C7F8460C3CFF301808180FFC0CF5C
:102A60008C7F8460F1CF80910503811105C0809136
:102A70000403882309F426C18091200382FF10C03B
:102A80001092200380913D0390913E03892B41F4E5
:102A900060E080EF0E948D0D60E082E10E948D0D6C
:102AA00080912B0382FF10C010922B0380913D0375
:102AB00090913E03892B41F460E080EF0E948D0DE0
:102AC00060E084E10E948D0DA7E04A2EA3E05A2E1B
:102AD000BAE82B2EB2E03B2E712C612C02E0B02E16
:102AE00085E0982ED12CC12C80910503882309F410
:102AF000ABC5F201EC0DFD1D808180FFA5C5969C44
:102B0000C001979C900D11248E549D4FC80ED91E64
:102B1000D6018C9110920503823309F46FC5D0F56C
:102B2000833209F4B1C358F4813209F48FC382327D
:102B300009F4D2C410932F0310930303B2C08A3256
:102B400009F403C48133B1F78091010143E5813079
:102B500009F041E7812CA12CCC24C394EE24E3940A
:102B600000E021E063E087E00E94E80F80913D03F0
:102B700090913E03479709F094C010933C03109244
:102B800038031092390310923A0310923B03B0922B
:102B9000010187C0853309F444C5A0F5833309F4E6
:102BA00096C3843339F680913D0390913E0300979C
:102BB00069F09C01245031092230310538F024504D
:102BC00031092230310510F00F9791F48091010105
:102BD00046E4813009F04EE7812CA12CCC24C3942B
:102BE000EE24E39400E020E064E082E00E94E80F3D
:102BF00080913D0390913E03029709F052C00E94DC
:102C0000900E4FC08C3309F441C0843409F092CF48
:102C100080913D0390913E03059709F5812CA12CED
:102C2000C12CE12C00E020E047E061E084E00E945C
:102C3000E80F82E10E94E50FAFEFB3EDE0E3A150B2
:102C4000B040E040E1F700C0000080EF0E94E50FD7
:102C500082E10E94E50F10932F03109303038091EC
:102C60003D0390913E030297E1F48091010148E514
:102C7000813009F047E0812CA12CCC24C394EE24B0
:102C8000E39400E020E064E084E0C8C4109304030F
:102C9000BFEFE4E3FCE0B150E040F040E1F700C0FA
:102CA0000000FFEF6F1A7F0A25E0420E511C35E04D
:102CB000230E311C88E06816710409F013CF91E0EF
:102CC00090932F0380912F0381110C94421F8091C8
:102CD000200380FD02C00C94421F80912B0380FDD5
:102CE00002C00C94421F8091030381110C949C1E1E
:102CF0008091140380FF10C0A1E0A0930503A0936E
:102D00002F03A0930603BFEFE4E3FCE0B150E040E3
:102D1000F040E1F700C000008091210380FF1CC05B
:102D200080913D0390913E03892B21F48091020311
:102D3000882391F080910103811101C081E080938B
:102D4000010300E020E040E060E081E00E94C10E6D
:102D500061E085E00E944F0D8091230380FF1CC03D
:102D600080913D0390913E03892B21F480910203D1
:102D7000882391F080910003811101C081E080934C
:102D8000000300E020E040E061E080E00E94C10E2E
:102D900063E085E00E944F0D8091110380FF1CC00D
:102DA00080913D0390913E03892B21F48091020391
:102DB000882391F08091FF02811101C081E080930E
:102DC000FF0200E020E041E060E080E00E94C10EF0
:102DD00060E082E00E944F0D8091220380FF1CC0C2
:102DE00080913D0390913E03892B21F48091020351
:102DF000882391F08091FE02811101C081E08093CF
:102E0000FE0201E020E040E060E080E00E94C10EB0
:102E100062E085E00E944F0D80912C0380FF1CC072
:102E200080913D0390913E03892B21F48091020310
:102E3000882391F08091FD02811101C081E080938F
:102E4000FD0200E021E040E060E080E00E94C10E71
:102E500062E087E00E944F0D8091070380FF1FC052
:102E600080913D0390913E03892B21F480910203D0
:102E70008823A9F08090FE02A090FD02C09000037C
:102E8000E09001030091FF02809101014BE381304A
:102E900009F045E020E060E080E00E94E80F8091CA
:102EA000080380FF1FC080913D0390913E03892B52
:102EB00021F4809102038823A9F08090FE02A09063
:102EC000FD02C0900003E09001030091FF02809199
:102ED00001014CE3813009F046E020E061E080E050
:102EE0000E94E80F8091090380FF1FC080913D037D
:102EF00090913E03892B21F4809102038823A9F04D
:102F00008090FE02A090FD02C0900003E0900103BB
:102F10000091FF02809101014DE3813009F044E00E
:102F200020E062E080E00E94E80F80910A0380FFC9
:102F30001FC080913D0390913E03892B21F4809125
:102F400002038823A9F08090FE02A090FD02C090A9
:102F50000003E09001030091FF02809101014EE324
:102F6000813009F04CE020E063E080E00E94E80F4F
:102F700080910B0380FF1FC080913D0390913E0321
:102F8000892B21F4809102038823A9F08090FE020E
:102F9000A090FD02C0900003E09001030091FF02A9
:102FA000809101014FE3813009F043E020E064E0CB
:102FB00080E00E94E80F80911A0380FF1FC080917B
:102FC0003D0390913E03892B21F4809102038823D5
:102FD000A9F08090FE02A090FD02C0900003E09056
:102FE00001030091FF028091010140E4813009F06A
:102FF0004BE020E064E083E00E94E80F8091190339
:1030000080FF1FC080913D0390913E03892B21F4E6
:10301000809102038823A9F08090FE02A090FD0217
:10302000C0900003E09001030091FF028091010134
:1030300041E4813009F043E820E063E083E00E944E
:10304000E80F8091180380FF1FC080913D0390918D
:103050003E03892B21F4809102038823A9F08090FC
:10306000FE02A090FD02C0900003E09001030091D9
:10307000FF028091010142E4813009F04AE020E042
:1030800062E083E00E94E80F80911703482F4170AF
:1030900080FF1EC080913D0390913E03892B21F457
:1030A000809102038823A1F08090FE02A090FD028F
:1030B000C0900003E09001030091FF0280910101A4
:1030C000813009F443E420E061E083E00E94E80FEE
:1030D0008091160380FF1FC080913D0390913E03B5
:1030E000892B21F4809102038823A9F08090FE02AD
:1030F000A090FD02C0900003E09001030091FF0248
:103100008091010144E4813009F049E020E060E071
:1031100083E00E94E80F80910C0380FF1FC0809124
:103120003D0390913E03892B21F480910203882373
:10313000A9F08090FE02A090FD02C0900003E090F4
:1031400001030091FF028091010147E5813009F000
:1031500048E720E060E081E00E94E80F80910D03E5
:1031600080FF1FC080913D0390913E03892B21F485
:10317000809102038823A9F08090FE02A090FD02B6
:10318000C0900003E09001030091FF0280910101D3
:1031900048E5813009F047E020E061E081E00E94ED
:1031A000E80F8091120380FF1FC080913D03909132
:1031B0003E03892B21F4809102038823A9F080909B
:1031C000FE02A090FD02C0900003E0900103009178
:1031D000FF028091010146E5813009F041E620E0DF
:1031E00061E082E00E94E80F80911D0380FF3AC3F6
:1031F00080913D0390913E03009729F420910203B2
:10320000222309F42FC38090FE02A090FD02C090FB
:103210000003E09001030091FF0221E0833191055A
:1032200009F020E0309101014AE3313009F416C37E
:103230008830910509F411C38E30910509F40DC34E
:1032400048E5439709F00AC34FE208C380913D0364
:1032500090913E038B30910519F00397029750F43B
:103260001092FA0281E09091F902911180E080932E
:10327000F90260CC1092F90281E09091FA0291116A
:1032800080E08093FA0256CC80913D0390913E03FA
:10329000892B09F006CD81E090910203911180E025
:1032A0008093020360E080EF0E948D0D60E082E178
:1032B0000E948D0D1092200360E080EF0E948D0D22
:1032C00060E084E10E948D0D10922B0333CC80913D
:1032D0003D0390913E03049709F0E3CC8AE00E94FD
:1032E000E50F2FEF30E782E0215030408040E1F7DA
:1032F00000C0000089E00E94E50F9FEFA0E7B2E068
:103300009150A040B040E1F700C0000080EF0E9463
:10331000E50F89E00E94E50FEFEFF3ED20E3E150C8
:10332000F0402040E1F700C0000080EF0E94E50F70
:103330008AE00E94E50F3FEF80E792E03150804045
:103340009040E1F700C00000F5CB80910101823090
:1033500009F0A7CC80913D0390913E03892B81F425
:1033600080EF0E94E50F82E10E94E50F109220039A
:1033700080EF0E94E50F84E10E94E50F10922B037D
:1033800089E20E94E50FFFEF20E732E0F150204094
:103390003040E1F700C0000080EF0E94E50F89E2B5
:1033A0000E94E50FF1E1CF2EF1E0DF2EF12CE12CB0
:1033B00082E0E816F10421F094E0E916F104D9F472
:1033C000AFEFB0E7E2E0A150B040E040E1F700C06D
:1033D000000089E40E94E50FFFEF20E732E0F150A2
:1033E00020403040E1F700C0000080EF0E94E50F70
:1033F00089E40E94E50F8FEF90E7A2E081509040B2
:10340000A040E1F700C00000D601ED916D01F0E0B1
:10341000E95FFE4F0081802F0E94E50FBFEFE0E7DC
:10342000F2E0B150E040F040E1F700C0000080EF72
:103430000E94E50F802F0E94E50F2FEF30E782E01A
:10344000215030408040E1F700C000009FEFE91AB2
:10345000F90AA8E0EA16F10409F0AACF89E20E946D
:10346000E50FBFEFE0E7F2E0B150E040F040E1F7F8
:1034700000C0000080EF0E94E50F89E20E94E50F86
:103480008DE20E94E50F2FEF30E782E021503040BF
:103490008040E1F700C0000080EF0E94E50F8DE260
:1034A0000E94E50F9FEFA0E7B2E09150A040B0402E
:1034B000E1F700C000008EE10E94E50FEFEFF0E7BA
:1034C00022E0E150F0402040E1F700C0000080EF32
:1034D0000E94E50F8EE12DCF80913D0390913E0338
:1034E000892BA1F460E080EF0E948D0D60E082E105
:1034F0000E948D0D1092200360E080EF0E948D0DE0
:1035000060E084E10E948D0D10922B0360913D03D9
:1035100085E090E00E94E4256091020386E090E05F
:103520000E94E42580910101823009F003CBAFEFC6
:10353000B0E7E2E0A150B040E040E1F700C0000099
:1035400089E20E94E50FFFEF20E732E0F1502040D2
:103550003040E1F700C0000080EF0E94E50F89E2F3
:103560000E94E50F8FEF90E7A2E081509040A040CD
:10357000E1F700C0000089E40E94E50FBFEFE0E73B
:10358000F2E0B150E040F040E1F700C0000080EF11
:103590000E94E50F89E40E94E50FE9E1EE2EE1E0EB
:1035A000FE2E2FEF30E782E0215030408040E1F7DF
:1035B00000C00000D7010D917D01802F0E94E50F12
:1035C000BFEFE0E7F2E0B150E040F040E1F700C0CB
:1035D000000080EF0E94E50F802F0E94E50F2FEF83
:1035E00030E782E0215030408040E1F700C0000029
:1035F00093E2E91691E0F906A1F69CCA80910101D7
:103600004EE0813009F046E6812CA12CCC24C394F5
:10361000EE24E39400E020E064E087E00E94E80FFD
:1036200040CB80913D0390913E038230910520F084
:103630000A97049708F035CB809101014FE3813060
:1036400009F419CB43E017CB80910403882309F4D4
:1036500052C0F201EC0DFD1D808180FF4CC0F101D4
:10366000EC0DFD1DE0800E2C000CFF0800913D03C9
:10367000A0903E031092FA021092F9028EEB91E0B4
:10368000E114F10431F0A1E0EA16F104E9F589EB67
:1036900091E00E94241125E0E216F104E9F583EAA5
:1036A00091E00E942411BAE0EB16F104E9F582E8FA
:1036B00091E00E94241181E1E816F104E9F587E523
:1036C00091E00E942411F4E1EF16F104E9F587E39B
:1036D00091E00E942411A7E1EA16F10414F4B092DB
:1036E000010110932F031093030310920403F0922F
:1036F0003E03E0923D03BFEFCB1ADB0AE5E0CE16B6
:10370000D10409F0F1C9CDCAB2E0EB16F10419F504
:1037100084EB91E00E94241136E0E316F10419F5E0
:1037200089E991E00E942411EBE0EE16F10421F505
:1037300089E791E00E9424119CE0E916F10429F543
:1037400081E591E00E94241125E1E216F10431F5B2
:1037500081E391E0BECFE3E0EE16F10439F58FEAA4
:1037600091E00E94241187E0E816F10409F04AC0B4
:1037700082E991E00E942411FEE0EF16F10409F0C5
:1037800049C084E791E00E942411ADE0EA16F104FB
:1037900009F048C08BE491E00E94241136E1E31661
:1037A000F10409F047C089E291E093CFF4E0EF160D
:1037B000F10409F070CF88EA91E00E942411A9E099
:1037C000EA16F10409F06FCF87E891E00E94241116
:1037D00030E1E316F10409F06ECF82E691E00E9439
:1037E0002411E3E1EE16F10409F06DCF8FE391E0CF
:1037F0000E9424119FEFE916F90609F06CCFE02E24
:10380000FA2C3CCF98E0E916F104C9F68DE891E076
:103810000E9424112FE0E216F104D1F68DE691E02A
:103820000E942411B2E1EB16F104D9F685E491E08F
:103830000E94241187E1E816F104E1F610933C039D
:10384000109238031092390310923A0310923B03FE
:10385000B092010183E291E03CCF47E762E084E06F
:103860000E94E80F80911C0380FF1FC080913D03E0
:1038700090913E03892B21F4809102038823A9F0C3
:103880008090FE02A090FD02C0900003E090010332
:103890000091FF02809101014AE1813009F044E585
:1038A00020E061E084E00E94E80F80911B0380FF2C
:1038B0001FC080913D0390913E03892B21F480919C
:1038C00002038823A9F08090FE02A090FD02C09020
:1038D0000003E09001030091FF02809101014BE1A0
:1038E000813009F04BE520E060E084E00E94E80FC1
:1038F00080910E0380FF1FC080913D0390913E0395
:10390000892B21F4809102038823A9F08090FE0284
:10391000A090FD02C0900003E09001030091FF021F
:103920008091010147E3813009F04CE720E062E03B
:1039300081E00E94E80F80910F0380FF1FC08091FB
:103940003D0390913E03892B21F48091020388234B
:10395000A9F08090FE02A090FD02C0900003E090CC
:1039600001030091FF02809101014AE4813009F0D6
:103970004BE720E063E081E00E94E80F80911303B1
:1039800080FF1FC080913D0390913E03892B21F45D
:10399000809102038823A9F08090FE02A090FD028E
:1039A000C0900003E09001030091FF0280910101AB
:1039B0004EE4813009F049E720E062E082E00E94B5
:1039C000E80F8091100380FF15C080913D03909116
:1039D0003E03892B21F480910203882359F00E9431
:1039E000900E01E021E041E061E081E00E94C10E23
:1039F0001092100380911F0380FF1FC080913D0330
:103A000090913E03892B21F4809102038823A9F031
:103A10008090FE02A090FD02C0900003E0900103A0
:103A20000091FF028091010146E4813009F04EE7E8
:103A300020E064E084E00E94E80F80911E0380FF94
:103A40003CC080913D0390913E03892B21F48091ED
:103A50000203882391F160E081EE0E948D0D60E009
:103A600084E10E948D0D60E087E70E948D0D60E08B
:103A700081EE0E948D0D60E080EF0E948D0D60E070
:103A800084E10E948D0D60E080EF0E948D0D60E06A
:103A900087E70E948D0D2FEF31EE84E021503040FA
:103AA0008040E1F700C0000001E021E041E061E07A
:103AB00081E00E94C10E10921E038091150380FFC9
:103AC0001FC080913D0390913E03892B21F480918A
:103AD00002038823A9F08090FE02A090FD02C0900E
:103AE0000003E09001030091FF028091010142E593
:103AF000813009F040E721E064E082E00E94E80FB5
:103B00008091290380FF1FC080913D0390913E0367
:103B1000892B21F4809102038823A9F08090FE0272
:103B2000A090FD02C0900003E09001030091FF020D
:103B30008091010147E4813009F04CE621E064E026
:103B400086E00E94E80F8091280380FF1FC08091CB
:103B50003D0390913E03892B21F480910203882339
:103B6000A9F08090FE02A090FD02C0900003E090BA
:103B700001030091FF028091010149E4813009F0C5
:103B80004DE721E063E086E00E94E80F8091240386
:103B900080FF1FC080913D0390913E03892B21F44B
:103BA000809102038823A9F08090FE02A090FD027C
:103BB000C0900003E09001030091FF028091010199
:103BC00043E5813009F041E721E064E085E00E94AF
:103BD000E80F80912E0380FF1FC080913D039091DC
:103BE0003E03892B21F4809102038823A9F0809061
:103BF000FE02A090FD02C0900003E090010300913E
:103C0000FF02809101014FE4813009F049E621E093
:103C100064E087E00E94E80F80912D0380FF1FC0C1
:103C200080913D0390913E03892B21F48091020302
:103C30008823A9F08090FE02A090FD02C0900003AE
:103C4000E09001030091FF028091010141E5813084
:103C500009F04AE721E063E087E00E94E80F8091E5
:103C6000270380FF1FC080913D0390913E03892B65
:103C700021F4809102038823A9F08090FE02A09095
:103C8000FD02C0900003E09001030091FF028091CB
:103C9000010147E2813009F04CE420E062E086E077
:103CA0000E94E80F8091260380FF1FC080913D0392
:103CB00090913E03892B21F4809102038823A9F07F
:103CC0008090FE02A090FD02C0900003E0900103EE
:103CD0000091FF028091010148E2813009F042E544
:103CE00020E061E086E00E94E80F8091250380FFDC
:103CF0001FC080913D0390913E03892B21F4809158
:103D000002038823A9F08090FE02A090FD02C090DB
:103D10000003E09001030091FF02809101014BE25A
:103D2000813009F04DE520E060E086E00E94E80F78
:103D300080912F0381119CC090912003892F817065
:103D400020913D0330913E03232B09F09EC020912A
:103D5000020321119AC0882379F091FD0DC082E100
:103D60000E94E50F80912003826080932003809160
:103D7000FC028F5F8093FC0280912B0380FF0FC0B9
:103D800081FD0DC084E10E94E50F80912B038260CC
:103D900080932B038091FC028F5F8093FC028091C3
:103DA000200382FF0DC080EF0E94E50F82E10E9498
:103DB000E50F109220038091FC028F5F8093FC023C
:103DC00080912B0382FF0DC080EF0E94E50F84E1FC
:103DD0000E94E50F10922B038091FC028F5F80936D
:103DE000FC028091FC02882331F09AE19A95F1F768
:103DF00000C01092FC0262EBE62E62E0F62E77E045
:103E0000A72E73E0B72E3501D12CC12C4301D3016D
:103E10008C9180FF08C081FD06C0F701EC0DFD1DEF
:103E200080810E94E50FBFEF6B1A7B0AF40180814D
:103E300082FF0CC080EF0E94E50FF701EC0DFD1D25
:103E400080810E94E50FF30131971082FFEFCF1AB6
:103E5000DF0A25E0C216D104C9F635E0E30EF11CF5
:103E600085E0A80EB11CAAEDB2E0AE15BF0559F66B
:103E700080E090E0892B11F40C945B130E94000009
:103E80000C945B131092030353CF3091FB0231115A
:103E900054C0882311F091FF06C080912B0380FF4E
:103EA00016C081FD14C047E053E020E090E080E0C0
:103EB0002530A9F5811137C0019685309105C1F7EC
:103EC0002F5F4B5F5F4F283089F73093FB02E7E0AD
:103ED000F3E0FC87EB8700E0B12C2B853C85275075
:103EE000334079012B843C84C12C35E0B3122EC0C1
:103EF000C11032C0C394BFEF2B1A3B0AEFEFEE1A8A
:103F0000FE0AF5E0CF12F1CFB3942B853C852B5FF1
:103F10003F4F3C872B8738E0B312DFCFA9CF273044
:103F200011F4813049F2FA01E80FF91F6081762F10
:103F3000717060FFC1CF372FC3CF8111C8CF80917F
:103F40002B0380FDC4CF1092FB02C1CF87E0B812D3
:103F500003C091E0C91671F2D1018C9180FF07C2B4
:103F600081FD05C29091FB0291110EC0909120033A
:103F700090FF02C088608C9380912B0380FF04C067
:103F8000F101808180618083D1018C9183FF4DC0DC
:103F900084FD4BC020910101F701223029F5EE5933
:103FA000FD4FD080109234031092330310923003EF
:103FB00080913D0390913E03B6E0DB1218C0AC0146
:103FC0004C5051094230510508F467C18A309105BF
:103FD00009F062C557E2D52EE6E0BE120DC0C11051
:103FE0000BC04DE0D42E72C5E65CFD4FDACF8A30AF
:103FF000910591F3469781F3D11051C5223009F014
:104000004EC182E10E94E50F82E1809330038091EE
:104010000101F701823009F047C1EE54FD4FD08015
:104020008D2D0E94E50FD0923503D1018C9184FF34
:10403000FCC0B82FB870BD8783FDF7C080903D03EA
:1040400090903E0319821092340310923303109221
:104050003003D0900101E1E0DE1229C1F701EE5EEC
:10406000FD4F80818E838114910409F45EC1A40107
:10407000BE016F5F7F4F8A899B890E945E008E819F
:10408000882309F4D2C0F7E18F16910409F013C117
:1040900021E0D21210C1F701E651FE4F80818E83DC
:1040A000F701EE53FE4F9081392F31703C8B892FF1
:1040B0008870582E907480E0D12CA12C712C412C4A
:1040C000612C2E81222309F4B0C09111AEC0882347
:1040D00051F182E10E94E50F84E50E94E50F2FEF88
:1040E00039EF80E0215030408040E1F700C000000F
:1040F00080EF0E94E50F84E50E94E50F9FEFA9EF96
:10410000B0E09150A040B040E1F700C0000082E173
:104110000E94E50FEFEFF9EF20E0E150F040204082
:10412000E1F700C000003C89332359F08091010180
:10413000823009F0F3C082E10E94E50F82E18093B2
:1041400030038D85882351F080910101823091F4F4
:1041500084E10E94E50F84E180933003442051F014
:1041600080910101823031F481E10E94E50F81E10B
:1041700080933003552061F060E080EE0E948D0D49
:1041800080910101823009F0CEC081E10E94E50FEB
:10419000662059F080910101823039F460E080EEB0
:1041A0000E948D0D84E10E94E50F772021F060E0F0
:1041B00080EE0E948D0DAA2021F182E10E94E50F80
:1041C0008AE50E94E50F9FEFA1EEB4E09150A04078
:1041D000B040E1F700C0000080EF0E94E50F8AE5E3
:1041E0000E94E50F80EF0E94E50F82E10E94E50F3B
:1041F000EFEFF1EE24E0E150F0402040E1F700C0A5
:104200000000DD2061F08EE00E94E50F3FEF81EEBF
:1042100094E0315080409040E1F700C000008E8172
:104220000E94E50F8E8180933503D1018C918871B6
:1042300009F099C08091FA0290910101811105C0A5
:104240002091F902222309F4FEC010923403109247
:10425000330310923003923009F0D0C0F701EE54CE
:10426000FD4F0081043409F4C1C00D3409F4C0C00D
:10427000053109F4BFC00C3109F4BEC00A3309F09E
:1042800060C0811108C080913D0390913E0300E71A
:104290000B9709F05BC009E259C0D12CABCE8AE282
:1042A0000E94E50F8AE2B1CEEE5EFD4FB8CEF70177
:1042B000EE54FD4FD6CE8981982F91709C8B81FB57
:1042C000AA27A0F9AD8782FB442440F883FB55243C
:1042D00050F884FB662460F885FB772470F886FB31
:1042E000992790F9A12CBDE08B16910421F4A82EFA
:1042F000AA1CAA24AA1CD12CEAE08E16910421F44F
:10430000D82EDD1CDD24DD1C881F8827881FF5E1E1
:104310008F16910409F4D5CE80E0D3CE8AE20E94B4
:10432000E50F8AE20CCF88E331CFF701EE54FD4F61
:1043300080818E8384E10E94E50F84E180933003C5
:104340006ECF093209F042C081110AE300933503B0
:1043500080913003882319F080EE0E94E50F809150
:1043600035030E94E50FF101808182608083D101D5
:104370008C9182FFBFCD83FF96C084FD94C02091B5
:104380000101F701223009F070C0EE59FD4FD080D5
:104390001092350380913D0390913E03B6E0DB120D
:1043A00067C0AC014C5051094230510508F43BC183
:1043B0008A30910509F0A5C337E2D32EE6E0BE129C
:1043C0005EC0C1105CC09DE0D92EB2C30B3639F07F
:1043D000043729F0053719F0023709F0B7CF8823E1
:1043E00009F4B4CF80EE80933003B0CF0BE6F7CF63
:1043F00004E7F5CF05E7F3CF02E7F1CF913009F0FD
:10440000A5CFF701EE5EFD4F0081083191F0093133
:1044100091F0003191F00E3191F0023391F00B34B4
:1044200009F30D34F9F20834E9F2003509F08ECFC2
:10443000D9CF0BE4D7CF0DE4D5CF08E4D3CF00E537
:10444000D1CF09E383CF1092340310923303F701E5
:10445000923041F4EE54FD4F8081809335031092E9
:1044600030037DCFEE5EFD4FF7CFE65CFD4F8FCF83
:104470008A30910509F4A2CF469709F49FCFD11055
:1044800043C3223009F0D1C080EF0E94E50FF7014D
:10449000EE54FD4F80810E94E50F80EF0E94E50FF2
:1044A00082E10E94E50FD1018C9184FF53C1B82FA6
:1044B000B870DB2E83FD4EC180903D0390903E038B
:1044C000198210923503F701EE54FD4F80818E83DF
:1044D0008114910409F4A9C1A401BE016F5F7F4F4B
:1044E0008A899B890E945E008E81882309F432C1EB
:1044F000E7E18E16910409F0A4C08091010181309A
:1045000009F09FC0F701E651FE4F80818E83F701CD
:10451000EE53FE4F9081F92FF170FD87292F2870FF
:10452000622E9074912CA12C30E040E0512C712C23
:10453000412C8E81882309F40DC120910101911134
:10454000B9C0223009F0B0C0332349F0FFEF21EEAB
:1045500034E0F15020403040E1F700C00000442337
:1045600021F060E080EE0E948D0D80EF0E94E50F4B
:104570008E810E94E50FAA2031F080EF0E94E50FA6
:104580008EE00E94E50F992031F080EF0E94E50F48
:1045900082E10E94E50F8D85882359F08091010109
:1045A000823009F083C080EF0E94E50F82E10E9413
:1045B000E50F442051F080910101823091F480EFA9
:1045C0000E94E50F84E10E94E50F552051F0809193
:1045D0000101823031F480EF0E94E50F81E10E94F9
:1045E000E50F662071F080EE0E94E50F80910101D9
:1045F000823009F05DC080EF0E94E50F81E10E94EA
:10460000E50F772009F4A6C080910101823009F0FE
:10461000A1C080EE0E94E50F80EF0E94E50F84E1CB
:104620000E94E50F97C0D12C27CFF701EE5EFD4F1A
:10463000808180580E94E50F8AEA33CF80E88D0D93
:1046400030CF8981382F31703D8781FB442440F879
:1046500082FB552450F883FB662460F884FB7724A2
:1046600070F885FB442740F986FB992790F930E0E4
:10467000ADE08A16910421F4382F331F3327331FFE
:10468000A12CBAE08B16910421F4A82EAA1CAA240E
:10469000AA1CE5E18E16910429F4982E991C992400
:1046A000991C47CF912C45CF805873CF8AEA7FCF92
:1046B00088EBA5CF8E3709F081C0223009F058C2AF
:1046C000E4E79E2EF2E7AF2E59E6D52E8091010148
:1046D000823009F03FC0AD2DAA0DBB27BB1FCD0115
:1046E000890D911D892BB1F160E081E10E948D0D52
:1046F000DD2061F060E08D2D0E948D0D60E080EF87
:104700000E948D0D60E08D2D0E948D0DAA2061F01C
:1047100060E08A2D0E948D0D60E080EF0E948D0D7B
:1047200060E08A2D0E948D0D992061F060E0892D56
:104730000E948D0D60E080EF0E948D0D60E0892D5C
:104740000E948D0D60E080EF0E948D0D60E081E1A0
:104750000E948D0DF1018081887109F093C08091D4
:10476000FA0290910101811105C02091F9022223E2
:1047700009F4AEC010923503923009F065C0F7011C
:10478000EE54FD4F0081043409F48DC00D3409F45A
:104790008CC0053109F48BC00C3109F48AC00A338E
:1047A00009F048C0811108C080913D0390913E03FB
:1047B00000E70B9709F042C009E240C0912CA12C00
:1047C0008C3909F083CF223009F05EC164E7962E60
:1047D00073E7A72E79CF8CE4A82E60E088E30E94CF
:1047E0008D0D60E08FE40E948D0D60E08FEC0E94E3
:1047F0008D0DAA2049F060E08A2D0E948D0D60E0A9
:1048000080E88A0D0E948D0D60E08DE40E948D0D80
:1048100060E08DEC0E948D0D60E088EB0E948D0DB4
:10482000ADE49A2E2FE4D22E51CF80EF0E94E50FF7
:104830008E81F0CE093249F581110AE380EF0E94A2
:10484000E50F802F0E94E50F809101018130D1F4A6
:10485000F701EE5EFD4F0081083169F1093181F108
:10486000003181F10E3181F1023381F10B3421F1FC
:104870000D3411F1083401F10035F1F080E8800FBA
:104880000E94E50FD1011C9235CB0B3631F0043775
:1048900021F0053711F0023789F6882379F280EE8E
:1048A0000E94E50FCBCF0BE6F8CF04E7F6CF05E784
:1048B000F4CF02E7F2CF0BE480EE0E94E50FDECFEB
:1048C0000DE4FACF08E4F8CF00E5F6CF09E3D6CF40
:1048D000923091F480EF0E94E50FF701EE54FD4F06
:1048E000D0808D2D0E94E50F80913503D81201C034
:1048F00080E080933503C6CFF701EE5EFD4FD08098
:1049000080E88D0DEFCF809137038093360386B119
:10491000082F007184FDFBCF359BFECF80910001F5
:10492000880F880F0E94840D3D9A80910001880FA6
:10493000880F880F0E94840D85E00E9453008091AB
:104940000001880F880F0E94840DF12CE12CDD24DA
:10495000D394349B0AC081E090E00E2C01C0880FF4
:104960000A94EAF7082BB1E0DB2680910001880F5A
:10497000880F0E94840D3D9A80910001880F880F56
:10498000880F0E94840D85E00E94530080910001F1
:10499000880F880F0E94840DEFEFEE1AFE0AF8E0F0
:1049A000EF16F104B1F686B1829581708D8B1E8A67
:1049B0002D893E89D216130609F05AC08091000154
:1049C000880F880F0E94840D3D9A80910001880F06
:1049D000880F880F0E94840D85E00E94530080910B
:1049E0000001880F880F0E94840D3C9A809100017D
:1049F000880F880F0E94840D3D9A80910001880FD6
:104A0000880F880F0E94840D85E00E94530084E087
:104A10000E9453008FE891E00197F1F700C0000079
:104A20000093370380EA96E8A1E0B0E08093380372
:104A300090933903A0933A03B0933B030E3E11F0D9
:104A40000C943C148EEE0E94E50F10933C03809171
:104A50003703823011F40C945A1410F00C94411462
:104A6000882311F40C944E14813011F40C945A14D0
:104A700089EE93E0019709F4FBC9349B44CFAAE186
:104A8000AA95F1F700C0F6CF213009F4A4CE3DE499
:104A9000932E4CE4A42EC6CE469709F49DCA22302C
:104AA000A9F4FBE6DF1661F024E7D21649F035E7FA
:104AB000D31631F082E7D81619F097E2D91206C062
:104AC00080EE0E94E50F80EE80933003809101011B
:104AD000813009F0A5CAABE4DA1661F0BDE4DB165B
:104AE00049F0E8E4DE1631F0F0E5DF1619F02CE5C8
:104AF000D21296CA80EE0E94E50F80EE80933003BA
:104B00008FCA469709F45ACC223091F4FBE6DF169F
:104B100061F024E7D21649F035E7D31631F082E789
:104B2000D81619F097E2D91203C080EE0E94E50F63
:104B300080910101813091F4ABE4DA1661F0BDE4BB
:104B4000DB1649F0E8E4DE1631F0F0E5DF1619F087
:104B50002CE5D21203C080EE0E94E50F8091010186
:104B6000823009F06BCD80EF0E94E50F8D2D99CC3E
:104B70008DE4982E90E5A92E213009F053CEB0E5B2
:104B8000AB2E2BCEDC01CB01FC01F999FECF06C088
:104B9000F2BDE1BDF89A319600B40D9241505040FB
:104BA000B8F70895F999FECF92BD81BDF89A99277B
:104BB00080B50895DC01CB0103C02D910E94E5254D
:104BC00041505040D0F70895262FF999FECF1FBAD3
:104BD00092BD81BD20BD0FB6F894FA9AF99A0FBE26
:104BE00001960895EE0FFF1F0590F491E02D0994B2
:044BF000F894FFCF67
:104BF40001025A58554E4F45161E26252E363D3E67
:104C0400460205000902000201212B342B4B1C1B18
:104C1400332423044D21222C040624312C242D4D2D
:104C240004044B353122040624341E45454504044E
:104C3400214D242C04041C2C443A04041A223E164C
:104C440004041A223E4504093A3C4B2C4321443ABD
:104C54004D0409341C4B1C421B433B1C04052C2DE6
:104C64001B3E45060321163604073B3C4D432C24CA
:104C74002D04031B1C3A0404442D432104032A433A
:104C84002104051C4D4D4B240408244B24212C2DB8
:104C94004431040332322104051C2C1C2D4304032B
:104CA40021362504033A1B220403214D2104021A50
:104CB4002201010808010100010000014008080860
:104CC400080101010001010101080800014001017E
:104CD4000001000001000000000102030405062990
:104CE400290D56567E0229282B350A090C07033351
:104CF4000D1B1A00349C0C08000B1B351A000034E1
:104D0400331B020304050610111213141E1F202165
:104D1400220B0A0908071918171615002C2D2E2F17
:104D24001C2625242339003231303C3A00004B0044
:104D34000000000000000000000E004D485000007C
:104D440000000000000000000F000000000100004F
:104D54000000065800006B00000000000000000086
:104D6400006600747572000000000000000000007E
:104D7400000000000076000000000001020304FFB0
:104D8400FF0EFFFF09FF0D0F101708070605FFFFB1
:104D94000CFFFFFFFFFF0BFFFF14131211FFFF15A2
:104DA400160A161E26252E151D242D2C1C1B232BFE
:104DB4003445463E3D364D44433C35001A22212AB3
:104DC4005A4B423B3329003A3132010004030203B7
:104DD400030202020203040506070001040404049A
:084DE4000404020202030303B0
:00000001FF
